:020000040800F2
:2000000000C00020C14700082530000827300008293000082B3000082D300008000000000B
:20002000000000000000000000000000453100082F30000800000000D7310008E7310008AB
:200040000548000805480008054800080548000805480008054800080548000805480008F8
:20006000C52F00080548000805480008054800080548000805480008054800080548000831
:200080000548000805480008054800080548000805480008054800080548000805480008B8
:2000A000054800080548000805480008054800080548000805480008054800080548000898
:2000C000054800080548000805480008054800080548000805480008054800080548000878
:2000E000054800080548000805480008054800080548000805480008054800080548000858
:20010000054800080548000805480008054800080548000805480008054800080548000837
:200120000548000800000000000000000000000000000000000000005FF808F110B5054C04
:20014000237833B9044B13B10448AFF300800123237010BD5801002000000000BC76000860
:2001600008B5034B1BB103490348AFF3008008BD000000005C010020BC7600082DE9F0412C
:200180000022012703260B6807FA02FE3EEA03032BD1036891F804C0540006FA04F86FEAED
:2001A000080523EA08080CFA04F30CF1FF3C43EA0803BCF1010F03600ED883682B404D7986
:2001C000A5401D43856083889BB223EA0E058B7993409BB22B438380C36806FA04F523EAB7
:2001E0000505CB79A3402B43C3600132102ACAD1BDE8F08113B56C460B46024603C884E8D5
:20020000030093E8030082E8030094E8030083E8030002B010BD0148704700BF087E000837
:2002200000487047117E0008014B5869704700BF40000020EFF310832BB9EFF31180003841
:2002400018BF012070470120704710B5034653E8000F00EA01028A4203D0BFF32F8F0020A3
:2002600005E020EA010243E8002404B1EFE710BD10B5034653E8000F084203D1BFF32F8FFF
:20028000002005E020EA010243E8002404B1F1E710BD10B402F00104920705D40C300CB17D
:2002A00010BCD2E710BCE3E7C06801EA000224B18A4218BF002010BC7047002A08BF0020E2
:2002C000F9E710B578B10378F32B0CD100290ADB00F10C0353E8000F20EA010243E8002426
:2002E00004B1F7E710BD6FF00300FBE7014B187A704700BF400000204FF47A7070474FF083
:20030000E0220D4BD868936913B152690132D31A0A4A5268520107D54FF0E022936913B16A
:2003200052690132D31A01304FF0E022526902FB00001844704700BF4000002000ED00E0B9
:20034000004870470048E80108B5EFF3058313B16FF0050008BDFFF76DFF0028F8D1DFF82F
:2003600008C000DFF6E700BFF313000808B5EFF3058313B14FF47A7008BDFFF75BFF0028D7
:20038000F8D1DFF808C000DFF6E700BFF902000808B5EFF3058313B1BDE80840AFE7FFF713
:2003A00049FF0028F8D1DFF808C000DF08BD00BFFF02000808B5EFF305830BB1044808BD05
:2003C000FFF738FF0028F9D1DFF808C000DFF6E70048E80141030008034610B588B1084394
:2003E00010F007000DD117290AD9102219600839CC189C605A60C85099684A60D860012053
:2004000010BD0020FCE70346F0B588B159B30F3121F0070100F108073C463F686568381B37
:2004200025F00305401B814203D938680028F3D1F0BD5E681D680E445E602B4453F8040C47
:20044000083B864288BF5E60636811431BB9616004F10800ECE723F00303E018E75041601F
:2004600020600830E4E70846E2E710B5D0E85F3F5A1C914200D80022C0E8542F04B1F5E7C8
:2004800098B210BD10B591F9202083681BB193F92040944205DAC1E90230816003B1D960B4
:2004A00010BD18469B68F1E70346806882689A6002B1D3600023C3607047C2682AB183684E
:2004C000936003B1DA600023C360704710B504465CB12378F12B06D0FFF7EFFF0146204604
:2004E000BDE81040CEE7E468F2E710BD0123014643700148C6E700BF5C00002010B5D0E993
:200500000431C469621C0CD103B1596142691AB113610023436101E0074A13630023C36110
:2005200010BD1BB1DA6959612244DA614269002AEED1014AD362F1E740000020012310B54F
:20054000094A437090F92010536A1C321BB193F920408C4205DCC0E90232906003B1D860B1
:2005600010BD1A469B68F1E7400000200223C2784370520758BF032383F31488BFF36F8FA9
:20058000014B9861704700BF4000002010B5134B04461A7A596998B9022A1DD15C6ADCB1BF
:2005A00094F9202091F920309A4215DD2046FFF784FF0846FFF7C2FF2046BDE81040D5E7CB
:2005C000022A05D190F9202091F920309A42F0DC2046BDE8104089E710BD00BF4000002017
:2005E00010B51446836B1962FFF788FF14B1BDE81040CBE7BDE8104078E770B505468468DA
:2006000004B970BD616A284694F82320A668FFF740FE014628B12046FFF74FFF0022FFF7C4
:20062000DFFF3446ECE7F8B5064670B30378F32B2BD1002929DB00F10C0353E8002F42EA1B
:20064000010443E8004000B1F7E7B56825B92846FFF79CFF2046F8BD696A304695F823206D
:20066000AF68FFF716FE014668B195F823309B0756BF6C6A044620EA04042846FFF71DFFB0
:200680000022FFF7ADFF3D46E0E76FF00304E1E72DE9F0410446002601270CB9BDE8F08164
:2006A000E378D4F814801B0712D5A36826767BB12046FFF7F9FE002205461146FFF790FF07
:2006C000EB6AC4E90356636103B11C61EC6227764446E2E7284B70B55A690446002A41D0AC
:2006E000002842D00378F52B3FD1037E002B3FD0C16891423CD1013BDBB2037613BB436995
:200700000BB1016919612169F1B14B6192F92130D56ADDB982F82030A36883B12046FFF74B
:20072000C3FE06462A462946FFF75AFFF36AC4E90365636103B11C610123F46223760020E4
:20074000FFF724FF00200FE0D362DFE7E978890706D5A96821B191F920108B42B8BF0B4678
:200760006D69D6E74FF0FF3070BD6FF00300FBE76FF00200F8E700BF4000002038B51D4C52
:200780000246237A022B33D1606A98B163695A704A1C15D10021226B6AB94FF0FF30C3E963
:2007A0000421D86151B10B611348FFF77DFEFFF7DDFE012038BD11461269EDE72363F3E7B4
:2007C0000020E26A12B1D569A9420BD2C3E90420D96158B10361002AE6D0D0695361411A45
:2007E000D161E1E71046491B1269EBE7E362F2E70020DFE7400000205C000020014608B514
:2008000038B11320FFF7BAFF80F00100C0B2404208BD6FF00300FBE7F8B50D4617461E46DE
:200820000446C0B10378F32B15D1002913DBFFF730FD90B996B131464320FFF79FFF38B15D
:20084000084B20465969FFF71DFE4D6281F823706FF0010001E06FF00300F8BD6FF0020098
:20086000FBE700BF40000020224B70B55D6904460E46002D35D0002836D00378F52B33D182
:20088000037E53B9C0E90353EB6A436103B118610123EC620020237670BDC278D10706D561
:2008A000C168A94203D1FF2B21D00133F2E7F6B193070AD5E06895F9203090F920209A423D
:2008C00003DA80F82030FFF701FE31465320FFF755FF18B129462046FFF7D4FD6FF0010085
:2008E000DAE74FF0FF30D7E76FF00300D4E76FF00200D1E74000002008B58847DFF804C04E
:2009000000DFFEE7012E000810B543780446332B15D190F82330416A03F001029B0708D4D4
:2009200028301AB1FFF791FC48B10BE0FFF7A0FCFAE7806A01EA000312B19942F4D010BDB3
:20094000002BFCD0014600222046BDE8104047E610B50446806918B100221146FFF740FE41
:200960006378232B02BF0022A3689A6110BD002230B50B4D6B6C13B11C698C420AD9C0E9BF
:20098000022301611BB11C699860611A19612AB1D06030BD1A46091BDB68ECE76864F8E755
:2009A00040000020C36810B52BB104691A69816822441A61996082680AB1D36010BD014A68
:2009C0005364FBE74000002038B50D460446B0B10378F22B13D191B14378022B08D1416112
:2009E000FFF7E0FF20462946FFF7C1FF002038BD064B1B6D33B1022343706161F2E76FF0F3
:200A00000300F4E76FF00200F1E700BF4000002008B558B10278F22A08D14278022A08D1AC
:200A200001224270FFF7BEFF002008BD6FF00300FBE76FF00200F8E740B10378F22B04D167
:200A40004078831E58425841704700207047024608B5EFF305830BB1002008BDFFF7EAFB91
:200A60000028F9D11046DFF808C000DFF5E700BF390A00084FF40062014B00201A83704765
:200A8000000002402AB1012A06D0022A05D10B6800E0034B036000E001600020704700BF5B
:200AA000D47600081AB1012A04D000207047024B0360FAE70160F8E7DC7600081AB1012A22
:200AC00004D000207047024B0360FAE70160F8E7E476000870477047704710B508234FF0E4
:200AE00004014FF48044084A10F0800F03F1FF3351834FEA400014BF1483548313F0FF0350
:200B0000C0B21183F0D110BD000402400F4B1A6822F004021A605A6822F004025A600C4AA3
:200B2000D2F8001441F00401C2F80014996821F004019960D96821F00401D960D2F80C3429
:200B400043F00403C2F80C34704700BF000401400000014030B5E0B1C3688B4219D803699A
:200B6000994216D200F114031A680A60BFF35F8F53E8002F0C689442F6D143E8001505B1AD
:200B8000F2E7043050E8003F5A1E40E8002101B1F8E730BD30B588B181B17AB173B10024CF
:200BA000C0E9014202FB01F41D190160C360436105611846013902D1A21A995030BD8518F9
:200BC00005602846F6E750E8003F5A1C40E8002101B1F8E7704710B590B100F1140353E89E
:200BE000004F14B9BFF32F8F04E0226843E8002101B1F4E714B10430FFF7E5FF204610BD1C
:200C00000446FBE710B5044650B10368D4E9020218B1102A20D0002010BD002AFBD11C4634
:200C20000F4BD3F8900080B1FFF7D5FF0028F2D00123F322837000230270C0E90143C37039
:200C4000C360084A064B5A66E6E701221021D3F88000FFF7D8FBE9E71C460023E9E700BFF5
:200C600040000020FB05000838B5034650B3D0E90054D3E9020318B11C2B21D0002038BDEF
:200C8000002BFBD1114BD3F8940030B901221C21D3F88000FFF7B7FB01E0FFF79CFF0028CC
:200CA000ECD00123F5228370002304F00F04C0E90233C0E904330270C47045600376DEE7D9
:200CC0000023EFE705460446DCE700BF40000020F8B50E4617461C46054608B90020F8BD03
:200CE0000129FBD8C3B1D4E902021B6888B1202AF4D11C4600234FF4F97283700023C0E905
:200D00000657C0E90233C0E904330280C6704460E5E7002AE2D11C46084BD3F88C0028B1CE
:200D2000FFF759FF0028D9D00123E4E701222021D3F88000FFF767FBF4E700BF40000020A4
:200D4000036B30B4B3B10024CD78DA78AA4209D31A46C1E901245AB1916074B161602830F1
:200D600030BC30E75A681C46002AF2D01346ECE7C162F2E7C1E90133C1620163EFE730B518
:200D800078B171B10023A1F1080400F10802944208D1626822F003054268521B42603BB90C
:200DA000636030BD15681346002DFAD02A46EEE751F8082C1A60F4E72DE9F04F85B0CDE95F
:200DC000010120B90024204605B0BDE8F08F002A00F08B80D2E9018408F00603062BF1D07D
:200DE000D368002C7ED0502BECD1D2E904B5BBF1000F04D01BF0070FE4D1002DE2D097694E
:200E0000D2F800A0002F77D07A1E372ADAD818F0060F08BF48F0020835B16B07D2D1524A8A
:200E2000A5F148019142CDD8504E002C6DD1D6F88800002862D0FFF7CEFE04460028C1D0DE
:200E40004FF00109BBF1000F12D1002D75D1D6F8840000285CD0FFF7BEFE002873D08346AC
:200E60004FF4406549F0100949F00209002CA9D040F2F1122280FD220021019B62846563EE
:200E80003B4A403D7FB208F00F085D44A563E363C4E90211C4E90411C4E90611C4E9091114
:200EA000C4E90B1B84F8029084F80380C4F804A084F8207084F82170CBF80020A36B38228E
:200EC000184605F031F92B4A2B4B82634FF08072C263029A0262019A426220463366FFF73B
:200EE00055FB70E7002B80D06CE79246934614461827154690468AE7182788E7012250214F
:200F0000D6F88000FFF77FFA97E74FF0000999E72A464FF44061706FFFF775FA4FF440654E
:200F2000F0B9B9F1000F1DD0D6F8882072B121461046FFF70FFE002496E75A462946706F7A
:200F4000FFF761FAECE74FF44065EAE72146D6F880000392FFF713FF039A1446934683E728
:200F6000834681E74C467FE7B7FFFF7F40000020A52E5AE2F90800080909000870B5054612
:200F800038B30378F32B24D1836863B12846FFF78BFA6FF002010022FFF722FBA868002821
:200FA000F4D1FFF7F3FA0026AB782E7013F0010008D0094B2946D3F8904024B12046FFF737
:200FC000C9FD304670BDD3F88000FFF7D8FE2046F8E76FF00300F5E74000002070B504463F
:200FE00000284AD00378F52B47D1037EC3B16369C0680BB122691A6122690AB3536190F9CC
:201000002120C36AF3B990F92030934203D080F82020FFF75BFAA06800BB2076FFF7B6FA33
:201020000026A078267010F0010008D0144B2146D3F89450DDB12846FFF78CFD304670BD70
:20104000C362DCE7D978890706D5996821B191F920108A42B8BF0A465B69D3E72046FFF7F2
:2010600023FA6FF002010022FFF7BAFAD3E7D3F88000FFF784FE2846E1E76FF00300DEE74B
:201080004000002010B5C378044613F0010320D1038083789A0708D513F0100F016B124BC7
:2010A0000ED0D3F88400FFF755FDA378DB071AD50D4B2146D3F8880030B1BDE8104049E5B9
:2010C000586FFFF75CFEF0E7D3F88000BDE8104055E6042343700023034AC360536B836099
:2010E00003B1D860546310BD4000002070B50546E8B10378F22B1AD14378022B01D1FFF7E4
:2011000051FC0026AB782E8013F0010008D0094B2946D3F88C4024B12046FFF71BFD304696
:2011200070BDD3F88000FFF72AFE2046F8E76FF00300F5E740000020006810B103685B68DF
:201140001847704708B5836801460BB10322984708BD10B50446FFF7F5FF204610BDF8B52C
:20116000817804468568002935D04368C66873B39D60A2686AB35360002706F10C052146A5
:2011800028462770FFF7E6FCB368002B46D02846FFF721FD0446002840D03046FFF784F929
:2011A00005463A463946FFF71BFAAD6B726A696A04F10C0004F090FFF92321463046237003
:2011C000A770AB6A2035E370BDE8F840B8E5F562CFE73363D0E7AB68EBB15B78832B1AD14C
:2011E0002846FFF761F906460A46FFF7F9F9B66B6A6A04F10C01706A04F06EFFB36A203608
:201200000BB1E2781A7000232370214605F10C00BDE8F8409EE421462846D5E7F8BD2DE954
:20122000F0410C4690461F460546002841D00378FA2B3ED100293CD08368B3B15B78832BB8
:2012400013D1FFF731F9064601220021FFF7C8F9B66B21466A6A706A04F03EFFB06A10B101
:2012600080F800800020BDE8F08105F10C00FFF7B2FC064678B121466A6A0C3004F02CFF8F
:201280000024F923314628463370B47086F80380FFF756FDE6E77FB139469320FFF76EFA8B
:2012A00020B1074B28465969FFF7ECF86FF00100D9E76FF00300D6E76FF00200D3E700BFE8
:2012C00040000020F8B59C460D461746044600286BD00378FA2B68D1002966D000F128036E
:2012E00053E8002F12B9BFF32F8F04E0501E43E8000606B1F4E712B10122E66A7EB9BCF11A
:20130000000F55D061468320FFF738FA20B12D4B20465969FFF7B6F86FF0010023E0B01CE3
:20132000D0E84F3FC0E8412F01B1F9E7DBB2002B41D0B668E2E79A60B268AAB1536028467D
:20134000626A06F10C0104F0C7FE0FB1F3783B70002504F10C07314638463570FFF7FAFB7C
:20136000A3681BB90020F8BD2363E8E73846FFF732FC06460028F5D02046FFF795F8074653
:2013800029460122FFF72CF9BF6B626A796A06F10C0004F0A1FEF923B5703370BB6A3146B1
:2013A0002046F370FFF7CCFCDCE76FF00300DAE76FF00200D7E7D6E90132002BBBD1E262B4
:2013C000BAE700BF4000002010B50446082103F003FE204610BD10B504460C2103F0FCFDC6
:2013E000204610BD10B50446082103F0F5FD204610BD38B51F4C217A01292FD0B1BB9C2224
:2014000004F1080004F090FE1B4B1C4DE3651023A4F8543005234FF4004128462364FEF74D
:20142000DBFF08B1C4F8805000210846FEF7D4FFB0B9D4F88030002108466367FEF7CCFF78
:2014400080B9D4F8803000210846A367FEF7C4FF50B9D4F88030E36701232372002038BD09
:201460000023E8E70023EEE70023F4E74FF0FF30F5E700BF40000020C00100200802002010
:2014800010B50446024B036004F01FFC204610BDF476000810B50446FFF7F2FF2046042158
:2014A00003F09AFD204610BD10B50446024B036004F00BFC204610BD1C77000810B50446D8
:2014C000FFF7F2FF2046042103F086FD204610BD036810B53BB1BFF35B8F1B7ABFF35B8F08
:2014E0000BB904F009F904689CB12268EFF3058333B9FEF79FFE18B91046DFF818C000DF52
:20150000201DFFF719FE2046BDE810400C2103F063BD10BD592E000810B5046844B12046FE
:20152000FFF7D6FF2046BDE81040042103F054BD10BD406810B503689B689847DFF824C01A
:2015400000DFFEE7012909D103F0F9FD04F054F9044603F01DFE204602F0D2FB03F0EFFD3D
:2015600004F0CAF8012E000838B5054C04F10805236903B9FEE7284663699847F8E700BF5A
:201580007801002038B52A4C237A012B03D04FF0FF35284638BD0021264A2748FFF70CFCDF
:2015A000A06200F055F805460028F0D1234AE16C2348FFF701FCA0640028E8D0FF23214A2F
:2015C000214982F8223092F82230D26863F0FF03DB4314BFB3FA83F32023C2F30222C3F186
:2015E0002003934298BF531CFE2202FA03F3154ADBB2D377FF2382F823304FF0E02306228C
:201600001A6147F6FF425A6100229A6181F840204FF0FF3222611A690C4842F001021A61A6
:20162000FEF742FFFEF7A2FF02232372B1E700BF400000203C77000869150008607700084D
:201640009D16000800ED00E0C00100205C00002038B5FA230C4C00252370082304F10C005F
:20166000C4E9093514220421084BC4E90155C4E90B556580FFF78EFA054B064A28461A67CF
:20168000054ADC641A6538BD088200203C820020400000205F110008412B0008044607B56D
:2016A0000A4DEFF30583002BFBD1FEF7C3FD02460028F6D1204669464FF0FF33AC4600DF2F
:2016C0000028EED1DDE900309847EAE7C5120008002313B5ADF80630064BDC692243DA61A2
:2016E00040F2013300916946ADF80430FEF746FD02B010BD003802400B4600F1080202608C
:2017000070B553F8084BA3420FD11C4601F1180554F8046BAC4242F8046BF9D10B60002326
:201720004A680B7242604B6070BD8A6804608260F4E708B50B68002B02DA0C4804F068F90D
:2017400093420AD9B3EB420F4FEA420005D20028B6BF6FF0004308600B600868013001D507
:2017600004F050F9BDE8084004F08CB81C7E00080068013103F030BC024652F8081B914264
:2017800002D08168FFF7F4BF7047406801F100410139091A914208B502D2184604F038F90F
:2017A00008BD012A30B403D10B78037030BC7047002AFBD030BC04F08FBC521AFFF7F1BFB6
:2017C00073B5044616460D4619B912B10D4804F01CF9731B0F2B019307D90022204601A987
:2017E000FFF7A7FF019B2060A360324629462068FFF7E3FF0021019B22686360D15402B006
:2018000070BD00BF347E000810B5044600F10802026006C94FF000030A44FFF7D1FF20462B
:2018200010BD38B500F108030446036008460D4602F0BEFF4FF000032A1829462046FFF7A6
:20184000BFFF204638BD052A10B504460CDC931D0EDB05320A2A1AD8DFE802F0171513114A
:201860000F0C2022242628006FF000439A4210D00F4900E00F4920460CE00F49FBE70F49C7
:20188000F9E70F49F7E70F49F5E70F49F3E70F49F1E70F49FFF7C5FF204610BD0D49EAE730
:2018A0000D49E8E70D49E6E70D49E4E70D49E2E7108100085E7E00087F7E0008C67E0008D2
:2018C000F87E00080F7F00081F7F00087A7F0008D47F0008028000082680000858800008DA
:2018E0008E800008DD800008063210B50446052A12D8DFE802F00F110D0B0903074920465A
:20190000FFF78FFF204610BD0549F8E70549F6E70549F4E70549F2E70549F0E71E8100089C
:201920002C81000884810008FD8100087A7F0008108100082DE9F3470A9E1F46436801EBD1
:201940000208B21A1A44A3EB08090346019253F8082B0D469A420CBF0F22826801A9044651
:20196000FFF7E7FE82461DB12A462168FFF719FF37B12EB1324639460AEB0500FFF711FF31
:20198000B9F1000F07D0216835444A4641440AEB0500FFF706FF2046FFF7EEFE019BC4F80B
:2019A00000A0A36002B0BDE8F08773B50446234653F8086B40689E420CBF0F23A3688518F0
:2019C0009D420AD812B13044FFF7EBFE00222046236865605A5502B070BD0B4600920146A0
:2019E00000222046FFF7A6FFF0E770B5044608460D4602F0DDFE0646024600212046054BA5
:201A0000FFF7C3FE324629462046BDE87040FFF7CCBF00BF1882000806C9FFF7C6BF08B584
:201A2000034608465B681146984203D90246024803F0F1FF08BD00BF2D820008FFF7C0BE1B
:201A400003688B4206D840681844814294BF00200120704701207047012A30B403D10B7820
:201A6000037030BC7047002AFBD030BC04F042BB2DE9F74F144680460C9D89462A461F46B5
:201A80002146384BFFF781FE424652F8086BD8F8043096420CBF0F22D8F80820A5EB040B33
:201AA00003EB0B0A524550D34E443946A1444046A3EB0909FFF7C4FF80B1B9F1000F06D0D4
:201AC000AC4204D04A4631197019FFF7C5FF0DB32A4639463046FFF764FE1BE02DB1AC42E3
:201AE0003BD32A463046FFF7B7FFB9F1000F11D0AC420FD04A4631197019FFF7ADFFAC42EC
:201B000008D234447B199C420FD32A4639463046FFF7A2FF00224046D8F80030C8F804A017
:201B200003F80A2003B0BDE8F08FBC4203D82A4607EB0B01CEE7E41B224639463046FFF75B
:201B40008BFF2A1B71193019C5E73B462246494640460095FFF7EEFEDCE7B9F1000FD0D0A6
:201B6000C8E700BF648200082DE9F04104460F461546084A1E46FFF752FF62680146D21BCD
:201B8000AA42334628BF2A462046BDE8F041FFF76FBF00BF7D82000807B5536800931368DE
:201BA0000022FFF7E1FF03B05DF804FB73B50546104614460E4602F0FBFD234600900022AA
:201BC00031462846FFF7D0FF02B070BDF0B50027136806468BB00C2017600C46009303F033
:201BE00051FE009B07604360077205461C22394603A8009704F098FA01230293E368019310
:201C00002368059363680693A368ABB10793EFF305821AB9FEF70EFB80B12A60102003F024
:201C200037FA064602F0F0FD4FF0FF310246184B304602F08FFE11E01823E7E72946154873
:201C4000DFF854C001AA00DF28600028E6D068463560FFF771FA30460BB0F0BD30460F4A58
:201C60000F4903F0AFFD044603E00446304603F025FA281DFFF760FA0C21284603F0ACF9A6
:201C80006846FFF759FA204602F03AF80446F7E79682000833150008B90D0008815C000878
:201CA0001C86000830B558488FB005F001F9574B574C0593A56A574B0493002D43D10AA9AE
:201CC00002A80C95FEF796FA049B0C9A0C930492059B0D9A04F120010AA805920D93FEF77F
:201CE00089FA0C9BA26AA3620D9B0C92E26A0AA8E3620D92FFF726FA1022294606A804F028
:201D000013FA0C2003F0BEFD434B0A90036004F1180343600AAA06A901A8FFF757FF0AA894
:201D2000FFF70AFA042003F0ADFD019A256B02600022206301920A92D5B90AA8FFF7ECFB6A
:201D400001A8FFF7C5FB02A8FFF7FCF9102200210AA804F0E9F9082003F094FD10E00446CE
:201D60000AA80D46FFF7E8F902A8FFF7EBF923E02846FFF7ADFB0421284603F02DF9DCE785
:201D8000264B0690036006AA0AA902A8FFF71EFF05E0044601A80D46FFF79AFBE4E706A88A
:201DA000FFF7CAF902A8FFF793FB0FB030BD044606A80D46FFF7C0F920462946022909D1BC
:201DC00003F0BDF903F018FD04460D4603F0E0F920462946012905D001F092FF04460D46F6
:201DE000C2E7EBE703F0ABF903689B68984701460B4805F05DF803F0CBF9D6E7044603F0EF
:201E0000C7F92046E8E700BFA2820008CD26000878010020A50A00088C770008A07700086D
:201E2000AF82000838B551EA000305462AD0002928DBFEF79BFA0446A0FB0505002304FB32
:201E40000151174A02F06AF90246EFF3058373B16FF00505102003F01BF9044602F0D4FCF8
:201E6000294602460F4B204602F074FD0BE0FEF7E1F90028ECD11046DFF82CC000DF0546A6
:201E80000028E7D138BD2046084A094903F09AFC0546204603F012F9284601F031FF00BFDD
:201EA00040420F00B7820008FD070008815C00081C8600082DE9F047D1E90098064620208A
:201EC00014461F4603F0DEFC4FF0000A05460146C0F808A02046FEF78DF9AA68A368E168F4
:201EE000A260EA68C5E90698C5E9031AAB60E2609BB9102003F0CCF8064602F085FC6FF0D1
:201F0000030102462D4B304602F024FD30462C4A2C4903F057FC044644E059EA080314D02D
:201F2000B8F1000F11DA102003F0B2F8064602F06BFC6FF003010246234B304602F00AFD04
:201F400030461F4A1F4903F03DFCEFF3058222B9FEF770F9034670B12A61102003F098F8C4
:201F6000064602F051FC4FF0FF310246174B304602F0F0FC0DE02A461548DFF858C087F049
:201F8000010100DF28610028E7D030463560BDE8F08730460A4A0B4903F014FC04463046F0
:201FA00003F08CF82846FFF7CDF82846202103F013F8204601F0A4FEF0E7EFE7BF820008E5
:201FC000815C00081C860008D7820008F8820008C1200008D10C0008FFF7EFBB0B46012BA4
:201FE00010B41146044602D1227010BC7047002BFBD01A4610BC04F097B837B50F290446C1
:202000001546019106D9002201A9FFF792FB019B2060A360019919B12A462068FFF7DEFF57
:202020000021019B22686360D15403B030BD2DE9F34116461D4604462A461B4B0F463146DC
:20204000FFF7A3FB234653F8080B626898420CBF0F23A368A5EB0608904443451BD3F31985
:20206000D21A06D0AE4204D0384481192844FFF7F3FC35B1206829469DF820203844FFF74F
:20208000ADFF002220462368C4F8048003F8082002B0BDE8F0810023324639462046009541
:2020A000FFF748FCE5E700BF0383000807B500920B4600224168FFF7BAFF03B05DF804FBAD
:2020C000F0B504468DB00069FEF7C1FC20B3A3680BB903F0BBFC2046E3689847E0B92269B9
:2020E000EFF305836BB16FF00506102002F0D0FF054602F089FB1D4907466846FFF791FB5B
:202100000CE0FEF797F80028EDD11046DFF860C000DF06460028E8D10DB0F0BD694622696C
:2021200006A802F05DFC3A463146284606AB02F0CFFB06A8FFF720FB6846FFF71DFB2846EB
:202140000C4A0D4903F03EFB044606A8FFF714FB6846FFF711FB284602F0B0FF204601F094
:20216000CFFD0446F4E70446F5E700BF20830008110A0008815C00081C860008F0B5066819
:202180008DB08EB9102002F083FF044602F03CFB6FF002010246314B204602F0DBFB2046EA
:2021A0002F4A304903F00EFBD6E90615FEF7DEF80446A0FB0101002304FB05112A4A01F008
:2021C000ADFF32690146EFF305836BB16FF00504102002F05DFF054602F016FB23490746FE
:2021E0006846FFF71EFB0CE0FEF724F80028EDD11046DFF87CC000DF04460028E8D10DB00F
:20220000F0BD6946326906A802F0EAFB3A462146284606AB02F05CFB06A8FFF7ADFA6846FA
:20222000FFF7AAFA28460E4A0E49BBE7044606A8FFF7A2FA6846FFF79FFA284602F03EFFE1
:20224000204601F05DFD0446F4E70446F5E70546204602F033FF2846F3E700BF2C830008EF
:20226000815C00081C86000840420F0039830008C9090008F0B504688DB0002C51D0EFF323
:2022800005836BB16FF00506102002F001FF054602F0BAFA2449074606A8FFF7C2FA15E00E
:2022A0002269FDF7C7FF0028ECD11046DFF87CC000DF06460028E7D12046FEF743FF2021A2
:2022C00020460DB0BDE8F04002F086BE6846226906A902F085FB6B463A463146284602F06E
:2022E000F7FA6846FFF748FA06A8FFF745FA28460F4A104903F066FA08E06846FFF73CFAEF
:2023000006A8FFF739FA284602F0D8FE2046FEF719FF2021204602F05FFE03F0EDF9EFE798
:20232000F1E70DB0F0BD00BF57830008ED100008815C00081C8600082DE9F04F994B8FB0AE
:202340000B93994B994A0A93002302A9CDE9022301A8002308AAFFF7ADFD08A8FEF7F2FE1F
:2023600001A8FFF70BFFFEF713F800250146FEF721F88F4C02462B46A1FB040101F01EFFF7
:20238000022309938B4B0646CDE90A550893EFF305836BB1102002F07BFE054602F034FA1E
:2023A0004FF0FF310246844B284602F0D3FA17E0FDF740FF0028EDD1DFF800C208A800DF32
:2023C00005460028E6D04FF00009DFF8F481DFF8F4A1DFF8F4B140464946FFF723FD0EE03F
:2023E00028467A4A7A4903F0EDF9044603E00446284602F063FE01A8FFF73CFF9FE0EFF39C
:2024000005836BB16FF00507102002F041FE064602F0FAF96F49044602A8FFF702FA1BE082
:20242000FDF708FF0028EDD128464FF0FF31D44600DF07460028E7D1FDF7AAFF0146FDF7E0
:20244000B9FF3B460246A1FB040101F0B7FE811B584604F02DFD37E02A4602A908A802F088
:20246000BFFA22463946304608AB02F031FA08A8FFF782F902A8FFF77FF93046534A54498D
:2024800003F0A0F9044609E0044608A8FFF774F902A8FFF771F9304602F010FEEFF3058336
:2024A000002B4FD06FF00506102002F0F1FD044602F0AAF94849074608A8FFF7B2F94DE01D
:2024C0000446E5E70446E6E7EFF305836BB16FF00507102002F0DCFD064602F095F93F498F
:2024E000044602A8FFF79DF90CE0FDF7A3FE0028EDD12846DFF8E8C000DF074600283FF481
:202500006AAFE6E72A4602A908A802F069FA22463946304608AB02F0DBF908A8FFF72CF914
:2025200002A8FFF729F93046284A294903F04AF9AAE7C5E7C6E7044608A8FEF703FE204609
:2025400001F0DEFBFDF776FE0028ABD12846DFF894C000DF06460028A6D14CE72A4608A9EE
:2025600002A802F03DFA3A463146204602AB02F0AFF902A8FFF700F908A8FFF7FDF820464A
:20258000124A134903F01EF902A8FFF7F5F808A8FFF7F2F8204602F091FD03F0ADF8F6E701
:2025A000F8E700BFF5260008BD0A0008C0C62D0000CA9A3B658300086B830008690C0008D6
:2025C000A08601006908000885830008815C00081C86000876830008A08300089183000874
:2025E000D5060008DD0F000810B5046844B12046FFF740FE2046BDE81040042102F0ECBC2A
:2026000010BD10B50446FFF7EFFF204610BD30B5294D04462B6C89B0A3B94FF47A73A4FB27
:20262000034003FB0101254BCDE902410493244B04AA0793234B02A9069301A80023FFF72C
:2026400039FC09E01B68002BE7D01869FEF7FFF90028E2D009B030BD04A8FEF773FD0420D4
:2026600003F010F9019A2C6C0260002228640192049234B12046FFF7FDFD0421204602F03A
:20268000ABFC04A8FFF7B0FF4FF400620E4B286C5A83FFF773FD01A8FFF7ECFDDAE70446DA
:2026A00004A8FEF74FFD204601F02AFB044601A8FFF7E0FDF7E700BF78010020B8010020DC
:2026C000750A0008850A00080000024008B5BFF35B8F064B06489969BFF35B8F04F0E8FB2D
:2026E000BDE808403220002191E700BF78010020AE83000808B50A200021FFF788FF0120CB
:2027000008BDF0B5026806468DB0DAB1EFF305836BB16FF00504102002F0BAFC054602F0CE
:2027200073F81D4907466846FFF77BF80CE0FDF781FD0028EDD11046DFF860C000DF0446AA
:202740000028E8D10DB0F0BD6946326806A802F047F93A462146284606AB02F0B9F806A8AE
:20276000FFF70AF86846FFF707F828460C4A0D4903F028F8044606A8FEF7FEFF6846FEF704
:20278000FBFF284602F09AFC204601F0B9FA0446F4E70446F5E700BFBB8300087D0F00085B
:2027A000815C00081C86000838B5044678B1FFF7A8FF2046BDE83840042102F00DBC0546DF
:2027C0000421204602F008FC284601F099FA38BD10B504461830FEF79FFE04F10800FEF7B6
:2027E000B1FC606808B1FFF7DFFF204610BD08B5EFF3058313B1054B586908BDFDF71AFDD8
:202800000028F8D1DFF808C000DFF6E7400000202902000870B5154C0546B4F8541004F103
:202820005602D2E85F3F994202D8BFF32F8F04E0581CC2E8560F06B1F3E79BB2994203D8C8
:202840002946022002F094F904F15800FDF70DFEE36D43F82050637A23B94FF08052044B08
:202860005A6070BD0123A372FBE700BF4000002000ED00E0F0B5026806468DB0EFF3058368
:2028800073B1C2B96FF00304102002F001FC054601F0D8FF2649074606A8FEF7C2FF1FE0E2
:2028A000FDF7C8FC0028ECD110460121DFF884C000DF044610E01378F32BE3D1012102F15D
:2028C0000C0353E8000F40EA010443E8004505B1F7E71046FFF79EFF002CD5DB0DB0F0BD3D
:2028E0006846326806A902F07BF86B463A462146284601F0EDFF6846FEF73EFF06A8FEF716
:202900003BFF28460C4A0D4902F05CFF04466846FEF732FF06A8FEF72FFF284602F0CEFBFE
:20292000204601F0EDF90446F4E70446F5E700BFCE83000827060008815C00081C86000833
:2029400000232DE9F0438FB004460193EFF305821AB9FDF76FFC70B10192102002F098FBEA
:20296000044601F051FF4FF0FF3102466C4B204601F0F0FF0CE0DFF8ACC100DF0190002850
:20298000EBD001A8FFF776FF042002F07BFF04E02046654A654902F015FF019A03460260E5
:2029A0000022019262685068536020BB604FDFF884816368D3F80490D9F80020EFF3058342
:2029C000E3B101211046FDF77CFC002805464ADA102002F05DFB064601F034FF5649044615
:2029E00002A8FEF71EFF12E00546204602F066FB284601F085F9FFF7D7FED7E7FDF71AFCB5
:202A00000028DED110460121BC4600DFDDE7D9F8002002A908A801F0E3FF22462946304656
:202A200008AB01F055FF08A8FEF7A6FE02A8FEF7A3FE30463C4A3D4902F0C4FE044609E0AC
:202A4000044608A8FEF798FE02A8FEF795FE304602F034FB01A8FFF754FE2046C9E70446D7
:202A6000F2E70446F3E76368D3F80490EFF305836BB16FF00306102002F00AFB054601F0DE
:202A8000E1FE2E49044602A8FEF7CBFE1DE0D9F80020FDF7CFFB0028EBD110460121032201
:202AA0004FF0FF33C44600DF061EE4DB606803697BBB4FF47A736268106A556AA0FB03019D
:202AC00003FB0511FFF7AEF927E0D9F8002002A908A801F085FF22463146284608AB01F08C
:202AE000F7FE08A8FEF748FE02A8FEF745FE28460D4A0E4902F066FE044608A8FEF73CFE79
:202B000002A8FEF739FE2846A2E70446F8E70446F9E7436908309847CBE7FDF7F7FF48E707
:202B2000DE830008050C0008815C00081C860008C302000819080008EE8300080084000889
:202B40002DE9F74F2C4E746C002C4FD04FF000094FF0F90B7369DFF8A4A001932369013B96
:202B600023612369002B3FD1E3680BB1A2689A60F76C736404F11808EFF3058333B18FB91A
:202B8000B36921460320736101F0F2FFFDF752FB02460028F3D1384641461346D44600DF0D
:202BA000C0B1EDE73B78FA2BEAD107F10C00FEF712F805460028E3D041467A6A0C3003F07A
:202BC0008BFA2846C5E9018785F800B0A5F80290FFF720FEE378DB070BD520466169FDF71B
:202BE000C6FE746C002CBCD1019B736103B0BDE8F08F01236370F4E7400000201F120008C6
:202C0000FDF7A2BB38B54FF0E023514D1B69EB68EC6A0133EB6004B3E369013BE361E3B9CB
:202C20006378732B7ED007D8532B6DD0632B72D0432B05D123463FE0832B7AD0932B7FD092
:202C40002046FDF73AFCFDF751FC246924B1E369002BE5D000236361EC620020FDF796FC3A
:202C60002B6D03B198472A6C002A6FD0AB69E96B994203D0D969EB6301B9DA61DA69002A22
:202C800060D12B7A022B61D16C6A002C5ED0EB6B94F9202093F920309A4257D12046FDF772
:202CA0000CFCE86BFDF722FC2046FDF75FFC2B6CEC63E3614AE0DB681A78F12AFBD0BFE73D
:202CC000DB681A78F12AFBD0DA789007B8D5D86890F92120C36AD978890709D599688C42FE
:202CE00008BFA16821B191F920108A42B8BF0A465B69002BEFD190F920309342A0D080F8A0
:202D00002020FDF7E3FB9BE72346DAE7DB681A78F12AFBD094E72346F9E7DB681A78F12A86
:202D2000FBD08DE72346F9E7DB681A78F12AFBD086E72346F9E7DB681A78F12AFBD07FE779
:202D40002346F9E7013ADA61002A9AD038BD00BF4000002070B5224C04F1560504F15A06D4
:202D6000B4F85410D5E85F3F13B9BFF32F8F04E05A1EC5E8502F00B1F4E79BB25BB33046C7
:202D8000FDF773FBE36D53F8200020B30378F13B082BE5D801A252F823F000BFC12D0008F7
:202DA000612D0008C72D0008612D0008612D0008CB2D0008CF2D0008612D0008D32D0008B3
:202DC000236E9847CCE7636EFBE7A36EF9E7E36EF7E7236FF5E70020BDE87040FDF7D6BB95
:202DE00040000020036B826B934205D21868034BC31A58425841704700207047A52E5AE2F1
:202E000038B5144C237A022B22D1636A03B36569E86AFDF73DFC2846FDF79AFD04F11C00CE
:202E2000FDF742FBFDF7A2FBEFF309832846AB63FFF7D8FF28B9A36929460120636101F0E7
:202E400097FE002328466361BDE83840FEF71AB938BD00BF4000002010B50446002845D043
:202E60000378F12B42D1437803F00F03022B06D0032B2BD0012B26D06FF0020031E01D4BC0
:202E80001A7A022AF8D15B6A002BF5D0E06AFDF7FFFB2046FDF75CFD6378022B22D11549B0
:202EA00001F11C00FDF700FBFDF760FBEFF309832046A363FFF796FF68B98B6901204B617F
:202EC000214601F055FEFDF7F8FADFE7FDF7F5FAFDF714FBDAE700234B612046FEF7D2F800
:202EE000002010BD0020FDF751FBF6E76FF00300F7E700BF400000202DE9F84F0F4616463B
:202F00008946DFF8B4802D4DDFF8B4A0A9EB07039E4202DC3046BDE8F88F19F8014B0D2C9E
:202F20000ED098F84430192B0DD80A2C18D10D2BECD80E23022488F84430B1206C8305E07B
:202F4000002388F844300224B0206C83FDF7C5FD0020FDF7C2FD1120FDF7BFFD2C83D5E7A0
:202F60000133DBB20E2B88F8443014D14FF0020B0020FDF7B2FD0020FDF7AFFDB120A5F841
:202F80001AB0FDF7AAFD0020FDF7A7FD1120FDF7A4FDA5F818B04FF0060B203CE4B20BFBA1
:202FA00004A414F8010B0BF1FF3BFDF796FD1BF0FF0BF6D1AAE700BF780100200004024089
:202FC00098780008124B1B8ABFF35B8F13F0100F104B15D053E8002F013A43E800210029BF
:202FE000F8D10422BFF35B8F0B4B5A610B4AD2F8003423F00403C2F80034094BD86939E428
:2030000053E8002F013243E800210029E9D0F7E7000402409001002000040140000001408A
:20302000780100207047FEE7FEE7FEE7FEE770473F4B82B01A6842F480721A6099683D4A8D
:203040000A409A601A6822F0885222F001121A601A6822F480221A609A6822F47D029A60DA
:203060000022DA60009201921A6842F001021A601A6802F002020192009A01320092019A99
:203080001AB9009AB2F5A04FF2D11B6813F0020318BF01230193019B012B43D14FF40061D0
:2030A000254B1A68A3F5806342F00402C3F80024D3F8002442F00202C3F80024D3F8002499
:2030C00042F00102C3F800245A6A42F080525A621A4A11605168C906FCD49A689A609A682D
:2030E00042F460529A609A689A609A6822F47D029A609A6842F408029A601A6842F080727F
:203100001A600B4B1A689201FCD59A6822F003029A609A6842F003029A609A6802F00C02B1
:203120000C2AFAD14FF00062054B9A6002B07047003802400CC0FF88003C0240007000403F
:2031400000ED00E01EF0040F0CBFEFF30880EFF30980816911F8021C00292ED101B590E87A
:203160000F10E047BDE80050CCF80000224B93E80600914208BF70471A60A9B1ACF1200C74
:20318000C1F838C006B40846FFF72CFE06BC38B9012001F0EDFC184B5A681A60002103E005
:2031A000D1F838C08CE8F00F1400A06B6FF0020EB0E8F00F80F309887047104A136899424B
:2031C000FAD801B552F821C00FC8E047BDE80050CCF80000704701B5FFF7BCFDBDE8014083
:2031E000EFF3098CC2E701B5FFF70CFDBDE80140EFF3098CBAE7000054000020347B0008D1
:2032000003685A004CBF43F0004323F000431844704700BF2DE9F84339B34F1E04461546F1
:203220003E464FF0000808EB060101EBD171491004EBC1094846FFF7E3FF0346C8000830DA
:203240008F4220440BD0AB420BD8FFF7D9FF0138A84201F10108E6D34846BDE8F883AB424E
:20326000FAD9884501D04E1EDDE74FF000094846BDE8F883012807D0022807D0044B00283F
:203280000CBF184600207047024870470248704765390008693900086D39000830B5244BDA
:2032A000044683B08D1E3BB3284601A9AFF30080E8B101992A46FFF7ADFF0146B8B1FFF7D3
:2032C0009FFF4B68A064012B2ED0002B27DB081DFFF796FF0023C4E913030368002B12DB29
:2032E000FFF78EFF03460020236103B030BD00230920236103B030BD0E4B0F491846C91A5C
:20330000C9100191D6E7C3F30360FFF7B3FF0028034614BF00200920236103B030BD0123EF
:20332000081DC4E91303D8E7002305202361DCE700000000A892000840950008036810B508
:20334000DA07044606D49B0700F1480009D500F05DFC2368590709D51A070ED5DB0613D5D0
:2033600010BD00F04BFC23685907F5D404F1D00000F054FC23681A07F0D404F5A87000F01F
:2033800055FC2368DB06EBD404F5E870BDE8104000F090BC092070470346006800B1184491
:2033A000704700BF704700BF70B504460E462046316CFFF773FF054698B9D6F840C0324611
:2033C000214601202369C4F814C098470828EED0072806D12846316CFFF7E4FF301D00F055
:2033E00001FC02F045FE00BF2DE9F0474FF0000AADF5727D0DF10C0E01F1040CC768D0F8A4
:20340000188006461446BCE80F00AEE80F00BCE80F00AEE80F00BCE80F00AEE80F009CE8E2
:203420000F0002AD8EE80F00C5F800A021E02B6C4FF4F072294673617AA802F04DFE314696
:20344000504633697AAA9847889C82466C643346324649460120CDE90058B8470446F0B9DA
:203460004FF4F07228467AA902F036FEBAF1080F1BD13046296CFFF711FF04F109095FFAD1
:2034800089FA04460028D2D0A96B3346696432460120CDE900584AF01001B84700B109246C
:2034A00020460DF5727DBDE8F087BAF1070FF6D12046296CFFF776FF03A800F093FB00BFC3
:2034C000406C7047F0B54FF0FF37CB6BF9B00B6401AC01F1040C0E460546BCE80F000FC44D
:2034E000BCE80F000FC4BCE80F000FC49CE80F0084E80F00009706E06A4629462B699847A3
:203500000828044608D128461099FFF7C7FE0028F2D0092079B0F0BD6846FFF70FFF062CB9
:20352000F7D131462846FFF73FFF00BF10B414468461DC6BC16000221C64194610BC53E779
:2035400070B54369C6680B64AEB90A46036904460D46014602209847072805D008280FD1E1
:2035600029462046FFF720FF3046296CFFF71AFF281D00F037FB0122FFF736FF02F078FD2B
:2035800002F076FDC2682AB1D1F83CC00022C1F840C029E796E700BF704700BF836801462D
:2035A0000BB1012018477047012912D009D873B90F2A0CD800EB820042681846009B1A6058
:2035C00070470339012994BF012002207047022070470846704700BF002300B585B00A4687
:2035E00003A900911946FFF7DFFF039805B05DF804FB00BF012912D009D873B90F2A0CD8C2
:20360000009900EB820209681846516070470339012994BF01200220704702207047084691
:20362000704700BF002310B584B003AC039200940A461946FFF7DEFF04B010BD70B54FF0B9
:20364000FF36D36BADF50E7D13640DF15C0E02F1040C05460C46BCE80F00AEE80F00BCE84F
:203660000F00AEE80F00BCE80F00AEE80F009CE80F008EE80F00169612E00C2116A86A46ED
:20368000FFF7D0FF214616A8A84778B969460820049B16AA98470528064608D0092805D0B4
:2036A00068462699FFF7FAFD0028E6D0092616A8FFF744FE30460DF50E7D70BD2DE9F04F28
:2036C0001E46CC6C89B054F8043B0D46174600F003080694002E79D002228DF81C201A0CC3
:2036E0008DF81D201B04D2B2059304EB82042B6DB8F1020F08BFAC6B13F001030CD03846C7
:2037000005A900F071FB18B9082009B0BDE8F08F092009B0BDE8F08FD4F800A0BAF1000F9D
:20372000EDD0019300F008030293022E4AD0B4F800A0B4F802900434AA6C0F21384629F0BF
:20374000010B9344FFF748FF834539D82AF001025A44824294BF002001204FEA490303F0E5
:2037600002030AF0010A43EA0A03012B49D0022B32D0002BCCD1B8F1000F02D0002840F0E7
:20378000CE800434D4F800A0BAF1000FCDD1384605A900F029FB0028BAD1019B002BB3D0A2
:2037A0000F213846FFF718FF0E2102463846FFF739FF38460F216A4AFFF734FF0720A8E7EA
:2037C0000020CAE7D4F804900834B5E71B0205930323ADF81C308AE7236823F0004BB8F111
:2037E000000F45D128B1029A002A5CD0BBF1000F74D0002B00DA04340BF1010B04EB8B0417
:20380000C0E7B8F1000F19D1B0B163682268991C4FEAD2723FF47CAF05F158010133049101
:2038200000F09180201DFFF7B7FD04AB0146284602F084FA00285CD10834A3E70D21384605
:20384000D5F82090FFF7C8FE8145F5D1AB6A9C42F2D12046FFF7D4FC0F2102463846FFF7D5
:20386000E1FE38462A460021FFF7DCFE072050E70D213846D5F82090FFF7AEFE814501D0CA
:203880002368B6E7AB6A9C42FAD104230022C5E90B23E318C5F828B06B632368002B5ADBD4
:2038A00001230193A8E705F15803CDF80C809146B04604F1040A1E460EE050460496FFF7D7
:2038C0006BFD0022014604AB284609F101090AF1040A02F033FAE8B9D945EED10D213846A4
:2038E000FFF77AFE0346049A0620C5E909242B620FE781460D213846FFF76EFEB9F1020F5F
:20390000286225D12B46049A43F82C2F6B620620AC62FEE646462368DDF80C8069E720466F
:20392000FFF76EFC02460434AC632846144602F063FA00283FF4ECAE384622460F21FFF780
:2039400071FE0720E5E60D213846FFF745FE2862049B6B62DBE70BF1010004EB800079E79D
:203960008B5E00080023A9E60123A7E60223A5E62DE9F043064615461C46C3B0042900F25F
:20398000B880DFE801F09C56B62D0300002C40F0B080102A00F2AD800368D80600F1F180CF
:2039A00020AF384600F090F9012438460023B16B04FA03F22A4203F1010305D00A4652F899
:2039C00004CB1146C0F800C0042B00F10400EFD13846B16300F06EF9002043B0BDE8F08351
:2039E000032C40F0868094B204EB1243102B4FEA12457ED803681F0700F1CB8020AF38469D
:203A000000F036F9B26B07EBC50154B10B4601EBC401D01AE4001D5843F8045B8B42FAD136
:203A200022443846B26300F001F9002043B0BDE8F083012C4FEA124895B256D0052C58D1F1
:203A400008EB0509B9F1200F53D8B8F10F0F73D9A946002D40F08480B36B65B320AF4FF0BA
:203A6000000907EBC807043F03EBC50553F8041BAB4247F8041FF9D1B9F1000F0FD06F46B1
:203A80004146102938BF102107EBC101843903EBC90553F8040BAB4241F8040FF9D1012C87
:203AA0007FD0B8F10F0FB56342D9B9F1000F02D0684600F0B3F8002043B0BDE8F083C4B941
:203AC00023460124826B371DA8B204FA03F101421CBF52F8041B47F823100133102BF4D19E
:203AE00015F40050E7D1B26304E008EB0503102B03D9022043B0BDE8F083B8F10F0FF8D8E6
:203B00003368DA0706D5304623F0030340F8483B00F078F820AF384600F074F8B36B002DB0
:203B20009DD11D4604353846B56300F067F8C2E720A800F06BF8B8E7B9F1100F3FD9A9F1B8
:203B400010093368D90708D5304623F0010343F0020340F8483B00F05DF8B9F1000F31D075
:203B600033685A071FD4B8F10F0F24D96F46C8F11005384600F056F8002DB36B80DD20AFDC
:203B80006FE723F01003336006F5E87000F09CF806E723F00803036000F5A87000F068F874
:203BA0002CE720AFBEE7304623F0040340F8D03B00F038F8D7E720A800F02CF8D6E74FF0F5
:203BC0000009BEE7B8F10F0F3FF646AF20AF384600F020F8B36B002D7FF441AF384600F0D5
:203BE00015F868E700F1340191E838009C46A6464CF8045D90E8FF0FE54600BD90EC210B09
:203C0000704700BF80EC210B704700BF90EC200B704700BF80EC200B704700BFD0EC200B0F
:203C2000704700BFC0EC200B704700BFF0EC0201F0EC0211F0EC0221F0EC0231F0EC0241C6
:203C4000F0EC0251F0EC0261F0EC0271F0EC0281F0EC0291F0EC02A1F0EC02B1F0EC02C12C
:203C6000F0EC02D1F0EC02E1F0EC02F1704700BFE0EC0201E0EC0211E0EC0221E0EC0231F5
:203C8000E0EC0241E0EC0251E0EC0261E0EC0271E0EC0281E0EC0291E0EC02A1E0EC02B1EC
:203CA000E0EC02C1E0EC02D1E0EC02E1E0EC02F1704700BFB0FC0181B0FC0191B0FC01A138
:203CC000B0FC01B1704700BFA0FC0181A0FC0191A0FC01A1A0FC01B1704700BFEC4600B5DB
:203CE0002DE900502DE9FF1F4FF000032DE90C0001A9FFF7E7FBDDF840E012B0704700BF17
:203D0000EC4600B52DE900502DE9FF1F4FF000032DE90C0001A9FFF713FCDDF840E012B058
:203D2000704700BFEC4600B52DE900502DE9FF1F4FF000032DE90C0001A9FFF723FCDDF894
:203D400040E012B0704700BFEC4600B52DE900502DE9FF1F4FF000032DE90C0001ABFFF784
:203D6000E5FBDDF840E012B0704700BFEC4600B52DE900502DE9FF1F4FF000032DE90C0051
:203D800001AAFFF75BFCDDF840E012B0704700BF027A03467AB9427AA2B14FF0030C416800
:203DA000013A427208680A1D5A60020283F808C0000E1A6070470068013A1A7202021A6090
:203DC000000E7047B0207047002300B585B003A900910C221946FFF7E7FB039805B05DF843
:203DE00004FB00BFF0E700BF2DE9F0434FF0000805460E4685B03046FFF7CAFFB0280446B4
:203E000000F0BA80070620D500F0F003802B4DD0902B36D0A02B60D0B02B73D0C02B00F016
:203E20008A8000F0F803D02B0BD100F00702013205230121284642F40022FFF799FD0028C6
:203E4000D9D0092005B0BDE8F0838300DBB21F1D00230DF10C0919460D222846CDF80090F0
:203E6000FFF7A2FB039B60064CBFDF1BFF1800230D2228461946CDF800900397FFF7BAFBD6
:203E8000B9E700F00D030D2BDBD0002303AF194600F00F0200972846FFF786FB00230D229C
:203EA000284619460097FFF7A5FBA4E73046FFF76FFF24022043B0F5004FC2D0002304016C
:203EC00019462846A2B2FFF753FD0028B9D114F4004F18BF4FF001088DE7C3434FF47F62B5
:203EE00003F007031A410023010702F47F6248BF42F4804228461946FFF73AFD00283FF414
:203F00007AAF9EE7B1283CD0B22800F0B080B3284AD000F0FC03B42B93D0012300F00702D1
:203F20001A442846194642F40022FFF721FD00283FF461AF85E7C6284FD0C72861D000F0F6
:203F4000F803C02B70D0C8287CD0C9287FF479AF3046FFF71DFF05230246012128461403D4
:203F600002F00F0204F470240A442243FFF700FD00283FF440AF64E7B8F1000F1CD00020B3
:203F800060E73046FFF704FF024600283FF459AF10F0F0037FF455AF19462846FFF7E8FCAF
:203FA00000283FF428AF4CE73046FFF7F1FE0123024619462846D2E703AC43460E22414660
:203FC00028460094FFF7F0FA43460F22284641460094FFF70FFB404634E73046FFF7D8FED9
:203FE00002460323140302F00F0204F470240132284619462243FFF7BBFC00283FF4FBAE97
:204000001FE73046FFF7C4FE024600283FF419AF10F0F0037FF415AF04212846FFF7A8FCAA
:2040200000283FF4E8AE0CE7032300F00F0201322846194642F42022FFF79AFC00283FF416
:20404000DAAEFEE63046FFF7A3FE0246012102F0F00402F00F0210340A440523284642EA40
:204060000432FFF785FC00283FF4C5AEE9E600230DF10C090D2219462846CDF80090FFF779
:2040800093FA3046FFF784FE02064FF002040CD5039B00F07F00A040184403903046FFF72F
:2040A00077FE030604F10704F2D4039B00F07F02A24003F501731A440023039228460D22AC
:2040C0001946CDF80090FFF795FA94E60B464FF0030C00B5C26C1846536885B0083202928F
:2040E00001A91A0E1B028DF80CC001938DF80D20FFF77AFE05B05DF804FB00BF08B5FFF751
:2041000071FE806C08BD00BF08B5FFF76BFEC06CC379023300EB830008BD00BF7BB972B9B6
:204120000029BEBF00204FF0004106E008BF00281CBF6FF000414FF0FF3000F02DBBADF105
:20414000080C6DE904CE002909DB002B1ADB00F04DF8DDF804E0DDE9022304B07047404230
:2041600061EB4101002B1BDB00F040F8DDF804E0DDE9022304B0404261EB4101524263EB1E
:2041800043037047524263EB430300F02FF8DDF804E0DDE9022304B0404261EB41017047C4
:2041A000524263EB430300F021F8DDF804E0DDE9022304B0524263EB4303704753B94AB988
:2041C000002908BF00281CBF4FF0FF314FF0FF3000F0E2BAADF1080C6DE904CE00F006F8BB
:2041E000DDF804E0DDE9022304B070472DE9F047089E0D4604468846002B4DD18A42944663
:2042000068D9B2FA82F252B101FA02F3C2F1200120FA01F10CFA02FC41EA030894404FEA23
:204220001C41B8FBF1F71FFA8CFE01FB178807FB0EF0230C43EA084398420AD91CEB0303D7
:2042400007F1FF3580F01E81984240F21B81023F63441B1AB3FBF1F001FB103300FB0EFE89
:20426000A4B244EA0344A6450AD91CEB040400F1FF3380F00981A64540F2068164440238F3
:204280000021A4EB0E0440EA07401EB10023D440C6E90043BDE8F0878B4208D9002E00F00B
:2042A000EE800021C6E900050846BDE8F087B3FA83F100294AD1AB4202D3824200F2FC80F8
:2042C000841A65EB030301209846002EE2D0C6E90048DFE702B9FFDEB2FA82F2002A40F03C
:2042E0009180A1EB0C0001214FEA1C471FFA8CFEB0FBF7F307FB1300250C45EA00450EFB5C
:2043000003F0A84208D91CEB050503F1FF3802D2A84200F2CE8043462D1AB5FBF7F007FB3C
:2043200010550EFB00FEA4B244EA0544A64508D91CEB040400F1FF3502D2A64500F2B6805D
:204340002846A4EB0E0440EA03409EE7C1F120078B4022FA07FC4CEA030C25FA07FA4FEAFB
:204360001C49BAFBF9F820FA07F309FB18AA8D401FFA8CFE1D4300FA01F308FB0EF02C0C61
:2043800044EA0A44A04202FA01F20BD91CEB040408F1FF3A80F08880A04240F28580A8F181
:2043A00002086444241AB4FBF9F009FB104400FB0EFEADB245EA0444A64508D91CEB040465
:2043C00000F1FF356CD2A6456AD90238644440EA0840A0FB0295A4EB0E04AC42C846AE4635
:2043E00056D353D0002E69D0B3EB080264EB0E0422FA01F304FA07F71F43CC40C6E9007464
:20440000002147E70CFA02FCC2F1200125FA01F34FEA1C4720FA01F195400D43B3FBF7F1FF
:2044200007FB11331FFA8CFE280C40EA034001FB0EF3834204FA02F408D91CEB000001F162
:20444000FF382FD283422DD902396044C01AB0FBF7F307FB1300ADB245EA004503FB0EF027
:20446000A84208D91CEB050503F1FF3816D2A84214D9023B6544281A43EA014138E7314649
:20448000304607E72F46E4E61846F9E64B45A9D2B9EB020865EB0C0E0138A3E74346EAE7FC
:2044A000284694E74146D1E7D0467BE76444023847E7023B65442FE7084606E73146E9E6CF
:2044C00010B40024224610F801CB0CF07F0393401CF0800F44EA030402F10702F3D10C606B
:2044E00010BC704710B40024224610F801CB0CF07F0393401CF0800F44EA030402F10702F8
:20450000F3D11F2A07D81CF0400F04D04FF0FF3303FA02F214430C6010BC7047FF2808B5F4
:20452000034619D003F07002302A084616D005D8202A09D1BDE8084001F097BD402A09D1DF
:20454000BDE80840FFF7DABD02D813F0600F03D001F08EFD502AFBD1002008BDBDE808402E
:2045600001F080BDF0B5502815461E4683B01ED000F00F0304460F460C2B38D8DFE803F06E
:20458000072D33071F373737372723071F00284650F8043B43B104F07002102A08BF2F467D
:2045A00022063B4448BF1B68336003B0F0BDD01C20F0030050F8043B336003B0F0BD2846F0
:2045C00050F8083BE6E7284630F9023BE2E7284601A9FFF787FF019BDCE7284601A9FFF7E5
:2045E0006FFF019BD6E7284630F8023BD2E701F03FFD00BF70B50C460146204615461E4699
:20460000FFF78CFF334601462A462046BDE87040A8E700BF70B506460C46154682B060B37D
:20462000FFF76CFD034620462B6010F8011BFF2912D16B6010F8013BFF2B2B7516D10023CF
:2046400001A9EB6010F8013B6B75FFF739FF019B03442B6102B070BD02462B1D3046FFF7C9
:20466000C9FF10F8013BFF2B2B75E8D001A9FFF727FF019B0344EB60E4E70346D3E700BF2B
:20468000002310B584B003AC039200940A461946FEF7B0FF04B010BD002300B585B003A999
:2046A00000910F221946FEF77FFF039805B05DF804FB00BF70B500F0030001280D46144615
:2046C0008CB00AD021462846FFF700FD10B908200CB070BD09200CB070BD0A4620460C212D
:2046E000FFF7CEFF2046FFF70FFD01460028E9D006AA2046FFF78EFF024620460192FFF797
:20470000CBFF0A9B019A20F001069A4206F1FF3603D3D7E70A9B8342D4D99DF82D1002AB46
:204720000020FFF767FF9DF82D10024603AB0020FFF760FF04AB02469DF82D100020FFF7E1
:2047400059FF05A9FFF7BCFE029A069B1344B3420246B7D803990B44B342DBD9049B002BE5
:20476000B0D0079E9E19ADD02A4600212046FFF787FF002201212046FFF782FF2046FFF7F0
:204780008BFF024602F0010220460F213243FFF777FF07209CE700BF704700BF10F8012BC8
:2047A00011F8013B012A28BF9A42F7D0D01A7047034613F8012B002AFBD1181A01387047C6
:2047C000002103E00A4B5B584350043109480A4B42189A42F6D3094A02E0002342F8043B8F
:2047E000074B9A42F9D3FEF723FC00F0C5F970475495000800000020580100205801002043
:2048000074870020FEE7000010B50A4C2378BFF35B8FDB070BD4204601F025F838B1064AD8
:204820000649074800F060FB204601F028F8044810BD00BF7801002000000020A9140008C2
:204840000400002010B50A4C2379BFF35B8FDB070BD4201D01F007F838B1064A064907481C
:2048600000F042FB201D01F00AF8044810BD00BF7801002000000020811400080800002085
:2048800038B5044610460B464A6841680A44194651F8085B8D420CBF0F2199688A4212D904
:2048A000014651F8085B8D420CBF0F2181688A4209D81A460021FDF76FF901462046FCF728
:2048C0001BFF204638BD01461846FDF7A5F8F4E770B592B004460E4606A819461546FCF7F2
:2048E00093FF1A4906A8FDF780F801E0044624E02B683246294668461B6998476A4606A990
:204900000CA8FFF7BDFF20460CA901F06FF80CA8FCF732FF6846FCF72FFF06A8FCF72CFF4B
:204920000B4BC4E90265236012B070BD04460CA8FCF722FF6846FCF71FFF06A8FCF71CFF0E
:204940002046FFF7DDF90446F4E7CFE79382000800870008F0B515461F46136893B00A462B
:2049600004460E460CA829461B69984700211A4A0CA8FDF71BF9014606A8FCF7BDFE3A46AF
:20498000002106A8FDF712F901466846FCF7B4FE6946204601F02AF86846FCF7EDFE06A84D
:2049A000FCF7EAFE0CA8FCF7E7FE0C4BC4E90265236013B0F0BD04466846FCF7DDFE06A8BE
:2049C000FCF7DAFE0CA8FCF7D7FE2046FFF798F90446F4E70446F5E79382000800870008AC
:2049E000F0B593B0054606A81446FCF70DFF2822012106A8FDF75AFB01E0044656E0234650
:204A0000012142F20F7042F21072092B02D9632B07D801310EAB00220CA80C93FDF7EDFA54
:204A20000CE0B3F57A7F01D20231F3E7834201D80331EFE7B3FBF2F30431E6E76426DDE97C
:204A40000C13274F0B44632C0FD9B4FBF6F006FB104207EB4202044692F8D90092F8D820AE
:204A600003F8010C03F8022DEDE7092C89BF1C4A303402EB440494F8D93092BF0C704B7097
:204A800094F8D830684688BF0B700CAA06A9FFF7F7FE292201216846FDF708FB0FE0044677
:204AA0006846FCF769FE0CA8FCF766FE06A8FCF763FE2046FFF724F90446F4E79DE7014678
:204AC0002846FCF719FE6846FCF756FE0CA8FCF753FE06A8FCF750FE284613B0F0BD00BFE5
:204AE000D4760008F0B504468DB010200F4600F0CFFA0646FFF788FE1A49054606A8FCF7E3
:204B000090FE3A46684606A9FFF76AFF6B462A4621463046FFF7DCFE6846FCF72DFE06A883
:204B2000FCF72AFE3046104A104900F04BFE0D460BE0044668460D46FCF71EFE06A8FCF7BF
:204B40001BFE304600F0BAFA2046012D07D0FFF7D7F804460D46F1E704460D46F1E700F018
:204B6000EEFAFEE746830008815C00081C86000808B5FFF7B7FF00BFB34B2DE9F04118681B
:204B800000232026B14D194688B0B14C0222806801F0BEFB042220212846FCF799FD2046A0
:204BA000022204216E83FCF793FD02224FF48041FCF78EFD02221146FCF78AFD02224FF436
:204BC0000051FCF785FD02220121FCF781FD4FF4005363830123638300232E838DF8073042
:204BE0009DF80730013BDBB28DF80730002BF7D10222984D62838DF807309DF807305A1C85
:204C00002B4493F8A101D2B28DF80720FBF765FF9DF807300D2BF0D9AF20FBF75EFFB020B7
:204C2000FBF75BFF00250226E8B26683FBF755FF1020FBF752FF013500202683FBF74DFF62
:204C4000102DF1D1B8206683FBF747FF002302258DF807309DF8073065835F2B76D90027A2
:204C6000B020FBF73AFF0020FBF737FF1120FBF734FF794E2583794B794D7A4C85F84470AB
:204C8000F360E3694FF4006843F00103E36140F2013304A97448CDE90483FBF76FFA734B2A
:204CA000A0F818809A6822F470629A609A689A60E36943F00103E361E36943F00203E36155
:204CC000012304248DF817304FF440730494ADF81430FBF753FA102300F580600493FBF775
:204CE0004DFABFF35B8F32220023AF61BFF35B8FC5E90E235E4B5C61FBF708FFF368F02203
:204D0000DB43C3F30223E31ADBB202FA03F31340584A82F808334FF480731360EFF3058361
:204D200063B3554B187A002839D1FBF70DFB0546A8B3102000F0ACF90446FFF765FD294683
:204D400002464E4B2046FFF705FE23E09DF8070000F00F00FBF7C1FE9DF80700000940F0EF
:204D60001000FBF7BAFE00202583FBF7B6FE9DF807300133DBB28DF807306BE7FBF75AFA2A
:204D80000028CED1EFF31483DB07CAD5DFF8F0C000DFC8E720463B4A3B4900F013FD10229C
:204DA00000210DEB020001F0BFF9082000F06AFD364B0390036003AA04A902A8FCF706FF3D
:204DC00006E00546204600F079F92846FEF798FF03A8FCF7B1F9EFF30583A3B16FF0050472
:204DE000102000F055F90546FFF70EFD21460246274B2846FFF7AEFD16E0044603A8FCF7EB
:204E00009BF92046E2E7FBF715FA0028E6D1DFF884C000DF04460028E2D102A8FCF758FBE0
:204E2000204608B0BDE8F0812846164A164900F0C9FC044603E00446284600F03FF902A8A5
:204E4000FCF746FBDDE700BFF40000200008024000040240D476000800ED00E00003FA05D6
:204E6000780100200038024000000240000001400004014000E100E0400000201184000899
:204E8000ED020008815C00081C8600088C780008248400088515000870B500250D4C0E4E2F
:204EA0000E49324604F1400000F01EF832460C4904F11800C4E90655A562256300F014F87B
:204EC0003246256104F108000649BDE8704000F00BB800BF780100200000002003260008D7
:204EE000D1270008531100080B460146184601F0C7B87FB500241023CDE9023403681546A3
:204F00009E69CDE900446B461268B0479DF8043003F00603062B09BF01202046009B2B6003
:204F200004B070BD0098904214BF01200620704710B50446024B036000F037FD204610BD3F
:204F40007884000810B50446FFF7F2FF2046082100F042F8204610BD2DE9F041DDF81880B7
:204F60001F46DDE9083498450646154607D1079900F01EFD18B165710020BDE8F08139466F
:204F8000304600F015FD0028F6D00123C4F800802571A371F0E738B515461C4600F008FD2B
:204FA00020B10823E36006232560237138BD2DE9F04105460C4616461F4600F0F9FC48B9F0
:204FC000032F07D82368324629462046BDE8F0415B691847BDE8F08100F090BE194A70B513
:204FE0005368A0F1080423B150F8081C6518AB4203D940F8043C546070BD05D1D3E90035B3
:20500000194440E90215F6E704325E684EB1B54202D21A1D3346F8E701BF2E686D688919F4
:205020005D6013681D685E19B44217BF5B68491940F8043C136816BF40F8081C19605C60F2
:20504000DAE700BF3087002000F10803082B38BF082330B50D4A073352F8040F23F00703B8
:2050600068B1D0E900148B420AD9021D2046F7E7C1184C60C550106803601160083030BD2C
:20508000CD1A072DF4D801601460F7E73087002010B500F18004204601F000F8034630B9E4
:2050A0002046FFF7D1FF034608B900F025FB80220021184601F038F8803010BD064A8038E3
:2050C0009368984205D9D2681344984201D2FFF785BF00F0EBBF00BF3087002038B54FF445
:2050E0001E65074C2846E56000F0D8FFA06010B9E060606038BD0023606005604360F9E7D7
:20510000308700200378472B17D143784E2B14D18378552B11D1C378432B0ED10379432BFB
:205120000BD143792B2B08D183792B2B05D1C07901288CBF0020012070470020704738B517
:20514000044600F04FF8024605682046A4F12001FFF7D8FF28B90DB100F0CEFA11602846FA
:2051600038BD54F80C3C2046002BB4BFC3F10103013344F80C3C53688D4203F1FF335360CF
:205180001CBF44F8105C1160656AFEF705FAE6E710B500F023F8026801469AB102F12004A8
:2051A0002046FFF7AFFF28B908602046BDE81040FEF7F4B95369002B05DA013301D110695A
:2051C0000860536110BD013B02D113690B60ECE7591CF6D100F090FA7047000000487047B1
:2051E00040870020004870474087002000231A4630B510F8015B05F07F04944023432C0632
:2052000002F10702F5D40B6030BD00231A4630B510F8014B04F07F0595402B43250602F1DC
:205220000702F5D41F2A06D8640642BF4FF0FF3404FA02F213430B6030BD50282DE9F34136
:205240000646884615461F4608D1D01C20F0030050F8044B3C6002B0BDE8F08100F00F039F
:205260000C2B2ED8DFE803F025071D25292D2D2D2D1821252900284601A9FFF7B7FF019C04
:20528000002CE7D006F07003102B08BFA8463306444448BF2468DDE7284601A9FFF7B5FFF8
:2052A000EDE7284630F8024BEAE7284630F9024BE6E7284650F8044BE2E7284650F8084BDE
:2052C000DEE700F0D5FE08B50346FF2B084610D003F07002302A12D007D8202A0BD002D869
:2052E00013F0600F05D000F0C3FE402A0BD0502AF9D1002008BDBDE8084000F0B6BEBDE852
:20530000084000F0AFBEBDE80840FEF7F7BE70B50C460146204615461E46FFF7D4FF33462C
:2053200001462A462046BDE87040FFF786BF73B50C461546064628B3FEF7E0FE0346204642
:205340002B6010F8011BFF291ED002462B1D3046FFF7DDFF10F8013BFF2B2B7516D0102389
:2053600001A92B75FFF742FF019B0344EB6010F8013B01A96B75FFF739FF019B03442B6113
:2053800002B070BD0346DAE76B60E3E70023EDE71FB503AB009300230A461946FEF704F9BF
:2053A000039805B05DF804FB00232DE9F04F91B0059300F00303012B06460C4617460ED0FD
:2053C000022B03D0002B3BD101073BD539462046FEF77CFE90B3092011B0BDE8F08F0207D0
:2053E00006D40D6A38460D21FFF7D2FF85422BD00220002306F008060DF1280A06430C2237
:2054000019463846CDF800A00A94FEF7F3F8062E1CD1D4E90A59D4F83080B8F1000F0CBF8C
:205420004FF0010B4FF0030B16F0080600F00781BBF1010F40F0FF8000F05EF90820CBE7BC
:2054400000F016FE0120D4E70620D2E73846FEF75BFE81460028B9D0524601463846FFF7F6
:2054600066FF394605469DF83C00FFF72CFF0F210C903846FFF78CFF20F0010808F1FF38F7
:205480000E9BAB4240F2BF802A469DF83D1006AB0020FFF73CFF9DF83D10024607AB0020B5
:2054A000FFF735FF08AB02469DF83D100020FFF72EFF09A9FFF79AFE0A9B069A054613447B
:2054C000434501D90E9DDBE7079A13444345D7D9DDF82080B8F1000F01D00B9B9844099DA7
:2054E00015B10E98013D0544B8F1000F3FF46EAF002D00F0F28016F00803029334D047230E
:2055000023704E2363705523A3704323E370462323714F2363715223A3710023E3714FF0EE
:20552000000B07A92846FFF770FE08A90390FFF76CFE0799002963D03ADD9DF83C00FF282F
:2055400032D000F00703042B3FF67AAF01A252F823F000BFAD550008415400087B55000884
:20556000AD550008A5550008E379012B0CBF54F8203C04F158030593D1E702250D9A09AB02
:2055800005FB11220C99FFF758FE099931B15CB30022204605AB00F0D1FB28B34FF0030B38
:2055A000079D34E00825E9E70025E7E70425E5E7C1F17F5101F57F110D9B01F57F513F3168
:2055C00003EB8105BCB1029AAAB9059B043D099355F8041F0029E1D00022204609AB29447B
:2055E00000F0ACFB0028F3D0089D002D71D0039B2B441D4695E753F82130002BF4D1CDE7EA
:205600004FF0010BF0E700254FF0010BA846F3077FF50AAFBBF1020F3FF4D8AE0D213846C1
:20562000059EFFF7B5FEC4E90A59C4E90806C4F830800620D0E6002D22DA00F06FF8BBF1DF
:20564000010F02D1204600F011FC002D18DA524649463846FFF76BFE39469DF83C00FFF79B
:2056600032FEEB430D9A0C9002EB830353F826200AB10136FAE70422C4E90A60C4E90C2399
:20568000002309AE1A461946384600960994FDF7B1FF002301221946384600960995FDF7D1
:2056A000A9FF0F213846FFF773FE002300F0010040EA080009900F22194638460096FDF7B6
:2056C00099FFBBF1020F02D1204600F095FB072082E6BBF1000F3FF479AE4FF0020B96E74F
:2056E00008B5804700F0C4FC024B1868BFF35B8F704700BFF000002008B5FFF7F5FFFFF7EA
:20570000EFFF08B58047FFF7F7FF0000024B1868BFF35B8F704700BFE400002008B5FFF795
:20572000F5FFFFF7EEFF012810B503D951F8140CFFF7D6FFBFF35B8FA1F1280353E8002FD1
:20574000013A43E800200028F8D1BFF35B8F5AB951F81C3C01F158040BB1204698472046CD
:20576000BDE81040FFF7AABC10BD000038B5002540E91E1240F8805C0446FFF7C7FF44F84A
:20578000700CFFF7B1FF472304F8583C4E2304F8573C552304F8563C432304F8553C04F8F8
:2057A000543C2B2304F8533C04F8523C044B44F86C0C04F8515C44F8503CA4F1800038BD78
:2057C0002757000808B504460D461646FFF70AFD436832460133294643602046FFF7C6FF06
:2057E0000123044644F8283B2046FEF777FA2046FFF7A5FCFFF780FF08B5FFF7F3FCD0E903
:205800000042013242604CB394F82020472A27D194F821204E2A23D194F82220552A1FD1C7
:2058200094F82320432A1BD194F82420432A17D194F825202B2A13D194F826202B2A0FD10A
:2058400094F82720012A0BD862695242626120342046FEF767FA2046FFF771FCFFF74CFF2B
:2058600000220260F3E702680346D20705D4427802B1FFDE01205870704700207047012380
:2058800003607047012838BF012010B50446204600F004FC30B900F00DFB08B900F0E8FBD3
:2058A0008047F4E710BD000010B50446024B0360FFF73EFB204610BD4485000810B5044678
:2058C000FFF7F2FF20460C21FFF786FB204610BD2DE9F041DDF81880064690450F4615461F
:2058E0001C460BD0B0682A460368CDF818801E6A39462346B446BDE8F0416047194600F0E5
:2059000057F80028EED00620BDE8F0812DE9F14F0D46DDE90A4BDDE90CA619468146174657
:20592000984600F045F890B1002D3460377109DB2C44A2450CBF06240124B471002001B067
:20594000BDE8F08F0235F9D10123B371F6E7544506D15946484600F02BF808B17771EDE7D8
:20596000D9F808003A460368CDE90CA6CDE90A4BDC6929464346A44601B0BDE8F04F60478D
:205980002DE9F04107460C4615461E46FFF703FB48B9B8682A46036821469F693346BC4688
:2059A000BDE8F0416047BDE8F081704700207047814208B50ED0406803782A2B0CD0496863
:2059C0000B782A2B08BF0131FEF7E8FEB0FA80F0400908BD0120FCE70020FAE710B5D1E96F
:2059E0000012044600F08BFA204610BD10B50446034B40F8043BFFF7F1FF204610BD00BFF7
:205A00003487000808B500F033FB08B500F030FB08B500F02DFB0FB480B582B000AF07F16A
:205A2000100454F8045B2846FEF7C2FE00F2072323F00703ADEB030D00F5007123462A4664
:205A400068467C6000F058F800F012FB08B500F00FFB000006460C4680B59CB000AFA41B3B
:205A600069220E49381D00F037FB04F1700323F00703ADEB030D6D466822391D284600F0AF
:205A80002BFB2246314605F1680000F025FB00232C44284684F86830FFF7B7FF7D850008C8
:205AA0002DE9F04100AF84B06D4605F10C0423464FF00A0CDFF83C80B2FBFCF60CFB162EC8
:205AC00018F80EE003F801ED9646BEF1090F3246F2D8E41A8C4209D8C4F10C032246E91820
:205AE00000F0FAFA2046BD46BDE8F0814FF0FF34F8E700BFE68500082DE9F04107461546D1
:205B00000446013900EB01082A7892B344452AD2252A07D16A78732A09D07A2A12D0252A4D
:205B200000D1013515F8012B04F8012BECE753F8042B013A12F8011FC9B1444513D004F869
:205B4000011BF7E7AA78752AECD11E46204656F8042BA8EB0401FFF7A3FF002803DD3346D5
:205B600004440335D0E721463846FFF773FF0235CAE72270E01BBDE8F08100000048704717
:205B8000F1850008004870475B8A0008742A22DC572A0BDC4D2A28DC3B2A0DDC242A16DC8E
:205BA0000F2A10DC531E0D2B1FD80CE00121A2F1580399400E4B15E00123A2F13C018B403E
:205BC0000C490B4211D00C4B026043607047A2F12D03012BE8E7A2F17603182B05D8012123
:205BE0009940064B0B40002BEDD1054B0260ECE79D00BF1F8F080200EC000020BF07F101EA
:205C0000E8000020C0E90021704713B5144603680A465B690146684698476368019A9A4244
:205C200006D100982368C31A5842584102B010BD0020FBE74B68834204D10868831A5842E5
:205C400058417047002070477047704710B5044600F054F8204610BD10B5044600F04EF8EC
:205C6000204610BD13B50446104600F041FE01AA0146204600F0E1F9204602B010BD000053
:205C800010B50446024B036000F01EF9204610BD0087000810B50446FFF7F2FF204600F030
:205CA0002DF8204610BD10B504460B6886B01B6968469847DDE90012204600F020F96846CE
:205CC000FBF75AFD204606B010BD704710B5064C064922460648FFF707F92246BDE810406C
:205CE00004490548FFF700B9000000204B5C0008EC000020495C0008E800002000F0D6B94C
:205D00000378472B17D143784E2B14D18378552B11D1C378432B0ED10379432B0BD143792E
:205D20002B2B08D183792B2B05D1C07901288CBF0020012070470020704700002DE9F34146
:205D40001D4603780E46472B0246C17913D143784E2B10D18378552B0DD1C378432B0AD147
:205D60000379462B07D143794F2B04D18379522B01D1002930D01046FFF7C2FF002380F03F
:205D80000104E4B2002001904BBB54BB01290ABF52F8203CA2F12003783B01290CBF52F861
:205DA000202C58321C680192236820469B689847C8B10227019B1B68019333682146D3F801
:205DC00010803046012301AAC04770B1019B2B60384602B0BDE8F08101230C46D2E7044CDA
:205DE000E2E7044CE0E70127E7E70746F0E700BF9C840008A484000810B50446FFF7F2F9A2
:205E000002462046A4F12001FFF77AFF60B154F8043C0133012B44F8043C03D1936844F82B
:205E2000083C9160012010BD9368002BF9D0FFF763FC0378472B17D143784E2B14D1837812
:205E4000552B11D1C378432B0ED10379432B0BD143792B2B08D183792B2B05D1C07901281D
:205E60008CBF0020012070470020704710B5044648B1FFF764F92046FFF7DBFF18B154F862
:205E8000140CFFF72DFCFFF737FC38B50246FFF7D0FF044640B1002552F8184C1046FFF746
:205EA0004EF91DB1FFF73AFC0125F7E72046FFF728FC0000024B1868BFF35B8F704700BF3E
:205EC0004C8700204068704713B50446064B01A9036040680C3800F083F82046FFF77CF9D8
:205EE000204602B010BD00BF3487000810B50446FFF7EAFF2046FFF701FF204610BD13B5F6
:205F0000044601AB00F08CF8204602B010BD012A30B403D10B78037030BC7047002AFBD0C1
:205F200030BC00F0D9B808B5521AFFF7F0FF08BD044B984204D000230160836008440373FB
:205F4000704700BF50870020154B10B59842044602D91448FFF75CFD884203D94B0098423A
:205F600038BF1C4604F11D03B3F5805F04F10D000CD98C420AD90A4804F58054C3F30B03B1
:205F8000E41A844228BF044604F10D00002801DAFFF738FDFFF776FC00224460826010BDFF
:205FA000FCFFFF3F408700082DE9F041A1EB000805460E4640460021FFF7C6FF044600F1C2
:205FC0000C07324629463846FFF7ADFF20464146FFF7AEFF3846BDE8F081FFF78FBE000040
:205FE000054A10B5904206D08268541E002A846001DCFFF7F2FF10BD50870020884208B56C
:2060000007D018B1BDE80840FFF7CEBF0248FFF7FCFC024808BD00BF588700085C87002080
:2060200010B50446084611461A4601444FF00003FFF7E4FF2060204610BD38B500F1080350
:2060400004460D46036059B10846FEF7B1FB2A1820464FF000032946FBF7B2FB204638BDF4
:206060000122F5E708B500F003F808B5FFF7FAFF062008B500F03AFA012001F01DFB00009C
:2060800010B504460448134620B10A4602202146AFF3008010BD00BF00000000024B014660
:2060A000186800F0B1B800BFF4000020024B0146186800F041B800BFF4000020034610B556
:2060C000C9B202449342184601D1002003E0047801338C42F6D110BD0A44914200F1FF33A1
:2060E00000D1704710B511F8014B914203F8014FF9D110BD884210B501EB020402D9844227
:20610000234607D8431EA14208D011F8012B03F8012FF8E7014602448A4200D110BD13F8DA
:20612000014D02F8014DF7E703460244934200D1704703F8011BF9E738B50546002940D097
:2061400051F8043C0C1F002BB8BFE41800F008FE1C4A136833B9636014602846BDE8384068
:2061600000F004BEA34208D9206821188B4201BF19685B6809182160EDE71A465B680BB1C0
:20618000A342FAD911685018A0420BD120680144501883421160E0D118685B680144116093
:2061A0005360DAE702D90C232B60D6E7206821188B4201BF19685B6809182160636054606E
:2061C000CBE738BD6087002070B50E4E0C463168054611B900F08CF830602146284600F0C7
:2061E00087F8431C0AD0C41C24F00304A04207D0211A284600F07CF8013001D14FF0FF34B1
:20620000204670BD648700202DE9F041CD1C25F0030508350C2D38BF0C25002D074601DB9F
:20622000A94205D90C2300263B603046BDE8F0812E4E00F095FD33681C4634BB2946384642
:20624000FFF7C2FF431C04464DD134682646002E40D123683146384604EB030800F048F8CF
:2062600080453AD1216803356D1A25F0030508350C2D38BF0C2538462946FFF7A5FF013093
:206280002BD023682B4423600EE02268521B1ED40B2A16D96119A342256018BF596063684C
:2062A00008BF316062514B60384604F10B0600F05DFD26F00706231DF21AB6D09B1BA350BC
:2062C000B3E76268A3420CBF32605A60ECE723466468B2E734467668B9E70C2338463B607D
:2062E00000F044FDA1E72560DEE700BF6087002038B50023054D044608462B6001F0CEF998
:20630000431C02D12B6803B1236038BD6C8700202DE9F7431D465D4B04461F680E46904623
:2063200027B1BB6913B9384600F014FC584B9C4267D17C68B8F1020F06D0B8F1010F00F23F
:206340009F80002DC0F29C80636EDB0705D4A389980502D4A06D00F09BFC2146384600F08F
:2063600065FB616B41B104F14403994202D03846FFF7E2FE002363630023A3616360A389C3
:20638000190603D538462169FFF7D6FEA389B8F1020F23F44A6323F00303A3816CD001AB65
:2063A0006A462146384600F075FCA3891843A081002D30D1009D2846FFF770FE064600282E
:2063C00055D1DDF80090A9454AD14FF0FF350022A26004F14702226022610122B4F90C3043
:2063E0006261626E43F00203D207A38105D413F4007F02D1A06D00F04CFC284603B0BDE898
:20640000F083244B9C4201D1BC6893E7224B9C4208BFFC688EE7002ECDD0BB6913B9384628
:2064200000F098FBB8F1010F08BFA389C4E9046504BF43F00103A381A289266012F008033B
:206440001CD0D30741BF00236D42A360A56158BFA560656E15F0010515D112F4007FC8E787
:206460004846FFF71BFE06460028AED04D46A38943F08003A381D0E70025A8E7A360E8E7B7
:206480004FF0FF35B9E70025B7E700BFF4000020408E0008608E0008208E00081F2938B59C
:2064A00004460D4604D9162303604FF0FF3038BD426C12B152F821304BB9204600F030F8D5
:2064C0002A4601462046BDE8384000F017B8012B0AD0591C03D1162303600120E7E70024C5
:2064E000284642F8254098470020E0E7024B01461868FFF7D3BF00BFF400002038B500234A
:20650000064D0446084611462B6001F0AFF8431C02D12B6803B1236038BD00BF6C87002053
:20652000FCF765B910B50446084611468E2800F23081DFE810F039018F00920094009600F1
:2065400098009A009C009E00A200A400A800AA00AC00AE002E01B000B200B400B600B8002A
:20656000BE00C000C600C800CA00CC00CE00D200D600D800DA00DC00DE00E000E200E400F1
:206580002E012E012E012E012E012E012E012E01E800EC002E012E012E012E012E012E0195
:2065A0002E012E012E012E012E012E012E01EE000801F000F2002E012E012E01F4002E0109
:2065C0002E012E01F6002E012E01FA002E012E01FC002E012E012E012E012E012E012E016C
:2065E0002E012E012E01FE002E010001020104012E012E0126012E012E012E012E012E0168
:206600002E012E012E01140106010A010C010E0110012E01120116011A01EA00C2002C014C
:20662000BA00D000BC00A000A6002A01F8002E011801C4001E011C012E012E012E012E01A7
:206640002E01D4002E012E012E01E6002801200122012401554B184610BD554BFBE7554B45
:20666000F9E7554BF7E7554BF5E7554BF3E7554BF1E7554BEFE7554BEDE7554BEBE7554B52
:20668000E9E7554BE7E7554BE5E7554BE3E7554BE1E7554BDFE7554BDDE7554BDBE7554BB2
:2066A000D9E7554BD7E7554BD5E7554BD3E7554BD1E7554BCFE7554BCDE7554BCBE7554B12
:2066C000C9E7554BC7E7554BC5E7554BC3E7554BC1E7554BBFE7554BBDE7554BBBE7554B72
:2066E000B9E7554BB7E7554BB5E7554BB3E7554BB1E7554BAFE7554BADE7554BABE7554BD2
:20670000A9E7554BA7E7554BA5E7554BA3E7554BA1E7554B9FE7554B9DE7554B9BE7554B31
:2067200099E7554B97E7554B95E7554B93E7554B91E7554B8FE7554B8DE7554B8BE7554B91
:2067400089E7554B87E7554B85E7554B83E7554B81E7554B7FE7554B7DE7554B7BE7554BF1
:2067600079E7554B77E7554B75E7554B73E7554B71E7554B6FE7554B6DE7554B6BE7554B51
:2067800069E7554B67E7554B65E7554B63E7554B61E7002B14BF1A46224600F0B3F8524BFF
:2067A000002818BF034656E7504B54E78887000892870008AC870008BC870008D48700085D
:2067C000DE870008F88700080A8800081C8800083588000845880008518800086E88000806
:2067E0008088000891880008A3880008AF880008C7880008D3880008E5880008F488000843
:206800000489000811890008308900083F890008508900087489000892890008B089000866
:20682000D0890008E7890008F6890008058A0008198A0008318A00083F8A00084C8A000844
:20684000628A0008718A00087D8A0008AC8A0008BD8A0008D88A0008EB8A0008018B00082A
:206860000A8B0008218B0008298B0008368B00084B8B00085F8B0008778B0008868B00084F
:20688000978B0008AA8B0008B68B0008CF8B0008E38B0008FE8B0008168C0008308C000871
:2068A000388C0008688C0008878C0008A68C0008BD8C0008D08C0008E98C0008008D0008F4
:2068C000168D0008378D00084F8D00086B8D00087E8D0008948D0008A88D0008CA8D000885
:2068E000F08D0008018E0008E5850008168E00080023014602481A460068FFF713BE00BF5C
:20690000F40000200020704738B50023054D044608462B6000F092FE431C02D12B6803B10E
