:020000040800F2
:2000000000C0002005600008F5470008F7470008F9470008FB470008FD470008000000002B
:2000200000000000000000000000000089490008FF470008000000001B4A00082B4A0008AE
:200040004960000849600008496000084960000849600008496000088146000849600008FA
:20006000A146000849600008496000084960000849600008496000084960000849600008BA
:200080004960000849600008496000084960000849600008496000084960000849600008D8
:2000A0004960000849600008496000084960000849600008496000084960000849600008B8
:2000C000496000084960000849600008496000084960000849600008496000084960000898
:2000E000496000084960000849600008496000084960000849600008496000084960000878
:20010000496000084960000849600008496000084960000849600008496000084960000857
:200120004960000800000000000000000000000000000000000000005FF808F110B5054CA8
:20014000237833B9044B13B10448AFF300800123237010BD600100200000000020880008E2
:2001600008B5034B1BB103490348AFF3008008BD000000006401002020880008C3780BB3FC
:20018000164BDA68D243C2F302224378C2F10401C9B28B40D9B20F2343FA02F283781340D9
:2001A0000B431B01DBB202780D490A4482F800330378580903F01F03012202FA03F341F83E
:2001C0002030704703785A0903F01F03012101FA03F32032024941F82230704700ED00E066
:2001E00000E100E08379002B35D010B41F4B1A68016822EA01021A605A68016822EA010236
:200200005A60027902F1804202F5823211680468214311609A68016822EA01029A60DA68D9
:20022000016822EA0102DA604379102B09D003F1804303F582331A6801680A431A6010BC5A
:2002400070470A4B9A6801680A439A60DA6801680A43DA60F3E7037903F1804303F58233F4
:200260001A68016822EA01021A6070470004014070B54FF0000C63464FF0010E03240EE092
:20028000C26804FA0CF522EA0505CA7902FA0CF22A43C26001330CF1020C102B27D00EFADA
:2002A00003F20D68AA43F5D1026804FA0CF5EE4322EA05050A7902FA0CF22A4302600A79A2
:2002C000013AD2B2012ADBD8826816404A7902FA0CF216438660828892B20EFA03F522EAEB
:2002E00005058A799A4092B22A438280C8E770BD21B1054AD3691843D0617047024AD36960
:2003000023EA0000D06170470038024001F003039B0001F0FC0101F1804101F580318A68A2
:200320004FF00F0C0CFA03FC22EA0C028A608A689840104388607047004870470048E8016E
:2003400010B50446836813B1032201469847204610BD10B50446836813B103220146984758
:20036000204610BD0048704740900008004870474C90000810B50446006810B103685B682A
:200380009847204610BD014B586970474400002082B002460B46EC4603C88CE8030093E869
:2003A000030082E803009CE8030083E803009168986890609960D168D868D060D96002B062
:2003C000704712F0020F28D110B412F0010F13D00C3050E8003F03EA01028A4203D0BFF3AD
:2003E0002F8F002305E023EA010240E8002404B1EFE7184610BC70470C3050E8003F0B426F
:2004000003D1BFF32F8F002305E023EA010240E8002404B1F1E71846ECE7C06812F0010F3C
:2004200004D031EA000318BF00207047014008BF0846704788B103460278F32A10D10029EC
:2004400011DB10B40C3353E8000F20EA010243E8002404B1F7E710BC70476FF003007047D8
:200460006FF0030070476FF003007047014B187A704700BF440000204FF47A7070470F4B54
:20048000DB684FF0E022906910B152690132101A0B4A526812F0806F06D14FF0E022526933
:2004A00002FB0333184470474FF0E022906910B152690132101A0133EFE700BF44000020B6
:2004C00000ED00E010B50446EFF3058353B9EFF310833BB9EFF3118323B9DFF848C000DF51
:2004E000014602E0FFF7CBFF0146EFF3058353B9EFF310834BB9EFF311838BB9DFF828C064
:2005000000DF024602E0094A00E0084A08480023A1FB000105F074FAC4E90001204610BDF9
:20052000024AF3E77F040008390300080048E80100CA9A3BEFF305834BB9EFF310834BB90F
:20054000EFF311834BB9DFF818C000DF70476FF0050070476FF0050070476FF0050070478B
:20056000A11A0008EFF305834BB9EFF310834BB9EFF311834BB9DFF818C000DF70474FF4CF
:200580007A7070474FF47A7070474FF47A707047790400080346B8B1084310F0070001D098
:2005A000002070471729FCD919601020586003F1080C08395A189A6000225A509B685860B2
:2005C000CCF80420012070470020704710B50446B8B100293AD032F0030339D10F3121F056
:2005E000070E00F108039C461B68A3EB0C01DCF8040020F00300091A8E4503D91868002885
:20060000F1D110BD61687144616023681C4454F8043C083C994288BF6160DCF8043033B97A
:2006200042EA0E02CCF804200CF10800E9E723F003030CEB0300DCF800104CF8031042EA47
:200640000E024260CCF800000830DAE70020D8E70020D6E710B300B5864609B3A1F1080CC9
:2006600000F108030020634504D01A681846CAB11346F8E751F8043C23F00302DEF80430A4
:200680009B1ACEF8043020B151F8083C0360012009E0002341F8043C012004E00020704768
:2006A000002000E000205DF804FBE8B130B40446E1B1F2B1FBB1016000206060A260E36098
:2006C000636102FB01F01D182561013908D01C46A4461444CCF800400139F9D1801A03440E
:2006E00000221A60012002E000207047084630BC70471046FBE70020F9E70346C8B110B4D5
:2007000000F1140252E8001F11B9BFF32F8F04E0086842E8000404B1F4E7084639B10433BE
:2007200053E8002F511C43E8001404B1F8E710BC7047704710B50446B0B10268806878B1EA
:20074000E368102B23D10021F323037081700023C37042608360C3600E4B0F4A5A6610BD47
:20076000E368002BFBD114460A4BD3F8900030B1FFF7C3FF0028F2D022460121E4E7012232
:200780001021044BD3F88000FFF720FFF2E70020E5E700BF440000203B0C000808B303463E
:2007A000C2688A4220D802698A4220D930B400F1140210680860BFF35F8F52E8000F0C68F3
:2007C0008442F6D142E8001505B1F2E7043353E8002F511E43E8001000B1F8E7002030BCD7
:2007E00070476FF0030070476FF0030070476FF00300704710B4036B63B191F803C0002441
:20080000DA7862450CD25A681C46CAB11346F7E701630BE000234B608B60C162016305E0B7
:200820004B608C609960002CF2D06160283050E8003F5A1C40E8002101B1F8E710BC7047D7
:2008400000224A608B60C162EFE710B400F1280353E8002F12B9BFF32F8F04E0511E43E8E5
:20086000001404B1F4E782B1C06A60B10121821CD2E84F3FC2E8441F04B1F9E7DBB213B16B
:2008800080680028F3D110BC70470020FBE738B5044620B303684568806888B1E2681C2A2C
:2008A0001BD10021F5220270817005F00F05C570436000238360C36003614361037638BD31
:2008C000E268002AFBD11C460AE001221C210A4BD3F88000FFF77AFE09E00020EFE700251A
:2008E000054BD3F894000028EFD0FFF706FF0028E5D023460121D5E74400002012F0020FCC
:2009000028D110B412F0010F13D0283050E8003F03EA01028A4203D0BFF32F8F002305E04F
:2009200023EA010240E8002404B1EFE7184610BC7047283050E8003F0B4203D1BFF32F8F8F
:20094000002305E023EA010240E8002404B1F1E71846ECE7806A12F0010F04D031EA000387
:2009600018BF00207047014008BF0846704791F920C0836843B193F9202062450ADB9A6819
:20098000184612B11346F6E70346CB6000228A6099607047C8608B608160D96070470346A3
:2009A000806882689A6002B1D3600023C3607047C36833B182689A600AB1C368D360002359
:2009C000C360704748B138B5054604462378F12B04D1E468002CF9D107E070472846FFF7F2
:2009E000E7FF29462046FFF7C2FF38BD08B50146012343700148FFF7BAFF08BD6000002078
:200A0000C369B3F1FF3F10D002692AB1D1690B44D361036942695A614369ABB102691A6125
:200A2000002343610023C361704703690BB142695A61436923B102691A6100234361F1E75E
:200A40000269034B1A63EDE70269014BDA62E9E7440000200123437090F920C00B4B5B6A0A
:200A60004BB10B4993F9202062450ADD9A68194612B11346F6E7064BC36000228260986002
:200A80007047C16083608860D8607047440000206000002002234370C37813F0040F14BFE4
:200AA0000223032383F31488BFF36F8F014B9861704700BF4400002038B5164B1A7A5D6962
:200AC00060B10446022A05D190F9202095F920309A4218DC2046FFF789FF38BD022AFCD170
:200AE0005C6A002CF9D094F9202095F920309A42F3DD2046FFF75CFF2846FFF7ABFF2046B9
:200B0000FFF7C8FFE9E72846FFF7A4FF2046FFF7C1FFE2E74400002038B504461546836B78
:200B20001962FFF76DFF1DB12046FFF7C5FF38BD2046FFF75BFFFAE768B370B50446037859
:200B4000F32B2BD183687BB100266FF002052046FFF725FF32462946FFF7DEFFA368002B68
:200B6000F5D10020FFF7A8FF00232370A37813F0010F16D00C4BD3F8900020B12146FFF748
:200B80000DFE00200EE02146074BD3F88000FFF761FD002006E06FF0030070476FF0030063
:200BA00000E0002070BD00BF440000202DE9F843002839D080460378F32B38D1002939DBBE
:200BC00000F10C0353E8002F42EA010743E8007000B1F7E7D8F8085005B34FF0000900E045
:200BE000E5B12C46AD6894F82320616A4046FFF7E8FB06460028F3D094F8233013F0020FB5
:200C000006BF676A20EA070707462046FFF7D0FE4A4631462046FFF77FFFE1E70020FFF7F0
:200C20004BFF3846BDE8F8836FF00307F9E76FF00307F6E76FF00307F3E72DE9F0418468C7
:200C4000C4B106464FF0000800E09CB12546A46895F82320696A3046FFF7B3FB07460028B6
:200C6000F3D02846FFF7A4FE424639462846FFF753FFEAE7BDE8F08130B32DE9F041044693
:200C800000274FF0010803E0F56285F81880CCB125466469EB7813F0080FF8D02F76AB68E4
:200CA000002BF4D02846FFF77AFE06463A463946FFF732FFEE602F61F36A6B61002BE3D012
:200CC0001D61E1E7BDE8F081704738B52F4B596900294AD0044600284AD00378F52B4AD153
:200CE000037E002B4AD0C2688A424AD1013BDBB20376002B48D143690BB102691A612369BD
:200D000003B362695A6191F92100CB6A03BB81F82000A3688BB12046FFF741FE0546002211
:200D20001146FFF7F9FEE56000232361EB6A636103B11C61EC62012323760020FFF7BCFE5E
:200D4000002038BD6369CB62DDE75B69002BDED0DA7812F0020FF8D09A68002AF5D092F97B
:200D600020209042B8BF1046EFE74FF0FF30E8E76FF00300E5E76FF00300E2E76FF00200C7
:200D8000DFE76FF00200DCE70020DAE744000020002859D070B504460378F52B57D1037E20
:200DA0001BB3C06863690BB122691A6123695BB362695A6190F92110C36A83BB90F9203091
:200DC0008B4234D1A36863B100266FF002052046FFF7E5FD32462946FFF79EFEA368002BA9
:200DE000F5D100202076FFF767FE00232370A37813F0010F2ED0184BD3F89400E0B1214680
:200E0000FFF7CCFC002026E06369C362D2E792F920209142B8BF11465B69002BCED0DA78F9
:200E200012F0020FF8D09A68002AF0D1F4E780F82010FFF7C7FDC5E72146074BD3F88000FD
:200E4000FFF708FC002006E06FF0030070476FF0030000E0002070BD440000202B4B1B7A7B
:200E6000022B2DD1294B5B6A002B2BD010B5274B5C696070B1F1FF3F0DD0244BDB6A00208B
:200E8000002B3DD0DA698A4213D8891A1A6918461AB31346F6E71B6BB3B11A461B69002BA0
:200EA000FBD14FF0FF33E36162610023236114611FE0E16160612361A8B9144AD46213E064
:200EC00000207047002070474FF0FF33E3610023636123610D4B1C630BE0E161636100205C
:200EE00020611846134604611BB1DA69511AD9615C610748FFF753FDFFF7CCFD012010BDA2
:200F0000E161002262612261D7E700BF440000206000002048B108B501461320FFF79EFF03
:200F200080F00100C0B2404208BD6FF003007047F0B1F8B50C4617461D4606460378F32B29
:200F400019D100291ADBFFF73CFAB0B9CDB129464320FFF783FFB8B10D4B5D6929463046C0
:200F6000FFF705FD6C6285F823706FF0010004E06FF0030070476FF00300F8BD6FF00300C5
:200F8000FBE76FF00200F8E76FF00100F5E700BF4400002070B52A4B5D69002D3DD00446EC
:200FA0000E4600283CD00378F52B3CD1037E53B9C5600361EB6A436103B11861EC62012353
:200FC0002376002070BDC27812F0010F02D0C168A94216D06EB312F0020F06D0E36895F930
:200FE000202093F92010914211DB31465320FFF735FF08B329462046FFF7B9FC6FF0010087
:20100000E0E7FF2B12D0013303760020DAE783F82020E068FFF7D6FCE7E74FF0FF30D1E7B0
:201020006FF00300CEE76FF00300CBE76FF00200C8E76FF00200C5E76FF00100C2E700BFA0
:201040004400002008B58847DFF804C000DFFEE75D4000084378332B00D0704710B50446ED
:2010600090F82320416AFFF749FC014600B910BD00222046FFF750FDF9E72DE9F04F83B0BF
:201080000191002800F0DF808146002A00F082805768946807F00603062B00F0D680D4B1AD
:2010A000D168502940F0D3801669556936B116F0070F40F0CE80002D00F0CD80D2F800B059
:2010C000D2F81880B8F1000F09D008F1FF32372A07D900245AE0D1680029E5D056E04FF0C8
:2010E00018082246002B5BD04DB115F0070F40F0B480A5F148025B4B9A4200F2B080002CE5
:2011000052D04FF0000A002E64D0F12323700123637084F802A007F00F07E770C4F804B072
:201120000023A360E36023616361A361E3614FFA88F884F8208084F82180FD2284F82220D7
:2011400084F823306362A362E36226636563403D3544A563C4F83C90434B3360A36B18464D
:2011600003F13801002243F8042B9942FBD13F4B83634FF08073C363019B0362C0F82490DA
:201180003B4B3C4A1A662046FFF796FC204603B0BDE8F08F934616464FF0180800252F466A
:2011A00047F0020714469FE7314BD3F8880040B1FFF7A3FA04464FF0010A002CA3D1002464
:2011C000E4E7012250212A4BD3F88000FFF7FEF90446F0E7BDB9264BD3F8840040B1FFF7C5
:2011E0008CFA0646E8B14AF0100A4FF4406512E000224FF440611E4B586FFFF7E7F90646FE
:201200004FF4406506E000222946194B586FFFF7DDF906462EB14AF0020A002C7FF475AF44
:20122000CDE7BAF1000FCAD0114BD3F8880018B12146FFF7B3FAC2E721460D4BD3F8800071
:20124000FFF708FABBE70024A0E700249EE700249CE700249AE7002498E7002496E70024EC
:2012600094E700BFB7FFFF7FA52E5AE245100008440000205510000810B50446806918B102
:2012800000221146FFF748FC6378232B00D010BDA36800229A61FAE710B50446C37813F07F
:2012A000010F0BD0042343700023C360184B5B6B836003B1D860164B5C6310BD0023437068
:2012C0000370837813F0020F08D013F0100F11D0016B0F4BD3F88400FFF760FAA37813F02E
:2012E000010FEAD00A4BD3F8880048B12146FFF755FAE2E7016B064B586FFFF7ABF9EDE71C
:201300002146034BD3F88000FFF7A4F9D5E700BF4400002038B570B304460378F12B2DD16C
:2013200000292EDB4378042B2ED000F1280353E8002F42EA010543E8005000B1F7E76378F6
:20134000332B01D0284638BD94F82320616A2046FFF7D4FA01460028F4D094F8233013F022
:20136000020F06BF656A20EA0505054601222046FFF7D2FBE6E76FF00305E3E76FF00305B8
:20138000E0E76FF00305DDE76FF00205DAE70C4B5B6973B100280FDB10B4283353E8002F5A
:2013A00022EA000143E8001404B1F7E7104610BC70474FF0FF3070476FF00300704700BF78
:2013C00044000020F8B5114B5F69AFB104460D461646002813DB0A4601463846FFF78EFAD6
:2013E00048B97EB17C6287F8235031463320FFF735FD6FF00100F8BD4FF0FF30FBE76FF037
:201400000300F8E76FF00200F5E700BF4400002010B4114B5B6C00245BB11A698A420ED83E
:20142000891ADA681C4622B11346F6E70A4B58640FE0016183600022C2601C4606E0016129
:201440008460C3601A69511A19619860002CEDD0E06010BC704700BF44000020C36833B147
:201460001A6901690A441A61C36882689A60836813B1C268DA607047C268014B5A647047F2
:2014800044000020002836D0F8B50C4615460646012932D8E3B11F689868B0B1DB68202BD6
:2014A0002DD10022F22303700123437082709C4214BF00240124C470476000238360C360BD
:2014C000036143618661C561F8BDDB680BB1FBE71F460C4BD3F88C0028B1FFF70EF9002850
:2014E000F2D00122DEE701222021064BD3F88000FFF76CF8F3E7002070470020E4E700202C
:20150000E2E700BF44000020C8B138B50C4605460378F22B16D1C1B14378022B0BD00E4BCF
:201520001B6DABB102234370696121462846FFF76FFF002038BD4161FFF790FFF5E76FF075
:20154000030070476FF00300F4E76FF00300F1E76FF00200EEE700BF4400002060B108B533
:201560000278F22A0BD14278022A0BD101224270FFF774FF002008BD6FF0030070476FF09C
:201580000300F8E76FF00200F5E740B10278F22A07D14078022814BF002001207047002000
:2015A00070470020704710B310B504460378F22B20D14378022B0FD0002363702370A378D7
:2015C00013F0010F19D00E4BD3F88C0038B12146FFF7E4F8002011E0FFF740FFECE72146BD
:2015E000074BD3F88000FFF735F8002006E06FF0030070476FF0030000E0002010BD00BF1E
:20160000440000200346EFF3058050B9EFF3108252B9EFF3118131B91846DFF810C000DFEC
:201620007047002070471046704700BF8B150008024B4FF400621A83002070470000024000
:2016400013463AB1012A09D0022B05D8DFE803F0080B0D00064B0360002070470160FBE790
:20166000034B0360F8E70160F6E70B680360F3E738880008024B188AC04300F0010070478A
:20168000000002401AB1012A04D000207047024B0360FAE70160F8E7408800081AB1012AD0
:2016A00004D000207047024B0360FAE70160F8E7488800081AB1012A04D000207047024BE8
:2016C0000360FAE70160F8E7508800081AB1012A04D000207047024B0360FAE70160F8E734
:2016E000588800081AB1012A04D000207047024B0360FAE70160F8E7608800087047704732
:201700007047704770B582B005460E4600240094019401211046FEF7EBFD009601238DF884
:2017200004308DF806408DF8074003238DF8053069462846FEF79CFD02B070BD08230A4AF5
:201740004FF004014FF4804C518310F0800F14BFA2F818C0A2F81AC04000C0B21183013B98
:2017600013F0FF03F0D170470004024070B50446837853B98568AB6813B15B78832B3ED0DD
:2017800021462846FFF736F870BDC568436883B382689A60A3687BB362685A6000232370BE
:2017A00005F10C0621463046FEF7F8FFAB68002BEAD03046FEF7A1FF04460028E4D02846C1
:2017C000FFF7EDF8064600221146FFF7A5F9B66B6A6A716A04F10C0005F030FDF923237033
:2017E0000023A370B36AE37021462846FFF702F8CAE78368EB62CDE763682B63CEE7284665
:20180000FFF7CDF8064600221146FFF785F9B66B6A6A04F10C01706A05F010FDB36A0BB128
:20182000E2781A7000232370214605F10C00FEF7B5FFA9E7002848D02DE9F0410D46164636
:20184000984604460378FA2B42D1002943D0826812B15378832B16D004F10C00FEF74DFF23
:20186000074610B3626A29460C3005F0E7FCF9233B700025BD70FE7039462046FEF7BAFFEF
:201880002846BDE8F081FFF78AF8074601220021FFF742F9BF6B626A2946786A05F0CEFC84
:2018A000BB6ADBB11E700020EBE7B8F1000F17D041469320FFF7D2FAA8B10C4B5969204684
:2018C000FFF755F86FF00100DBE76FF0030070476FF00300D5E76FF00300D2E70020D0E77A
:2018E0006FF00200CDE76FF00100CAE744000020002865D02DE9F0410E4690461F460446E1
:201900000378FA2B5FD1002960D0FEF79EFF0546002847D04368002B3ED082689A60AB68A7
:20192000002B3CD06A685A60626A05F10C01304605F084FCB8F1000F02D0EB7888F800308D
:2019400000232B7004F10C0629463046FEF726FFA368002B3DD03046FEF7CFFE06460028D4
:201960003AD02046FFF71BF8054601220021FFF7D3F8AF6B626A796A06F10C0005F05EFC83
:20198000F92333700025B570BB6AF37031462046FEF730FF28461DE08368E362BFE76B68A1
:2019A0002363C1E7D7B139468320FFF757FAC0B10D4B59692046FEF7DAFF6FF0010009E000
:2019C0006FF0030070476FF0030003E06FF0030000E00020BDE8F0810020FBE76FF00200CE
:2019E000F8E76FF00100F5E74400002010B50446082104F0A3FB204610BD10B504460C212F
:201A000004F09CFB204610BD10B504460C2104F095FB204610BD10B50446082104F08EFB60
:201A2000204610BD08B50A4B1B78BFF35B8F13F0010F0BD1064804F0C8FF38B1054A0649B3
:201A4000064804F002FB024804F0CBFF034808BD8001002000000020751B000804000020B2
:201A600008B50A4B1B79BFF35B8F13F0010F0BD1074804F0AAFF38B1064A0749074804F07D
:201A8000E4FA034804F0ADFF044808BD800100208401002000000020451B00080800002076
:201AA000254B1B7A012B41D0002B41D110B5224C9C22002104F1080005F0E8FB1F4BE3650E
:201AC0001023A4F85430052323644FF400411C48FEF760FD10B11A4AC4F8802000210846DA
:201AE000FEF758FDE0B9144BD3F88020124B5A6700210846FEF74EFDA0B90F4BD3F880204E
:201B00000D4B9A6700210846FEF744FD60B90A4BD3F88020084BDA6701221A72002010BDBE
:201B20000022E3E70022EBE70022F3E7002070474FF0FF30704700BF440000202002002068
:201B40006802002010B50446024B036005F06FF9204610BD7088000810B50446044B0360EB
:201B600005F065F90421204604F0E8FA204610BD7088000810B50446024B036005F057F97A
:201B8000204610BD9888000810B50446044B036005F04DF90421204604F0D0FA204610BD72
:201BA0009888000838B504460368EBB1BFF35B8F1B7ABFF35B8FCBB10568ADB12868EFF339
:201BC000058343B9EFF310832BB9EFF3118313B9DFF81CC000DF686810B103685B689847B6
:201BE0000C21284604F0AAFA204638BD04F036FEB540000838B50446456935B12846FFF703
:201C0000D1FF0421284604F099FAE3681BB1201D032201469847204638BD10B54068036808
:201C20009B689847DFF824C000DFFEE7012909D104F037FB04F092FE044604F05BFB20469B
:201C400003F080FC04F02DFB04F008FE5D40000808B5836813B1C368984708BD04F0A8FF84
:201C600038B5054C04F1080502E02846FFF7F0FF2369002BF9D1FCE78001002038B5314B81
:201C80001B7A012B52D1304A00213048FFF7F5F92C4B986200F064F8044610B14FF0FF342F
:201CA00042E0284D2A4AE96C2A48FFF7E6F9A86400283ED0284BFF2283F8222093F822300D
:201CC00063F0FF03DB4337D0B3FA83F3C3F12003214AD268C2F30222934200D8531CFE22D6
:201CE00002FA03F3DBB21C4AD377FF2382F823304FF0E02306221A6147F6FF425A61002286
:201D00009A61164981F840200E4D4FF0FF322A611A6942F001021A6105F11C00FEF73FFEC3
:201D2000FEF7B8FE02232B72204638BD4FF0FF34FAE74FF0FF34F7E7074BDA68C2F30222CB
:201D4000CCE700BF44000020B8880008611C0008DC880008DD3C000800ED00E02002002044
:201D600038B50E4CFA2323700025A570E5706560A56008236362A562E5622563084B1422C4
:201D8000042104F10C00FEF790FC064B064A1A67DC64064A1A65284638BD00BF688200203F
:201DA0009C820020440000206D170008213D000830B500F1080404600B4653F8082B9342A5
:201DC00009D002608A6882604A6842600B6000234B600B7230BD1568D2F804E0D2F808C040
:201DE000D2688560C0F80CE0C0F810C04261EBE708B50346024652F8080B904203D09968D2
:201E0000013104F09BF908BD08B5012A03D022B105F014FA01E00B78037008BD08B50B68E6
:201E2000002B0EDB934206D95000B3EB420F02D2002809DB08600868013008D404F0D4FD11
:201E400008BD044804F096FE6FF000430B6004F08BFE00BF5890000870B582B0054681B1DC
:201E60000E46541A01940F2C12D80068012C1BD10B780370019B6B602A680021D15402B07E
:201E800070BD12B900230193F4E7094804F06FFE002201A9FFF7C2FF2860019BAB602246EC
:201EA000314605F0CBF9E5E7002CE3D0F7E700BF7090000838B5044600F1080303600D46B9
:201EC00059B1084604F096F82A184FF0000329462046FFF7C1FF204638BD0122F5E710B5FA
:201EE0000446052A0FDC12F1060FC0F2A18006320B2A00F29D80DFE802F0594E43382D22ED
:201F000016646F7A85906FF000439A4240F0908000F1080303604C4A4FF00003A2F12D0193
:201F2000FFF79AFF09E000F108030360474A4FF00003A2F12001FFF78FFF204610BD00F19B
:201F400008030360424A4FF00003A2F14601FFF783FFF2E700F1080303603E4A4FF00003F1
:201F6000A2F13101FFF778FFE7E700F108030360394A4FF00003A2F11601FFF76DFFDCE76E
:201F800000F108030360354A4FF00003A2F10F01FFF762FFD1E700F108030360304A4FF057
:201FA0000003A2F15A01FFF757FFC6E700F1080303602C4A4FF00003A2F15901FFF74CFFF2
:201FC000BBE700F108030360274A4FF00003A2F12301FFF741FFB0E700F108030360234AFD
:201FE0004FF00003A2F13101FFF736FFA5E700F1080303601E4A4FF00003A2F13501FFF75B
:202000002BFF9AE700F1080303601A4A4FF00003A2F14E01FFF720FF8FE700F10803036044
:20202000154A4FF00003A2F13201FFF715FF84E704F108032360114A4FF00003A2F10D0103
:202040002046FFF709FF78E749920008BC900008069100083991000852910008639100082E
:20206000BE910008199200086F920008A1920008D99200082A9300085E9300086D930008D9
:2020800010B504460632052A3CD8DFE802F0303B251A0F0300F108030360204A4FF0000336
:2020A000A2F10D01FFF7D8FE204610BD00F1080303601B4A4FF00003A2F15701FFF7CCFECF
:2020C000F2E700F108030360164A4FF00003A2F17801FFF7C1FEE7E700F108030360124ADC
:2020E0004FF00003A2F11A01FFF7B6FEDCE700F1080303600D4A4FF00003A2F15901FFF7A8
:20210000ABFED1E700F108030360094A4FF00003A2F10D01FFF7A0FEC6E700BF7D930008B1
:20212000D7930008509400086E940008199200086D9300082DE9F04F83B004460D461E46F3
:202140000C9F436801EB0208A3EB0809BA1A1A44019282465AF8083B9A4514BF82680F22A5
:2021600001A9FFF75BFE834695B906B1D7B9B9F1000F24D12068824503D0A168013103F00A
:20218000DDFFC4F800B0019BA36003B0BDE8F08F2168012D03D02A4605F050F8E5E70B78FB
:2021A0000370E2E70BEB0500012F04D03A46314605F044F8DBE733780BF80530D7E73D44D8
:2021C0000BEB0500236803EB0801B9F1010F03D04A4605F033F8CDE713F808300BF8053016
:2021E000C8E770B582B004464668B51850F8083B834214BFA0680F20854210D832B965605B
:20220000236800225A55204602B070BD9819012A02D005F013F8F2E70A789A55EFE70092BD
:202220000B46002231462046FFF784FFE7E738B504460D46084603F0DDFE6368C3F1FF43A0
:2022400003F5FF0303F5FF437F33834205D3024629462046FFF7C5FF38BD014804F08AFC6C
:20226000709400082DE9F04F85B0154698460E9E426805F10043013B9B1A9E4234D80446D9
:202280000F46A6EB050B02EB0B09034653F808AB9A4514BF83680F234B45C0F0A5800AEBD7
:2022A000010303936B18D31A0293C2451FD8524490451CD8002E42D1029BEBB1B54243D19D
:2022C000B54219D2039B1D4408EB06039D4259D245456BD808EB0B01012E62D066B132465B
:2022E000039804F0ABFF07E0424804F043FC029B0BB1B5420AD1AEB9C4F804902368002272
:2023000003F80920204605B0BDE8F08F039A90195119012B03D0029A04F09EFFEBE7535DFC
:202320009355E8E7012E05D032464146039804F085FFE1E798F800300AF80730DCE7B54255
:202340000CD2029B002BBDD0039B98195919029B012B13D0029A04F07FFFB1E7012E05D033
:2023600032464146039804F077FFA5E798F800300AF80130029B002BA2D09FE7039A535DCD
:2023800093559DE7012E07D0002EB5D032464146039804F061FFAFE798F800300AF807309B
:2023A000AAE718F80B300AF80730A5E7A5EB0805012D06D04DB12A464146039804F04CFF0C
:2023C00003E098F800300AF80730039B58199919721B012A04D0002A8ED004F02FFF8BE7B8
:2023E0001A469B5D535587E7009643462A46FFF7A1FE81E78894000810B582B04468A14239
:202400000BD8641ADDF810C0CDF800C0A24228BF2246FFF727FF02B010BD23460A4602495F
:20242000024804F0AAFB00BFA4940008BC940008F0B583B00546084614464E685268B71858
:2024400051F8083B8B4214BF81680F218F4215D9214651F808CB8C4514BFA1680F218F4247
:202460000CD80096002211462046FFF7C5FF01462846FFF79DFC284603B0F0BD2168FFF7B8
:20248000B0FE01462846FFF793FCF4E770B582B005460C461646104603F0ACFD6B689C4286
:2024A00008D800903346002221462846FFF7DAFE02B070BD22460249024804F05EFB00BF86
:2024C000A4940008BC94000830B595B00446684680E806001D46114613681B69009A0EA8CB
:2024E00098471E4A00210EA8FFF7D0FF014608A8FFF75EFC2A46002108A8FFF7C7FF01466E
:2025000002A8FFF755FC02A9204604F021FB10E0044602A8FFF76CFC08A8FFF769FC0EA8A6
:20252000FFF766FC204603F00DF80446F4E70446F5E702A8FFF75CFC08A8FFF759FC0EA8F1
:20254000FFF756FC2346064A43F8082B0199009883E80300204615B030BD00BFF494000805
:20256000F099000870B58CB006460D4613680993002313600C2004F037FA044600230360FC
:20258000099A426009930372029303930793089301230193EB6800932B6804936B68059352
:2025A000AB680BB1069301E018230693EFF3058383BBEFF310836BBBEFF3118353BB1F48D0
:2025C00021466A46DFF878C000DF206020B33460099810B103685B68984730460CB070BD41
:2025E000184A1949304604F09FF9054603E00546304603F015FE201DFDF7BCFE0C212046A2
:2026000003F09CFD09A8FDF7B5FE284602F09AFF0546F7E700232360102003F0EBFD0646B7
:20262000FFF700FA4FF0FF330A930B90074B0CAA12E906003046FFF747FFD1E71B1C00084F
:202640007B100008E56D00080C990008F89400082DE9F04188B0064690461F460E9D20205B
:2026600004F0C2F90446EC4695E803008CE8030094E8030085E803009CE8030084E8030053
:20268000AB680022AA60A360E968E068E860E1602261C4F81880E761A3B1E369002B5FDAB3
:2026A000102003F0A7FD0646FFF7BCF96FF0030304930590394B02466FF003013046FFF730
:2026C00003FF17E0102003F095FD0646FFF7AAF96FF0030306930790314B08AA12E90600A3
:2026E0003046FFF7F1FE2F4A2F49304604F01CF905460DE02B4A2C49304604F015F9294A02
:202700002949304604F010F90546304603F088FD2046FDF715FE2021204603F00FFD28461A
:2027200002F010FF0546304603F07AFDF0E70546304603F075FDEBE700232361102003F0D4
:2027400059FD0646FFF76EF94FF0FF3302930390164B02464FF0FF313046FFF7B5FECEE7F5
:202760000F99003918BF0121EFF30583002BE3D1EFF31083002BDFD1EFF31183002BDBD199
:202780000B482246DFF82CC000DF20610028D5D03460304608B0BDE8F08100BF2895000832
:2027A00004950008E56D00080C9900081C950008B92D00088514000830B583B001684468FC
:2027C000620142EAD1624B015B1A62EB0402920042EA93729B005B1844EB0204E40044EA0B
:2027E0005374DB001D46012B74F1000318DBFDF7B9FE8446A0FB05011C4A00230CFB041192
:2028000003F0AEF8EFF305830BBBEFF310834BB9EFF31183C3B9DFF858C000DF044618B99B
:2028200003B030BD6FF00504102003F0E3FC0546FFF7F8F8009401900E4B02AA12E9060032
:202840002846FFF741FE05E06FF00504ECE76FF00504E9E7084A0949284604F065F80446D0
:20286000284603F0DDFC204602F06CFE40420F00150F00084C950008E56D00080C990008AF
:202880002DE9F04188B006460125DFF81481454F37E0EFF31183002B4FD1284603214FF09E
:2028A000FF32C44600DF041E34DBEFF30583002B52D1EFF31083002B51D1EFF31183002BB2
:2028C0005ED12846BC4600DF041E4ADB7068C36813B10430FFF7BCF97368D3E90623CDE917
:2028E000022302A8FFF768FF0423009300238DF804300C238DF805308DF806506846FDF7B0
:2029000071FCEFF30583ABB9EFF31083002BC0D06FF00504102003F06DFC0546FFF7A0F87F
:2029200006940790204B08AA12E906002846FFF7CBFD05E06FF00504ECE76FF00504E9E7C4
:202940001A4A1B49284603F0EFFF0446284603F067FC204602F0F6FD6FF0050401E06FF05F
:202960000504102003F046FC0546FFF779F804940590104B024621462846FFF7A5FD02E018
:202980006FF00504EDE7094A0949284603F0CCFF0446284603F044FC204602F0D3FD00BF58
:2029A000C51300088F13000854950008E56D00080C9900086895000808B5012A03D022B102
:2029C00004F04AFC01E00B78037008BD70B582B0054681B10E46541A01940F2C12D8006869
:2029E000012C1BD10B780370019B6B602A680021D15402B070BD12B900230193F4E70948FC
:202A000004F0B5F8002201A9FFF708FA2860019BAB602246314604F011FCE5E7002CE3D097
:202A2000F7E700BF7090000810B504460B4600F10802026009685A684FF000030A44FFF77B
:202A4000C5FF204610BD70B592B004460E461546194606A8FFF7E8FF1E4906A8FFF7E7FB48
:202A600006E0044606A8FFF7C3F9204602F06AFD2B681B69324629460CA898470CAA06A911
:202A80006846FFF7D5FC6946204604F061F810E004466846FFF7ACF90CA8FFF7A9F906A8E2
:202AA000FFF7A6F9204602F04DFD0446F4E70446F5E76846FFF79CF90CA8FFF799F906A871
:202AC000FFF796F9044B2360A660E560204612B070BD00BFF4940008F099000830B583B007
:202AE0000446019115460F2908D8019A72B9019B636022680021D15403B030BD002201A926
:202B0000FFF78CF92060019BA360EEE72068012A03D0294604F0BAFBE9E70570E7E708B5D8
:202B20000B461146012B04D023B11A4604F0AEFB00E0027008BD2DE9F04182B00F461D46D4
:202B40009DF82080416802F10043013B5B1A9D421CD80446AE1A0E44034653F8080B9842F8
:202B600014BFA3680F23B34218D3D319CB1A1BD0AA4219D000EB070C0CEB05000CEB0201E0
:202B8000012B06D01A4604F067FB0DE0114803F0F1FF1CF802300CF8053005E00095002338
:202BA00039462046FFF7C6FA3DB96660236800229A55204602B0BDE8F0812368D819012D4A
:202BC00004D02A46414604F061FBEEE703F80780EBE700BF7C95000800B583B00B464168F7
:202BE00000920022FFF7A7FF03B05DF804FBF0B595B00646144608A8FFF716FF28220121C7
:202C000008A8FFF7E9FF06E0044608A8FFF7F0F8204602F097FC25462246012142F20F70D5
:202C200042F21073092A02D9632A07D8013110AB0E9300220EA8FFF751FF0CE0B2F57A7F2B
:202C400001D20231F3E7824201D80331EFE7B2FBF3F20431E6E70E9A0F9B13446420284FB5
:202C6000632D0FD9B5FBF0F400FB1451254607EB410191F8C94003F8014C91F8C81003F813
:202C8000021DEDE7092D0ED91D4B03EB450595F8C930537095F8C83013700EAA08A902A820
:202CA000FFF7C6FB02E030351570F6E72923009301230022039902A8FFF73DFF10E00446DD
:202CC00002A8FFF795F80EA8FFF792F808A8FFF78FF8204602F036FC0446F4E70446F5E78F
:202CE00001463046FFF764F802A8FFF781F80EA8FFF77EF808A8FFF77BF8304615B0F0BD89
:202D000038880008F0B58FB00446006868B1EFF305836BB9EFF310836BB9EFF31183CBB91B
:202D2000DFF884C000DF054638B920460FB0F0BD6FF0050501E06FF00505102003F05AFA61
:202D40000646FEF76FFE07460DAA184907A8FFF7B1F802E06FF00505EFE7226807A901A80E
:202D6000FFF745FF01AB3A4629463046FFF76BFE01A8FFF73DF807A8FFF73AF80C4A0D4952
:202D8000304603F0D1FD044601A8FFF731F807A8FFF72EF8304603F043FA204602F0D2FB54
:202DA0000446F4E70446F5E7390B00089C950008E56D00080C990008F0B58FB004460069A5
:202DC000FEF720FC08B90FB0F0BDA368ABB1E368204698470028F6D12069EFF3058373B9B0
:202DE000EFF3108373B9EFF31183D3B9DFF888C000DF05460028E6D006E003F0D9FE6FF0FA
:202E0000050501E06FF00505102003F0F3F90646FEF708FE074601AA184902A8FFF74AF8CD
:202E200002E06FF00505EFE7226902A908A8FFF7DEFE08AB3A4629463046FFF704FE08A8F9
:202E4000FEF7D6FF02A8FEF7D3FF0D4A0D49304603F06AFD044608A8FEF7CAFF02A8FEF763
:202E6000C7FF304603F0DCF9204602F06BFB0446F4E70446F5E700BF5D150008B0950008BF
:202E8000E56D00080C990008F0B58FB004460568C5B12869EFF30583BBB9EFF31083BBB9C2
:202EA000EFF311831BBBDFF8A4C000DF064688B9AB681BB1032229462846984720212846B0
:202EC00003F03CF920460FB0F0BD6FF0050601E06FF00506102003F08DF90446FEF7A2FDBC
:202EE000074601AA1A4902A8FEF7E4FF02E06FF00506EFE72A6902A908A8FFF778FE08ABC6
:202F00003A4631462046FFF79EFD08A8FEF770FF02A8FEF76DFF0F4A0F49204603F004FD99
:202F200008E008A8FEF764FF02A8FEF761FF204603F076F92846FDF703FA2021284603F0D9
:202F4000FDF803F08BFCEFE7F1E700BFA7150008BC950008E56D00080C99000838B504463A
:202F6000C56C35B12846FFF7CDFE0421284603F0E5F8A56C35B12846FEF714FE04212846A9
:202F800003F0DCF8236C23B104F13800032201469847236B23B104F12800032201469847C5
:202FA000236A23B104F11800032201469847656835B12846FFF768FF0421284603F0BEF89E
:202FC000204638BD0421284603F0B8F803F046FC38B50446056835B12846FFF755FF0421C4
:202FE000284603F0ABF8204638BDF0B591B00468F4B1A569E669FDF7B5FA0146A0FB05058F
:20300000384A002301FB065102F0AAFC01462069EFF3058313BBEFF3108313BBEFF311835F
:2030200073BBDFF8C4C000DF0546E0B911B0F0BD102003F0DFF80446FEF7F4FC6FF0020349
:2030400001930290294B02466FF002012046FFF73BFA274A2749204603F066FC6FF0050596
:2030600001E06FF00505102003F0C4F80646FEF7D9FC074603AA204904A8FEF71BFF02E011
:203080006FF00505EFE7226904A90AA8FFF7AFFD0AAB3A4629463046FFF7D5FC0AA8FEF7DD
:2030A000A7FE04A8FEF7A4FE114A1249304603F03BFC04460AA8FEF79BFE04A8FEF798FE11
:2030C000304603F0ADF8204602F03CFA0446F4E70446F5E70546204603F0A2F8284602F06B
:2030E00031FA00BF40420F0009150008CC950008E56D00080C990008DC95000870B588B0E9
:20310000054614461E46036833B11B6823B11869FEF778FA00283FD12346720142EAD462A2
:203120006401E41A62EB0602920042EA9472A400E41842EB0603DB0004951F4A07921F4A5E
:2031400006920122019204AA0092E20043EA547303A8FFF77DFA069B1BB1032204A9084666
:203160009847042003F040FC039B0360002303932C68286034B12046FFF786FE04212046F7
:2031800002F0DCFF0E4B4FF400625A832868FFF72CFF03A8FFF778FE08B070BD044604A8E4
:2031A000FDF7CEF8204602F0CDF9044603A8FFF76BFE204602F0C6F931160008411600081E
:2031C0000000024008B5044804F024FF322200230248FFF793FF08BDEC950008980100203D
:2031E00008B5044804F016FFC82200230248FFF785FF08BD009600089801002010B5084CB7
:20320000BFF35B8F216ABFF35B8F064804F002FF3222002304F11800FFF770FF10BD00BF33
:20322000800100201896000808B50A2200230248FFF764FF012008BD9801002070B5AAB06A
:20324000A34804F0E7FE32220023A248FFF756FFA14B0E93A14B0D93A14B9B6F002B7BD079
:2032600001AB0BAC94E8030083E8030014AA92E8030084E8030093E8030082E803000D9EBE
:2032800000210D910E9D17990E91954C04F1700C9CE8030082E8030093E803008CE803003A
:2032A000A36F1693A667E26F1792E5671BB1032214A9084698470D9B1BB103220BA908468A
:2032C000984701AB07AC94E8030083E8030018AA92E8030084E8030093E8030082E803002A
:2032E000002109911B990A917D4C04F1800C9CE8030082E8030093E803008CE80300D4F8C5
:2033000088301A93774AC4F88820D4F88C201B92754AC4F88C201BB1032218A908469847F8
:20332000099B1BB1032207A9084698476F4B06936F4B05936A4BDB6A002B4CD06C4B032259
:2033400003A90846984700232593269327932893082003F049FB9CE00F9310931193129322
:203360000C2003F041FB634B0360634B4360139013AA0FA901A8FFF7F5F8139810B1036815
:203380005B689847042003F02FFB019B036000230193534BD3F89040C3F8900034B12046C5
:2033A000FEF700FC0421204602F0C8FE01A8FEF7F9FB55E704460D4613A8FCF7DBFF0BA833
:2033C000FCF7BEFF20462B467CE004460D4601A8FEF7E8FBF3E701AB03AC94E8030083E8CD
:2033E000030020AA92E8030084E8030093E8030082E8030000240594069492E80300384AD3
:2034000002F1240585E80300394BD362374B13631C941D941E941F940C2003F0E5FA374B29
:2034200003602B1F4360249024AA1CA901A8FFF799F8249810B103685B689847042003F024
:20344000D3FA019B036000230193254B5C6B586334B12046FEF7A6FB0421204602F06EFE2D
:2034600001A8FEF79FFB059B002B3FF46CAF66E704460D4624A8FCF77DFF03A8FCF760FFD9
:2034800020462B461EE004460D4601A8FEF78AFBF3E71B4B0360299029AA25A901A8FFF7FB
:2034A00061F8299810B103685B68984701A8FEF779FB2AB070BD04460D4629A8FCF75AFF51
:2034C00020462B46022B23D102F0EBFE03F046FA2896000898010020C53100089D160008AE
:2034E00080010020B5160008E1310008FD310008CD160008D4890008C8010020E889000856
:20350000FC89000804460D4602F0F4FE20462B46012B09D002F016F804460D464FE70446A4
:203520000D46AAE70B46CDE702F0BBFE03689B6898470146054804F06DFD02F0DBFEB8E74E
:20354000044602F0D7FE204601F0FCFF38960008F0B58FB004460F46102002F04BFE0646F8
:20356000FEF760FA05460DAA1A4907A8FEF7A2FC3A4607A901A8FFF73AFB01AB2A462146CE
:203580003046FFF760FA01A8FEF732FC07A8FEF72FFC114A1149304603F0C6F90D460BE0AF
:2035A00004460D4601A8FEF723FC07A8FEF720FC304602F035FE2046012D07D001F0C2FF39
:2035C00004460D46F1E704460D46F1E702F069FEFEE700BF40960008E56D00080C9900081F
:2035E0002DE9F047BAB0A74B1093A74B0F93012301930DAB0093A54A002305A8FFF728F813
:203600000DA8FCF79DFE05A8FFF7EFFC02A8FCF759FF029D002308930993022307939C4B45
:203620000693EFF3058393B9EFF310837BB9EFF3118363B906A8DFF85CC200DF044630B153
:2036400064260027DFF85082DFF850929AE0102002F0D0FD0546FEF7E5F94FF0FF331193BB
:2036600012908F4B02464FF0FF312846FEF72CFF8C4A8D49284603F057F9044603E00446B5
:20368000284602F0CDFD05A8FFF7FEFB204601F059FFEFF30583ABB9EFF31083ABB9EFF32C
:2036A00011830BBB20464FF0FF31C44600DF824668B902A8FCF706FF0299491B484604F0E6
:2036C000A9FC50E06FF0050A01E06FF0050A102002F090FD0646FEF7A5F9054613AA734906
:2036E00014A8FEF7E7FB02E06FF0050AEFE7224614A91AA8FFF77BFA1AAB2A46514630467D
:20370000FFF7A1F91AA8FEF773FB14A8FEF770FB644A6549304603F007F903460AE0054695
:203720001AA8FEF765FB14A8FEF762FB304602F077FD2B46EFF30582002A6BD1EFF31082D4
:20374000002A76D1EFF31182002A75D12046DFF860C100DF064600285ED11C4693E705460C
:20376000E1E70546E2E7EFF305838BB9EFF310838BB9EFF31183EBB92046DFF838C100DFD7
:20378000824650B9CDE90A670AA8FFF715F880E76FF0050A01E06FF0050A102002F02AFD0F
:2037A0000646FEF73FF9054620AA434921A8FEF781FB02E06FF0050AEFE7224621A927A88E
:2037C000FFF715FA27AB2A4651463046FFF73BF927A8FEF70DFB21A8FEF70AFB314A3249E6
:2037E000304603F0A1F8054627A8FEF701FB21A8FEF7FEFA304602F013FD2B469AE7054651
:20380000F5E70546F6E704460DA8FCF799FD204601F098FE6FF00506102002F0EBFC054671
:20382000FEF700F907462DAA24492EA8FEF742FB05E06FF00506EFE76FF00506ECE7224637
:203840002EA934A8FFF7D3F934AB3A4631462846FFF7F9F834A8FEF7CBFA2EA8FEF7C8FAA5
:20386000104A1149284603F05FF834A8FEF7C0FA2EA8FEF7BDFA284602F0D2FC02F0EEFFC2
:20388000F6E7F8E729320008E5160008C0C62D00549600088F080008950F00087896000800
:2038A0005C960008E56D00080C99000868960008910D0008CB0C0008849600089496000828
:2038C000EFF305834BB9EFF3108333B9EFF311831BB9DFF80CC000DF7047024B58697047D1
:2038E000870300084400002008B5FFF731FE70B5194AB2F854305632D2E85F1F8B4202D8D3
:20390000BFF32F8F04E04C1CC2E8554F05B1F3E78AB2934203D801460220FFF7E5FF0E4A86
:2039200002F15804D4E85F1F4D1CAB4200D80025C4E8565F06B1F5E78BB2D16D41F82300E0
:20394000537A23B9054B4FF080525A6070BD024B01229A72FAE700BF4400002000ED00E029
:20396000F0B58FB005460068EFF305837BB9EFF3108363B9EFF311834BB9DFF8B0C000DFE1
:2039800004462646002C1ADB20460FB0F0BD88B10378F32B11D100291EDB00F10C0353E86D
:2039A000002F42EA010443E8004606B1F7E7FFF79EFFE6E76FF0030601E06FF00306102060
:2039C00002F018FC0746FEF74BF804460DAA184907A8FEF76FFA02E06FF00306EFE72A683B
:2039E00007A901A8FFF703F901AB224631463846FFF729F801A8FEF7FBF907A8FEF7F8F935
:203A00000C4A0D49384602F08FFF044601A8FEF7EFF907A8FEF7ECF9384602F001FC2046D0
:203A200001F090FD0446F4E70446F5E7AD0B0008A4960008E56D00080C9900082DE9F0436B
:203A4000A1B000230193EFF30583A3B90446EFF3108383B9EFF311836BB90020DFF85CC2EE
:203A600000DF019038B1012101A8FFF779FF042002F0BAFF15E0102002F0BCFB0446FDF7D9
:203A8000D1FF4FF0FF33049305908D4B02464FF0FF312046FEF718FD8A4A8B49204602F0BA
:203AA00043FF019A0260002201926268D56CD06475B12846FFF726F906E00546204602F0A1
:203AC000AFFB284601F03EFD0421284602F036FB01257E4F7E4ED2E00421284602F02EFBCD
:203AE00002F0BCFE2946FCF7A5FC8146002822DB6368D3F84C90D9F80000EFF30583002B53
:203B000052D1EFF31083002B51D1EFF31183002B5CD1294603224FF0FF33B44600DFB0F173
:203B2000000846DB6068036B002B00F09C802830FEF78EF897E0102002F05CFB0546FDF7ED
:203B40008FFF044606AA634907A8FEF7B3F9D8F8002007A90DA8FFF74AF80DAB22464946A5
:203B60002846FEF770FF0DA8FEF742F907A8FEF73FF9544A5449284602F0D6FE044609E010
:203B800004460DA8FEF734F907A8FEF731F9284602F046FB01A8FFF7B5F8204601F0D2FC24
:203BA0000446F1E70446F2E76FF0030801E06FF00308102002F01EFB0546FDF751FF0446F7
:203BC00013AA454914A8FEF775F902E06FF00308EFE7D9F8002014A91AA8FFF708F81AAB2E
:203BE000224641462846FEF72EFF1AA8FEF700F914A8FEF7FDF8334A3349284602F094FE05
:203C000004461AA8FEF7F4F814A8FEF7F1F8284602F006FBBEE70446F6E70446F7E76268FE
:203C2000136801331360606803684FEAE37C0269416903FB01F10CFB0211A2FB03230B4466
:203C4000D0F808C0C1688B4208BF62452FD062458B412CDB036C7BB13830FDF7F9FF0BE01D
:203C600002F0A6FF40B16368D3E90423CDE9022302A8FEF7A1FDD2E7636800221A6063680B
:203C8000D3F84C80D8F80000EFF30583002B7FF429AFEFF31083002B7FF424AFEFF3118381
:203CA000002B7FF41FAF2946BC4600DF1DE7036A002BD5D0436A18309847D3E73507000835
:203CC000B4960008E56D00080C99000835040008310F0008C4960008D896000800B583B042
:203CE000044600260D4D02E00198009B98474FF0FF33EFF30582002AFBD1EFF31082002A97
:203D0000F7D1EFF31182002AF3D1204669463246AC4600DF0028E7D0EBE700BFF118000899
:203D20002DE9F84F314B5C6C002C5CD0D3F814A02369013B23612D4F4FF0F908DFF8B090EC
:203D400023E0002E40D03378FA2B3DD106F10C00FCF7D3FC0546002836D0726A59460C304F
:203D600003F06CFA85F800800023AB70EB70C5F804B0AE602846FFF7BAFDE37813F0010F4C
:203D800029D1012363707C6C54B3236943BBE3680BB1A2689A60E3687B64FE6C04F1180B02
:203DA000EFF30583002BCCD1EFF31083002BC8D1EFF31183002BC4D13046594600221346D2
:203DC000CC4600DF0028D8D0084B9A695A6121460320FFF789FD61692046FDF719FBD2E71A
:203DE000024BC3F814A0BDE8F88F00BF440000203518000808B5FCF79DFB08BD38B54FF02A
:203E0000E0231B69624BDA680132DA60DC6A002C00F08480E369013BE361002B7ED111E022
:203E2000532B35D0632B29D0432B44D02046FCF7BFFD2046FCF7DAFD2469002C6CD0E36970
:203E4000002B67D16378732B0ED0E9D9832B3CD0932BEBD12378F12B08BF2346E6D1DB68D1
:203E60001A78F12AFBD0E1E72378F12B08BF2346DCD1DB681A78F12AFBD0D7E72378F12B3E
:203E800008BF2346D2D1DB681A78F12AFBD0CDE72378F12B18BF234604D12346DB681A78D6
:203EA000F12AFBD0DA7812F0020FBFD0D86890F92110C36A15E02378F12B08BF2346B5D19F
:203EC000DB681A78F12AFBD0B0E72378F12B08BF2346ABD1DB681A78F12AFBD0A6E75B6921
:203EE0007BB1DA7812F0020FF9D09A68944208BF9268002AF3D092F920209142B8BF114676
:203F0000EDE790F920308B4290D080F82010FCF759FD8BE7002363611D4BDC620020FCF7C4
:203F2000CBFD1B4B1B6D03B19847194B1A6C6AB119469B69C96B994209D01549CB63D9691A
:203F400001B9DA61DA69013ADA611AB138BDDA69002AF8D10E4B1B7A022BF7D10C4B5C6ABD
:203F6000002CF3D0DB6B94F9202093F920309A42ECD12046FCF71CFD054DE86BFCF736FD8D
:203F80002046FCF787FDEC632B6CE361DEE700BF4400002070B5284C04F15A0501E0236ED3
:203FA000984704F15602B4F85410D2E85F3F13B9BFF32F8F04E0581EC2E8560F06B1F4E736
:203FC0009BB2002B34D0D5E85F3F581C814200D80020C5E8560F06B1F5E79BB2E16D51F852
:203FE000230028B30378F13B082BDCD801A151F823F000BF9F3F0008A73F00081940000843
:20400000A73F0008A73F00081F40000825400008A73F00082B400008636E9847C1E7A36E26
:204020009847BEE7E36E9847BBE7236F9847B8E70020FCF741FD70BD44000020036B826BDD
:20404000934206D21868044B984214BF0020012070470020704700BFA52E5AE238B5144B4E
:204060001B7A022B1DD1124B5B6AD3B1104D6C69E06AFCF701FE2046FDF7FEF805F11C001A
:20408000FCF78DFCFCF706FDEFF30983A3632046FFF7D4FF30B1064B00225A612046FDF7A2
:2040A000FBF838BDAA696A6121460120FFF71CFC4400002000284AD010B504460378F12B58
:2040C00048D1437803F00F03022B06D0032B21D0012B0CD06FF002001BE0214B1B7A022B53
:2040E0003BD11F4B5B6A23B96FF0020011E0FCF75FFCE06AFCF7C0FD2046FDF7BDF8637825
:20410000022B0DD00020FCF7D7FC2046FDF7C4F8002010BDFCF74CFC2046FCF771FCE8E7DC
:204120001048FCF73CFCFCF7B5FCEFF30983A3632046FFF783FF18B1094B00225A61E4E741
:20414000074B9A695A6121460120FFF7CDFB6FF0030070476FF00300DBE76FF00200D8E7AC
:2041600044000020600000202DE9F04F9DB0C34BC34ADA60C34B1868002302221946806848
:2041800003F078F9C04D042220212846FDF7BAFA20266E83BD4C022204212046FDF7B2FAA2
:2041A00002224FF480412046FDF7ACFA022211462046FDF7A7FA02224FF400512046FDF74F
:2041C000A1FA022201212046FDF79CFA4FF400536383012363832E8300238DF803309DF867
:2041E0000330013BDBB28DF80330002BF7D103F1804303F5013302225A8300238DF8033059
:20420000A34C9DF803305A1CD2B28DF80320234493F8D001FDF792FA9DF80330DBB20D2B75
:20422000EFD9AF20FDF78AFAB020FDF787FA0024964D022637466F83E0B2FDF77FFA10205D
:20424000FDF77CFA2E830020FDF778FA0134102CF1D18E4B02225A83B820FDF76FFA002358
:204260008DF803309DF80330DBB25F2B1FD8874C02252E4666839DF8030000F00F00FDF7CE
:204280005DFA9DF80300000940F01000FDF756FA25830020FDF752FA9DF803300133DBB211
:2042A0008DF803309DF80330DBB25F2BE2D9DFF8DC914FF00208A9F81A80B020FDF73EFAE8
:2042C0000020FDF73BFA1120FDF738FAA9F81880704E002586F8985029462846FCF716F8DE
:2042E00001210846FCF704F8012402948DF80C508DF80F404FF0030A8DF80DA0664F02A911
:204300003846FBF7B5FF654B5C6104948DF814504FF00C028DF815208DF8164004A8FBF70B
:2043200061FF06238DF804304FF00F0B8DF805B08DF806508DF8074001A8FBF71FFF40F612
:20434000B8320023C6E91423C8220023C6E91623B564534B1693534B1593199517A913A8A6
:20436000FCF716F806F1600117A8FCF711F817A8FBF7E6FF13A8FBF7E3FF21462046FBF745
:20438000B7FF4FF4006108918DF824408DF826508DF827508DF825A008A93846FBF768FF78
:2043A0004FF40061398341462846FBF7AFFF21462046FBF79DFF21464046FBF799FF4FF0F7
:2043C0000408CDF818808DF81C508DF81F408DF81DA006A93846FBF74BFF1023069306A979
:2043E0004846FBF745FFBFF35B8F3562BFF35B8F32220023C6E90E23284BC3F81480CDF84C
:2044000020808DF824504FF00C028DF825208DF8264008A8FBF7E6FE08238DF820308DF8F6
:2044200021B08DF822508DF8234008A8FBF7A6FEEFF3058353B9EFF310833BB9EFF3118331
:2044400023B9EFF3148313F0010F13D1164B187A80B300230D930E930F931093082002F027
:20446000C3FA124B03601B901BAA0DA90AA8FEF779F83EE0DFF838C000DFE9E700ED00E018
:204480000003FA05F800002000080240000402403888000880010020000002400004014082
:2044A000751600088516000844000020208A00086D040008FCF73EF804460028C9D01020D3
:2044C00001F098FE0546FDF7ADFA119412902C4B024621462846FDF7F7FF2A4A2A49284655
:2044E00002F022FA0446284601F09AFE204601F029F81BA8FBF73EFFEFF30583C3B9EFF33B
:204500001083C3B9EFF3118333BBDFF880C000DF044690B90AA8FDF745FB00201DB0BDE827
:20452000F08F04461BA8FBF725FF204601F00AF86FF0050401E06FF00504102001F05AFE56
:204540000546FDF76FFA0B940C90114B024621462846FDF7B9FF02E06FF00504EDE7094AE2
:204560000949284602F0E0F9044603E00446284601F056FE0AA8FDF715FB204600F0E2FF99
:20458000EC960008E56D00080C9900087D1C0008009700082DE9F84FB2F1000867DD0D46AB
:2045A00001EB0807334EDFF8D09009F5FA7A11E0324B002283F8982002247483B020FDF732
:2045C000BDF80020FDF7BAF81120FDF7B7F83483BD424CD015F8014B0D2CE9D0274B93F872
:2045E0009830192BE8D80A2C18D00133DBB2234A82F898300E2B24D0A4F12003DBB203EB01
:2046000043035B005C1E544409F2F91B9B4414F8010FFDF793F85C45F9D1D9E70D2BD7D84C
:20462000164B0E2283F8982002247483B120FDF785F80020FDF782F81120FDF77FF8348376
:20464000C6E70020FDF77AF80020FDF777F84FF0020BA6F81AB0B120FDF770F80020FDF7AF
:204660006DF81120FDF76AF8A6F818B0C4E74046BDE8F88F000402403888000880010020DC
:2046800008B50121044BD3F89400FFF769F9034B01225A6108BD00BF80010020000401409F
:2046A000F0B591B04B4B1B8A13F0100F30D04A4BBFF35B8F53E8002F013A43E8002100296C
:2046C000F8D1BFF35B8F0423019300238DF808308DF80A3001A8FBF785FD404B5D6B28681B
:2046E00000B10068EFF30583FBB9EFF31083E3B9EFF31183CBB90121DFF8E4C000DF0446B2
:204700002646002C55DB374B04225A6111B0F0BD314BBFF35B8F53E8002F013243E80021FF
:204720000029F8D1BFF35B8FCDE700283CD00378F12B3CD14378042B48D000F1280301221E
:2047400053E8001F41EA020443E8004606B1F7E7FFF7CDF8D4E72A6802B1126804A90AA834
:20476000FEF745FA0AAB224631463846FEF76BF90AA8FDF73DFB04A8FDF73AFB1A4A1B491F
:20478000384602F0D1F804460AA8FDF731FB04A8FDF72EFB384601F043FD204600F0D2FE26
:2047A0000446F4E70446F5E76FF0030601E06FF00306102001F01EFD0746FDF733F904460A
:2047C00003AA0B4904A8FDF775FBC4E76FF00206EFE700BF00040240A00100208001002079
:2047E0001513000800040140E56D00080C990008109700087047FEE7FEE7FEE7FEE770478C
:2048000082B0414B1A6842F480721A6099683F4A0A409A601A6822F0885222F001121A60DB
:204820001A6822F480221A609A6822F47D029A600022DA60009201921A6842F001021A6081
:204840001A46136803F002030193009B01330093019B1BB9009BB3F5A04FF2D12A4B1B6832
:2048600013F0020F14BF012300230193019B012B05D0274B4FF000629A6002B07047254BF3
:204880001A6842F004021A601A6842F002021A601A6842F001021A601B4A536A43F0805359
:2048A00053621D4B4FF400621A601A46536813F0100FFBD1144B9A689A609A6842F460526E
:2048C0009A609A689A609A6822F47D029A609A6842F408029A601A6842F080721A601A4695
:2048E000136813F0007FFBD0074B9A6822F003029A609A6842F003029A601A46936803F00A
:204900000C030C2BFAD1B4E7003802400CC0FF8800ED00E0003C02400070004070B5144C9E
:204920000025E564A566A567C4F88850C4F89050C4F894500F4E32460F4904F1480001F0C7
:2049400084FB32460D4904F1180001F07EFB2562E562656332460A4904F1200001F075FBBC
:2049600025613246074904F1080001F06EFB70BD80010020000000205D2F0008D12F000808
:20498000F51B0008530300081EF0040F0CBFEFF30880EFF30980816911F8021C00292ED1A7
:2049A00001B590E80F10E047BDE80050CCF80000224B93E80600914208BF70471A60A9B1B7
:2049C000ACF1200CC1F838C006B40846FFF736FB06BC38B90120FEF787FF184B5A681A6040
:2049E000002103E0D1F838C08CE8F00F1400A06B6FF0020EB0E8F00F80F309887047104A45
:204A000013689942FAD801B552F821C00FC8E047BDE80050CCF80000704701B5FFF7BAFABF
:204A2000BDE80140EFF3098CC2E701B5FFF7E6F9BDE80140EFF3098CBAE70000580000206F
:204A4000C88C000803685A004CBF43F0004323F000431844704700BF2DE9F84339B34F1EE2
:204A6000044615463E464FF0000808EB060101EBD171491004EBC1094846FFF7E3FF0346DD
:204A8000C80008308F4220440BD0AB420BD8FFF7D9FF0138A84201F10108E6D34846BDE85E
:204AA000F883AB42FAD9884501D04E1EDDE74FF000094846BDE8F883012807D0022807D0F6
:204AC000044B00280CBF1846002070470248704702487047A9510008AD510008B15100084B
:204AE00030B5244B044683B08D1E3BB3284601A9AFF30080E8B101992A46FFF7ADFF014686
:204B0000B8B1FFF79FFF4B68A064012B2ED0002B27DB081DFFF796FF0023C4E91303036889
:204B2000002B12DBFFF78EFF03460020236103B030BD00230920236103B030BD0E4B0F492C
:204B40001846C91AC9100191D6E7C3F30360FFF7B3FF0028034614BF00200920236103B067
:204B600030BD0123081DC4E91303D8E7002305202361DCE7000000001CA60008B4A80008C0
:204B8000036810B5DA07044606D49B0700F1480009D500F05DFC2368590709D51A070ED511
:204BA000DB0613D510BD00F04BFC23685907F5D404F1D00000F054FC23681A07F0D404F506
:204BC000A87000F055FC2368DB06EBD404F5E870BDE8104000F090BC09207047034600683E
:204BE00000B11844704700BF704700BF70B504460E462046316CFFF773FF054698B9D6F824
:204C000040C03246214601202369C4F814C098470828EED0072806D12846316CFFF7E4FFC1
:204C2000301D00F001FC02F0D5FA00BF2DE9F0474FF0000AADF5727D0DF10C0E01F1040C79
:204C4000C768D0F8188006461446BCE80F00AEE80F00BCE80F00AEE80F00BCE80F00AEE826
:204C60000F009CE80F0002AD8EE80F00C5F800A021E02B6C4FF4F072294673617AA802F06D
:204C8000DDFA3146504633697AAA9847889C82466C643346324649460120CDE90058B84727
:204CA0000446F0B94FF4F07228467AA902F0C6FABAF1080F1BD13046296CFFF711FF04F165
:204CC00009095FFA89FA04460028D2D0A96B3346696432460120CDE900584AF01001B84787
:204CE00000B1092420460DF5727DBDE8F087BAF1070FF6D12046296CFFF776FF03A800F0DA
:204D000093FB00BF406C7047F0B54FF0FF37CB6BF9B00B6401AC01F1040C0E460546BCE889
:204D20000F000FC4BCE80F000FC4BCE80F000FC49CE80F0084E80F00009706E06A462946DB
:204D40002B6998470828044608D128461099FFF7C7FE0028F2D0092079B0F0BD6846FFF72E
:204D60000FFF062CF7D131462846FFF73FFF00BF10B414468461DC6BC16000221C641946E7
:204D800010BC53E770B54369C6680B64AEB90A46036904460D46014602209847072805D093
:204DA00008280FD129462046FFF720FF3046296CFFF71AFF281D00F037FB0122FFF736FF2A
:204DC00002F008FA02F006FAC2682AB1D1F83CC00022C1F840C029E796E700BF704700BF86
:204DE000836801460BB1012018477047012912D009D873B90F2A0CD800EB820042681846E3
:204E0000009B1A6070470339012994BF012002207047022070470846704700BF002300B59E
:204E200085B00A4603A900911946FFF7DFFF039805B05DF804FB00BF012912D009D873B901
:204E40000F2A0CD8009900EB820209681846516070470339012994BF012002207047022021
:204E600070470846704700BF002310B584B003AC039200940A461946FFF7DEFF04B010BDC0
:204E800070B54FF0FF36D36BADF50E7D13640DF15C0E02F1040C05460C46BCE80F00AEE846
:204EA0000F00BCE80F00AEE80F00BCE80F00AEE80F009CE80F008EE80F00169612E00C2150
:204EC00016A86A46FFF7D0FF214616A8A84778B969460820049B16AA98470528064608D0F4
:204EE000092805D068462699FFF7FAFD0028E6D0092616A8FFF744FE30460DF50E7D70BD1F
:204F00002DE9F04F1E46CC6C89B054F8043B0D46174600F003080694002E79D002228DF877
:204F20001C201A0C8DF81D201B04D2B2059304EB82042B6DB8F1020F08BFAC6B13F0010366
:204F40000CD0384605A900F071FB18B9082009B0BDE8F08F092009B0BDE8F08FD4F800A0A5
:204F6000BAF1000FEDD0019300F008030293022E4AD0B4F800A0B4F802900434AA6C0F2144
:204F8000384629F0010B9344FFF748FF834539D82AF001025A44824294BF002001204FEA35
:204FA000490303F002030AF0010A43EA0A03012B49D0022B32D0002BCCD1B8F1000F02D0A8
:204FC000002840F0CE800434D4F800A0BAF1000FCDD1384605A900F029FB0028BAD1019BA0
:204FE000002BB3D00F213846FFF718FF0E2102463846FFF739FF38460F216A4AFFF734FF9A
:205000000720A8E70020CAE7D4F804900834B5E71B0205930323ADF81C308AE7236823F0F6
:20502000004BB8F1000F45D128B1029A002A5CD0BBF1000F74D0002B00DA04340BF1010B48
:2050400004EB8B04C0E7B8F1000F19D1B0B163682268991C4FEAD2723FF47CAF05F15801F4
:205060000133049100F09180201DFFF7B7FD04AB0146284601F014FF00285CD10834A3E7FC
:205080000D213846D5F82090FFF7C8FE8145F5D1AB6A9C42F2D12046FFF7D4FC0F21024645
:2050A0003846FFF7E1FE38462A460021FFF7DCFE072050E70D213846D5F82090FFF7AEFE95
:2050C000814501D02368B6E7AB6A9C42FAD104230022C5E90B23E318C5F828B06B63236845
:2050E000002B5ADB01230193A8E705F15803CDF80C809146B04604F1040A1E460EE05046AF
:205100000496FFF76BFD0022014604AB284609F101090AF1040A01F0C3FEE8B9D945EED1D4
:205120000D213846FFF77AFE0346049A0620C5E909242B620FE781460D213846FFF76EFE15
:20514000B9F1020F286225D12B46049A43F82C2F6B620620AC62FEE646462368DDF80C8012
:2051600069E72046FFF76EFC02460434AC632846144601F0F3FE00283FF4ECAE3846224605
:205180000F21FFF771FE0720E5E60D213846FFF745FE2862049B6B62DBE70BF1010004EBFF
:2051A000800079E7EF6F00080023A9E60123A7E60223A5E62DE9F043064615461C46C3B0D1
:2051C000042900F2B880DFE801F09C56B62D0300002C40F0B080102A00F2AD800368D806BA
:2051E00000F1F18020AF384600F090F9012438460023B16B04FA03F22A4203F1010305D079
:205200000A4652F804CB1146C0F800C0042B00F10400EFD13846B16300F06EF9002043B076
:20522000BDE8F083032C40F0868094B204EB1243102B4FEA12457ED803681F0700F1CB8079
:2052400020AF384600F036F9B26B07EBC50154B10B4601EBC401D01AE4001D5843F8045B29
:205260008B42FAD122443846B26300F001F9002043B0BDE8F083012C4FEA124895B256D05B
:20528000052C58D108EB0509B9F1200F53D8B8F10F0F73D9A946002D40F08480B36B65B316
:2052A00020AF4FF0000907EBC807043F03EBC50553F8041BAB4247F8041FF9D1B9F1000FDF
:2052C0000FD06F464146102938BF102107EBC101843903EBC90553F8040BAB4241F8040F92
:2052E000F9D1012C7FD0B8F10F0FB56342D9B9F1000F02D0684600F0B3F8002043B0BDE8E2
:20530000F083C4B923460124826B371DA8B204FA03F101421CBF52F8041B47F82310013355
:20532000102BF4D115F40050E7D1B26304E008EB0503102B03D9022043B0BDE8F083B8F17B
:205340000F0FF8D83368DA0706D5304623F0030340F8483B00F078F820AF384600F074F8B5
:20536000B36B002D9DD11D4604353846B56300F067F8C2E720A800F06BF8B8E7B9F1100FC7
:205380003FD9A9F110093368D90708D5304623F0010343F0020340F8483B00F05DF8B9F17B
:2053A000000F31D033685A071FD4B8F10F0F24D96F46C8F11005384600F056F8002DB36BA0
:2053C00080DD20AF6FE723F01003336006F5E87000F09CF806E723F00803036000F5A87040
:2053E00000F068F82CE720AFBEE7304623F0040340F8D03B00F038F8D7E720A800F02CF849
:20540000D6E74FF00009BEE7B8F10F0F3FF646AF20AF384600F020F8B36B002D7FF441AFEE
:20542000384600F015F868E700F1340191E838009C46A6464CF8045D90E8FF0FE54600BDEA
:2054400090EC210B704700BF80EC210B704700BF90EC200B704700BF80EC200B704700BFF6
:20546000D0EC200B704700BFC0EC200B704700BFF0EC0201F0EC0211F0EC0221F0EC0231A6
:20548000F0EC0241F0EC0251F0EC0261F0EC0271F0EC0281F0EC0291F0EC02A1F0EC02B154
:2054A000F0EC02C1F0EC02D1F0EC02E1F0EC02F1704700BFE0EC0201E0EC0211E0EC0221FD
:2054C000E0EC0231E0EC0241E0EC0251E0EC0261E0EC0271E0EC0281E0EC0291E0EC02A114
:2054E000E0EC02B1E0EC02C1E0EC02D1E0EC02E1E0EC02F1704700BFB0FC0181B0FC0191AF
:20550000B0FC01A1B0FC01B1704700BFA0FC0181A0FC0191A0FC01A1A0FC01B1704700BF1B
:20552000EC4600B52DE900502DE9FF1F4FF000032DE90C0001A9FFF7E7FBDDF840E012B04D
:20554000704700BFEC4600B52DE900502DE9FF1F4FF000032DE90C0001A9FFF713FCDDF86C
:2055600040E012B0704700BFEC4600B52DE900502DE9FF1F4FF000032DE90C0001A9FFF74E
:2055800023FCDDF840E012B0704700BFEC4600B52DE900502DE9FF1F4FF000032DE90C00DA
:2055A00001ABFFF7E5FBDDF840E012B0704700BFEC4600B52DE900502DE9FF1F4FF0000379
:2055C0002DE90C0001AAFFF75BFCDDF840E012B0704700BF027A03467AB9427AA2B14FF03E
:2055E000030C4168013A427208680A1D5A60020283F808C0000E1A6070470068013A1A72FE
:2056000002021A60000E7047B0207047002300B585B003A900910C221946FFF7E7FB039876
:2056200005B05DF804FB00BFF0E700BF2DE9F0434FF0000805460E4685B03046FFF7CAFF73
:20564000B028044600F0BA80070620D500F0F003802B4DD0902B36D0A02B60D0B02B73D077
:20566000C02B00F08A8000F0F803D02B0BD100F00702013205230121284642F40022FFF751
:2056800099FD0028D9D0092005B0BDE8F0838300DBB21F1D00230DF10C0919460D2228462F
:2056A000CDF80090FFF7A2FB039B60064CBFDF1BFF1800230D2228461946CDF800900397D4
:2056C000FFF7BAFBB9E700F00D030D2BDBD0002303AF194600F00F0200972846FFF786FBEB
:2056E00000230D22284619460097FFF7A5FBA4E73046FFF76FFF24022043B0F5004FC2D0EA
:205700000023040119462846A2B2FFF753FD0028B9D114F4004F18BF4FF001088DE7C34358
:205720004FF47F6203F007031A410023010702F47F6248BF42F4804228461946FFF73AFDF2
:2057400000283FF47AAF9EE7B1283CD0B22800F0B080B3284AD000F0FC03B42B93D0012317
:2057600000F007021A442846194642F40022FFF721FD00283FF461AF85E7C6284FD0C728C6
:2057800061D000F0F803C02B70D0C8287CD0C9287FF479AF3046FFF71DFF052302460121E0
:2057A0002846140302F00F0204F470240A442243FFF700FD00283FF440AF64E7B8F1000FE2
:2057C0001CD0002060E73046FFF704FF024600283FF459AF10F0F0037FF455AF1946284625
:2057E000FFF7E8FC00283FF428AF4CE73046FFF7F1FE0123024619462846D2E703AC4346E5
:205800000E22414628460094FFF7F0FA43460F22284641460094FFF70FFB404634E7304695
:20582000FFF7D8FE02460323140302F00F0204F470240132284619462243FFF7BBFC00284E
:205840003FF4FBAE1FE73046FFF7C4FE024600283FF419AF10F0F0037FF415AF0421284610
:20586000FFF7A8FC00283FF4E8AE0CE7032300F00F0201322846194642F42022FFF79AFC7F
:2058800000283FF4DAAEFEE63046FFF7A3FE0246012102F0F00402F00F0210340A44052327
:2058A000284642EA0432FFF785FC00283FF4C5AEE9E600230DF10C090D2219462846CDF80D
:2058C0000090FFF793FA3046FFF784FE02064FF002040CD5039B00F07F00A04018440390BD
:2058E0003046FFF777FE030604F10704F2D4039B00F07F02A24003F501731A440023039285
:2059000028460D221946CDF80090FFF795FA94E60B464FF0030C00B5C26C1846536885B067
:205920000832029201A91A0E1B028DF80CC001938DF80D20FFF77AFE05B05DF804FB00BFDD
:2059400008B5FFF771FE806C08BD00BF08B5FFF76BFEC06CC379023300EB830008BD00BF0A
:205960007BB972B90029BEBF00204FF0004106E008BF00281CBF6FF000414FF0FF3000F0D4
:205980002DBBADF1080C6DE904CE002909DB002B1ADB00F04DF8DDF804E0DDE9022304B08B
:2059A0007047404261EB4101002B1BDB00F040F8DDF804E0DDE9022304B0404261EB41016F
:2059C000524263EB43037047524263EB430300F02FF8DDF804E0DDE9022304B0404261EB83
:2059E00041017047524263EB430300F021F8DDF804E0DDE9022304B0524263EB4303704746
:205A000053B94AB9002908BF00281CBF4FF0FF314FF0FF3000F0E2BAADF1080C6DE904CE41
:205A200000F006F8DDF804E0DDE9022304B070472DE9F047089E0D4604468846002B4DD1C2
:205A40008A42944668D9B2FA82F252B101FA02F3C2F1200120FA01F10CFA02FC41EA030832
:205A600094404FEA1C41B8FBF1F71FFA8CFE01FB178807FB0EF0230C43EA084398420AD97F
:205A80001CEB030307F1FF3580F01E81984240F21B81023F63441B1AB3FBF1F001FB10332B
:205AA00000FB0EFEA4B244EA0344A6450AD91CEB040400F1FF3380F00981A64540F2068176
:205AC000644402380021A4EB0E0440EA07401EB10023D440C6E90043BDE8F0878B4208D9EF
:205AE000002E00F0EE800021C6E900050846BDE8F087B3FA83F100294AD1AB4202D38242F0
:205B000000F2FC80841A65EB030301209846002EE2D0C6E90048DFE702B9FFDEB2FA82F2CF
:205B2000002A40F09180A1EB0C0001214FEA1C471FFA8CFEB0FBF7F307FB1300250C45EAF7
:205B400000450EFB03F0A84208D91CEB050503F1FF3802D2A84200F2CE8043462D1AB5FB7F
:205B6000F7F007FB10550EFB00FEA4B244EA0544A64508D91CEB040400F1FF3502D2A64544
:205B800000F2B6802846A4EB0E0440EA03409EE7C1F120078B4022FA07FC4CEA030C25FAB5
:205BA00007FA4FEA1C49BAFBF9F820FA07F309FB18AA8D401FFA8CFE1D4300FA01F308FB05
:205BC0000EF02C0C44EA0A44A04202FA01F20BD91CEB040408F1FF3A80F08880A04240F291
:205BE0008580A8F102086444241AB4FBF9F009FB104400FB0EFEADB245EA0444A64508D97E
:205C00001CEB040400F1FF356CD2A6456AD90238644440EA0840A0FB0295A4EB0E04AC42CF
:205C2000C846AE4656D353D0002E69D0B3EB080264EB0E0422FA01F304FA07F71F43CC402C
:205C4000C6E90074002147E70CFA02FCC2F1200125FA01F34FEA1C4720FA01F195400D431A
:205C6000B3FBF7F107FB11331FFA8CFE280C40EA034001FB0EF3834204FA02F408D91CEB66
:205C8000000001F1FF382FD283422DD902396044C01AB0FBF7F307FB1300ADB245EA0045D9
:205CA00003FB0EF0A84208D91CEB050503F1FF3816D2A84214D9023B6544281A43EA01418B
:205CC00038E73146304607E72F46E4E61846F9E64B45A9D2B9EB020865EB0C0E0138A3E768
:205CE0004346EAE7284694E74146D1E7D0467BE76444023847E7023B65442FE7084606E763
:205D00003146E9E610B40024224610F801CB0CF07F0393401CF0800F44EA030402F10702FC
:205D2000F3D10C6010BC704710B40024224610F801CB0CF07F0393401CF0800F44EA03046B
:205D400002F10702F3D11F2A07D81CF0400F04D04FF0FF3303FA02F214430C6010BC704784
:205D6000FF2808B5034619D003F07002302A084616D005D8202A09D1BDE8084001F027BA5A
:205D8000402A09D1BDE80840FFF7DABD02D813F0600F03D001F01EFA502AFBD1002008BDF2
:205DA000BDE8084001F010BAF0B5502815461E4683B01ED000F00F0304460F460C2B38D856
:205DC000DFE803F0072D33071F373737372723071F00284650F8043B43B104F07002102AA7
:205DE00008BF2F4622063B4448BF1B68336003B0F0BDD01C20F0030050F8043B336003B077
:205E0000F0BD284650F8083BE6E7284630F9023BE2E7284601A9FFF787FF019BDCE7284611
:205E200001A9FFF76FFF019BD6E7284630F8023BD2E701F0CFF900BF70B50C4601462046D3
:205E400015461E46FFF78CFF334601462A462046BDE87040A8E700BF70B506460C461546AB
:205E600082B060B3FFF76CFD034620462B6010F8011BFF2912D16B6010F8013BFF2B2B753C
:205E800016D1002301A9EB6010F8013B6B75FFF739FF019B03442B6102B070BD02462B1DD3
:205EA0003046FFF7C9FF10F8013BFF2B2B75E8D001A9FFF727FF019B0344EB60E4E70346E0
:205EC000D3E700BF002310B584B003AC039200940A461946FEF7B0FF04B010BD002300B5A9
:205EE00085B003A900910F221946FEF77FFF039805B05DF804FB00BF70B500F00300012889
:205F00000D4614468CB00AD021462846FFF700FD10B908200CB070BD09200CB070BD0A46BA
:205F200020460C21FFF7CEFF2046FFF70FFD01460028E9D006AA2046FFF78EFF0246204634
:205F40000192FFF7CBFF0A9B019A20F001069A4206F1FF3603D3D7E70A9B8342D4D99DF84F
:205F60002D1002AB0020FFF767FF9DF82D10024603AB0020FFF760FF04AB02469DF82D10B5
:205F80000020FFF759FF05A9FFF7BCFE029A069B1344B3420246B7D803990B44B342DBD941
:205FA000049B002BB0D0079E9E19ADD02A4600212046FFF787FF002201212046FFF782FF2A
:205FC0002046FFF78BFF024602F0010220460F213243FFF777FF07209CE700BF704700BF48
:205FE00010F8012B11F8013B012A28BF9A42F7D0D01A7047034613F8012B002AFBD1181A2A
:2060000001387047002103E00A4B5B584350043109480A4B42189A42F6D3094A02E00023BF
:2060200042F8043B074B9A42F9D3FEF7E9FBFEF79BF87047C8A80008000000205C010020C0
:2060400060010020D4870020FEE70B460146184601F0C8B87FB500241023CDE90234036816
:2060600015469E69CDE900446B461268B0479DF8043003F00603062B09BF01202046009BC2
:206080002B6004B070BD0098904214BF012006207047000010B50446024B036000F037FD76
:2060A000204610BD6897000810B50446FFF7F2FF2046082100F042F8204610BD2DE9F0417D
:2060C000DDF818801F46DDE9083498450646154607D1079900F01EFD18B165710020BDE881
:2060E000F0813946304600F015FD0028F6D00123C4F800802571A371F0E738B515461C46BF
:2061000000F008FD20B10823E36006232560237138BD2DE9F04105460C4616461F4600F07F
:20612000F9FC48B9032F07D82368324629462046BDE8F0415B691847BDE8F08100F090BE33
:20614000194A70B55368A0F1080423B150F8081C6518AB4203D940F8043C546070BD05D1AA
:20616000D3E90035194440E90215F6E704325E684EB1B54202D21A1D3346F8E701BF2E6809
:206180006D6889195D6013681D685E19B44217BF5B68491940F8043C136816BF40F8081C3F
:2061A00019605C60DAE700BF9087002000F10803082B38BF082330B50D4A073352F8040FCF
:2061C00023F0070368B1D0E900148B420AD9021D2046F7E7C1184C60C550106803601160C3
:2061E000083030BDCD1A072DF4D801601460F7E79087002010B500F18004204601F000F820
:20620000034630B92046FFF7D1FF034608B900F025FB80220021184601F038F8803010BD47
:20622000064A80389368984205D9D2681344984201D2FFF785BF00F0EBBF00BF908700209B
:2062400038B54FF41E65074C2846E56000F0D8FFA06010B9E060606038BD002360600560B8
:206260004360F9E7908700200378472B17D143784E2B14D18378552B11D1C378432B0ED191
:206280000379432B0BD143792B2B08D183792B2B05D1C07901288CBF002001207047002060
:2062A000704738B5044600F04FF8024605682046A4F12001FFF7D8FF28B90DB100F0CEFAC4
:2062C0001160284638BD54F80C3C2046002BB4BFC3F10103013344F80C3C53688D4203F164
:2062E000FF3353601CBF44F8105C1160656AFEF775FDE6E710B500F023F8026801469AB1F6
:2063000002F120042046FFF7AFFF28B908602046BDE81040FEF764BD5369002B05DA0133A8
:2063200001D110690860536110BD013B02D113690B60ECE7591CF6D100F090FA70470000F3
:2063400000487047A087002000487047A087002000231A4630B510F8015B05F07F04944099
:2063600023432C0602F10702F5D40B6030BD00231A4630B510F8014B04F07F0595402B43F1
:20638000250602F10702F5D41F2A06D8640642BF4FF0FF3404FA02F213430B6030BD5028F1
:2063A0002DE9F3410646884615461F4608D1D01C20F0030050F8044B3C6002B0BDE8F081E6
:2063C00000F00F030C2B2ED8DFE803F025071D25292D2D2D2D1821252900284601A9FFF7E4
:2063E000B7FF019C002CE7D006F07003102B08BFA8463306444448BF2468DDE7284601A9DE
:20640000FFF7B5FFEDE7284630F8024BEAE7284630F9024BE6E7284650F8044BE2E728465D
:2064200050F8084BDEE700F0D5FE08B50346FF2B084610D003F07002302A12D007D8202A11
:206440000BD002D813F0600F05D000F0C3FE402A0BD0502AF9D1002008BDBDE8084000F044
:20646000B6BEBDE8084000F0AFBEBDE80840FFF767BA70B50C460146204615461E46FFF781
:20648000D4FF334601462A462046BDE87040FFF786BF73B50C461546064628B3FFF750FAC7
:2064A000034620462B6010F8011BFF291ED002462B1D3046FFF7DDFF10F8013BFF2B2B7582
:2064C00016D0102301A92B75FFF742FF019B0344EB6010F8013B01A96B75FFF739FF019B5C
:2064E00003442B6102B070BD0346DAE76B60E3E70023EDE71FB503AB009300230A4619466D
:20650000FEF774FC039805B05DF804FB00232DE9F04F91B0059300F00303012B06460C4661
:2065200017460ED0022B03D0002B3BD101073BD539462046FFF7ECF990B3092011B0BDE83F
:20654000F08F020706D40D6A38460D21FFF7D2FF85422BD00220002306F008060DF1280AB4
:2065600006430C2219463846CDF800A00A94FEF763FC062E1CD1D4E90A59D4F83080B8F10A
:20658000000F0CBF4FF0010B4FF0030B16F0080600F00781BBF1010F40F0FF8000F05EF94B
:2065A0000820CBE700F016FE0120D4E70620D2E73846FFF7CBF981460028B9D052460146B3
:2065C0003846FFF766FF394605469DF83C00FFF72CFF0F210C903846FFF78CFF20F0010842
:2065E00008F1FF380E9BAB4240F2BF802A469DF83D1006AB0020FFF73CFF9DF83D100246E6
:2066000007AB0020FFF735FF08AB02469DF83D100020FFF72EFF09A9FFF79AFE0A9B069AD9
:2066200005461344434501D90E9DDBE7079A13444345D7D9DDF82080B8F1000F01D00B9B15
:206640009844099D15B10E98013D0544B8F1000F3FF46EAF002D00F0F28016F00803029388
:2066600034D0472323704E2363705523A3704323E370462323714F2363715223A3710023A2
:20668000E3714FF0000B07A92846FFF770FE08A90390FFF76CFE0799002963D03ADD9DF88E
:2066A0003C00FF2832D000F00703042B3FF67AAF01A252F823F000BF11670008A56500089D
:2066C000DF6600081167000809670008E379012B0CBF54F8203C04F158030593D1E70225B3
:2066E0000D9A09AB05FB11220C99FFF758FE099931B15CB30022204605AB00F0D1FB28B3B9
:206700004FF0030B079D34E00825E9E70025E7E70425E5E7C1F17F5101F57F110D9B01F5E9
:206720007F513F3103EB8105BCB1029AAAB9059B043D099355F8041F0029E1D000222046EA
:2067400009AB294400F0ACFB0028F3D0089D002D71D0039B2B441D4695E753F82130002BD0
:20676000F4D1CDE74FF0010BF0E700254FF0010BA846F3077FF50AAFBBF1020F3FF4D8AE83
:206780000D213846059EFFF7B5FEC4E90A59C4E90806C4F830800620D0E6002D22DA00F0D5
:2067A0006FF8BBF1010F02D1204600F011FC002D18DA524649463846FFF76BFE39469DF849
:2067C0003C00FFF732FEEB430D9A0C9002EB830353F826200AB10136FAE70422C4E90A60D2
:2067E000C4E90C23002309AE1A461946384600960994FEF721FB00230122194638460096A9
:206800000995FEF719FB0F213846FFF773FE002300F0010040EA080009900F2219463846CF
:206820000096FEF709FBBBF1020F02D1204600F095FB072082E6BBF1000F3FF479AE4FF070
:20684000020B96E708B5804700F0C4FC024B1868BFF35B8F704700BFF400002008B5FFF7D4
:20686000F5FFFFF7EFFF08B58047FFF7F7FF0000024B1868BFF35B8F704700BFE8000020E9
:2068800008B5FFF7F5FFFFF7EEFF012810B503D951F8140CFFF7D6FFBFF35B8FA1F1280317
:2068A00053E8002F013A43E800200028F8D1BFF35B8F5AB951F81C3C01F158040BB1204637
:2068C00098472046BDE81040FFF7AABC10BD000038B5002540E91E1240F8805C0446FFF796
:2068E000C7FF44F8700CFFF7B1FF472304F8583C4E2304F8573C552304F8563C432304F812
:20690000553C04F8543C2B2304F8533C04F8523C044B44F86C0C04F8515C44F8503CA4F1EE
