:020000040800F2
:2000000000C0002049B30008293000082B3000082D3000082F300008313000080000000003
:20002000000000000000000000000000493100083330000800000000DB310008EB3100089B
:200040008DB300088DB300088DB300088DB300088DB300088DB300088DB300088DB3000860
:20006000C92F00088DB300088DB300088DB300088DB300088DB300088DB300088DB3000888
:200080008DB300088DB300088DB300088DB300088DB300088DB300088DB300088DB3000820
:2000A0008DB300088DB300088DB300088DB300088DB300088DB300088DB300088DB3000800
:2000C0008DB300088DB300088DB300088DB300088DB300088DB300088DB300088DB30008E0
:2000E0008DB300088DB300088DB300088DB300088DB300088DB300088DB300088DB30008C0
:200100008DB300088DB300088DB300088DB300088DB300088DB300088DB300088DB300089F
:200120008DB3000800000000000000000000000000000000000000005FF808F1FFFFFFFF2B
:2001400010B5054C237833B9044B13B10448AFF300800123237010BDA00A00200000000033
:20016000005B010808B5034B1BB103490348AFF3008008BD00000000A40A0020005B010894
:200180002DE9F0410022012703260B6807FA02FE3EEA03032BD1036891F804C0540006FAFB
:2001A00004F86FEA080523EA08080CFA04F30CF1FF3C43EA0803BCF1010F03600ED8836862
:2001C0002B404D79A5401D43856083889BB223EA0E058B7993409BB22B438380C36806FA8C
:2001E00004F523EA0505CB79A3402B43C3600132102ACAD1BDE8F08113B56C460B46024606
:2002000003C884E8030093E8030082E8030094E8030083E8030002B010BD0148704700BF8E
:20022000186A010800487047216A0108014B5869704700BF40000020EFF310832BB9EFF382
:200240001180003818BF012070470120704710B5034653E8000F00EA01028A4203D0BFF3B8
:200260002F8F002005E020EA010243E8002404B1EFE710BD10B5034653E8000F084203D191
:20028000BFF32F8F002005E020EA010243E8002404B1F1E710BD10B402F00104920705D406
:2002A0000C300CB110BCD2E710BCE3E7C06801EA000224B18A4218BF002010BC7047002AD0
:2002C00008BF0020F9E710B578B10378F32B0CD100290ADB00F10C0353E8000F20EA01028E
:2002E00043E8002404B1F7E710BD6FF00300FBE7014B187A704700BF400000204FF47A702A
:2003000070474FF0E0220D4BD868936913B152690132D31A0A4A5268520107D54FF0E02234
:20032000936913B152690132D31A01304FF0E022526902FB00001844704700BF40000020C6
:2003400000ED00E0004870470048E80108B5EFF3058313B16FF0050008BDFFF76DFF002802
:20036000F8D1DFF808C000DFF6E700BFF713000808B5EFF3058313B14FF47A7008BDFFF7B5
:200380005BFF0028F8D1DFF808C000DFF6E700BFFD02000808B5EFF3058313B1BDE8084019
:2003A000AFE7FFF749FF0028F8D1DFF808C000DF08BD00BF0303000808B5EFF305830BB185
:2003C000044808BDFFF738FF0028F9D1DFF808C000DFF6E70048E80145030008034610B503
:2003E00088B1084310F007000DD117290AD9102219600839CC189C605A60C85099684A6028
:20040000D860012010BD0020FCE70346F0B588B159B30F3121F0070100F108073C463F68FE
:200420006568381B25F00305401B814203D938680028F3D1F0BD5E681D680E445E602B4482
:2004400053F8040C083B864288BF5E60636811431BB9616004F10800ECE723F00303E0189C
:20046000E750416020600830E4E70846E2E710B5D0E85F3F5A1C914200D80022C0E8542F81
:2004800004B1F5E798B210BD10B591F9202083681BB193F92040944205DAC1E90230816010
:2004A00003B1D96010BD18469B68F1E70346806882689A6002B1D3600023C3607047C26827
:2004C0002AB18368936003B1DA600023C360704710B504465CB12378F12B06D0FFF7EFFFEB
:2004E00001462046BDE81040CEE7E468F2E710BD0123014643700148C6E700BF5C00002064
:2005000010B5D0E90431C469621C0CD103B1596142691AB113610023436101E0074A1363D9
:200520000023C36110BD1BB1DA6959612244DA614269002AEED1014AD362F1E740000020F1
:20054000012310B5094A437090F92010536A1C321BB193F920408C4205DCC0E902329060B4
:2005600003B1D86010BD1A469B68F1E7400000200223C2784370520758BF032383F314886D
:20058000BFF36F8F014B9861704700BF4000002010B5134B04461A7A596998B9022A1DD162
:2005A0005C6ADCB194F9202091F920309A4215DD2046FFF784FF0846FFF7C2FF2046BDE884
:2005C0001040D5E7022A05D190F9202091F920309A42F0DC2046BDE8104089E710BD00BF6B
:2005E0004000002010B51446836B1962FFF788FF14B1BDE81040CBE7BDE8104078E770B5B1
:200600000546846804B970BD616A284694F82320A668FFF740FE014628B12046FFF74FFFA5
:200620000022FFF7DFFF3446ECE7F8B5064670B30378F32B2BD1002929DB00F10C0353E85E
:20064000002F42EA010443E8004000B1F7E7B56825B92846FFF79CFF2046F8BD696A3046E2
:2006600095F82320AF68FFF716FE014668B195F823309B0756BF6C6A044620EA04042846F2
:20068000FFF71DFF0022FFF7ADFF3D46E0E76FF00304E1E72DE9F0410446002601270CB968
:2006A000BDE8F081E378D4F814801B0712D5A36826767BB12046FFF7F9FE00220546114676
:2006C000FFF790FFEB6AC4E90356636103B11C61EC6227764446E2E7284B70B55A69044662
:2006E000002A41D0002842D00378F52B3FD1037E002B3FD0C16891423CD1013BDBB20376D4
:2007000013BB43690BB1016919612169F1B14B6192F92130D56ADDB982F82030A36883B12D
:200720002046FFF7C3FE06462A462946FFF75AFFF36AC4E90365636103B11C610123F46241
:2007400023760020FFF724FF00200FE0D362DFE7E978890706D5A96821B191F920108B4287
:20076000B8BF0B466D69D6E74FF0FF3070BD6FF00300FBE76FF00200F8E700BF40000020E0
:2007800038B51D4C0246237A022B33D1606A98B163695A704A1C15D10021226B6AB94FF0E8
:2007A000FF30C3E90421D86151B10B611348FFF77DFEFFF7DDFE012038BD11461269EDE739
:2007C0002363F3E70020E26A12B1D569A9420BD2C3E90420D96158B10361002AE6D0D069F4
:2007E0005361411AD161E1E71046491B1269EBE7E362F2E70020DFE7400000205C00002009
:20080000014608B538B11320FFF7BAFF80F00100C0B2404208BD6FF00300FBE7F8B50D469B
:2008200017461E460446C0B10378F32B15D1002913DBFFF730FD90B996B131464320FFF723
:200840009FFF38B1084B20465969FFF71DFE4D6281F823706FF0010001E06FF00300F8BD72
:200860006FF00200FBE700BF40000020224B70B55D6904460E46002D35D0002836D0037845
:20088000F52B33D1037E53B9C0E90353EB6A436103B118610123EC620020237670BDC278F0
:2008A000D10706D5C168A94203D1FF2B21D00133F2E7F6B193070AD5E06895F9203090F9A6
:2008C00020209A4203DA80F82030FFF701FE31465320FFF755FF18B129462046FFF7D4FDC9
:2008E0006FF00100DAE74FF0FF30D7E76FF00300D4E76FF00200D1E74000002008B5884789
:20090000DFF804C000DFFEE7052E000810B543780446332B15D190F82330416A03F00102B3
:200920009B0708D428301AB1FFF791FC48B10BE0FFF7A0FCFAE7806A01EA000312B19942C6
:20094000F4D010BD002BFCD0014600222046BDE8104047E610B50446806918B100221146E4
:20096000FFF740FE6378232B02BF0022A3689A6110BD002230B50B4D6B6C13B11C698C4217
:200980000AD9C0E9022301611BB11C699860611A19612AB1D06030BD1A46091BDB68ECE774
:2009A0006864F8E740000020C36810B52BB104691A69816822441A61996082680AB1D360D5
:2009C00010BD014A5364FBE74000002038B50D460446B0B10378F22B13D191B14378022B75
:2009E00008D14161FFF7E0FF20462946FFF7C1FF002038BD064B1B6D33B1022343706161B0
:200A0000F2E76FF00300F4E76FF00200F1E700BF4000002008B558B10278F22A08D1427879
:200A2000022A08D101224270FFF7BEFF002008BD6FF00300FBE76FF00200F8E740B1037854
:200A4000F22B04D14078831E58425841704700207047024608B5EFF305830BB1002008BD7A
:200A6000FFF7EAFB0028F9D11046DFF808C000DFF5E700BF3D0A00084FF40062014B0020DA
:200A80001A837047000002402AB1012A06D0022A05D10B6800E0034B036000E0016000207D
:200AA000704700BF185B01081AB1012A04D000207047024B0360FAE70160F8E7205B01084E
:200AC0001AB1012A04D000207047024B0360FAE70160F8E7285B010870477047704710B52E
:200AE00008234FF004014FF48044084A10F0800F03F1FF3351834FEA400014BF14835483EB
:200B000013F0FF03C0B21183F0D110BD000402400F4B1A6822F004021A605A6822F00402AE
:200B20005A600C4AD2F8001441F00401C2F80014996821F004019960D96821F00401D96023
:200B4000D2F80C3443F00403C2F80C34704700BF000401400000014030B5E0B1C3688B42ED
:200B600019D80369994216D200F114031A680A60BFF35F8F53E8002F0C689442F6D143E81B
:200B8000001505B1F2E7043050E8003F5A1E40E8002101B1F8E730BD30B588B181B17AB14C
:200BA00073B10024C0E9014202FB01F41D190160C360436105611846013902D1A21A99503B
:200BC00030BD851805602846F6E750E8003F5A1C40E8002101B1F8E7704710B590B100F166
:200BE000140353E8004F14B9BFF32F8F04E0226843E8002101B1F4E714B10430FFF7E5FFFD
:200C0000204610BD0446FBE710B5044650B10368D4E9020218B1102A20D0002010BD002A2F
:200C2000FBD11C460F4BD3F8900080B1FFF7D5FF0028F2D00123F322837000230270C0E982
:200C40000143C370C360084A064B5A66E6E701221021D3F88000FFF7D8FBE9E71C4600230D
:200C6000E9E700BF40000020FF05000838B5034650B3D0E90054D3E9020318B11C2B21D071
:200C8000002038BD002BFBD1114BD3F8940030B901221C21D3F88000FFF7B7FB01E0FFF77A
:200CA0009CFF0028ECD00123F5228370002304F00F04C0E90233C0E904330270C470456054
:200CC0000376DEE70023EFE705460446DCE700BF40000020F8B50E4617461C46054608B99A
:200CE0000020F8BD0129FBD8C3B1D4E902021B6888B1202AF4D11C4600234FF4F9728370FC
:200D00000023C0E90657C0E90233C0E904330280C6704460E5E7002AE2D11C46084BD3F867
:200D20008C0028B1FFF759FF0028D9D00123E4E701222021D3F88000FFF767FBF4E700BF9F
:200D400040000020036B30B4B3B10024CD78DA78AA4209D31A46C1E901245AB1916074B1AA
:200D60006160283030BC30E75A681C46002AF2D01346ECE7C162F2E7C1E90133C1620163BA
:200D8000EFE730B578B171B10023A1F1080400F10802944208D1626822F003054268521BE7
:200DA00042603BB9636030BD15681346002DFAD02A46EEE751F8082C1A60F4E72DE9F04FB4
:200DC00085B0CDE9010120B90024204605B0BDE8F08F002A00F08B80D2E9018408F0060384
:200DE000062BF1D0D368002C7ED0502BECD1D2E904B5BBF1000F04D01BF0070FE4D1002D0E
:200E0000E2D09769D2F800A0002F77D07A1E372ADAD818F0060F08BF48F0020835B16B0717
:200E2000D2D1524AA5F148019142CDD8504E002C6DD1D6F88800002862D0FFF7CEFE044658
:200E40000028C1D04FF00109BBF1000F12D1002D75D1D6F8840000285CD0FFF7BEFE0028FF
:200E600073D083464FF4406549F0100949F00209002CA9D040F2F1122280FD220021019B90
:200E8000628465633B4A403D7FB208F00F085D44A563E363C4E90211C4E90411C4E906112D
:200EA000C4E90911C4E90B1B84F8029084F80380C4F804A084F8207084F82170CBF800202F
:200EC000A36B382218460DF061F92B4A2B4B82634FF08072C263029A0262019A426220462A
:200EE0003366FFF755FB70E7002B80D06CE79246934614461827154690468AE7182788E754
:200F000001225021D6F88000FFF77FFA97E74FF0000999E72A464FF44061706FFFF775FAA2
:200F20004FF44065F0B9B9F1000F1DD0D6F8882072B121461046FFF70FFE002496E75A46E0
:200F40002946706FFFF761FAECE74FF44065EAE72146D6F880000392FFF713FF039A14461D
:200F6000934683E7834681E74C467FE7B7FFFF7F40000020A52E5AE2FD0800080D09000837
:200F800070B5054638B30378F32B24D1836863B12846FFF78BFA6FF002010022FFF722FBE9
:200FA000A8680028F4D1FFF7F3FA0026AB782E7013F0010008D0094B2946D3F8904024B15B
:200FC0002046FFF7C9FD304670BDD3F88000FFF7D8FE2046F8E76FF00300F5E74000002052
:200FE00070B5044600284AD00378F52B47D1037EC3B16369C0680BB122691A6122690AB39A
:20100000536190F92120C36AF3B990F92030934203D080F82020FFF75BFAA06800BB20769C
:20102000FFF7B6FA0026A078267010F0010008D0144B2146D3F89450DDB12846FFF78CFD6D
:20104000304670BDC362DCE7D978890706D5996821B191F920108A42B8BF0A465B69D3E7AB
:201060002046FFF723FA6FF002010022FFF7BAFAD3E7D3F88000FFF784FE2846E1E76FF0B7
:201080000300DEE74000002010B5C378044613F0010320D1038083789A0708D513F0100FC8
:2010A000016B124B0ED0D3F88400FFF755FDA378DB071AD50D4B2146D3F8880030B1BDE86E
:2010C000104049E5586FFFF75CFEF0E7D3F88000BDE8104055E6042343700023034AC360BC
:2010E000536B836003B1D860546310BD4000002070B50546E8B10378F22B1AD14378022B0B
:2011000001D1FFF751FC0026AB782E8013F0010008D0094B2946D3F88C4024B12046FFF75C
:201120001BFD304670BDD3F88000FFF72AFE2046F8E76FF00300F5E740000020006810B17F
:2011400003685B681847704708B5836801460BB10322984708BD10B50446FFF7F5FF204678
:2011600010BDF8B5817804468568002935D04368C66873B39D60A2686AB35360002706F1A3
:201180000C05214628462770FFF7E6FCB368002B46D02846FFF721FD0446002840D0304624
:2011A000FFF784F905463A463946FFF71BFAAD6B726A696A04F10C0009F05AF9F9232146D0
:2011C00030462370A770AB6A2035E370BDE8F840B8E5F562CFE73363D0E7AB68EBB15B78DC
:2011E000832B1AD12846FFF761F906460A46FFF7F9F9B66B6A6A04F10C01706A09F038F919
:20120000B36A20360BB1E2781A7000232370214605F10C00BDE8F8409EE421462846D5E7AC
:20122000F8BD2DE9F0410C4690461F460546002841D00378FA2B3ED100293CD08368B3B16E
:201240005B78832B13D1FFF731F9064601220021FFF7C8F9B66B21466A6A706A09F008F992
:20126000B06A10B180F800800020BDE8F08105F10C00FFF7B2FC064678B121466A6A0C30D3
:2012800009F0F6F80024F923314628463370B47086F80380FFF756FDE6E77FB13946932002
:2012A000FFF76EFA20B1074B28465969FFF7ECF86FF00100D9E76FF00300D6E76FF0020003
:2012C000D3E700BF40000020F8B59C460D461746044600286BD00378FA2B68D1002966D011
:2012E00000F1280353E8002F12B9BFF32F8F04E0501E43E8000606B1F4E712B10122E66AE2
:201300007EB9BCF1000F55D061468320FFF738FA20B12D4B20465969FFF7B6F86FF00100CE
:2013200023E0B01CD0E84F3FC0E8412F01B1F9E7DBB2002B41D0B668E2E79A60B268AAB1CF
:2013400053602846626A06F10C0109F091F80FB1F3783B70002504F10C073146384635707D
:20136000FFF7FAFBA3681BB90020F8BD2363E8E73846FFF732FC06460028F5D02046FFF742
:2013800095F8074629460122FFF72CF9BF6B626A796A06F10C0009F06BF8F923B5703370AA
:2013A000BB6A31462046F370FFF7CCFCDCE76FF00300DAE76FF00200D7E7D6E90132002BE8
:2013C000BBD1E262BAE700BF4000002010B5044608210AF0EDFB204610BD10B504460C21F4
:2013E0000AF0E6FB204610BD10B5044608210AF0DFFB204610BD38B51F4C217A01292FD084
:20140000B1BB9C2204F108000CF0C0FE1B4B1C4DE3651023A4F8543005234FF40041284667
:201420002364FEF7DBFF08B1C4F8805000210846FEF7D4FFB0B9D4F88030002108466367BC
:20144000FEF7CCFF80B9D4F8803000210846A367FEF7C4FF50B9D4F88030E367012323725E
:20146000002038BD0023E8E70023EEE70023F4E74FF0FF30F5E700BF40000020080B0020D3
:20148000500B002010B50446024B03600BF0C6FC204610BD385B010810B50446FFF7F2FF90
:2014A000204604210AF084FB204610BD10B50446024B03600BF0B2FC204610BD605B010896
:2014C00010B50446FFF7F2FF204604210AF070FB204610BD036810B53BB1BFF35B8F1B7AA6
:2014E000BFF35B8F0BB90AF0E7FF04689CB12268EFF3058333B9FEF79FFE18B91046DFF883
:2015000018C000DF201DFFF719FE2046BDE810400C210AF04DBB10BD5D2E000810B50468AF
:2015200044B12046FFF7D6FF2046BDE8104004210AF03EBB10BD406810B503689B6898478B
:20154000DFF824C000DFFEE7012909D10AF0E0FB0BF044F804460AF01BFC204608F0BEFB8A
:201560000AF0D6FB0AF0A8FF052E000838B5054C04F10805236903B9FEE72846636998473E
:20158000F8E700BFC00A002038B52A4C237A012B03D04FF0FF35284638BD0021264A2748EE
:2015A000FFF70CFCA06200F055F805460028F0D1234AE16C2348FFF701FCA0640028E8D0BE
:2015C000FF23214A214982F8223092F82230D26863F0FF03DB4314BFB3FA83F32023C2F3D1
:2015E0000222C3F12003934298BF531CFE2202FA03F3154ADBB2D377FF2382F823304FF0DF
:20160000E02306221A6147F6FF425A6100229A6181F840204FF0FF3222611A690C4842F0F9
:2016200001021A61FEF742FFFEF7A2FF02232372B1E700BF40000020805B01086D15000881
:20164000A45B0108A116000800ED00E0080B00205C00002038B5FA230C4C00252370082302
:2016600004F10C00C4E9093514220421084BC4E90155C4E90B556580FFF78EFA054B064ABD
:2016800028461A67054ADC641A6538BD508B0020848B00204000002063110008452B0008DA
:2016A000044607B50A4DEFF30583002BFBD1FEF7C3FD02460028F6D1204669464FF0FF33FA
:2016C000AC4600DF0028EED1DDE900309847EAE7C9120008002313B5ADF80630064BDC696D
:2016E0002243DA6140F2013300916946ADF80430FEF746FD02B010BD003802400B4600F158
:201700000802026070B553F8084BA3420FD11C4601F1180554F8046BAC4242F8046BF9D148
:201720000B6000234A680B7242604B6070BD8A6804608260F4E708B50B68002B02DA0C48D4
:201740000BF048F993420AD9B3EB420F4FEA420005D20028B6BF6FF0004308600B600868D2
:20176000013001D50BF00EF9BDE808400AF0ACBF2C6A0108006801310AF01ABA024652F875
:20178000081B914202D08168FFF7F4BF7047406801F100410139091A914208B502D218463E
:2017A0000BF018F908BD012A30B403D10B78037030BC7047002AFBD030BC08F059BE521A80
:2017C000FFF7F1BF73B5044616460D4619B912B10D480BF0E7F8731B0F2B019307D9002220
:2017E000204601A9FFF7A7FF019B2060A360324629462068FFF7E3FF0021019B22686360CD
:20180000D15402B070BD00BF446A010810B5044600F10802026006C94FF000030A44FFF78D
:20182000D1FF204610BD38B500F108030446036008460D460DF07CFA4FF000032A18294608
:201840002046FFF7BFFF204638BD052A10B504460CDC931D0EDB05320A2A1AD8DFE802F03E
:20186000171513110F0C2022242628006FF000439A4210D00F4900E00F4920460CE00F49B1
:20188000FBE70F49F9E70F49F7E70F49F5E70F49F3E70F49F1E70F49FFF7C5FF204610BD1D
:2018A0000D49EAE70D49E8E70D49E6E70D49E4E70D49E2E7206D01086E6A01088F6A010800
:2018C000D66A0108086B01081F6B01082F6B01088A6B0108E46B0108126C0108366C010885
:2018E000686C01089E6C0108ED6C0108063210B50446052A12D8DFE802F00F110D0B090339
:2019000007492046FFF78FFF204610BD0549F8E70549F6E70549F4E70549F2E70549F0E78D
:201920002E6D01083C6D0108946D01080D6E01088A6B0108206D01082DE9F3470A9E1F46D2
:20194000436801EB0208B21A1A44A3EB08090346019253F8082B0D469A420CBF0F228268AE
:2019600001A90446FFF7E7FE82461DB12A462168FFF719FF37B12EB1324639460AEB050043
:20198000FFF711FFB9F1000F07D0216835444A4641440AEB0500FFF706FF2046FFF7EEFE5D
:2019A000019BC4F800A0A36002B0BDE8F08773B50446234653F8086B40689E420CBF0F2340
:2019C000A36885189D420AD812B13044FFF7EBFE00222046236865605A5502B070BD0B46D1
:2019E0000092014600222046FFF7A6FFF0E770B5044608460D460DF09BF9064602460021BE
:201A00002046054BFFF7C3FE324629462046BDE87040FFF7CCBF00BF286E010806C9FFF713
:201A2000C6BF08B5034608465B681146984203D9024602480AF0E6FF08BD00BF3D6E010854
:201A4000FFF7C0BE03688B4206D840681844814294BF00200120704701207047012A30B403
:201A600003D10B78037030BC7047002AFBD030BC0CF010BB2DE9F74F144680460C9D89465D
:201A80002A461F462146384BFFF781FE424652F8086BD8F8043096420CBF0F22D8F80820FD
:201AA000A5EB040B03EB0B0A524550D34E443946A1444046A3EB0909FFF7C4FF80B1B9F11A
:201AC000000F06D0AC4204D04A4631197019FFF7C5FF0DB32A4639463046FFF764FE1BE0CA
:201AE0002DB1AC423BD32A463046FFF7B7FFB9F1000F11D0AC420FD04A4631197019FFF7BA
:201B0000ADFFAC4208D234447B199C420FD32A4639463046FFF7A2FF00224046D8F80030E1
:201B2000C8F804A003F80A2003B0BDE8F08FBC4203D82A4607EB0B01CEE7E41B2246394663
:201B40003046FFF78BFF2A1B71193019C5E73B462246494640460095FFF7EEFEDCE7B9F1E9
:201B6000000FD0D0C8E700BF746E01082DE9F04104460F461546084A1E46FFF752FF626855
:201B80000146D21BAA42334628BF2A462046BDE8F041FFF76FBF00BF8D6E010807B55368BB
:201BA000009313680022FFF7E1FF03B05DF804FB73B50546104614460E460DF0B9F823468A
:201BC0000090002231462846FFF7D0FF02B070BDF0B50027136806468BB00C2017600C4607
:201BE00000930AF071FD009B07604360077205461C22394603A800970CF0C8FA012302930B
:201C0000E36801932368059363680693A368ABB10793EFF305821AB9FEF70EFB80B12A6068
:201C200010200AF039F8064609F0B2FB4FF0FF310246184B304609F051FC11E01823E7E787
:201C400029461548DFF854C001AA00DF28600028E6D068463560FFF771FA30460BB0F0BD5B
:201C600030460F4A0F490AF09DFC044603E0044630460AF029F8281DFFF760FA0C21284672
:201C800009F096FF6846FFF759FA204608F026F80446F7E7A66E010837150008BD0D0008D8
:201CA00049CD00082074010830B558488FB012F0E5F8574B574C0593A56A574B0493002D74
:201CC00043D10AA902A80C95FEF796FA049B0C9A0C930492059B0D9A04F120010AA805924D
:201CE0000D93FEF789FA0C9BA26AA3620D9B0C92E26A0AA8E3620D92FFF726FA1022294635
:201D000006A80CF043FA0C200AF0DEFC434B0A90036004F1180343600AAA06A901A8FFF79C
:201D200057FF0AA8FFF70AFA04200AF0CDFC019A256B02600022206301920A92D5B90AA819
:201D4000FFF7ECFB01A8FFF7C5FB02A8FFF7FCF9102200210AA80CF019FA08200AF0B4FCCC
:201D600010E004460AA80D46FFF7E8F902A8FFF7EBF923E02846FFF7ADFB0421284609F02E
:201D800017FFDCE7264B0690036006AA0AA902A8FFF71EFF05E0044601A80D46FFF79AFB2A
:201DA000E4E706A8FFF7CAF902A8FFF793FB0FB030BD044606A80D46FFF7C0F92046294648
:201DC000022909D109F0A4FF0AF008FC04460D4609F0DEFF20462946012905D007F07EFFA9
:201DE00004460D46C2E7EBE709F092FF03689B68984701460B4812F041F809F0C9FFD6E7A1
:201E0000044609F0C5FF2046E8E700BFB26E0108D1260008C00A0020A90A0008D05B0108C6
:201E2000E45B0108BF6E010838B551EA000305462AD0002928DBFEF79BFA0446A0FB05050F
:201E4000002304FB0151174A08F056F90246EFF3058373B16FF00505102009F01DFF044698
:201E600009F096FA294602460F4B204609F036FB0BE0FEF7E1F90028ECD11046DFF82CC080
:201E800000DF05460028E7D138BD2046084A09490AF088FB0546204609F016FF284607F098
:201EA0001DFF00BF40420F00C76E01080108000849CD0008207401082DE9F047D1E900980D
:201EC0000646202014461F460AF0FEFB4FF0000A05460146C0F808A02046FEF78DF9AA6896
:201EE000A368E168A260EA68C5E90698C5E9031AAB60E2609BB9102009F0CEFE064609F048
:201F000047FA6FF0030102462D4B304609F0E6FA30462C4A2C490AF045FB044644E059EAC2
:201F2000080314D0B8F1000F11DA102009F0B4FE064609F02DFA6FF003010246234B304639
:201F400009F0CCFA30461F4A1F490AF02BFBEFF3058222B9FEF770F9034670B12A61102094
:201F600009F09AFE064609F013FA4FF0FF310246174B304609F0B2FA0DE02A461548DFF8B9
:201F800058C087F0010100DF28610028E7D030463560BDE8F08730460A4A0B490AF002FB2D
:201FA0000446304609F090FE2846FFF7CDF82846202109F0FDFD204607F090FEF0E7EFE777
:201FC000CF6E010849CD000820740108E76E0108086F0108C5200008D50C0008FFF7EFBBAC
:201FE0000B46012B10B41146044602D1227010BC7047002BFBD01A4610BC0CF0C7B837B58E
:202000000F2904461546019106D9002201A9FFF792FB019B2060A360019919B12A462068A8
:20202000FFF7DEFF0021019B22686360D15403B030BD2DE9F34116461D4604462A461B4BD5
:202040000F463146FFF7A3FB234653F8080B626898420CBF0F23A368A5EB060890444345B3
:202060001BD3F319D21A06D0AE4204D0384481192844FFF7F3FC35B1206829469DF82020C7
:202080003844FFF7ADFF002220462368C4F8048003F8082002B0BDE8F081002332463946CA
:2020A00020460095FFF748FCE5E700BF136F010807B500920B4600224168FFF7BAFF03B009
:2020C0005DF804FBF0B504468DB00069FEF7C1FC20B3A3680BB90AF0E1FC2046E36898475C
:2020E000E0B92269EFF305836BB16FF00506102009F0D2FD054609F04BF91D4907466846EB
:20210000FFF791FB0CE0FEF797F80028EDD11046DFF860C000DF06460028E8D10DB0F0BD24
:202120006946226906A809F01FFA3A463146284606AB09F091F906A8FFF720FB6846FFF7A9
:202140001DFB28460C4A0D490AF02CFA044606A8FFF714FB6846FFF711FB284609F0B4FD68
:20216000204607F0BBFD0446F4E70446F5E700BF306F0108150A000849CD000820740108B6
:20218000F0B506688DB08EB9102009F085FD044609F0FEF86FF002010246314B204609F03F
:2021A0009DF920462F4A30490AF0FCF9D6E90615FEF7DEF80446A0FB0101002304FB05117E
:2021C0002A4A07F099FF32690146EFF305836BB16FF00504102009F05FFD054609F0D8F893
:2021E000234907466846FFF71EFB0CE0FEF724F80028EDD11046DFF87CC000DF04460028CC
:20220000E8D10DB0F0BD6946326906A809F0ACF93A462146284606AB09F01EF906A8FFF74B
:20222000ADFA6846FFF7AAFA28460E4A0E49BBE7044606A8FFF7A2FA6846FFF79FFA2846BB
:2022400009F042FD204607F049FD0446F4E70446F5E70546204609F037FD2846F3E700BF73
:202260003C6F010849CD00082074010840420F00496F0108CD090008F0B504688DB0002C45
:2022800051D0EFF305836BB16FF00506102009F003FD054609F07CF82449074606A8FFF7EE
:2022A000C2FA15E02269FDF7C7FF0028ECD11046DFF87CC000DF06460028E7D12046FEF774
:2022C00043FF202120460DB0BDE8F04009F070BC6846226906A909F047F96B463A46314695
:2022E000284609F0B9F86846FFF748FA06A8FFF745FA28460F4A10490AF054F908E0684600
:20230000FFF73CFA06A8FFF739FA284609F0DCFC2046FEF719FF2021204609F049FC0AF029
:20232000CBF8EFE7F1E70DB0F0BD00BF676F0108F110000849CD0008207401082DE9F04F0B
:20234000994B8FB00B93994B994A0A93002302A9CDE9022301A8002308AAFFF7ADFD08A8E1
:20236000FEF7F2FE01A8FFF70BFFFEF713F800250146FEF721F88F4C02462B46A1FB040120
:2023800008F05EFE022309938B4B0646CDE90A550893EFF305836BB1102009F07DFC0546E3
:2023A00008F0F6FF4FF0FF310246844B284609F095F817E0FDF740FF0028EDD1DFF800C20D
:2023C00008A800DF05460028E6D04FF00009DFF8F481DFF8F4A1DFF8F4B140464946FFF7BE
:2023E00023FD0EE028467A4A7A490AF0DBF8044603E00446284609F067FC01A8FFF73CFFF2
:202400009FE0EFF305836BB16FF00507102009F043FC064608F0BCFF6F49044602A8FFF743
:2024200002FA1BE0FDF708FF0028EDD128464FF0FF31D44600DF07460028E7D1FDF7AAFF24
:202440000146FDF7B9FF3B460246A1FB040108F0F7FD811B584611F011FD37E02A4602A9B8
:2024600008A809F081F822463946304608AB08F0F3FF08A8FFF782F902A8FFF77FF9304691
:20248000534A54490AF08EF8044609E0044608A8FFF774F902A8FFF771F9304609F014FC69
:2024A000EFF30583002B4FD06FF00506102009F0F3FB044608F06CFF4849074608A8FFF7B6
:2024C000B2F94DE00446E5E70446E6E7EFF305836BB16FF00507102009F0DEFB064608F0C0
:2024E00057FF3F49044602A8FFF79DF90CE0FDF7A3FE0028EDD12846DFF8E8C000DF0746FE
:2025000000283FF46AAFE6E72A4602A908A809F02BF822463946304608AB08F09DFF08A83F
:20252000FFF72CF902A8FFF729F93046284A29490AF038F8AAE7C5E7C6E7044608A8FEF761
:2025400003FE204607F0CAFBFDF776FE0028ABD12846DFF894C000DF06460028A6D14CE7B6
:202560002A4608A902A808F0FFFF3A463146204602AB08F071FF02A8FFF700F908A8FFF7E9
:20258000FDF82046124A13490AF00CF802A8FFF7F5F808A8FFF7F2F8204609F095FB09F025
:2025A0008BFFF6E7F8E700BFF9260008C10A0008C0C62D0000CA9A3B756F01087B6F0108EA
:2025C0006D0C0008A08601006D080008956F010849CD000820740108866F0108B06F0108E8
:2025E000A16F0108D9060008E10F000810B5046844B12046FFF740FE2046BDE810400421A3
:2026000009F0D6BA10BD10B50446FFF7EFFF204610BD30B5294D04462B6C89B0A3B94FF42A
:202620007A73A4FB034003FB0101254BCDE902410493244B04AA0793234B02A9069301A8B9
:202640000023FFF739FC09E01B68002BE7D01869FEF7FFF90028E2D009B030BD04A8FEF74F
:2026600073FD04200AF030F8019A2C6C0260002228640192049234B12046FFF7FDFD0421D8
:20268000204609F095FA04A8FFF7B0FF4FF400620E4B286C5A83FFF773FD01A8FFF7ECFD9E
:2026A000DAE7044604A8FEF74FFD204607F016FB044601A8FFF7E0FDF7E700BFC00A002067
:2026C000000B0020790A0008890A00080000024008B5BFF35B8F064B06489969BFF35B8FD1
:2026E00011F0CCFBBDE808403220002191E700BFC00A0020BE6F010808B50A200021FFF75D
:2027000088FF012008BDF0B5026806468DB0DAB1EFF305836BB16FF00504102009F0BCFA5C
:20272000054608F035FE1D4907466846FFF77BF80CE0FDF781FD0028EDD11046DFF860C0C8
:2027400000DF04460028E8D10DB0F0BD6946326806A808F009FF3A462146284606AB08F010
:202760007BFE06A8FFF70AF86846FFF707F828460C4A0D4909F016FF044606A8FEF7FEFF85
:202780006846FEF7FBFF284609F09EFA204607F0A5FA0446F4E70446F5E700BFCB6F010854
:2027A000810F000849CD00082074010838B5044678B1FFF7A8FF2046BDE83840042109F028
:2027C000F7B905460421204609F0F2F9284607F085FA38BD10B504461830FEF79FFE04F1D8
:2027E0000800FEF7B1FC606808B1FFF7DFFF204610BD08B5EFF3058313B1054B586908BDE6
:20280000FDF71AFD0028F8D1DFF808C000DFF6E7400000202D02000870B5154C0546B4F84D
:20282000541004F15602D2E85F3F994202D8BFF32F8F04E0581CC2E8560F06B1F3E79BB225
:20284000994203D82946022008F056FF04F15800FDF70DFEE36D43F82050637A23B94FF0A5
:202860008052044B5A6070BD0123A372FBE700BF4000002000ED00E0F0B5026806468DB0B1
:20288000EFF3058373B1C2B96FF00304102009F003FA054608F09AFD2649074606A8FEF76A
:2028A000C2FF1FE0FDF7C8FC0028ECD110460121DFF884C000DF044610E01378F32BE3D1B2
:2028C000012102F10C0353E8000F40EA010443E8004505B1F7E71046FFF79EFF002CD5DB92
:2028E0000DB0F0BD6846326806A908F03DFE6B463A462146284608F0AFFD6846FEF73EFFBA
:2029000006A8FEF73BFF28460C4A0D4909F04AFE04466846FEF732FF06A8FEF72FFF284622
:2029200009F0D2F9204607F0D9F90446F4E70446F5E700BFDE6F01082B06000849CD0008ED
:202940002074010800232DE9F0438FB004460193EFF305821AB9FDF76FFC70B101921020D2
:2029600009F09AF9044608F013FD4FF0FF3102466C4B204608F0B2FD0CE0DFF8ACC100DFEF
:2029800001900028EBD001A8FFF776FF042009F09BFE04E02046654A654909F003FE019ABD
:2029A000034602600022019262685068536020BB604FDFF884816368D3F80490D9F8002001
:2029C000EFF30583E3B101211046FDF77CFC002805464ADA102009F05FF9064608F0F6FCC7
:2029E0005649044602A8FEF71EFF12E00546204609F06AF9284607F071F9FFF7D7FED7E7DB
:202A0000FDF71AFC0028DED110460121BC4600DFDDE7D9F8002002A908A808F0A5FD22466A
:202A20002946304608AB08F017FD08A8FEF7A6FE02A8FEF7A3FE30463C4A3D4909F0B2FD3F
:202A4000044609E0044608A8FEF798FE02A8FEF795FE304609F038F901A8FFF754FE204695
:202A6000C9E70446F2E70446F3E76368D3F80490EFF305836BB16FF00306102009F00CF919
:202A8000054608F0A3FC2E49044602A8FEF7CBFE1DE0D9F80020FDF7CFFB0028EBD1104645
:202AA000012103224FF0FF33C44600DF061EE4DB606803697BBB4FF47A736268106A556AF5
:202AC000A0FB030103FB0511FFF7AEF927E0D9F8002002A908A808F047FD224631462846CA
:202AE00008AB08F0B9FC08A8FEF748FE02A8FEF745FE28460D4A0E4909F054FD044608A849
:202B0000FEF73CFE02A8FEF739FE2846A2E70446F8E70446F9E7436908309847CBE7FDF7FD
:202B2000F7FF48E7EE6F0108090C000849CD000820740108C70200081D080008FE6F0108BE
:202B4000107001082DE9F74F2C4E746C002C4FD04FF000094FF0F90B7369DFF8A4A00193D5
:202B60002369013B23612369002B3FD1E3680BB1A2689A60F76C736404F11808EFF305837E
:202B800033B18FB9B36921460320736108F0B4FDFDF752FB02460028F3D138464146134613
:202BA000D44600DFC0B1EDE73B78FA2BEAD107F10C00FEF712F805460028E3D041467A6AB0
:202BC0000C3007F055FC2846C5E9018785F800B0A5F80290FFF720FEE378DB070BD52046DA
:202BE0006169FDF7C6FE746C002CBCD1019B736103B0BDE8F08F01236370F4E74000002041
:202C000023120008FDF7A2BB38B54FF0E023514D1B69EB68EC6A0133EB6004B3E369013B6E
:202C2000E361E3B96378732B7ED007D8532B6DD0632B72D0432B05D123463FE0832B7AD0BF
:202C4000932B7FD02046FDF73AFCFDF751FC246924B1E369002BE5D000236361EC620020B3
:202C6000FDF796FC2B6D03B198472A6C002A6FD0AB69E96B994203D0D969EB6301B9DA6109
:202C8000DA69002A60D12B7A022B61D16C6A002C5ED0EB6B94F9202093F920309A4257D15F
:202CA0002046FDF70CFCE86BFDF722FC2046FDF75FFC2B6CEC63E3614AE0DB681A78F12A54
:202CC000FBD0BFE7DB681A78F12AFBD0DA789007B8D5D86890F92120C36AD978890709D55C
:202CE00099688C4208BFA16821B191F920108A42B8BF0A465B69002BEFD190F920309342B9
:202D0000A0D080F82020FDF7E3FB9BE72346DAE7DB681A78F12AFBD094E72346F9E7DB684B
:202D20001A78F12AFBD08DE72346F9E7DB681A78F12AFBD086E72346F9E7DB681A78F12AFD
:202D4000FBD07FE72346F9E7013ADA61002A9AD038BD00BF4000002070B5224C04F15605F8
:202D600004F15A06B4F85410D5E85F3F13B9BFF32F8F04E05A1EC5E8502F00B1F4E79BB2F6
:202D80005BB33046FDF773FBE36D53F8200020B30378F13B082BE5D801A252F823F000BF69
:202DA000C52D0008652D0008CB2D0008652D0008652D0008CF2D0008D32D0008652D0008A5
:202DC000D72D0008236E9847CCE7636EFBE7A36EF9E7E36EF7E7236FF5E70020BDE870400E
:202DE000FDF7D6BB40000020036B826B934205D21868034BC31A584258417047002070477B
:202E0000A52E5AE238B5144C237A022B22D1636A03B36569E86AFDF73DFC2846FDF79AFDD0
:202E200004F11C00FDF742FBFDF7A2FBEFF309832846AB63FFF7D8FF28B9A369294601208B
:202E4000636108F059FC002328466361BDE83840FEF71AB938BD00BF4000002010B5044604
:202E6000002845D00378F12B42D1437803F00F03022B06D0032B2BD0012B26D06FF00200FC
:202E800031E01D4B1A7A022AF8D15B6A002BF5D0E06AFDF7FFFB2046FDF75CFD6378022B88
:202EA00022D1154901F11C00FDF700FBFDF760FBEFF309832046A363FFF796FF68B98B69FB
:202EC00001204B61214608F017FCFDF7F8FADFE7FDF7F5FAFDF714FBDAE700234B6120462B
:202EE000FEF7D2F8002010BD0020FDF751FBF6E76FF00300F7E700BF400000202DE9F84F2D
:202F00000F4616468946DFF8B4802D4DDFF8B4A0A9EB07039E4202DC3046BDE8F88F19F872
:202F2000014B0D2C0ED098F84430192B0DD80A2C18D10D2BECD80E23022488F84430B120CA
:202F40006C8305E0002388F844300224B0206C83FDF7C5FD0020FDF7C2FD1120FDF7BFFD37
:202F60002C83D5E70133DBB20E2B88F8443014D14FF0020B0020FDF7B2FD0020FDF7AFFD44
:202F8000B120A5F81AB0FDF7AAFD0020FDF7A7FD1120FDF7A4FDA5F818B04FF0060B203CCF
:202FA000E4B20BFB04A414F8010B0BF1FF3BFDF796FD1BF0FF0BF6D1AAE700BFC00A0020E2
:202FC00000040240DC5C0108124B1B8ABFF35B8F13F0100F104B15D053E8002F013A43E89A
:202FE00000210029F8D10422BFF35B8F0B4B5A610B4AD2F8003423F00403C2F80034094B3C
:20300000D86939E453E8002F013243E800210029E9D0F7E700040240D80A0020000401401C
:2030200000000140C00A00207047FEE7FEE7FEE7FEE770473F4B82B01A6842F480721A6083
:2030400099683D4A0A409A601A6822F0885222F001121A601A6822F480221A609A6822F4CB
:203060007D029A600022DA60009201921A6842F001021A601A6802F002020192009A01324D
:203080000092019A1AB9009AB2F5A04FF2D11B6813F0020318BF01230193019B012B43D147
:2030A0004FF40061254B1A68A3F5806342F00402C3F80024D3F8002442F00202C3F80024E4
:2030C000D3F8002442F00102C3F800245A6A42F080525A621A4A11605168C906FCD49A683A
:2030E0009A609A6842F460529A609A689A609A6822F47D029A609A6842F408029A601A68A7
:2031000042F080721A600B4B1A689201FCD59A6822F003029A609A6842F003029A609A688D
:2031200002F00C020C2AFAD14FF00062054B9A6002B07047003802400CC0FF88003C0240EF
:203140000070004000ED00E01EF0040F0CBFEFF30880EFF30980816911F8021C00292ED1F8
:2031600001B590E80F10E047BDE80050CCF80000224B93E80600914208BF70471A60A9B10F
:20318000ACF1200CC1F838C006B40846FFF72CFE06BC38B9012008F0AFFA184B5A681A6079
:2031A000002103E0D1F838C08CE8F00F1400A06B6FF0020EB0E8F00F80F309887047104A9D
:2031C00013689942FAD801B552F821C00FC8E047BDE80050CCF80000704701B5FFF7BCFD13
:2031E000BDE80140EFF3098CC2E701B5FFF70CFDBDE80140EFF3098CBAE7000054000020A2
:20320000785F01088446481E70B54F2842D8DFE800F028282828414141413F3F283F3F3F2A
:203220003F3F3F3F3F3F3F3F3F412A2A2A2A2A2A2A2A283F3F3F3F3F413F2A292841282AD5
:203240002A3F2941413F3F3F28282828283F28283F2841413F3F3F4141413F3F3F282A28A6
:203260002A2ABAB1B3B1DCE90540844212DA0026DCF8105004EB840E05EB8E000134C0E938
:203280000166CCF8144005F82E10C0E9032370BD002AE8D1002070BD70B5C26886461178A4
:2032A0006E2924D03039CBB2092B2AD8002600206FF00045144C06E01946EB1AA4FB03C36E
:2032C000B0EBD30F10DC0132CEF80C20137800EB8000303B5FFA83FCBCF1090F01EB400036
:2032E000EAD906B1404270BD4FF0FF3070BD531CC36051783039CAB2092A02D81A46012636
:20330000D5E7002070BD00BFCDCCCCCC10B5044629B9C3681A786AB15A1CC2601978682931
:2033200017D0762906D12046FFF7B6FFE3681A785F2A01D0002010BD01332046E360FFF728
:20334000ABFFE3681A785F2AF4D101200344E36010BD2046FFF7A0FFF3E700BF10B4C3689D
:203360000A46197852290DD04F2902D0104610BC70472021C46A0334C4625C1CC460002366
:2033800010BC3FE7C46A1F210234C462F5E700BF002965D070B506460C46A368012B03F18A
:2033A000010336DCD6F81C51B5F5806F31DC2278A360531E4F2B2CD8DFE803F03030304BF5
:2033C0002B2B2C2C3030303030303030303030303030302B303030303030303030304141E2
:2033E00030302B303030302830303030302B2C303030303030303030303030302B2B3028F5
:203400002828282B3030303030303030E468002CC3D170BD2469002CBFD1FAE7E1680135A7
:203420003046C6F81C51FFF7B3FF30462169FFF7AFFFD6F81C31013BC6F81C3170BDE168C7
:203440000B78052BEBD1D6F838310133C6F83831E5E7D6F84431E1680133C6F84431DEE7E7
:20346000704700BFC3681A785F2A01D00120704710B55A1CC2605A7804465F2A04D0FFF71B
:203480000BFFC043C00F10BD0233C360FFF704FF002809DB092809DDE3681A785F2A03D1D5
:2034A00001330120E36010BD002010BD012010BD28B909E0002908DD0069013940B10378E5
:2034C0002F2BF7D0002070477047FBD1C0687047704700BFF0B514465268A5684B1C134498
:2034E000AB420E46074683B011D8E5686DB96368206832461844394606F0BAFFD4E900326B
:2035000033449D5463683344636003B0F0BDE268002AFAD155B16D00AB42FCD82946206874
:203520000AF0CCFE38B12060A560DEE7022B4FF00205F0D8F2E7019020680AF07BFA0122D5
:20354000019BC4E90033C4E90232DEE70378722B07D0562B05D04B2B03D0442B03D0002059
:20356000704701207047407800F0DF034F2BF8D0773801288CBF00200120704770B50D465D
:20358000D0F800110446FF2906D04B1CC4F80031655484F8045170BD0026D0E9423280F834
:2035A000FF60984701233146D4F82821C4F800311A44C4F82821655484F8045170BD00BF57
:2035C0000346D0F8100190B1CB684268002B10690BDB20B909E03BB10069013B30B1027873
:2035E0002F2AF8D000207047C068704770470122C3F81821704700BF002942D038B505463D
:203600000C4623784C2B32D8DFE803F02F31313131272F37373131313131313131313131B0
:20362000313131312F31313131313131313131313131312F313131312F31313131312F376C
:20364000313131313131313131313131312F2F3131312F2F2F31312F2F0021462846FFF7E4
:20366000AFFF10B103782F2B00D0002038BD2846E168FFF7C1FF0028F8D12469002CC0D179
:20368000F3E70020704700BF2DE9F041044608460D460BF04DFB40B3013D4FF00008D4F801
:2036A00000112F1809E00B46BD4201F10101C4F80011E65484F8046117D0FF2915F8016F11
:2036C000F1D1D4E94232204684F8FF80984701210023D4F82821BD420A44C4F82821C4F84F
:2036E0000011E65484F80461E7D1BDE8F08100BF38B5C3681A78542A25D15A1CC2605A7889
:2037000004465F2A21D06E2A1DD0FFF7C5FD421C19D4E36819785F2915D10133E360D4E9DF
:2037200005318B420FDA00254FF0050E216903EB830C01EB8C000133C0E90155636101F8B7
:203740002CE0C26038BD002038BD02330022C360E5E700BF2DE9F04188B00A4604461A49B0
:2037600001A80BF0D1F801A80BF0E2FA40B301AD4FF00008D4F800112F1809E00B46AF4225
:2037800001F10101C4F80011E65484F8046117D0FF2915F8016BF1D1D4E94232204684F8F0
:2037A000FF80984701210023D4F82821AF420A44C4F82821C4F80011E65484F80461E7D16D
:2037C00008B0BDE8F08100BF1875010870B50446FFF762FD051E46DDE66863689B1B9D420E
:2037E0003EDCA26873195207E36004D5725D242A04BF0133E360092D22DD08223046294906
:203800000AF014FC30B9337A2E2B2ED05F2B2CD0242B2AD0D4E90532934221DA0022206973
:2038200003EB830100EB81000133C0E90122636100230370C0E90365C0E90133A06270BD33
:20384000D4E9053293420BDA0022206903EB830100EB81000133C0E901226361002EE7D187
:203860000020A06270BD002070BD737A4E2BD1D1E26A6369A1691632551B8B42E562EFDAED
:2038800003EB830001336361152100232269064D860002EB8000C0E901339355C0E90351D3
:2038A000DFE700BF1C750108287501082DE9F843C3681A78532A31D15A1CC2605A78044602
:2038C000A2B39A1CC2605A785F2A44D0A2F13000C3B2092B26D800210DE0303B99421DD899
:2038E000E1680A78481C1AB1E0600A785F2A3CD01946A2F13000C0B201EBC1030928A2F16F
:20390000410C02EB8303E8D9BCF1190F06D801EBC10302EB8303373B9942E1D900252846B6
:20392000BDE8F883A2F14103192BD4D9A36803F00803002B14BF0125002500D1B9B9404B7F
:20394000742103F1A80001E013F81C1F914215D08342F9D1E2E70023226A9A42DED9E26972
:2039600052F823502846BDE8F8830133F4E7E3681B78433B012B98BF0D46E0E75E69002EFF
:2039800056D0D4E905208242D3F8188055DA4FF0000E4FF01809276902EB820C07EB8C0192
:2039A0000132C1E901EE626107F82C90C1E90368A162002D39D0D3E90371E36A90420B44D1
:2039C000E36238DD00264FF0180C236902EB820003EB80050132C5E90166626103F820C0B0
:2039E000C5E90371E3681A78422A98D1A66A0133E3602046FFF7EAFE2A4603464C2120469C
:203A0000FFF700FCE36805461A78422AEFD0A662002883D0D4E908329342BFF67FAFE169E5
:203A20005A1C41F82300226279E7D3E90171C4E7D4E90520BDE70025D4E70021B8E700BF12
:203A40004C6201082DE9F8438F18B9424AD20C4605464FF000080CE0D5F80011FF2933D0C7
:203A60004B1CC5F800316E5485F804610134A74238D93B1B032B2678EEDD5F2EECD163780C
:203A80005F2BE9D1A378552BE6D1E21C9742E3D9002105E0A6F13703BA4203EB011123D037
:203AA000914612F8016BA6F13003D8B20928A6F1410CF1D9BCF1050FA6F16103EAD9052BD7
:203AC00014D8A6F15703E7E7D5E94232284685F8FF8098470123D5F8282100211A44C5F84A
:203AE0002821BEE7BDE8F8835F26B5E74F45FBD95F2EF9D1FF29AFD8CEB2D5F80011FF29A3
:203B000007D04B1CC5F800314C466E5485F80461ACE7D5E94232284685F8FF809847D5F868
:203B2000283100210133C5F82831EAE72DE9F043C268044683B01046FFF708FD00286ED148
:203B40001178A1F130034A2B64D8DFE813F0B900B900B900B900B900B900B900B900B9001B
:203B6000B9006300630063006300630063006300FF016300CE00440163003E01E10163007A
:203B800063006300630063004102B900D301C5016300B7011A01F400DC00630063006300D4
:203BA0006300B90063006300630063006300630098009800980098009800980098009800D7
:203BC000980098006300980098009800980063006300630098009800EF01980098009800E1
:203BE000980098000123256B2046236301F0FAFB25630246002343212046FFF703FB054613
:203C0000019038B1E3681A7822B15A1CE2601B78452B5CD00025284603B0BDE8F083002213
:203C2000204601A901F03AFE05460028F2D0E36820461B78462B1ED0FFF778FF2860002856
:203C4000E8D003781F3B012B05D8019AC368C2602A6801922B60019D002DDBD0D4E90832C9
:203C60009342D7DA2846E1695A1C41F82350226203B0BDE8F08300F069FC2860DFE7B248F8
:203C8000613901EB8101636900EB8101A069834280F25A83571C4FF0270C0022206903EB48
:203CA000830600EB86050133C5E90122636100F826C0E36AE9604968E7600B44E362AAE7AB
:203CC000204600F011FE05460190002DA2D0D4E9083293429EDAE1695A1C41F82350019DB6
:203CE0002262284603B0BDE8F0830132E2602046FFF71CFF0023024625212046FFF782FA92
:203D000005460190E1E70132E2602046FFF75EFDE36801901A780546492A00F0B982204616
:203D2000FFF704FF21210246019B2046FFF76AFA05460190C9E72046FFF7DAFCE668019007
:203D400033780546492BC0D1636B002B40F0C88200283FF45FAFD4E908218A42BFF65AAF1C
:203D6000E16941F82200013222623278493A012A05D801362046E66001F066FE03462A46C1
:203D80001CE05378A3F13002092A05D95F2B03D0413B192B00F2978200212046FFF786FD5D
:203DA000E36801901A780546492A7FF434AF0133E360204601F048FE2A4603460421204629
:203DC000FFF720FA054601907FE7204600F0BEFB0546019079E7531CE3605378002B3FF46B
:203DE00019AF931CE3605378463B302B3FF612AF01A151F823F000BF01400008153C00080D
:203E0000153C0008153C0008153C0008153C0008153C0008153C0008153C0008153C0008DA
:203E2000153C0008153C0008153C0008153C0008E53B0008153C0008153C0008153C0008EB
:203E4000153C0008153C0008153C0008153C0008153C0008153C0008153C0008153C00089A
:203E6000153C0008A1400008153C0008754000085341000823410008F3400008153C00084E
:203E8000C340000871420008153C0008153C0008153C0008153C000843420008153C000812
:203EA0002B420008153C0008153C0008FB410008E53B0008CB410008714100080132E2602C
:203EC0002046FFF733FE0023024623212046FFF799F905460190F8E60132E2602046FFF72D
:203EE00025FE0023024622212046FFF78BF905460190EAE60132E2602046FFF717FE00235C
:203F0000024624212046FFF77DF905460190DCE60132E2602046FFF709FE0023024626211A
:203F20002046FFF76FF905460190CEE60132E2602046FFF74BFC0023024628212046FFF705
:203F400061F905460190C0E610630108511CE16053785F2B00F09A81303B092B00F2A58144
:203F60000B461D460133E3601A78303A092AF8D9D4E905208242A3EB010CBFF64BAE002007
:203F8000D4F810E002EB82070EEB870601328445C6E901004FEA870762617FF73BAEC6E925
:203FA00001000EF80700C6E9031C19466B785F2B7FF430AE0131E1602046FFF7B7FD32460D
:203FC00003462A212046FFF71DF9054601907CE601322046E260FFF7A9FD054600283FF480
:203FE00019AE2046FFF7A2FD034600283FF412AE2A462B212046FFF705F90546019064E65F
:20400000D4E905318B4280F2A38100262C27216903EB830001EB8005C5E901660133636158
:20402000019501F820709378303BDBB2092B94BF012333462B8203D82046FFF72DF9019D92
:204040002046FFF773FD019BE860DB68002B3FF4E1AD2046FFF720F9E268137813B1531C04
:20406000E3601378A3F17303B3FA83F3019D5B096B82D0E5D4E905329342BFF6CBAD03EBBD
:204080008305013363610E2100232269B248AE0002EB8505C5E901339355C5E90301BAE589
:2040A000D4E905329342BFF6B5AD226903EB83050133AE00636104210023A84802EB8505CA
:2040C000E8E7D4E90532934280F23E8100202727226903EB830102EB81050133C5E9010056
:2040E000636102F82170E36A9D4E0433EE60E36291E5D4E90532934280F2268100202727A9
:20410000226903EB8301974E013302EB8105C5E90100636102F82170E36AEE600933E362FC
:2041200079E5D4E90532934280F20E8100202727226903EB830102EB81050133C5E9010096
:20414000636102F82170E36A874E0A33EE60E36261E5D4E90532934280F2F680226903EBAE
:20416000830100202727814E013302EB8105CEE793785F2B00F0DA80D4E905329342BFF6C5
:2041800049AD00264227226903EB830102EB81050133C5E901662046636102F82170FFF736
:2041A0007BF8E860E3681A785F2A7FF433AD0133E3602046FFF7BAFC2A4603462D21204695
:2041C000FFF720F8054601907FE5D4E90532934280F2BA8000202727226903EB830102EBC4
:2041E00081050133C5E90100636102F82170E36A5F4E0733EE60E3620DE5D4E90532934285
:2042000080F2A28000202727226903EB8301594E013302EB8105C5E90100636102F8217053
:20422000E36AEE600833E362F5E42046FFF77EFC002302464B212046FEF7E4FF05460190C3
:2042400043E5D4E9053293427EDA00202727226903EB830102EB81050133C5E90100636190
:2042600002F82170E36A444E1133EE60E362D2E4D4E90532934267DA226903EB8301002020
:2042800027273E4E013302EB8105C4E7002691E60133E360204601F0D7FB2A4603460421D7
:2042A0002046FEF7AFFF019039E50123256B2046236301F097F82563064600283FF4AAACA1
:2042C000E1680B7873E6204600F00EFB0546019000283FF49FAC0378182B7FF4F8AC9AE485
:2042E000731CE3602046D4F81490D4F82080E76A01F0AAFBE3681B78492B07D0019DE660B6
:20430000C4F81490C4F82080E762DEE4019A002A3FF480ACD4E908139942BFF67BACE569D5
:20432000034645F821200131216247E501230332256B2046E260236301F054F825630546AE
:2043400000287FF42FAF65E400230193DB68FFDE00231B70FFDE00BF4875010840750108F6
:204360005465010818650108406501082C650108686501087C650108A465010890650108DD
:20438000F8B5C36806461F7877BB4FF0000E452100223C4D8B1A03EBD37302EB630318018D
:2043A0002C5805EB031C2078B84206D08CBF19465A1C8A42EED10020F8BD60787045F5D12F
:2043C000D6E905329342F6DA00243225326903EB830102EB81000133C0E90144736102F85C
:2043E0002150C0F80CC0F8BD5A1CC26093F801E01F78BEF1000F02D1762FC8D0C5E79A1C48
:20440000C260762F93F801E01FD1AEF13004E3B2092BBCD8FFF7DAF9D6E905318B42024676
:20442000C9DA0021356903EB83008700013305EB8000C0E901117361002ABCD03323C0E93A
:204440000111EB55C0E90342F8BD632F9FD1BEF1760F9CD1D0E90C34B3FA83F35B0943639E
:20446000FFF764FB736B024633B1002335213046FEF7C8FE7463F8BD34213046FEF7C2FE27
:20448000F8E700BFB8650108002330B5C26883B00193137823B3044601AD12E04F2B16D0B4
:2044A0002046FFF743FB0246D0B100232E212046FEF7A8FE286098B1E26800F1100513787A
:2044C00043B1452B06D02E2B04D0522BE6D15378452BE5D1019818B1036923B103B030BD0E
:2044E000002003B030BDC26811782729F6D1D268117C0929F2D1E16A5268891AE162C36068
:20450000ECE700BF70B5C36805461A784A2A1AD081B12846FFF70AFB044690B12846FFF7F4
:20452000B3FF034668B122462846BDE870402921FEF768BE28460C46FFF7A6FF034600280B
:20454000F1D1002070BD0133C360E2E710B50446806810F480200BD1A26BB2F5006F06D8B4
:20456000511CE368A1631978462907D0A26310BDE3681A78462A01D0002010BD5A1CE26013
:204580005A780121592A04BF0233E3602046FFF7B9FF01462046FEF7E1FEE3681A78452A88
:2045A00004BF0133E360A36818BF00205B03DED4A26B013ADAE700BFF8B5C36804461A7833
:2045C000A2F13001092961D9A2F16101192914D86F2A04D15A786E2A04BF0233C36020462F
:2045E000FFF7CEFE054610B10378322B69D0E3681978422951D02846F8BDA2F14301012950
:2046000040F28B804C2A79D0552A40F083805A786C2A00F0D580742A7CD15A1CC2605978EB
:20462000742940F098809A1CC2609A785F2A00F047816E2A6ED0FEF72FFE461CE36800F1D4
:20464000288119785F2977D10133E360D4E90532934280F21D8100214827226903EB830074
:2046600002EB80050133C5E90111636102F82070226A636AEE609A4280F22681E069E36856
:20468000511C40F8225021621978B2E7FFF79EF8E368054619784229ADD1A66A0133E36033
:2046A0002046FFF793F82A4603464C212046FEF7A9FDE368054619784229EFD02846A66225
:2046C000F8BDC268E36A9168073312680B44E36213786C2B8BD15378692B88D19378002B01
:2046E00085D12046FFF772F82A46034637212046FEF788FDE368054619787AE70133C360CE
:20470000FFF764F8054628B12046FEF7ABFE00287FF46DAF00252846F8BD866A86B1317850
:2047200061B93169E26A0A44E262197843290A4600F08780442905D000255AE71829F0D0FA
:20474000432A7ED059783039052936D8DFE801F0062C2935322F134600254AE74FF0010E82
:20476000D4E9052103F1020C8A42C4F80CC080F2A3800020276902EB820107EB81050132A0
:20478000C5E9010089006261002E00F095800822C5E901007A5485F80CE02E619978634692
:2047A00027E74FF0030EDBE74FF0020ED8E74FF0050ED5E74FF0040ED2E71146002518E738
:2047C0005A1CC26059786C29C5D10233C360FFF75BFEE368064600285BD019784529ABD139
:2047E0005A1CE2605A785F2A76D06E2A92D02046FEF752FD0130E3684BD419785F299BD19C
:204800000133E360D4E905218A4242DA00214FF0460E276902EB820C07EB8C050132C5E933
:204820000111626107F82CE0C5E90360D4E9082082422EDAE16941F8225001322262197899
:20484000D7E65A78492A27D0A2F1310104293FF661AF303A0233D7B2E360D4E905329342F4
:2048600016DA0021226903EB830002EB80050133C5E901114FEA800C63614EB30723C5E963
:20488000011102F80C30E3682F732E611978B0E6E36800251978ACE6581CE0609A78A2F141
:2048A000310104291CD80333303A2046E360D7B2FFF73CF9A66AD0E799780025634698E684
:2048C00003330026C360C1E6E3680D46197890E6E368354619788CE602330020E36091E734
:2048E00059780025034684E62DE9F047C2680446137884B04E3B0C2B08D8DFE803F03107FD
:20490000070707170713070707078600FFF754FEE36805461A78492A00F0CB80284604B06F
:20492000BDE8F08704B0BDE8F04745E65378742B00F0D1800021FEF7B9FFE36805461A78FF
:20494000492AEBD10133E360204601F07DF803462A460421204604B0BDE8F047FEF752BC0E
:20496000531CC360012203A900F098FF0746002800F0E98000212046FEF7F0FCE268804609
:20498000167836B34FF0000ADFF8B892442E00F0DF80A6F13003DBB21C2B40F21D81A6F170
:2049A0006103192B00F21A812046FFF705FE0546BAF1000F06D001212B4652462046FEF702
:2049C00021FC0546532E0ED1AA46E2681678002EDCD100231D463B60A0E7FFF7A7F80546E4
:2049E000BAF1000FE7D1E2681678452E00F0BF80002DEED0D4E908318B42EADAE169AA461F
:204A000041F8235001332362E0E7531CC3605378472B02D0542B40F0B880204600F0D2F9C1
:204A20000546002D00F08F80E3681A78452A40F08A805A1CE2605A78732A00F00781642A4C
:204A400000F0A8802046FFF74FFF034628B30278462A22D0482A20D04FF0FF3620460193C4
:204A6000FEF700FD019B00286DD0721C15D09C46D4E905239A4280F2188100274FF0470E67
:204A8000216902EB820001EB80030132C3E90177626101F820E0C3E903C62A78032A05D181
:204AA0002A691178292904BF0021D1602A46022150E7002847D0D4E908218A4243DAE16951
:204AC00041F82200013222621A78493A012A7FF639AF00233CE70232D0E905318B42C260CF
:204AE00080F2D18003EB8305013343610321002302695548AE0002EB8505C5E90133935567
:204B0000C5E903012046FFF757FD2A46034601212046FEF777FBE26AE3680332E2621A78E9
:204B20000546492A7FF4FAAE68B1D4E908218A4209DAE16941F82200013222621A78493A7D
:204B4000012AC6D8FEE60025284604B0BDE8F0875378204603F0DF03542B3FF43EAFFFF7AA
:204B60002BFD0546BAF1000F7FF425AF3BE7152329FA03F3D90740D52046FFF71DFD15B11D
:204B8000AA46054617E705462DE7002100F09CF8054646E79A1CE2609A785F2A00F08180DC
:204BA0006E2AD0D02046FEF777FB461CCBD4E3681A785F2AC7D10133E3602046FFF794FE8C
:204BC000034600283FF453AF1A78462A3FF44FAF482A3FF44CAF41E75546C9E7552E2FD067
:204BE000532E09D101212046FEF760FE0546BAF1000F7FF4E0AEE7E65546492E45D0542E03
:204C000055D0452E09D04D2E7FF4E3AE002D3FF4E0AE0132AA46E260D8E63D60002D92D067
:204C2000B8F1000F04D0039BCDF80C80C8F80C30E3681A78452A86D10133039DE3606DE6F0
:204C4000554699E7FF0308106875010802332046E360FEF707FC00283FF475AFD4E90523FF
:204C60009A4222DA02EB8203013262610E2000222169144E9F0001EB8303C3E90122CA55B9
:204C8000C3E9036009E700253CE7002D3FF4A1AE01322046E26000F0D7FEAA46042105461E
:204CA0008AE603330026E36087E70023F5E62046AA46FEF71DFD0546BAF1000F7FF47BAE73
:204CC00091E600BF5875010870B505460E46FFF70BFE002849D00446EEB1AB68DB071AD4F8
:204CE00023784D2BA3F11C01A3F14F0235D032D8042932D9022B0CD12369002B35D01A786C
:204D00004D2AA2F11C00A2F14F012AD027D8042827D9204670BDEB681B78002BF9D0452B88
:204D2000F7D021460B78042B32D026D8022B22D109690029F6D12846FFF7E4FB0346A0B134
:204D400016B92278022A37D022462846BDE870400321FEF757BA012ADBD8E468C0E7012967
:204D6000D7D8DB682361002BC9D10024204670BD1C3B042B08D90021DDE74D2BA3F14F0298
:204D800002D0F5D9012AF6D8C9680029CAD1D2E7CB685BB11978082901F1FF3208D8062999
:204DA000E9D8012A02D81B69002BF3D10121C2E7353918BF0121BEE70278292A08BFC66029
:204DC000C2E700BF2DE9F041C16AC36801F11402C2621A780446542A78D0472A28D15A1C20
:204DE000C2605A7822B39A1CC2605A78562A22D8402A1DD9413A152A1AD8DFE812F02701C9
:204E0000190019001900190019001900190019001900190019001900190019001900190002
:204E200005011900EB001900E100E3680233E3600020BDE8F081722AFAD1FEF72DFA0128C9
:204E4000F6DDE3681A78002AF2D05E1CE6601B785F2BEDD100224FF041081746451E337806
:204E6000002BE5D0242B40F0E6817378532B00F007825F2B00F00282242BD9D11946D4E977
:204E800005039842D1DA266900EB800C06EB8C030130C3E90177606106F82C80E668D960B8
:204EA0000236023DE660002A00F0E68140212046FEF7A8F902460028BAD0002DCFDC20461F
:204EC000BDE8F04100233F21FEF79CB95A1CC2605A78002AACD09A1CC2605B78413B352B98
:204EE000A6D801A252F823F099500008314E0008AD500008314E0008314E0008E950000868
:204F0000314E0008655100080F520008FB510008314E0008314E0008314E0008314E000873
:204F2000314E0008314E0008314E0008314E00082352000879510008314E00089151000895
:204F4000A9510008314E0008314E0008314E0008314E0008314E0008314E0008314E00089E
:204F6000314E0008314E0008314E0008314E0008BD510008314E0008314E0008314E00086A
:204F8000314E0008FD500008314E0008314E0008314E0008314E0008314E0008314E00080B
:204FA000314E0008314E0008314E0008314E0008314E0008314E0008314E000831510008B6
:204FC000FFF792FC0023024613212046BDE8F041FEF718B99A78002A00F05481DA1CC26093
:204FE0009A78DB786E2A46D0472B02D0542B40F049812046FFF7E6FE02462046BDE8F0411D
:2050000000234921FEF7FEB8FFF76EFCD4E905129142064680F2408100234FF0420C226997
:2050200001EB810702EB87050131C5E901332046616102F827C0FEF72FF9E8602B46324618
:205040002046BDE8F0411621FEF7DCB89B78472B01D0542B0AD12046FFF7B4FE02462046E8
:20506000BDE8F04100231721FEF7CCB80021FFF72BFE0246F3E7472B00F01A81542B00F0B8
:2050800017810021FFF720FE02462046BDE8F04100234A21FEF7B6B800F0ACFC00230246CB
:2050A00030212046BDE8F041FEF7ACB8FEF73EFD05462046FEF7F0F80028FFF6B9AEE3687D
:2050C0001A785F2A7FF4B4AE0133E3602046FEF72DFDE16A0246481DE0622B462046BDE82E
:2050E000F0410B21FEF78EB8FEF720FD002302460E212046BDE8F041FEF784B86821FEF781
:2051000005F900283FF494AEE3681B78472B00F0C580542B00F0C28000212046FFF7D4FD70
:2051200002462046BDE8F04100230F21FEF76AB87621FEF7EBF800283FF47AAEE3681B78B1
:20514000472B00F0B080542B00F0AD8000212046FFF7BAFD02462046BDE8F0410023102115
:20516000FEF750B8FFF7C0FB0023024614212046BDE8F041FEF746B80A31C162FEF7D6FC8D
:20518000002302460A212046BDE8F041FEF73AB80F31C162FEF7CAFC00230246092120463D
:2051A000BDE8F041FEF72EB8FFF79EFB0023024615212046BDE8F041FEF724B80021FEF7EB
:2051C000A5F800283FF434AE00212046FEF79EF800283FF42DAEE3681B78472B6DD0542BA1
:2051E0006BD000212046FFF76FFD02462046BDE8F04100231121FEF705B8FEF797FC002355
:20520000024612212046BDE8F041FDF7FBBFFEF78DFC002302460C212046BDE8F041FDF7E3
:20522000F1BFFEF783FC002302460D212046BDE8F041FDF7E7BFB446002104E01CF8013F88
:2052400023B1242B02D00131A942F7DBD4E9053083421DDA206903EB830C0133636100EBD3
:205260008C03C3E9017700F82C70C3E90361E6686D1A0E44E66016E61A461EE62E21FEE5D8
:205280002F21FCE500212046FFF71EFD0246B4E6E3680B44E360CBE50025CFE62046FFF7A0
:2052A00091FD02463DE72046FFF78CFD024652E72046FFF787FD0246E7E62046FFF782FDBE
:2052C000024693E7F8B5C26813784C2B32D1531CC360517804465F2951D05A2913D15A1C05
:2052E000E2605B78472B43D0542B41D000212046FFF7EAFC0646E3681A78452A1AD101336A
:205300003046E360F8BDFEF711FC064690B10378272B12D0E26815786E2D23D03D21452DAC
:2053200059D0134603E0E3601D78452D2FD00133002DF8D100263046F8BDC3681A7C1AB1B8
:20534000E26A5968521AE2622549186805F006F90028DFD1E2681578452D3ED06E2D01D013
:205360003D21DEE7531CE36055783E211A46D6E72046FFF727FDE36806461A78BDE7931C13
:20538000C36092785A2A18BF0026B6D1A7E79D1AD4E9050398421CDA0027D4F810E000EB30
:2053A000800C0EEB8C030130BD42C3E901774FEA8C0C60610DDDC3E901770EF80C70C3E9B7
:2053C000032532462046FDF71DFFE36806461A7893E70023F5E70025DAE70132E260AAE729
:2053E0006C750108C26813784C2B00F0A480542B00F0A280732B2DE9F041044665D0662BFD
:2054000033D0A3F1300109290ED82046FFF7D4F80546002800F08B80E3681A78492A00F0D6
:205420008D802846BDE8F0816F2B5FD0692B40F0928053786C2B00F0B1802046FEF7A0FFBF
:205440000546002873D00378322B55D0342B00F0A9816CD8332B6AD1C368032B67D8DFE8E4
:2054600013F0E600EE00660066005378702BE4D1931CC3609378542B00F03A815F2B00F0ED
:20548000B6806E2B53D0FDF707FF411C4FD4E3681A785F2A4BD16FF0004201339142E36033
:2054A00045D00230D4E90532934240DA00260627226903EB830102EB81050133C5E90166B6
:2054C000636102F82170E860ABE75378722B50D0702BB2D10232C260FFF784FF00230246C3
:2054E0004B212046BDE8F041FDF78CBE53786E2BA3D10232C26088E7C168E36A8A680E684B
:20550000023A1344E3623378732B5CD17278742A59D1B278002A56D12046FEF707FB03466A
:205520002A462046BDE8F0413721FDF76BBE00252846BDE8F081C5E6FEF7DAB80133E360F8
:20554000204600F081FA2A46034604212046BDE8F041FDF757BE742B7FF46FAF53786C2BC5
:205560007FF46BAF0232E260FEF7E0FAE268054617E00232C260FEF7D9FA05462046FFF708
:205580001BF8E36806461A78492A23D003462A462046BDE8F0410121FDF734BE0025023213
:2055A000E26011780029C2D05378002BBFD04521204600F039F92A46034631212046BDE8DC
:2055C000F041FDF71FBECF68032FB0D8DFE807F02F13663C0133E360204600F035FA3246C2
:2055E000034604212046FDF70DFE0346CFE703320120E26056E73278702A00F082806D2A37
:205600007FD00027732B77D17378502B74D1B378002B71D1204600F017FA0346002F3FF4D9
:205620007FAF1A4639212046FDF7ECFD77E72A462046BDE8F04100233621FDF7E3BD2046C1
:20564000FFF7D0FE03466BE7712B68D17378752B65D1B378002B62D12046FFF7C3FE064663
:205660002046FFF7BFFE07462046FFF7BBFE034600283FF45CAF3A463C212046FDF7C2FD0A
:20568000324603463B212046FDF7BCFD2A4603463A212046BDE8F041FDF7B4BDEB681B684F
:2056A0005A78632A00F092803378662B00F09C802046FFF797FE07463378632B56D17278B9
:2056C0006C2A53D1B278002A50D14521204600F0ABF8064633463A4639212046FDF792FDB4
:2056E0002A46034638212046BDE8F041FDF78ABD03320020E260D5E62046FFF773FE0346B9
:205700008CE7717891427FF47CAFE26811785F297FF478AF0132E2600027337872E733787C
:20572000662B6DD06E2B7FF402AF7378772B02D0612B7FF4FCAE5F21204600F075F8064647
:205740002046FEF7F3F9E36807461A78452A67D0702A59D0692A7FF4EAAE5B786C2B7FF4F4
:20576000E6AE2046FFF73EFE034684E7642B26D17278742A23D1B2780ABB2046FEF71CFFE2
:20578000E36806461A78492AA4D10133E360204600F05AF93246034604212046FDF732FD69
:2057A000064697E7E3681A785F2A7FF448AF0133E3604521204600F037F80346B0E6702B73
:2057C00017D02046FFF70EFE064683E71B78A3F16302012A03D9723B012B3FF665AF2046A9
:2057E000FEF7A4F9074667E72046FEF7C9FD074662E77378742BE4D1B378002BBDD0E0E7DC
:205800002046FEF7BDFD2AE75A78692A7FF48FAE0233E3604521204600F006F803462AE7C1
:205820000133E360002326E72DE9F0410E460023C26882B011780446B142019324D0012731
:2058400001AD0CE000232E212046FDF7DBFC286000F1100570B1E3681A78B2420ED0D4F8E1
:20586000308020462763FFF7BDFDC4F8308002460028E7D1002002B0BDE8F081019801338F
:20588000E36002B0BDE8F081511CC1601A462E2102B0BDE8F041FDF7B5BC00BF2DE9F04FBF
:2058A000B2F10009C2680F460D464FF0010B044615BF4FF01E0A4FF01B0A4FF01D084FF093
:2058C0001A0814BF1C261926117883B01BE0562934D04B2939D053785BB3931CE360517807
:2058E000782952D06F2936D1E36A4F210933E362002300222046FDF785FC2860C8B1E2689D
:2059000000F10C0511781046FDF720FE002842D0531C7229E360DAD1E36A314603F109029F
:20592000E262002300222046FDF76CFC28600028E5D10025284603B0BDE8F08FE36A414678
:2059400003F10902E2620023D3E7E36A51469A1DE2620023CDE74F2939D1E36A2046093300
:20596000E362236BC4F830B001910093FFF73AFD009B0199236303460028DAD0E2681078BE
:205980004528D6D10132E260B3E7E36A4D211133E3620023ADE7B9F1000FCBD14629C9D18B
:2059A000BD42C7D01D201E211C2204E0192B0CD00C37BD42BED03F683B781A2B03D01B2B0B
:2059C000F4D13970F4E73870F2E73A70F0E77729AFD1E36A20460633E362FEF755FD03469B
:2059E0000028A6D0E26811784529A2D101325021E2607EE738B5C26813784C2B1FD00446B8
:205A000007D8493B012B15D8BDE838400132C2601AE0582B0ED101231A44056BC2600363C2
:205A2000FFF7E0FCE36825631A78452A0AD10133E36038BD2046BDE83840FEF777B8BDE82D
:205A400038403FE4002038BD70B5C26804461378866A452B82B04FF000031ED001AD01936E
:205A60000CE000232F212046FDF7CCFB286000F1100548B1E3681A78452A08D02046FFF79F
:205A8000B9FF02460028ECD1002002B070BD01980133E360A66202B070BD0132C2602F2186
:205AA0001A4602B0BDE87040FDF7ACBB2DE9F04F044693B0002A5CD0D0F81851002D5BD162
:205AC00013781646502B54D8DFE813F0BF09050105018B011607930751066001B4027D026A
:205AE00056022F02FC04D504AE0473044C0437031003E902EF06C806A1067A06B80580006C
:205B0000800080005900590059005900590059005900AD00AD005900590093097800C30231
:205B20005C05960050079600D000D00064011809EE08C7085300A00865093D09EC055300A3
:205B4000EF015300530030013001BF072A02230570082208E6076C09490853002504FE0361
:205B6000D70389035E035900310559005900C4F814210123C4F8183113B0BDE8F08F0022FA
:205B800000230493D4F8143103960293D4F81031059302ABC4F81431002A65D011212046C2
:205BA00002F03CF8049B002B01F0FA82029BC4F81431002DE0D0C4F81071DDE71121204674
:205BC000F26813B0BDE8F04F02F028B8D0F814E1BEF1000F3DD07246916849B95068007887
:205BE000A0F1190CBCF1020F01F20C858342E5D01268002AF0D12CE00023D0E9442102A8D7
:205C0000CDE90216C4F814010592112120463269049302F003F8049B002B01F0DA84029BE1
:205C2000C4F81431A8E7D0F82051F168002D41F0B5830B78052B01F0FB85232B01F00683C0
:205C400032789A4201F00283242B01F06F86D4F814E102ABC4F814310023D4F81021CDF8BF
:205C600008E0CDE904320396F26897E7F26812B1112101F0D3FF3369002B3FF47DAFD4F8DB
:205C80000051FD2D01F2C184DFF84C832C274FF00009294608F1010A0BE00B460131D0451A
:205CA000C4F80011E75484F8047101F0808218F8017FFF29F1D1D4F808312046D4F80C211A
:205CC00084F8FF909847D4F8283101210133C4F828310023E3E7C14D1121F26801F09EFF35
:205CE0003A274FF00009D4F8001105F101080BE00B460131A845C4F80011E75484F80471CB
:205D000001F08F8115F8017FFF29F1D1D4F808312046D4F80C2184F8FF909847D4F8283198
:205D200001210133C4F828310023E3E7F2681178272941F08083D1680D7C062D01F28B82AF
:205D4000002D41F05085D4F80011FF2901F03A854B1CC4F80031282320466354112184F8F1
:205D6000043101F05BFFD4F80011FF2901F01A854B1CC4F800312923635484F8043133785B
:205D80003E2B01F00985082D01F0FA8411212046326916E7924F74254FF00008D0F80011AD
:205DA00007F11D090BE00B460131B945C4F80011E55484F804513FF401AF17F8015FFF2908
:205DC000F1D1D4F808312046D4F80C2184F8FF809847D4F8283101210133C4F82831002310
:205DE000E3E70023D6F80C90D0F81471C0F81431B9F1000F3FF4BDAE0DF10808D0F810C104
:205E0000424618469A46C2E90039C2E902AC99F8001013464D29A1F11C0BA1F14F0E00F176
:205E2000010501F0EF8101F25A80BBF1040F41F2E9810229C4F8142116D1D9F8109099F8CD
:205E40000010472901F018864FF0000A08EB00104D29A1F14F03A1F11C0201F0988301F2DE
:205E60009383042A41F29383042904BFCDE900C9C4F810D111212046326901F0CFFE99F807
:205E80000030042B02D1009BC4F810314FF0200908EB051555F8086C002E01F09F81103D76
:205EA0004545F7D1C4F8147166E633691A783B2A7FF45FAE1B691B783C2B7FF45AAE32467F
:205EC000112102F0EDFF00287FF456AED6E90383D3E90363D3E90375D8F80C20414910687A
:205EE00004F03CFB002841F0098632461121204602F068FF42461121204602F081FD112164
:205F000020463A4602F05EFF20463749FDF7BCFB2A461121204613B0BDE8F04F02F052BF09
:205F20001121F26801F07AFE30E7304F63254FF00008D0F8001107F117090BE00B460131A8
:205F4000B945C4F80011E55484F8045100F0CF8717F8015FFF29F1D1D4F808312046D4F896
:205F60000C2184F8FF809847D4F8283101210133C4F828310023E3E71D4F56254FF000086F
:205F8000D0F8001107F107090BE00B460131B945C4F80011E55484F804513FF40FAE17F8DE
:205FA000015FFF29F1D1D4F808312046D4F80C2184F8FF809847D4F8283101210133C4F822
:205FC00028310023E3E70B4F76254FF00008D0F8001107F10A091BE02877010888750108B2
:205FE000A8750108487701084C770108E0750108D4750108C87501080B460131B945C4F8B4
:206000000011E55484F804513FF4D8AD17F8015FFF29F1D1D4F808312046D4F80C2184F874
:20602000FF809847D4F8283101210133C4F828310023E3E7D0F80031FF2B01F06383591C16
:206040007E22C4F800112046E254112184F804219EE6F268CAB10023D0F8141104930291D1
:2060600002A9C0F81411D0F8101103960591112101F0D4FD029A049BC4F81421002B7FF4C2
:206080007BAD20212046FDF779FA324611212046D4F8143113B0BDE8F04F02F00FB9C94F30
:2060A00067254FF00008D0F8001107F112090BE00B4601314F45C4F80011E55484F8045148
:2060C0003FF47CAD17F8015FFF29F1D1D4F808312046D4F80C2184F8FF809847D4F82831A8
:2060E00001210133C4F828310023E3E7B64F6A254FF00008D0F8001107F10E090BE00B4649
:206100000131B945C4F80011E55484F804513FF455AD17F8015FFF29F1D1D4F8083120467F
:20612000D4F80C2184F8FF809847D4F8283101210133C4F828310023E3E7A44F63254FF055
:206140000008D0F8001107F119090BE00B4601314F45C4F80011E55484F804513FF42EAD5D
:2061600017F8015FFF29F1D1D4F808312046D4F80C2184F8FF809847D4F82831012101330D
:20618000C4F828310023E3E7914F1121F26801F045FD5B254FF00008D4F8001107F10409B5
:2061A0000BE00B460131B945C4F80011E55484F8045100F0818617F8015FFF29F1D1D4F880
:2061C00008312046D4F80C2184F8FF809847D4F8283101210133C4F828310023E3E7F16877
:2061E000FDF70AFA4FF0000810B901F010BC9046037808F101022F2B41F01280C368002B1A
:2062000001F00E8000690028F1D1C246D6F80C90904603E001354545BFF6AEAC4A461121F0
:206220002046C4F8245101F0F9FCAA45F2DD694E2C27D4F8001106F1010B0AE00B460131CC
:20624000B345C4F80011E75484F80471E2D016F8017FFF29F2D14FF00002D4F8083184F860
:20626000FF202046D4F80C219847D4F8283101210133C4F828310023E2E7574F6E254FF0CD
:206280000008D0F8001107F119090BE00B460131B945C4F80011E55484F804513FF48EAC53
:2062A00017F8015FFF29F1D1D4F808312046D4F80C2184F8FF809847D4F8283101210133CC
:2062C000C4F828310023E3E7444F74254FF00008D0F8001107F115090BE00B460131B945EE
:2062E000C4F80011E55484F804513FF467AC17F8015FFF29F1D1D4F808312046D4F80C21C4
:2063000084F8FF809847D4F8283101210133C4F828310023E3E7324F7B254FF00008D0F8F6
:20632000001107F10D090BE00B4601314F45C4F80011E55484F8045100F0318617F8015F4F
:20634000FF29F1D1D4F808312046D4F80C2184F8FF809847D4F8283101210133C4F8283185
:206360000023E3E71F4F76254FF00008D0F8001107F110090BE00B460131B945C4F80011BD
:20638000E55484F804513FF419AC17F8015FFF29F1D1D4F808312046D4F80C2184F8FF8043
:2063A0009847D4F8283101210133C4F828310023E3E70D4F6E254FF00008D0F8001107F17A
:2063C00014091FE08076010870760108547601088075010828770108F4760108F876010850
:2063E000F4770108407601083C7601080B4601314F45C4F80011E55484F804513FF4DEAB05
:2064000017F8015FFF29F1D1D4F808312046D4F80C2184F8FF809847D4F82831012101336A
:20642000C4F828310023E3E79A4F74254FF00008D0F8001107F10F090BE00B460131B9453C
:20644000C4F80011E55484F804513FF4B7AB17F8015FFF29F1D1D4F808312046D4F80C2113
:2064600084F8FF809847D4F8283101210133C4F828310023E3E7884F74254FF00008D0F846
:20648000001107F111090BE00B460131B945C4F80011E55484F804513FF490AB17F8015FB9
:2064A000FF29F1D1D4F808312046D4F80C2184F8FF809847D4F8283101210133C4F8283124
:2064C0000023E3E7754F74254FF00008D0F8001107F10C090BE00B460131B945C4F800110C
:2064E000E55484F804513FF469AB17F8015FFF29F1D1D4F808312046D4F80C2184F8FF8093
:206500009847D4F8283101210133C4F828310023E3E7D0F80011357BFF2901F087804B1C0F
:20652000C4F80031655484F80451FFF725BB5C4F1121F26801F072FB20254FF00008D4F821
:20654000001107F107090BE00B460131B945C4F80011E55484F8045100F0AE8417F8015F4E
:20656000FF29F1D1D4F808312046D4F80C2184F8FF809847D4F8283101210133C4F8283163
:206580000023E3E70023D0F814C10493D0F810310DF10808E146CDF808C0C0F81481039606
:2065A0000593BCF1000F01F0E68201276546BE46B446464618E0AB68A3B9032F3FF6D9AA80
:2065C00012AB03EB071BABF1400A95E80F008AE80F004BF8406C08EB0716C4F81461013793
:2065E000C5F808E02D6825B16B681B78193B022BE1D911212046DCF81020664601F00EFBA8
:20660000049BC4F81491002B7FF4B6AA012F0CD008EB071858F80C2C11212046013F01F00D
:206620002BFB012FA8F11008F4D1324611212046D4F8143102F058F8FFF79EBAD6E90353C8
:20664000002B3FF499AA2B444FF00008D0F80011013D5F1E09E00B460131AF42C4F8001125
:20666000E65484F804613FF487AAFF2915F8016FF1D1D4F80831D4F80C21204684F8FF80D5
:2066800098470121D4F8282100230A44C4F82821E3E700BF28760108147601080476010828
:2066A0000478010833691B78392B7FF462AAF268D3681B685978632901F0038132461121AF
:2066C000204602F0EDFB00287FF456AAF3681A78322A01F0B281DB681B681A78632A41F05C
:2066E000ED805A786C2A41F0E9809B78002B41F0E5803369DA681178032901F023821121FC
:206700002046DA6802F05EFBF268D3681B681978692941F00E815878782841F00A8198784F
:20672000002841F0068120465B21FCF727FF3369204611211A6901F071FA5D212046FCF794
:206740001DFFF3681A78322A7FF416AADB689A68012A7FF411AA5B681B783E2B7FF40CAA1B
:206760002921204613B0BDE8F04FFCF707BFF768002F40F0B285CD4D7426D0F8001105F191
:2067800003080BE00B460131A845C4F80011E65484F804613FF4F0A915F8016FFF29F1D178
:2067A000D4F808312046D4F80C2184F8FF709847D4F8283101210133C4F828310023E3E72E
:2067C000BB4F68254FF00008D0F8001107F110090BE00B460131B945C4F80011E55484F803
:2067E00004513FF4EBA917F8015FFF29F1D1D4F808312046D4F80C2184F8FF809847D4F81A
:20680000283101210133C4F828310023E3E7A94F72254FF00008D0F8001107F114090BE018
:206820000B460131B945C4F80011E55484F8045100F0898317F8015FFF29F1D1D4F80831A6
:206840002046D4F80C2184F8FF809847D4F8283101210133C4F828310023E3E7964F542524
:206860004FF00008D0F8001107F118090BE00B460131B945C4F80011E55484F804513FF469
:206880009DA917F8015FFF29F1D1D4F808312046D4F80C2184F8FF809847D4F828310121D4
:2068A0000133C4F828310023E3E7844F54254FF00008D0F8001107F115090BE00B460131B2
:2068C0004F45C4F80011E55484F804513FF476A917F8015FFF29F1D1D4F808312046D4F86B
:2068E0000C2184F8FF809847D4F8283101210133C4F828310023E3E70023D0F84871D0F8A8
:206900001481F2681121C0F81431C0F8486101F085F994F804313C2B00F02C87D4F80011E1
