:020000040800F2
:2000000000C00020E12B0008ED170008EF170008F1170008F3170008F5170008000000009C
:200020000000000000000000000000000D190008F7170008000000009F190008AF190008EC
:20004000252C0008252C0008252C0008252C0008252C0008252C0008252C0008252C0008D8
:20006000252C0008252C0008252C0008252C0008252C0008252C0008252C0008252C0008B8
:20008000252C0008252C0008252C0008252C0008252C0008252C0008252C0008252C000898
:2000A000252C0008252C0008252C0008252C0008252C0008252C0008252C0008252C000878
:2000C000252C0008252C0008252C0008252C0008252C0008252C0008252C0008252C000858
:2000E000252C0008252C0008252C0008252C0008252C0008252C0008252C0008252C000838
:20010000252C0008252C0008252C0008252C0008252C0008252C0008252C0008252C000817
:20012000252C000800000000000000000000000000000000000000005FF808F110B5054C00
:20014000237833B9044B13B10448AFF300800123237010BD58010020000000004C570008EF
:2001600008B5034B1BB103490348AFF3008008BD000000005C0100204C570008836810B552
:20018000044613B1032201469847204610BD0148704700BF205A0008014B5869704700BF0F
:2001A0003C000020EFF310832BB9EFF31180003818BF0120704701207047014B187A7047C3
:2001C0003C00002008B5EFF3058313B16FF0050008BDFFF7E7FF0028F8D1DFF808C000DF64
:2001E000F6E700BF2F0B0008034610B588B1084310F007000DD117290AD91022196008399B
:20020000CC189C605A60C85099684A60D860012010BD0020FCE70346F0B588B159B30F31E5
:2002200021F0070100F108073C463F686568381B25F00305401B814203D938680028F3D1B9
:20024000F0BD5E681D680E445E602B4453F8040C083B864288BF5E60636811431BB9616008
:2002600004F10800ECE723F00303E018E750416020600830E4E70846E2E710B5D0E85F3F10
:200280005A1C914200D80022C0E8542F04B1F5E798B210BD10B591F9202083681BB193F976
:2002A0002040944205DAC1E90230816003B1D96010BD18469B68F1E70346806882689A6064
:2002C00002B1D3600023C3607047C2682AB18368936003B1DA600023C36070470123014602
:2002E00043700148D6E700BF5800002010B5D0E90431C469621C0CD103B1596142691AB1EF
:2003000013610023436101E0074A13630023C36110BD1BB1DA6959612244DA614269002AA7
:20032000EED1014AD362F1E73C000020012310B5094A437090F92010536A1C321BB193F93F
:2003400020408C4205DCC0E90232906003B1D86010BD1A469B68F1E73C0000200223C27812
:200360004370520758BF032383F31488BFF36F8F014B9861704700BF3C00002010B5134B38
:2003800004461A7A596998B9022A1DD15C6ADCB194F9202091F920309A4215DD2046FFF72E
:2003A00094FF0846FFF7C2FF2046BDE81040D5E7022A05D190F9202091F920309A42F0DC41
:2003C0002046BDE8104089E710BD00BF3C00002010B51446836B1962FFF788FF14B1BDE8FB
:2003E0001040CBE7BDE8104078E72DE9F0410446002601270CB9BDE8F081E378D4F8148032
:200400001B0712D5A36826767BB12046FFF754FF002205461146FFF7DBFFEB6AC4E9035662
:20042000636103B11C61EC6227764446E2E738B51D4C0246237A022B33D1606A98B163693E
:200440005A704A1C15D10021226B6AB94FF0FF30C3E90421D86151B10B611448FFF72CFF52
:20046000FFF77CFF012038BD11461269EDE72363F3E70020E26A12B1D569A9420BD2C3E90E
:200480000420D96158B10361002AE6D0D0695361411AD161E1E71046491B1269EBE7E36223
:2004A000F2E70020DFE700BF3C0000205800002008B58847DFF804C000DFFEE7F5160008EC
:2004C000437830B4332B30D190F82320436A02F00104920723D400F128028CB152E8001F6E
:2004E00001EA03049C4203D0BFF32F8F002105E021EA030442E8004505B1EFE7A9B118E084
:2005000052E8001F194203D1BFF32F8F002105E021EA030442E8004505B1F1E7EEE7816A0E
:2005200003EA01021CB19342E8D030BC7047002AFBD030BC00224BE710B50446806918B1D8
:2005400000221146FFF744FF6378232B02BF0022A3689A6110BD704730B5E0B1C3688B42E5
:2005600019D80369994216D200F114031A680A60BFF35F8F53E8002F0C689442F6D143E821
:20058000001505B1F2E7043050E8003F5A1E40E8002101B1F8E730BD30B588B181B17AB152
:2005A00073B10024C0E9014202FB01F41D190160C360436105611846013902D1A21A995041
:2005C00030BD851805602846F6E750E8003F5A1C40E8002101B1F8E7704710B590B100F16C
:2005E000140353E8004F14B9BFF32F8F04E0226843E8002101B1F4E714B10430FFF7E5FF03
:20060000204610BD0446FBE7036B30B4B3B10024CD78DA78AA4209D31A46C1E901245AB108
:20062000916074B16160283030BCCEE75A681C46002AF2D01346ECE7C162F2E7C1E90133D4
:20064000C1620163EFE730B578B171B10023A1F1080400F10802944208D1626822F00305BE
:200660004268521B42603BB9636030BD15681346002DFAD02A46EEE751F8082C1A60F4E739
:200680002DE9F04F85B0CDE9010120B90024204605B0BDE8F08F002A00F08B80D2E9018477
:2006A00008F00603062BF1D0D368002C7ED0502BECD1D2E904B5BBF1000F04D01BF0070F36
:2006C000E4D1002DE2D09769D2F800A0002F77D07A1E372ADAD818F0060F08BF48F00208D5
:2006E00035B16B07D2D1524AA5F148019142CDD8504E002C6DD1D6F88800002862D0FFF75E
:200700006CFF04460028C1D04FF00109BBF1000F12D1002D75D1D6F8840000285CD0FFF775
:200720005CFF002873D083464FF4406549F0100949F00209002CA9D040F2F1122280FD2211
:200740000021019B628465633B4A403D7FB208F00F085D44A563E363C4E90211C4E904117B
:20076000C4E90611C4E90911C4E90B1B84F8029084F80380C4F804A084F8207084F8217095
:20078000CBF80020A36B3822184603F0D3FD2B4A2B4B82634FF08072C263029A0262019A2C
:2007A000426220463366FFF7E9FD70E7002B80D06CE79246934614461827154690468AE7A9
:2007C000182788E701225021D6F88000FFF723FD97E74FF0000999E72A464FF44061706FFA
:2007E000FFF719FD4FF44065F0B9B9F1000F1DD0D6F8882072B121461046FFF7ADFE00249B
:2008000096E75A462946706FFFF705FDECE74FF44065EAE72146D6F880000392FFF713FF97
:20082000039A1446934683E7834681E74C467FE7B7FFFF7F3C000020A52E5AE2B1040008F9
:20084000C104000810B5C378044613F0010320D1038083789A0708D513F0100F016B124BA2
:200860000ED0D3F88400FFF777FEA378DB071AD50D4B2146D3F8880030B1BDE810406BE6BB
:20088000586FFFF7E0FEF0E7D3F88000BDE81040D9E6042343700023034AC360536B8360D9
:2008A00003B1D860546310BD3C000020006810B103685B6818477047F8B581780446856822
:2008C000002935D04368C66873B39D60A2686AB35360002706F10C05214628462770FFF783
:2008E0003BFEB368002B46D02846FFF776FE0446002840D03046FFF7DFFC05463A46394678
:20090000FFF766FDAD6B726A696A04F10C0003F0E9FCF923214630462370A770AB6A2035D1
:20092000E370BDE8F8406FE6F562CFE73363D0E7AB68EBB15B78832B1AD12846FFF7BCFCA1
:2009400006460A46FFF744FDB66B6A6A04F10C01706A03F0C7FCB36A20360BB1E2781A702A
:2009600000232370214605F10C00BDE8F840F3E521462846D5E7F8BD2DE9F0410C469046EE
:200980001F460546002841D00378FA2B3ED100293CD08368B3B15B78832B13D1FFF78CFC58
:2009A000064601220021FFF713FDB66B21466A6A706A03F097FCB06A10B180F800800020F2
:2009C000BDE8F08105F10C00FFF707FE064678B121466A6A0C3003F085FC0024F9233146ED
:2009E00028463370B47086F80380FFF70DFEE6E77FB139469320FFF71AFD20B1064B2846F4
:200A00005969FFF747FC6FF00100D9E76FF00300D6E76FF00200D3E73C000020F8B59C4696
:200A20000D461746044600286BD00378FA2B68D1002966D000F1280353E8002F12B9BFF31E
:200A40002F8F04E0501E43E8000606B1F4E712B10122E66A7EB9BCF1000F55D0614683202B
:200A6000FFF7E5FC20B12D4B20465969FFF712FC6FF0010023E0B01CD0E84F3FC0E8412F9D
:200A800001B1F9E7DBB2002B41D0B668E2E79A60B268AAB153602846626A06F10C0103F0C1
:200AA00021FC0FB1F3783B70002504F10C07314638463570FFF750FDA3681BB90020F8BD85
:200AC0002363E8E73846FFF788FD06460028F5D02046FFF7F1FB074629460122FFF778FCFE
:200AE000BF6B626A796A06F10C0003F0FBFBF923B5703370BB6A31462046F370FFF784FD71
:200B0000DCE76FF00300DAE76FF00200D7E7D6E90132002BBBD1E262BAE700BF3C00002027
:200B200010B50446082102F061FB204610BD38B51F4C217A01292FD0B1BB9C2204F10800B9
:200B400003F0F8FB1B4B1C4DE3651023A4F8543005234FF4004128462364FFF745FB08B1B5
:200B6000C4F8805000210846FFF73EFBB0B9D4F88030002108466367FFF736FB80B9D4F801
:200B8000803000210846A367FFF72EFB50B9D4F88030E36701232372002038BD0023E8E77E
:200BA0000023EEE70023F4E74FF0FF30F5E700BF3C00002088010020D001002010B5044631
:200BC000024B036003F087F9204610BD6C57000810B50446FFF7F2FF2046042102F006FB80
:200BE000204610BD036810B53BB1BFF35B8F1B7ABFF35B8F0BB902F089FE04689CB1226859
:200C0000EFF3058333B9FFF7CDFA18B91046DFF818C000DF201DFFF749FE2046BDE8104037
:200C20000C2102F0E3BA10BD4D170008406810B503689B689847DFF828C000DFFEE7012958
:200C400009D102F086FB02F0E1FE044602F0AAFB204601F039FC02F07CFB02F057FE00BF9A
:200C6000F516000838B5044C251DE36803B9FEE7284623699847F8E77401002038B52A4C46
:200C8000237A012B03D04FF0FF35284638BD0021264A2748FFF7F4FCA06200F055F8054672
:200CA0000028F0D1234AE16C2348FFF7E9FCA0640028E8D0FF23214A214982F8223092F81A
:200CC0002230D26863F0FF03DB4314BFB3FA83F32023C2F30222C3F12003934298BF531C91
:200CE000FE2202FA03F3154ADBB2D377FF2382F823304FF0E02306221A6147F6FF425A619F
:200D000000229A6181F840204FF0FF3222611A690C4842F001021A61FFF7CEFAFFF71EFB96
:200D200002232372B1E700BF3C0000208C570008650C0008B0570008950D000800ED00E05C
:200D4000880100205800002038B5FA230C4C00252370082304F10C00C4E9093514220421E6
:200D6000084BC4E90155C4E90B556580FFF714FC054B064A28461A67054ADC641A6538BD93
:200D8000D0810020048200203C000020B90800089D130008044607B50A4DEFF30583002B6D
:200DA000FBD1FFF7FFF902460028F6D1204669464FF0FF33AC4600DF0028EED1DDE900300E
:200DC0009847EAE71D0A000810B5AFF3008015E0012901D001F078FB02F0BBFA03689B68E4
:200DE00098470146064803F0EFFDBDE8104002F0D9BA044602F0D6FA2046EBE710BD00BF56
:200E0000295A00080B4600F10802026070B553F8084BA3420FD11C4601F1180554F8046BE5
:200E2000AC4242F8046BF9D10B6000234A680B7242604B6070BD8A6804608260F4E708B54A
:200E40000B68002B02DA0C4802F0ECFE93420AD9B3EB420F4FEA420005D20028B6BF6FF0F3
:200E6000004308600B600868013001D502F0D4FEBDE8084002F010BE315A00080068013147
:200E800002F0B4B9024652F8081B914202D08168FFF7F4BF7047406801F100410139091A18
:200EA000914208B502D2184602F0BCFE08BD012A30B403D10B78037030BC7047002AFBD08E
:200EC00030BC03F00FBA521AFFF7F1BF73B5044616460D4619B912B10D4802F0A0FE731B2F
:200EE0000F2B019307D90022204601A9FFF7A7FF019B2060A360324629462068FFF7E3FF10
:200F00000021019B22686360D15402B070BD00BF495A000810B5044600F10802026006C91E
:200F20004FF000030A44FFF7D1FF204610BD38B500F108030446036008460D4601F048FEBA
:200F40004FF000032A1829462046FFF7BFFF204638BD052A10B504460CDC931D0EDB053233
:200F60000A2A1AD8DFE802F0171513110F0C2022242628006FF000439A4210D00F4900E0DD
:200F80000F4920460CE00F49FBE70F49F9E70F49F7E70F49F5E70F49F3E70F49F1E70F4911
:200FA000FFF7C5FF204610BD0D49EAE70D49E8E70D49E6E70D49E4E70D49E2E7255D00080B
:200FC000735A0008945A0008DB5A00080D5B0008245B0008345B00088F5B0008E95B00083D
:200FE000175C00083B5C00086D5C0008A35C0008F25C00082DE9F3470A9E1F46436801EBB5
:201000000208B21A1A44A3EB08090346019253F8082B0D469A420CBF0F22826801A904469A
:20102000FFF70DFF82461DB12A462168FFF73FFF37B12EB1324639460AEB0500FFF737FF07
:20104000B9F1000F07D0216835444A4641440AEB0500FFF72CFF2046FFF714FF019BC4F807
:2010600000A0A36002B0BDE8F08773B50446234653F8086B40689E420CBF0F23A368851839
:201080009D420AD812B13044FFF711FF00222046236865605A5502B070BD0B4600920146C2
:2010A00000222046FFF7A6FFF0E770B5044608460D4601F08DFD0646024600212046054B40
:2010C000FFF7E9FE324629462046BDE87040FFF7CCBF00BF335D000806C9FFF7C6BF08B5B2
:2010E000034608465B681146984203D90246024802F09BFD08BD00BF485D0008FFF7E6BEA2
:2011000003688B4206D840681844814294BF00200120704701207047012A30B403D10B7869
:20112000037030BC7047002AFBD030BC03F0E8B82DE9F74F144680460C9D89462A461F465C
:201140002146384BFFF7A7FE424652F8086BD8F8043096420CBF0F22D8F80820A5EB040B56
:2011600003EB0B0A524550D34E443946A1444046A3EB0909FFF7C4FF80B1B9F1000F06D01D
:20118000AC4204D04A4631197019FFF7C5FF0DB32A4639463046FFF78AFE1BE02DB1AC4206
:2011A0003BD32A463046FFF7B7FFB9F1000F11D0AC420FD04A4631197019FFF7ADFFAC4235
:2011C00008D234447B199C420FD32A4639463046FFF7A2FF00224046D8F80030C8F804A061
:2011E00003F80A2003B0BDE8F08FBC4203D82A4607EB0B01CEE7E41B224639463046FFF7A5
:201200008BFF2A1B71193019C5E73B462246494640460095FFF7EEFEDCE7B9F1000FD0D0EF
:20122000C8E700BF7F5D00082DE9F04104460F461546084A1E46FFF752FF62680146D21B20
:20124000AA42334628BF2A462046BDE8F041FFF76FBF00BF985D000807B553680093136831
:201260000022FFF7E1FF03B05DF804FB73B50546104614460E4601F0ABFC23460090002245
:2012800031462846FFF7D0FF02B070BDFFF71BBE0B46012B10B41146044602D1227010BCE3
:2012A0007047002BFBD01A4610BC03F043B837B50F2904461546019106D9002201A9FFF76B
:2012C000BEFD019B2060A360019919B12A462068FFF7DEFF0021019B22686360D15403B023
:2012E00030BD2DE9F34116461D4604462A461B4B0F463146FFF7CFFD234653F8080B6268B9
:2013000098420CBF0F23A368A5EB0608904443451BD3F319D21A06D0AE4204D0384481195B
:201320002844FFF7F9FE35B1206829469DF820203844FFF7ADFF002220462368C4F8048031
:2013400003F8082002B0BDE8F08100233246394620460095FFF74EFEE5E700BFB15D0008AA
:2013600007B500920B4600224168FFF7BAFF03B05DF804FB08B5EFF3058313B1054B586951
:2013800008BDFEF70FFF0028F8D1DFF80CC000DFF6E700BF3C000020990100082DE9F84F1B
:2013A000484D6C6C002C7ED02369DFF81C91013BD5F8148005F1580A23612369002B70D1C5
:2013C000E3680BB1A2689A60D5F84CB06B6404F11807EFF3058343B1BBF1000F12D12146F3
:2013E0000320AB696B6101F09FFDFEF7DBFE02460028F1D1584639461346CC4600DF0028CE
:2014000038D0ECE79BF80030FA2BE8D10BF10C00FFF7E3F806460028E1D03946DBF82420BC
:201420000C3002F05FFFF923337000237380C6E9017BB5F85410254FD7E85F3F994202D889
:20144000BFF32F8F04E05A1CC7E8502F00B1F3E79BB2994202D831460220C4E75046FEF738
:201460000CFFEB6D43F820606B7AF3B94FF08052174B5A60E378DB0720D500216B6C62699B
:2014800013B11869824213D2C4E9021322611BB118699C60821A1A6171B1CC606C6C002C67
:2014A0008BD1C5F81480BDE8F88F0123AB72E1E71946121ADB68E3E76C64EFE70123637015
:2014C000ECE700BF3C000020790900089200002000ED00E0FEF776BE4FF0E02370B5594DDF
:2014E0001B69EB68EC6A0133EB6024B3E369013BE36103BB6378732B00F08E8008D8532B0A
:2015000078D0632B00F08180432B07D1234641E0832B00F08880932B00F08C802046FEF779
:20152000D4FEFEF7DBFE246924B1E369002BE1D000236361EC620020FEF720FF2B6D03B1CC
:2015400098472A6C002A7BD0AB69E96B994203D0D969EB6301B9DA61DA69002A6CD12B7AB7
:20156000022B6DD16C6A002C6AD0EB6B94F9202093F920309A4263D12046FEF7A6FEE86B63
:20158000FEF7ACFE2046FEF7E9FE2B6CEC63E36156E0DB681A78F12AFBD0BFE7DB681A78D4
:2015A000F12AFBD0DA789007B8D5D86890F92120C36AD978890709D599688C4208BFA1683A
:2015C00021B191F920108A42B8BF0A465B69002BEFD190F920309342A0D0064680F820201B
:2015E0003378F12B08D0FEF770FE01463046FEF751FE93E72346D2E7F668002EF0D18DE78B
:20160000DB681A78F12AFBD088E72346F9E7DB681A78F12AFBD081E72346F9E7DB681A7816
:20162000F12AFBD07AE72346F9E7DB681A78F12AFBD073E72346F9E7013ADA61002A8ED0BE
:2016400070BD00BF3C00002070B5224C04F1560504F15A06B4F85410D5E85F3F13B9BFF321
:201660002F8F04E05A1EC5E8502F00B1F4E79BB25BB33046FEF701FEE36D53F8200020B345
:201680000378F13B082BE5D801A252F823F000BFB516000855160008BB1600085516000862
:2016A00055160008BF160008C316000855160008C7160008236E9847CCE7636EFBE7A36EBA
:2016C000F9E7E36EF7E7236FF5E70020BDE87040FEF754BE3C000020036B826B934205D2AE
:2016E0001868034BC31A58425841704700207047A52E5AE238B5144C237A022B22D1636A98
:2017000003B36569E86AFEF770FE2846FEF714FF04F11C00FEF7D0FDFEF720FEEFF30983C6
:201720002846AB63FFF7D8FF28B9A36929460120636101F0F9FB002328466361BDE83840C8
:20174000FFF780B838BD00BF3C00002010B50446002845D00378F12B42D1437803F00F0395
:20176000022B06D0032B2BD0012B26D06FF0020031E01D4B1A7A022AF8D15B6A002BF5D003
:20178000E06AFEF732FE2046FEF7D6FE6378022B22D1154901F11C00FEF78EFDFEF7DEFDF4
:2017A000EFF309832046A363FFF796FF68B98B6901204B61214601F0B7FBFEF786FDDFE79A
:2017C000FEF783FDFEF792FDDAE700234B612046FFF738F8002010BD0020FEF7CFFDF6E749
:2017E0006FF00300F7E700BF3C0000207047FEE7FEE7FEE7FEE770473F4B82B01A6842F418
:2018000080721A6099683D4A0A409A601A6822F0885222F001121A601A6822F480221A60CF
:201820009A6822F47D029A600022DA60009201921A6842F001021A601A6802F0020201925A
:20184000009A01320092019A1AB9009AB2F5A04FF2D11B6813F0020318BF01230193019B12
:20186000012B43D14FF40061254B1A68A3F5806342F00402C3F80024D3F8002442F00202DB
:20188000C3F80024D3F8002442F00102C3F800245A6A42F080525A621A4A11605168C90685
:2018A000FCD49A689A609A6842F460529A609A689A609A6822F47D029A609A6842F40802A9
:2018C0009A601A6842F080721A600B4B1A689201FCD59A6822F003029A609A6842F0030266
:2018E0009A609A6802F00C020C2AFAD14FF00062054B9A6002B07047003802400CC0FF88CA
:20190000003C02400070004000ED00E01EF0040F0CBFEFF30880EFF30980816911F8021CFA
:2019200000292ED101B590E80F10E047BDE80050CCF80000224B93E80600914208BF704713
:201940001A60A9B1ACF1200CC1F838C006B40846FFF7C2FE06BC38B9012001F0E5FA184B74
:201960005A681A60002103E0D1F838C08CE8F00F1400A06B6FF0020EB0E8F00F80F30988CA
:201980007047104A13689942FAD801B552F821C00FC8E047BDE80050CCF80000704701B509
:2019A000FFF752FEBDE80140EFF3098CC2E701B5FFF792FDBDE80140EFF3098CBAE70000A2
:2019C00050000020B458000803685A004CBF43F0004323F000431844704700BF2DE9F843C4
:2019E00039B34F1E044615463E464FF0000808EB060101EBD171491004EBC1094846FFF760
:201A0000E3FF0346C80008308F4220440BD0AB420BD8FFF7D9FF0138A84201F10108E6D316
:201A20004846BDE8F883AB42FAD9884501D04E1EDDE74FF000094846BDE8F883012807D074
:201A4000022807D0044B00280CBF18460020704702487047024870472D210008312100085C
:201A60003521000830B5244B044683B08D1E3BB3284601A9AFF30080E8B101992A46FFF7CB
:201A8000ADFF0146B8B1FFF79FFF4B68A064012B2ED0002B27DB081DFFF796FF0023C4E9C8
:201AA00013030368002B12DBFFF78EFF03460020236103B030BD00230920236103B030BD0D
:201AC0000E4B0F491846C91AC9100191D6E7C3F30360FFF7B3FF0028034614BF002009209E
:201AE000236103B030BD0123081DC4E91303D8E7002305202361DCE700000000E86900080F
:201B0000E06B0008036810B5DA07044606D49B0700F1480009D500F05DFC2368590709D572
:201B20001A070ED5DB0613D510BD00F04BFC23685907F5D404F1D00000F054FC23681A076F
:201B4000F0D404F5A87000F055FC2368DB06EBD404F5E870BDE8104000F090BC09207047E2
:201B60000346006800B11844704700BF704700BF70B504460E462046316CFFF773FF054642
:201B800098B9D6F840C03246214601202369C4F814C098470828EED0072806D12846316C2C
:201BA000FFF7E4FF301D00F001FC02F067FB00BF2DE9F0474FF0000AADF5727D0DF10C0EC0
:201BC00001F1040CC768D0F8188006461446BCE80F00AEE80F00BCE80F00AEE80F00BCE87A
:201BE0000F00AEE80F009CE80F0002AD8EE80F00C5F800A021E02B6C4FF4F072294673618D
:201C00007AA802F06FFB3146504633697AAA9847889C82466C643346324649460120CDE987
:201C20000058B8470446F0B94FF4F07228467AA902F058FBBAF1080F1BD13046296CFFF730
:201C400011FF04F109095FFA89FA04460028D2D0A96B3346696432460120CDE900584AF042
:201C60001001B84700B1092420460DF5727DBDE8F087BAF1070FF6D12046296CFFF776FF15
:201C800003A800F093FB00BF406C7047F0B54FF0FF37CB6BF9B00B6401AC01F1040C0E468E
:201CA0000546BCE80F000FC4BCE80F000FC4BCE80F000FC49CE80F0084E80F00009706E0BC
:201CC0006A4629462B6998470828044608D128461099FFF7C7FE0028F2D0092079B0F0BD64
:201CE0006846FFF70FFF062CF7D131462846FFF73FFF00BF10B414468461DC6BC1600022D3
:201D00001C64194610BC53E770B54369C6680B64AEB90A46036904460D4601460220984768
:201D2000072805D008280FD129462046FFF720FF3046296CFFF71AFF281D00F037FB012201
:201D4000FFF736FF02F09AFA02F098FAC2682AB1D1F83CC00022C1F840C029E796E700BF5D
:201D6000704700BF836801460BB1012018477047012912D009D873B90F2A0CD800EB820025
:201D800042681846009B1A6070470339012994BF012002207047022070470846704700BF1F
:201DA000002300B585B00A4603A900911946FFF7DFFF039805B05DF804FB00BF012912D0E7
:201DC00009D873B90F2A0CD8009900EB820209681846516070470339012994BF012002209E
:201DE0007047022070470846704700BF002310B584B003AC039200940A461946FFF7DEFF19
:201E000004B010BD70B54FF0FF36D36BADF50E7D13640DF15C0E02F1040C05460C46BCE81A
:201E20000F00AEE80F00BCE80F00AEE80F00BCE80F00AEE80F009CE80F008EE80F0016967A
:201E400012E00C2116A86A46FFF7D0FF214616A8A84778B969460820049B16AA98470528A9
:201E6000064608D0092805D068462699FFF7FAFD0028E6D0092616A8FFF744FE30460DF563
:201E80000E7D70BD2DE9F04F1E46CC6C89B054F8043B0D46174600F003080694002E79D019
:201EA00002228DF81C201A0C8DF81D201B04D2B2059304EB82042B6DB8F1020F08BFAC6B75
:201EC00013F001030CD0384605A900F071FB18B9082009B0BDE8F08F092009B0BDE8F08FBB
:201EE000D4F800A0BAF1000FEDD0019300F008030293022E4AD0B4F800A0B4F802900434CF
:201F0000AA6C0F21384629F0010B9344FFF748FF834539D82AF001025A44824294BF0020F9
:201F200001204FEA490303F002030AF0010A43EA0A03012B49D0022B32D0002BCCD1B8F1DF
:201F4000000F02D0002840F0CE800434D4F800A0BAF1000FCDD1384605A900F029FB002896
:201F6000BAD1019B002BB3D00F213846FFF718FF0E2102463846FFF739FF38460F216A4A4C
:201F8000FFF734FF0720A8E70020CAE7D4F804900834B5E71B0205930323ADF81C308AE71C
:201FA000236823F0004BB8F1000F45D128B1029A002A5CD0BBF1000F74D0002B00DA043463
:201FC0000BF1010B04EB8B04C0E7B8F1000F19D1B0B163682268991C4FEAD2723FF47CAFEC
:201FE00005F158010133049100F09180201DFFF7B7FD04AB0146284601F0A6FF00285CD192
:202000000834A3E70D213846D5F82090FFF7C8FE8145F5D1AB6A9C42F2D12046FFF7D4FCA7
:202020000F2102463846FFF7E1FE38462A460021FFF7DCFE072050E70D213846D5F820906F
:20204000FFF7AEFE814501D02368B6E7AB6A9C42FAD104230022C5E90B23E318C5F828B0AC
:202060006B632368002B5ADB01230193A8E705F15803CDF80C809146B04604F1040A1E468A
:202080000EE050460496FFF76BFD0022014604AB284609F101090AF1040A01F055FFE8B94B
:2020A000D945EED10D213846FFF77AFE0346049A0620C5E909242B620FE781460D2138464B
:2020C000FFF76EFEB9F1020F286225D12B46049A43F82C2F6B620620AC62FEE646462368C2
:2020E000DDF80C8069E72046FFF76EFC02460434AC632846144601F085FF00283FF4ECAEA8
:20210000384622460F21FFF771FE0720E5E60D213846FFF745FE2862049B6B62DBE70BF1B9
:20212000010004EB800079E7974000080023A9E60123A7E60223A5E62DE9F04306461546ED
:202140001C46C3B0042900F2B880DFE801F09C56B62D0300002C40F0B080102A00F2AD80DE
:202160000368D80600F1F18020AF384600F090F9012438460023B16B04FA03F22A4203F1B9
:20218000010305D00A4652F804CB1146C0F800C0042B00F10400EFD13846B16300F06EF961
:2021A000002043B0BDE8F083032C40F0868094B204EB1243102B4FEA12457ED803681F0753
:2021C00000F1CB8020AF384600F036F9B26B07EBC50154B10B4601EBC401D01AE4001D5838
:2021E00043F8045B8B42FAD122443846B26300F001F9002043B0BDE8F083012C4FEA1248DF
:2022000095B256D0052C58D108EB0509B9F1200F53D8B8F10F0F73D9A946002D40F084808F
:20222000B36B65B320AF4FF0000907EBC807043F03EBC50553F8041BAB4247F8041FF9D112
:20224000B9F1000F0FD06F464146102938BF102107EBC101843903EBC90553F8040BAB42D5
:2022600041F8040FF9D1012C7FD0B8F10F0FB56342D9B9F1000F02D0684600F0B3F80020DE
:2022800043B0BDE8F083C4B923460124826B371DA8B204FA03F101421CBF52F8041B47F8D5
:2022A00023100133102BF4D115F40050E7D1B26304E008EB0503102B03D9022043B0BDE8E1
:2022C000F083B8F10F0FF8D83368DA0706D5304623F0030340F8483B00F078F820AF3846A6
:2022E00000F074F8B36B002D9DD11D4604353846B56300F067F8C2E720A800F06BF8B8E7E5
:20230000B9F1100F3FD9A9F110093368D90708D5304623F0010343F0020340F8483B00F061
:202320005DF8B9F1000F31D033685A071FD4B8F10F0F24D96F46C8F11005384600F056F89C
:20234000002DB36B80DD20AF6FE723F01003336006F5E87000F09CF806E723F008030360B2
:2023600000F5A87000F068F82CE720AFBEE7304623F0040340F8D03B00F038F8D7E720A800
:2023800000F02CF8D6E74FF00009BEE7B8F10F0F3FF646AF20AF384600F020F8B36B002DEE
:2023A0007FF441AF384600F015F868E700F1340191E838009C46A6464CF8045D90E8FF0F20
:2023C000E54600BD90EC210B704700BF80EC210B704700BF90EC200B704700BF80EC200B35
:2023E000704700BFD0EC200B704700BFC0EC200B704700BFF0EC0201F0EC0211F0EC0221F0
:20240000F0EC0231F0EC0241F0EC0251F0EC0261F0EC0271F0EC0281F0EC0291F0EC02A184
:20242000F0EC02B1F0EC02C1F0EC02D1F0EC02E1F0EC02F1704700BFE0EC0201E0EC02110D
:20244000E0EC0221E0EC0231E0EC0241E0EC0251E0EC0261E0EC0271E0EC0281E0EC029144
:20246000E0EC02A1E0EC02B1E0EC02C1E0EC02D1E0EC02E1E0EC02F1704700BFB0FC01812E
:20248000B0FC0191B0FC01A1B0FC01B1704700BFA0FC0181A0FC0191A0FC01A1A0FC01B104
:2024A000704700BFEC4600B52DE900502DE9FF1F4FF000032DE90C0001A9FFF7E7FBDDF86A
:2024C00040E012B0704700BFEC4600B52DE900502DE9FF1F4FF000032DE90C0001A9FFF71F
:2024E00013FCDDF840E012B0704700BFEC4600B52DE900502DE9FF1F4FF000032DE90C00BB
:2025000001A9FFF723FCDDF840E012B0704700BFEC4600B52DE900502DE9FF1F4FF000030C
:202520002DE90C0001ABFFF7E5FBDDF840E012B0704700BFEC4600B52DE900502DE9FF1F49
:202540004FF000032DE90C0001AAFFF75BFCDDF840E012B0704700BF027A03467AB9427A3E
:20256000A2B14FF0030C4168013A427208680A1D5A60020283F808C0000E1A6070470068E3
:20258000013A1A7202021A60000E7047B0207047002300B585B003A900910C221946FFF7DD
:2025A000E7FB039805B05DF804FB00BFF0E700BF2DE9F0434FF0000805460E4685B0304666
:2025C000FFF7CAFFB028044600F0BA80070620D500F0F003802B4DD0902B36D0A02B60D087
:2025E000B02B73D0C02B00F08A8000F0F803D02B0BD100F00702013205230121284642F4FC
:202600000022FFF799FD0028D9D0092005B0BDE8F0838300DBB21F1D00230DF10C09194664
:202620000D222846CDF80090FFF7A2FB039B60064CBFDF1BFF1800230D2228461946CDF811
:2026400000900397FFF7BAFBB9E700F00D030D2BDBD0002303AF194600F00F0200972846E8
:20266000FFF786FB00230D22284619460097FFF7A5FBA4E73046FFF76FFF24022043B0F504
:20268000004FC2D00023040119462846A2B2FFF753FD0028B9D114F4004F18BF4FF00108A2
:2026A0008DE7C3434FF47F6203F007031A410023010702F47F6248BF42F480422846194656
:2026C000FFF73AFD00283FF47AAF9EE7B1283CD0B22800F0B080B3284AD000F0FC03B42B22
:2026E00093D0012300F007021A442846194642F40022FFF721FD00283FF461AF85E7C628FE
:202700004FD0C72861D000F0F803C02B70D0C8287CD0C9287FF479AF3046FFF71DFF0523EC
:20272000024601212846140302F00F0204F470240A442243FFF700FD00283FF440AF64E7E0
:20274000B8F1000F1CD0002060E73046FFF704FF024600283FF459AF10F0F0037FF455AFEA
:2027600019462846FFF7E8FC00283FF428AF4CE73046FFF7F1FE0123024619462846D2E700
:2027800003AC43460E22414628460094FFF7F0FA43460F22284641460094FFF70FFB40469F
:2027A00034E73046FFF7D8FE02460323140302F00F0204F470240132284619462243FFF74D
:2027C000BBFC00283FF4FBAE1FE73046FFF7C4FE024600283FF419AF10F0F0037FF415AF75
:2027E00004212846FFF7A8FC00283FF4E8AE0CE7032300F00F0201322846194642F4202229
:20280000FFF79AFC00283FF4DAAEFEE63046FFF7A3FE0246012102F0F00402F00F021034C1
:202820000A440523284642EA0432FFF785FC00283FF4C5AEE9E600230DF10C090D2219467A
:202840002846CDF80090FFF793FA3046FFF784FE02064FF002040CD5039B00F07F00A04029
:20286000184403903046FFF777FE030604F10704F2D4039B00F07F02A24003F501731A44FE
:202880000023039228460D221946CDF80090FFF795FA94E60B464FF0030C00B5C26C184650
:2028A000536885B00832029201A91A0E1B028DF80CC001938DF80D20FFF77AFE05B05DF85C
:2028C00004FB00BF08B5FFF771FE806C08BD00BF08B5FFF76BFEC06CC379023300EB830081
:2028E00008BD00BF10B40024224610F801CB0CF07F0393401CF0800F44EA030402F1070213
:20290000F3D10C6010BC704710B40024224610F801CB0CF07F0393401CF0800F44EA0304BF
:2029200002F10702F3D11F2A07D81CF0400F04D04FF0FF3303FA02F214430C6010BC7047D8
:20294000FF2808B5034619D003F07002302A084616D005D8202A09D1BDE8084001F08BBC48
:20296000402A09D1BDE80840FFF7ACBF02D813F0600F03D001F082FC502AFBD1002008BD0C
:20298000BDE8084001F074BCF0B5502815461E4683B01ED000F00F0304460F460C2B38D844
:2029A000DFE803F0072D33071F373737372723071F00284650F8043B43B104F07002102AFB
:2029C00008BF2F4622063B4448BF1B68336003B0F0BDD01C20F0030050F8043B336003B0CB
:2029E000F0BD284650F8083BE6E7284630F9023BE2E7284601A9FFF787FF019BDCE7284666
:202A000001A9FFF76FFF019BD6E7284630F8023BD2E701F033FC00BF70B50C4601462046C0
:202A200015461E46FFF78CFF334601462A462046BDE87040A8E700BF70B506460C461546FF
:202A400082B060B3FFF73EFF034620462B6010F8011BFF2912D16B6010F8013BFF2B2B75BC
:202A600016D1002301A9EB6010F8013B6B75FFF739FF019B03442B6102B070BD02462B1D27
:202A80003046FFF7C9FF10F8013BFF2B2B75E8D001A9FFF727FF019B0344EB60E4E7034634
:202AA000D3E700BF002310B584B003AC039200940A461946FFF782F904B010BD002300B530
:202AC00085B003A900910F221946FFF751F9039805B05DF804FB00BF70B500F00300012810
:202AE0000D4614468CB00AD021462846FFF7D2FE10B908200CB070BD09200CB070BD0A463C
:202B000020460C21FFF7CEFF2046FFF7E1FE01460028E9D006AA2046FFF78EFF02462046B5
:202B20000192FFF7CBFF0A9B019A20F001069A4206F1FF3603D3D7E70A9B8342D4D99DF8A3
:202B40002D1002AB0020FFF767FF9DF82D10024603AB0020FFF760FF04AB02469DF82D1009
:202B60000020FFF759FF05A9FFF7BCFE029A069B1344B3420246B7D803990B44B342DBD995
:202B8000049B002BB0D0079E9E19ADD02A4600212046FFF787FF002201212046FFF782FF7E
:202BA0002046FFF78BFF024602F0010220460F213243FFF777FF07209CE700BF10F8012BDE
:202BC00011F8013B012A28BF9A42F7D0D01A7047034613F8012B002AFBD1181A01387047C2
:202BE000002103E00A4B5B584350043109480A4B42189A42F6D3094A02E0002342F8043B8B
:202C0000074B9A42F9D3FEF7F7FD00F09FF97047F46B00080000002054010020580100201D
:202C20003C870020FEE7000010B50A4C2378BFF35B8FDB070BD4204600F01FFF38B1064A0C
:202C40000649074800F05AFA204600F022FF044810BD00BF7401002000000020BD0B0008BE
:202C60000400002038B5044610460B464A6841680A44194651F8085B8D420CBF0F219968D3
:202C80008A4212D9014651F8085B8D420CBF0F2181688A4209D81A460021FEF7DDFA014696
:202CA0002046FEF7AFF8204638BD01461846FEF713FAF4E7F0B515461F46136893B00A46C2
:202CC00004460E460CA829461B69984700211A4A0CA8FEF7CBFA014606A8FEF793F83A46E8
:202CE000002106A8FEF7C2FA01466846FEF78AF86946204600F084FF6846FEF7C3F806A854
:202D0000FEF7C0F80CA8FEF7BDF80C4BC4E90265236013B0F0BD04466846FEF7B3F806A804
:202D2000FEF7B0F80CA8FEF7ADF82046FFF7CCFB0446F4E70446F5E7AE5D0008D8600008E7
:202D4000F0B507469FB010200C4600F0ABFA0546FFF76AFF6E49064606A8FEF7E8F806A93C
:202D600012A8FEF7D7F82822012112A8FEF7F8FA02E004460E466AE02346012142F20F70C0
:202D800042F21072092B02D9632B07D801310EAB00220CA80C93FEF78AFA0CE0B3F57A7F9B
:202DA00001D20231F3E7834201D80331EFE7B3FBF2F30431E6E74FF0640CDDE90C23DFF87B
:202DC00054E11344632C0FD9B4FBFCF00CFB10410EEB4101044691F8710091F8701003F87A
:202DE000010C03F8021DEDE7092C89BF4949303401EB440494F8713092BF1470537094F8E0
:202E0000703012A988BF137018A80CAAFFF72AFF2922012118A8FEF7A3FA01466846FDF750
:202E2000F1FF18A8FEF72EF80CA8FEF72BF812A8FEF728F8694612A8FEF76CF819E0044627
:202E400018A80E46FEF71EF80CA8FEF71BF812A8FEF718F806A8FEF715F8284600F038FA98
:202E60002046012E50D0FFF72FFB04460E46EBE77FE7294912A8FEF718F902E004460E46F5
:202E800030E033683A4631461B6918A8984718AA12A90CA8FFF7E6FE28460CA900F0B0FEA1
:202EA0000CA8FDF7EFFF18A8FDF7ECFF12A8FDF7E9FF1A4B68462B60C5E90276FDF7E2FFAE
:202EC00006A8FDF7DFFF2846154A164900F084FD0E46C6E704460CA80E46FDF7D3FF18A8FC
:202EE000FDF7D0FF12A8FDF7CDFF6846B0E704460E46F4E7C2E704460E46F6E704460E4615
:202F0000A8E704460E46A8E700F023FAFEE700BFCE5D000864570008AE5D0008D8600008FB
:202F20008D3E0008F45F000808B5FFF709FF00BF00230348034AC3600349043000F0DEB805
:202F400074010020000000207D01000870B58CB0AFF30080EFF305839BB15D4B187A08BB00
:202F6000FDF730F90546E8B1102000F09BF90446FFF75AFE29460246564B2046FFF79AFEB8
:202F80000BE0FDF70FF90028E7D1EFF31483DB07E3D5DFF844C100DFE1E720464F4A50493C
:202FA00000F01AFD082000F077FD00244D4B029003600C20019400F06FFD029B046043600C
:202FC000047205461C22214605A8029401F0B2F90123CDE9034318230993EFF30582A2B1F9
:202FE000102000F05FF90646FFF71EFE4FF0FF3102463D4B3046FFF75DFE2DE00546204637
:2030000000F066F92846FFF75FFAFDF7CBF808B12A60E5E729463548DFF8D4C003AA00DFFB
:2030200028600028DCD002A80395FDF73FFC01A8FDF73CFCEFF3058353B36FF005041020E6
:2030400000F030F90546FFF7EFFD21460246294B2846FFF72FFE2BE03046204A204900F032
:20306000BBFC044603E00446304600F031F9281DFDF71CFC0C21284600F0B8F802A8FDF768
:2030800015FC01A8FDF712FC2046BCE70446F5E7FDF788F80028D0D1DFF85CC000DF0446EC
:2030A0000028CCD103A8FDF79DFD20460CB070BD28460A4A0A4900F08FFC044603E00446BC
:2030C000284600F005F903A8FDF78CFDDCE700BF3C000020DF5D0008BB0100088D3E0008B3
:2030E000F45F0008A8580008F25D00082D0C000881060008FE5D00087D0C00080B460146BA
:20310000184601F0C3B87FB500241023CDE90234036815469E69CDE900446B461268B04785
:203120009DF8043003F00603062B09BF01202046009B2B6004B070BD0098904214BF0120E5
:203140000620704710B50446024B036000F037FD204610BD505E000810B50446FFF7F2FFD0
:203160002046082100F042F8204610BD2DE9F041DDF818801F46DDE90834984506461546C4
:2031800007D1079900F01EFD18B165710020BDE8F0813946304600F015FD0028F6D00123CE
:2031A000C4F800802571A371F0E738B515461C4600F008FD20B10823E36006232560237132
:2031C00038BD2DE9F04105460C4616461F4600F0F9FC48B9032F07D8236832462946204686
:2031E000BDE8F0415B691847BDE8F08100F08CBE194A70B55368A0F1080423B150F8081C66
:203200006518AB4203D940F8043C546070BD05D1D3E90035194440E90215F6E704325E68D2
:203220004EB1B54202D21A1D3346F8E701BF2E686D6889195D6013681D685E19B44217BF68
:203240005B68491940F8043C136816BF40F8081C19605C60DAE700BFF886002000F10803D6
:20326000082B38BF082330B50D4A073352F8040F23F0070368B1D0E900148B420AD9021D54
:203280002046F7E7C1184C60C550106803601160083030BDCD1A072DF4D801601460F7E745
:2032A000F886002010B500F18004204600F0FCFF034630B92046FFF7D1FF034608B900F08D
:2032C00025FB80220021184601F034F8803010BD064A80389368984205D9D26813449842ED
:2032E00001D2FFF785BF00F0E7BF00BFF886002038B54FF41E65074C2846E56000F0D4FF52
:20330000A06010B9E060606038BD0023606005604360F9E7F88600200378472B17D14378F6
:203320004E2B14D18378552B11D1C378432B0ED10379432B0BD143792B2B08D183792B2B47
:2033400005D1C07901288CBF0020012070470020704738B5044600F04FF802460568204692
:20336000A4F12001FFF7D8FF28B90DB100F0CEFA1160284638BD54F80C3C2046002BB4BF07
:20338000C3F10103013344F80C3C53688D4203F1FF3353601CBF44F8105C1160656AFEF7A2
:2033A000DFFCE6E710B500F023F8026801469AB102F120042046FFF7AFFF28B908602046C9
:2033C000BDE81040FEF7CEBC5369002B05DA013301D110690860536110BD013B02D11369C0
:2033E0000B60ECE7591CF6D100F090FA7047000000487047088700200048704708870020C6
:2034000000231A4630B510F8015B05F07F04944023432C0602F10702F5D40B6030BD0023BC
:203420001A4630B510F8014B04F07F0595402B43250602F10702F5D41F2A06D8640642BFB6
:203440004FF0FF3404FA02F213430B6030BD50282DE9F3410646884615461F4608D1D01CF9
:2034600020F0030050F8044B3C6002B0BDE8F08100F00F030C2B2ED8DFE803F025071D25D7
:20348000292D2D2D2D1821252900284601A9FFF7B7FF019C002CE7D006F07003102B08BF19
:2034A000A8463306444448BF2468DDE7284601A9FFF7B5FFEDE7284630F8024BEAE728464E
:2034C00030F9024BE6E7284650F8044BE2E7284650F8084BDEE700F0D1FE08B50346FF2B1E
:2034E000084610D003F07002302A12D007D8202A0BD002D813F0600F05D000F0BFFE402AC1
:203500000BD0502AF9D1002008BDBDE8084000F0B2BEBDE8084000F0ABBEBDE80840FFF731
:20352000D1B970B50C460146204615461E46FFF7D4FF334601462A462046BDE87040FFF774
:2035400086BF73B50C461546064628B3FFF7BAF9034620462B6010F8011BFF291ED00246C5
:203560002B1D3046FFF7DDFF10F8013BFF2B2B7516D0102301A92B75FFF742FF019B034430
:20358000EB6010F8013B01A96B75FFF739FF019B03442B6102B070BD0346DAE76B60E3E7F7
:2035A0000023EDE71FB503AB009300230A461946FEF7DEFB039805B05DF804FB00232DE982
:2035C000F04F91B0059300F00303012B06460C4617460ED0022B03D0002B3BD101073BD589
:2035E00039462046FFF756F990B3092011B0BDE8F08F020706D40D6A38460D21FFF7D2FF83
:2036000085422BD00220002306F008060DF1280A06430C2219463846CDF800A00A94FEF723
:20362000CDFB062E1CD1D4E90A59D4F83080B8F1000F0CBF4FF0010B4FF0030B16F00806D6
:2036400000F00781BBF1010F40F0FF8000F05EF90820CBE700F012FE0120D4E70620D2E7AB
:203660003846FFF735F981460028B9D0524601463846FFF766FF394605469DF83C00FFF7E7
:203680002CFF0F210C903846FFF78CFF20F0010808F1FF380E9BAB4240F2BF802A469DF8DF
:2036A0003D1006AB0020FFF73CFF9DF83D10024607AB0020FFF735FF08AB02469DF83D10B8
:2036C0000020FFF72EFF09A9FFF79AFE0A9B069A05461344434501D90E9DDBE7079A1344B9
:2036E0004345D7D9DDF82080B8F1000F01D00B9B9844099D15B10E98013D0544B8F1000FC1
:203700003FF46EAF002D00F0F28016F00803029334D0472323704E2363705523A3704323EE
:20372000E370462323714F2363715223A3710023E3714FF0000B07A92846FFF770FE08A976
:203740000390FFF76CFE0799002963D03ADD9DF83C00FF2832D000F00703042B3FF67AAFE2
:2037600001A252F823F000BFC1370008553600088F370008C1370008B9370008E379012BA9
:203780000CBF54F8203C04F158030593D1E702250D9A09AB05FB11220C99FFF758FE0999CE
:2037A00031B15CB30022204605AB00F0CDFB28B34FF0030B079D34E00825E9E70025E7E758
:2037C0000425E5E7C1F17F5101F57F110D9B01F57F513F3103EB8105BCB1029AAAB9059B8E
:2037E000043D099355F8041F0029E1D00022204609AB294400F0A8FB0028F3D0089D002DA9
:2038000071D0039B2B441D4695E753F82130002BF4D1CDE74FF0010BF0E700254FF0010BA9
:20382000A846F3077FF50AAFBBF1020F3FF4D8AE0D213846059EFFF7B5FEC4E90A59C4E948
:203840000806C4F830800620D0E6002D22DA00F06FF8BBF1010F02D1204600F00DFC002D77
:2038600018DA524649463846FFF76BFE39469DF83C00FFF732FEEB430D9A0C9002EB8303F8
:2038800053F826200AB10136FAE70422C4E90A60C4E90C23002309AE1A46194638460096FE
:2038A0000994FEF78BFA002301221946384600960995FEF783FA0F213846FFF773FE0023F0
:2038C00000F0010040EA080009900F22194638460096FEF773FABBF1020F02D1204600F040
:2038E00091FB072082E6BBF1000F3FF479AE4FF0020B96E708B5804700F0C0FC024B1868D2
:20390000BFF35B8F704700BFEC00002008B5FFF7F5FFFFF7EFFF08B58047FFF7F7FF00008E
:20392000024B1868BFF35B8F704700BFE000002008B5FFF7F5FFFFF7EEFF012810B503D954
:2039400051F8140CFFF7D6FFBFF35B8FA1F1280353E8002F013A43E800200028F8D1BFF347
:203960005B8F5AB951F81C3C01F158040BB1204698472046BDE81040FFF7AABC10BD0000D6
:2039800038B5002540E91E1240F8805C0446FFF7C7FF44F8700CFFF7B1FF472304F8583C4A
:2039A0004E2304F8573C552304F8563C432304F8553C04F8543C2B2304F8533C04F8523C1F
:2039C000044B44F86C0C04F8515C44F8503CA4F1800038BD3B39000808B504460D46164637
:2039E000FFF70AFD436832460133294643602046FFF7C6FF0123044644F8283B2046FEF7D8
:203A000051FD2046FFF7A5FCFFF780FF08B5FFF7F3FCD0E90042013242604CB394F82020A9
:203A2000472A27D194F821204E2A23D194F82220552A1FD194F82320432A1BD194F82420AF
:203A4000432A17D194F825202B2A13D194F826202B2A0FD194F82720012A0BD862695242C0
:203A6000626120342046FEF741FD2046FFF771FCFFF74CFF00220260F3E702680346D207A2
:203A800005D4427802B1FFDE01205870704700207047012303607047012838BF012010B548
:203AA0000446204600F000FC30B900F009FB08B900F0E4FB8047F4E710BD000010B504467F
:203AC000024B0360FFF73EFB204610BD1C5F000810B50446FFF7F2FF20460C21FFF786FB51
:203AE000204610BD2DE9F041DDF81880064690450F4615461C460BD0B0682A460368CDF819
:203B000018801E6A39462346B446BDE8F0416047194600F057F80028EED00620BDE8F08166
:203B20002DE9F14F0D46DDE90A4BDDE90CA6194681461746984600F045F890B1002D3460B9
:203B4000377109DB2C44A2450CBF06240124B471002001B0BDE8F08F0235F9D10123B37105
:203B6000F6E7544506D15946484600F02BF808B17771EDE7D9F808003A460368CDE90CA617
:203B8000CDE90A4BDC6929464346A44601B0BDE8F04F60472DE9F04107460C4615461E4612
:203BA000FFF703FB48B9B8682A46036821469F693346BC46BDE8F0416047BDE8F0817047E1
:203BC00000207047814208B50ED0406803782A2B0CD049680B782A2B08BF0131FEF7EEFFF8
:203BE000B0FA80F0400908BD0120FCE70020FAE710B5D1E90012044600F087FA204610BD19
:203C000010B50446034B40F8043BFFF7F1FF204610BD00BF0C61000808B500F02FFB08B5EF
:203C200000F02CFB08B500F029FB0FB480B582B000AF07F1100454F8045B2846FEF7C8FFE2
:203C400000F2072323F00703ADEB030D00F5007123462A4668467C6000F054F800F00EFB85
:203C600006460C4680B59CB000AFA41B69220E49381D00F037FB04F1700323F00703ADEB41
:203C8000030D6D466822391D284600F02BFB2246314605F1680000F025FB00232C442846AF
:203CA00084F86830FFF7BBFF555F00082DE9F04100AF84B06D4605F10C0423464FF00A0CE3
:203CC000DFF83C80B2FBFCF60CFB162E18F80EE003F801ED9646BEF1090F3246F2D8E41A9D
:203CE0008C4209D8C4F10C032246E91800F0FAFA2046BD46BDE8F0814FF0FF34F8E700BF75
:203D0000BE5F00082DE9F041074615460446013900EB01082A7892B344452AD2252A07D184
:203D20006A78732A09D07A2A12D0252A00D1013515F8012B04F8012BECE753F8042B013A66
:203D400012F8011FC9B1444513D004F8011BF7E7AA78752AECD11E46204656F8042BA8EB05
:203D60000401FFF7A3FF002803DD334604440335D0E721463846FFF773FF0235CAE7227027
:203D8000E01BBDE8F081000000487047C95F00080048704733640008742A22DC572A0BDC41
:203DA0004D2A28DC3B2A0DDC242A16DC0F2A10DC531E0D2B1FD80CE00121A2F15803994060
:203DC0000E4B15E00123A2F13C018B400C490B4211D00C4B026043607047A2F12D03012B51
:203DE000E8E7A2F17603182B05D801219940064B0B40002BEDD1054B0260ECE79D00BF1F48
:203E00008F080200E8000020BF07F101E4000020C0E90021704713B5144603680A465B6923
:203E20000146684698476368019A9A4206D100982368C31A5842584102B010BD0020FBE7E1
:203E40004B68834204D10868831A584258417047002070477047704710B5044600F054F88E
:203E6000204610BD10B5044600F04EF8204610BD13B50446104600F07BFD01AA014620466F
:203E800000F0E1F9204602B010BD000010B50446024B036000F01EF9204610BDD86000083A
:203EA00010B50446FFF7F2FF204600F02DF8204610BD10B504460B6886B01B696846984795
:203EC000DDE90012204600F020F96846FCF7DAFF204606B010BD704710B5064C06492246B3
:203EE0000648FFF70BF92246BDE8104004490548FFF704B900000020573E0008E80000200B
:203F0000553E0008E400002000F0D6B90378472B17D143784E2B14D18378552B11D1C378FD
:203F2000432B0ED10379432B0BD143792B2B08D183792B2B05D1C07901288CBF002001206D
:203F400070470020704700002DE9F3411D4603780E46472B0246C17913D143784E2B10D16A
:203F60008378552B0DD1C378432B0AD10379462B07D143794F2B04D18379522B01D1002920
:203F800030D01046FFF7C2FF002380F00104E4B2002001904BBB54BB01290ABF52F8203C87
:203FA000A2F12003783B01290CBF52F8202C58321C680192236820469B689847C8B10227F7
:203FC000019B1B68019333682146D3F810803046012301AAC04770B1019B2B60384602B00D
:203FE000BDE8F08101230C46D2E7044CE2E7044CE0E70127E7E70746F0E700BF745E000899
:204000007C5E000810B50446FFF7F6F902462046A4F12001FFF77AFF60B154F8043C013326
:20402000012B44F8043C03D1936844F8083C9160012010BD9368002BF9D0FFF767FC0378E7
:20404000472B17D143784E2B14D18378552B11D1C378432B0ED10379432B0BD143792B2B30
:2040600008D183792B2B05D1C07901288CBF0020012070470020704710B5044648B1FFF7C5
:2040800068F92046FFF7DBFF18B154F8140CFFF731FCFFF73BFC38B50246FFF7D0FF0446C0
:2040A00040B1002552F8184C1046FFF752F91DB1FFF73EFC0125F7E72046FFF72CFC00001F
:2040C000024B1868BFF35B8F704700BF148700204068704713B50446064B01A903604068CF
:2040E0000C3800F083F82046FFF780F9204602B010BD00BF0C61000810B50446FFF7EAFF35
:204100002046FFF701FF204610BD13B5044601AB00F08CF8204602B010BD012A30B403D116
:204120000B78037030BC7047002AFBD030BC00F0D9B808B5521AFFF7F0FF08BD044B984288
:2041400004D000230160836008440373704700BF18870020154B10B59842044602D91448AD
:20416000FFF760FD884203D94B00984238BF1C4604F11D03B3F5805F04F10D000CD98C4277
:204180000AD90A4804F58054C3F30B03E41A844228BF044604F10D00002801DAFFF73CFD30
:2041A000FFF77AFC00224460826010BDFCFFFF3F186100082DE9F041A1EB000805460E46EA
:2041C00040460021FFF7C6FF044600F10C07324629463846FFF7ADFF20464146FFF7AEFF98
:2041E0003846BDE8F081FFF78FBE0000054A10B5904206D08268541E002A846001DCFFF7EF
:20420000F2FF10BD18870020884208B507D018B1BDE80840FFF7CEBF0248FFF700FD024803
:2042200008BD00BF306100082487002010B50446084611461A4601444FF00003FFF7E4FF22
:204240002060204610BD38B500F1080304460D46036059B10846FEF7BBFC2A1820464FF0D7
:2042600000032946FCF732FE204638BD0122F5E708B500F003F808B5FFF7FAFF062008B518
:2042800000F074F9012001F037FA000010B504460448134620B10A4602202146AFF30080FE
:2042A00010BD00BF00000000024B0146186800F0B1B800BFF0000020024B0146186800F032
:2042C00041B800BFF0000020034610B5C9B202449342184601D1002003E0047801338C42C1
:2042E000F6D110BD0A44914200F1FF3300D1704710B511F8014B914203F8014FF9D110BD8F
:20430000884210B501EB020402D98442234607D8431EA14208D011F8012B03F8012FF8E7D8
:20432000014602448A4200D110BD13F8014D02F8014DF7E703460244934200D1704703F820
:20434000011BF9E738B50546002940D051F8043C0C1F002BB8BFE41800F026FB1C4A1368AC
:2043600033B9636014602846BDE8384000F022BBA34208D9206821188B4201BF19685B686A
:2043800009182160EDE71A465B680BB1A342FAD911685018A0420BD1206801445018834277
:2043A0001160E0D118685B68014411605360DAE702D90C232B60D6E7206821188B4201BFCE
:2043C00019685B680918216063605460CBE738BD2887002070B50E4E0C463168054611B989
:2043E00000F08CF830602146284600F087F8431C0AD0C41C24F00304A04207D0211A2846DF
:2044000000F07CF8013001D14FF0FF34204670BD2C8700202DE9F041CD1C25F003050835D3
:204420000C2D38BF0C25002D074601DBA94205D90C2300263B603046BDE8F0812E4E00F014
:20444000B3FA33681C4634BB29463846FFF7C2FF431C04464DD134682646002E40D1236886
:204460003146384604EB030800F048F880453AD1216803356D1A25F0030508350C2D38BF7B
:204480000C2538462946FFF7A5FF01302BD023682B4423600EE02268521B1ED40B2A16D9C0
:2044A0006119A342256018BF5960636808BF316062514B60384604F10B0600F07BFA26F008
:2044C0000706231DF21AB6D09B1BA350B3E76268A3420CBF32605A60ECE723466468B2E753
:2044E00034467668B9E70C2338463B6000F062FAA1E72560DEE700BF2887002038B50023C0
:20450000054D044608462B6001F0E8F8431C02D12B6803B1236038BD308700201F2938B558
:2045200004460D4604D9162303604FF0FF3038BD426C12B152F821304BB9204600F030F874
:204540002A4601462046BDE8384000F017B8012B0AD0591C03D1162303600120E7E7002464
:20456000284642F8254098470020E0E7024B01461868FFF7D3BF00BFF000002038B50023ED
:20458000064D0446084611462B6001F09FF8431C02D12B6803B1236038BD00BF308700203F
:2045A000FCF7E8BE10B50446084611468E2800F23081DFE810F039018F0092009400960009
:2045C00098009A009C009E00A200A400A800AA00AC00AE002E01B000B200B400B600B800CA
:2045E000BE00C000C600C800CA00CC00CE00D200D600D800DA00DC00DE00E000E200E40091
:204600002E012E012E012E012E012E012E012E01E800EC002E012E012E012E012E012E0134
:204620002E012E012E012E012E012E012E01EE000801F000F2002E012E012E01F4002E01A8
:204640002E012E01F6002E012E01FA002E012E01FC002E012E012E012E012E012E012E010B
:204660002E012E012E01FE002E010001020104012E012E0126012E012E012E012E012E0107
:204680002E012E012E01140106010A010C010E0110012E01120116011A01EA00C2002C01EC
:2046A000BA00D000BC00A000A6002A01F8002E011801C4001E011C012E012E012E012E0147
:2046C0002E01D4002E012E012E01E6002801200122012401554B184610BD554BFBE7554BE5
:2046E000F9E7554BF7E7554BF5E7554BF3E7554BF1E7554BEFE7554BEDE7554BEBE7554BF2
:20470000E9E7554BE7E7554BE5E7554BE3E7554BE1E7554BDFE7554BDDE7554BDBE7554B51
:20472000D9E7554BD7E7554BD5E7554BD3E7554BD1E7554BCFE7554BCDE7554BCBE7554BB1
:20474000C9E7554BC7E7554BC5E7554BC3E7554BC1E7554BBFE7554BBDE7554BBBE7554B11
:20476000B9E7554BB7E7554BB5E7554BB3E7554BB1E7554BAFE7554BADE7554BABE7554B71
:20478000A9E7554BA7E7554BA5E7554BA3E7554BA1E7554B9FE7554B9DE7554B9BE7554BD1
:2047A00099E7554B97E7554B95E7554B93E7554B91E7554B8FE7554B8DE7554B8BE7554B31
:2047C00089E7554B87E7554B85E7554B83E7554B81E7554B7FE7554B7DE7554B7BE7554B91
:2047E00079E7554B77E7554B75E7554B73E7554B71E7554B6FE7554B6DE7554B6BE7554BF1
:2048000069E7554B67E7554B65E7554B63E7554B61E7002B14BF1A46224600F0B3F8524B9E
:20482000002818BF034656E7504B54E7606100086A6100088461000894610008AC61000882
:20484000B6610008D0610008E2610008F46100080D6200081D620008296200084662000817
:2048600058620008696200087B620008876200089F620008AB620008BD620008CC62000852
:20488000DC620008E96200080863000817630008286300084C6300086A6300088863000878
:2048A000A8630008BF630008CE630008DD630008F163000809640008176400082464000856
:2048C0003A64000849640008556400088464000895640008B0640008C3640008D96400083B
:2048E000E2640008F9640008016500080E65000823650008376500084F6500085E65000861
:204900006F650008826500088E650008A7650008BB650008D6650008EE6500080866000881
:2049200010660008406600085F6600087E66000895660008A8660008C1660008D866000804
:20494000EE6600080F6700082767000843670008566700086C67000880670008A267000895
:20496000C8670008D9670008BD5F0008EE6700080023014602481A460068FFF713BE00BF35
:20498000F00000200020704738B50023054D044608462B6000F092FE431C02D12B6803B1B2
:2049A000236038BD30870020014800F00AB800BF34870020014800F005B800BF3487002083
:2049C00070477047704700000FB40A4B13B51C6824B1A36913B9204600F066F805AB2046D7
:2049E000049AA168019300F023F902B0BDE8104004B07047F0000020002310B50446C0E973
:204A00000033C0E90433836081814366C2818361194608225C30FFF78DFC054B246263629F
:204A2000044BA362044BE362044B236310BD00BFBD510008DF510008175200083B520008D9
:204A4000014900F0AFB800BFED540008682270B54D1E55430E4605F17401FFF7DBFC044625
:204A600040B10021C0E900160C30A06005F16802FFF760FC204670BD0148FFF7A2BF00BF85
:204A8000358700200148FFF79DBF00BF358700200148FFF796BF00BF368700200148FFF795
:204AA00091BF00BF3687002010B50446FFF7F0FFA3691BB1BDE81040FFF7F0BFC4E91233B2
:204AC0002365134B134A1B68A262A34208BF0123204608BFA36100F01FF86060204600F0EE
:204AE0001BF8A060204600F017F800220421E0606068FFF781FF01220921A068FFF77CFFB3
:204B000002221221E068FFF777FF0123A361D1E75C610008414A0008F8B50746FFF7ACFFB7
:204B20001E4B1E68B36913B93046FFF7BDFF4836D6E90134013B03D533680BB33668F7E71B
:204B4000B4F90C50D5B9164B04F15800E3606566FFF736FFFFF796FF08222946C4E90155B0
:204B6000C4E904552560A56104F15C00FFF7E2FBC4E90D55C4E912552046F8BD6834D9E7E6
:204B800004213846FFF762FF044630600028D5D1FFF778FF0C233B60EEE700BF5C610008E3
:204BA0000100FFFF2DE9F84306468846002700F14804D4E90195B9F1010905D52468002C8E
:204BC000F7D13846BDE8F883AB89012B07D9B5F90E30013303D029463046C0470743683569
:204BE000E9E7936810B4013B002B936007DA9469A34201DB0A2902D110BC00F023BB136812
:204C0000581C10601970084610BC7047F8B506460F461446D518AC4201D1002007E03A467A
:204C2000304614F8011BFFF7DCFF431CF3D1F8BD2DE9F04F0D461446984606469DB018B1EB
:204C400083690BB9FFF730FF894B9D421BD175686B6ED90705D4AB899A0502D4A86DFFF7BD
:204C6000B0FEAB891B0701D52B69EBB92946304600F04CFBC0B16B6EDC070ED54FF0FF3088
:204C80001DB0BDE8F08F7B4B9D4201D1B568DFE7794B9D4208BFF568DAE7AB899805EDD4AF
:204CA000A86DFFF78FFEE9E70023099320238DF8293030234FF00109CDF80C80DFF8BC81AB
:204CC0008DF82A3023469A4613F8012B0AB1252AF9D1BAEB040B0BD05B4622462946304624
:204CE000FFF794FF013000F0AA80099A5A4409929AF80030002B00F0A28000234FF0FF3272
:204D0000CDE905230AF1010A049307938DF853301A935446052214F8011B5848FFF7D4FA7C
:204D2000049AD8B9D10644BF20238DF85330130744BF2B238DF853309AF800302A2B15D0B0
:204D4000544600204FF00A0C079A214611F8013B303B092B4ED9B0B1079214E0A0EB0803AD
:204D600009FA03F31343A2460493D2E7039B191D1B680391002BBBBF5B4242F002020793AF
:204D80000793B8BF049223782E2B0CD163782A2B35D1039B02341A1D1B680392002BB8BFA0
:204DA0004FF0FF330593DFF8D8A0032250462178FFF78AFA40B14023A0EB0A0003FA00F0F7
:204DC000049B01340343049314F8011B06222D488DF82810FFF778FA00283FD02A4B1BBBB6
:204DE000039B073323F0070308330393099B3B44099367E70C4601200CFB0232A5E7002383
:204E00004FF00A0C194601340593204610F8012B303A092A03D9002BC5D00591C3E70446B4
:204E200001230CFB0121F0E703AB00932A463046164B04A9AFF300800746781CD6D16B6E96
:204E4000D90705D4AB899A0502D4A86DFFF7BAFDAB895B063FF512AF099811E703AB0093CA
:204E60002A463046094B04A900F082F8E4E700BF1868000838680008F867000858680008F8
:204E80005E68000862680008000000000D4C00082DE9F047164699468A680B690746934201
:204EA000B8BF1346336091F843200C46DDF820800AB1013333602368990642BF336802335F
:204EC0003360256815F0060506D104F1190AE36832689B1AAB4228DC94F84320131E22687E
:204EE00018BF012392062DD44946384604F14302C047013020D02368E56803F00603042BAC
:204F000018BF002532684FF00006A36808BFAD1A226908BF25EAE5759342C4BF9B1AED1850
:204F20001A34B5421AD1002008E00123524649463846C047013003D14FF0FF30BDE8F087DA
:204F40000135C4E73020E11881F843005A1C94F845102244023382F84310C5E70123224674
:204F600049463846C0470130E6D00136D9E700002DE9FF470F7E9146782F80460C469A46E0
:204F80000C9D01F1430207D8622F0AD8002F00F0D980582F00F0A48004F1420584F8427062
:204FA0003AE0A7F16303152BF6D801A151F823F0095000081D500008994F0008994F000817
:204FC000994F0008994F00081D500008994F0008994F0008994F0008994F00082B51000838
:204FE0004D5000080D510008994F0008994F00084D510008994F00084D500008994F00089B
:20500000994F0008155100082B681A1D1B682A6004F1420584F842300123A4E02068296870
:20502000060601F104030AD50E682B60002E03DA2D23764284F843300A235E4819E00E6847
:2050400010F0400F2B6018BF36B2EFE72B682068191D2960010601D51E6802E04606FBD5A6
:205060001E886F2F0CBF08230A235248002184F843106568002DA8BF2168A560A4BF21F0DC
:20508000040121600EB9002D4DD01546B6FBF3F103FB1167C75D05F8017D3746BB420E46A6
:2050A000F4D9082B0BD12368DE0708D5236961689942DEBF302305F8013C05F1FF35521BD6
:2050C00022614B4621464046CDF800A003AAFFF7DFFE01304CD14FF0FF3004B0BDE8F0875E
:2050E000344881F845702968236851F8046B29601D0614D5DF0744BF43F0200323601EB904
:20510000236823F0200323601023AFE7236843F0200323607823284884F84530E3E75906F9
:2051200048BFB6B2E6E71546BBE72B682668181D6169286035061B6801D5196002E0700629
:20514000FBD51980002315462361BAE72B6800211A1D2A601D6862682846FFF7B5F808B1B5
:20516000401B606063682361002384F84330A8E72A46494640462369D0470130ABD02368C5
:205180009B0713D4E068039B9842B8BF1846A4E70123324649464046D04701309BD00135CC
:2051A000E36803995B1AAB42F2DCEBE7002504F11906F5E7696800087A68000810B50C4617
:2051C000B1F90E1000F046FA0028ABBF636DA3891B1823F48053ACBF6365A38110BD2DE9F2
:2051E000F0411F468B890546DB050C46164605D502230022B1F90E1000F0B4F9A389324602
:2052000023F48053A38128463B46B4F90E10BDE8F04100F069B810B50C46B1F90E1000F010
:20522000A1F9431CA38915BF606523F4805343F48053A38118BFA38110BDB1F90E10FFF712
:20524000A3BB0000F8B50E461446054618B183690BB9FFF729FC214B9C422BD16C68A36990
:20526000A360A3891A072FD523696BB323692068F6B2C01A63693746834204DC21462846D7
:2052800000F034F930BBA3680130013BA36023685A1C22601E706369834204D0A389DB0707
:2052A00006D50A2E04D12146284600F01FF988B93846F8BD0A4B9C4201D1AC68CFE7094B92
:2052C0009C4208BFEC68CAE72146284600F01EF80028CBD04FF0FF37EAE700BF18680008F9
:2052E00038680008F867000838B50446084611460022054D2A601A4600F020FA431C02D129
:205300002B6803B1236038BD30870020324B70B51D6806460C4625B1AB6913B92846FFF718
:20532000C3FB2E4B9C420FD16C68A389B4F90C2019072CD4DD0611D40923336042F0400383
:205340004FF0FF30A3813EE0254B9C4201D1AC68EBE7244B9C4208BFEC68E6E7580712D51C
:20536000616B41B104F14403994202D03046FEF7E9FF00236363A38923F02403A38100239D
:20538000636023692360A38943F00803A38123694BB9A38903F42073B3F5007F03D0214606
:2053A000304600F017F9A089B4F90C2010F001030AD00023A36063695B42A361236943B97C
:2053C00010F08000BAD170BD810758BF6369A360F4E70020F7E700BFF000002018680008F7
:2053E00038680008F86700088A89F8B5054610070C4657D44B68002B04DC0B6C002B01DCC2
:205400000020F8BDE66A002EFAD0002312F480522F682B6032D0606DA3895A0705D5636851
:20542000C01A636B0BB1236CC01A00230246E66A2846216AB047431CA38906D129681D29BB
:205440002CD8294ACA40D60728D5002262602269D904226004D5421C01D12B6803B9606506
:20546000616B2F600029CBD004F14403994202D02846FEF767FF00206063C2E7216A012320
:205480002846B047411CC7D12B68002BC4D01D2B01D0162B01D12F60B2E7A38943F040036A
:2054A000A381AEE70F69002FAAD0930718BF00230E6808BF4B69F61B0F608B60002E9FDD78
:2054C00033463A462846216AD4F828C0E047002806DCA3894FF0FF3043F04003A38190E74A
:2054E0000744361AEAE700BF0100402038B50B6905460C4613B90025284638BD18B1836919
:205500000BB9FFF7D1FA144B9C421BD16C68B4F90C30002BEFD0626ED00704D4990502D443
:20552000A06DFFF74EFA28462146FFF75DFF636E0546DA07E0D4A3899B05DDD4A06DFFF7C8
:2055400041FAD9E7054B9C4201D1AC68DFE7044B9C4208BFEC68DAE718680008386800083D
:20556000F867000838B50446084611460022054D2A601A4600F0D2F8431C02D12B6803B157
:20558000236038BD3087002070B50E46B1F90E10144600291D4696B008DA0022B6F90C3060
:2055A0002A601A0610D44FF480630EE06A4600F063F80028F1DB019A02F47042A2F500532D
:2055C0005A425A412A60EEE740230020236016B070BD00008B8973B59D0706460C4607D5E2
:2055E00004F14703236023610123636102B070BD6A4601ABFFF7C8FF009905463046FEF736
:2056000009FF48B9B4F90C309A05EFD423F0030343F00203A381E3E70D4BB362A3892060DE
:2056200043F08003A381009B20616361019B5BB13046B4F90E1000F031F828B1A38923F096
:20564000030343F00103A381A0890543A581CDE7414A000838B50446084611460022054DBB
:205660002A601A4600F062F8431C02D12B6803B1236038BD3087002038B50023064D044681
:20568000084611462B6000F039F8431C02D12B6803B1236038BD00BF3087002038B5002322
:2056A000054D044608462B6000F030F8431C02D12B6803B1236038BD308700205822024BCE
:2056C0004FF0FF301A607047308700205822024B4FF0FF301A60704730870020044A05497B
:2056E0001368002B08BF0B4618441060184670473887002040870020FEE700BF5822024BDA
:205700004FF0FF301A607047308700205822024B00201A60704700BF308700205822024B9E
:205720004FF0FF301A607047308700205822024B4FF0FF301A607047308700205822024BEF
:205740004FF0FF301A60704730870020F8B500BFF8BC08BC9E467047F8B500BFF8BC08BC70
:205760009E467047000000006C590008BD0B0008D10B00088F010008B33E0008530F000812
:20578000113E0008173E0008413E00080000000000000000A482002050000000F88200209E
:2057A0000002000001000000000000000000000000000000000000005482002050000000A0
:2057C000F884002000020000280000000000000000000000303030313032303330343035B4
:2057E00030363037303830393130313131323133313431353136313731383139323032314F
:20580000323232333234323532363237323832393330333133323333333433353336333718
:205820003338333934303431343234333434343534363437343834393530353135323533E2
:2058400035343535353635373538353936303631363236333634363536363637363836399A
:20586000373037313732373337343735373637373738373938303831383238333834383576
:20588000383638373838383939303931393239333934393539363937393839390000000003
:2058A000000000001C59000857050008210B0008C90D0008000000004E35636D736973361D
:2058C000746872656164313243616C6C61626C654261736545000000505E0008B85800084F
:2058E0002A4E35636D73697336746872656164313243616C6C61626C65496D706C49537419
:20590000355F42696E6449465A346D61696E45556C76455F76454545450000001C5F000887
:20592000E0580008D85800080000000000000000D081002034000000048200205000000054
:205940002A4E31325F474C4F42414C5F5F4E5F313233636D7369735F6F735F6572726F7272
:205960005F63617465676F72794500001C5F000840590008EC5F00080000000000000000AE
:20598000000000000000000000000000000000000000000000000000000000000000000007
:2059A0000000000000000000000000000000000002000000E803000005000000880100204C
:2059C00010000000000000000000000000000000000000000000000000000000D0010020C6
:2059E000008000000000000000000000000000000000000000000000000000000000000027
:205A000000000000000C00008C570008B0570008950D0008490D00082859000804000000EB
:205A2000636D736973206F73000D4552523A25730062617369635F737472696E673A3A5FB2
:205A40004D5F6372656174650062617369635F737472696E673A3A5F4D5F636F6E73747216
:205A6000756374206E756C6C206E6F742076616C6964004F7065726174696F6E20636F6D4E
:205A8000706C65746564207375636365737366756C6C7900556E73706563696669656420B4
:205AA00052544F53206572726F723A2072756E2D74696D65206572726F7220627574206E86
:205AC0006F206F74686572206572726F72206D6573736167652066697473004F70657261F9
:205AE00074696F6E206E6F7420636F6D706C657465642077697468696E207468652074698D
:205B00006D656F757420706572696F64005265736F75726365206E6F7420617661696C6171
:205B2000626C6500506172616D65746572206572726F720053797374656D206973206F75C2
:205B400074206F66206D656D6F72793A2069742077617320696D706F737369626C65207496
:205B60006F20616C6C6F63617465206F722072657365727665206D656D6F727920666F7214
:205B800020746865206F7065726174696F6E004E6F7420616C6C6F77656420696E204953C7
:205BA0005220636F6E746578743A207468652066756E6374696F6E2063616E6E6F74206228
:205BC000652063616C6C65642066726F6D20696E74657272757074207365727669636520C9
:205BE000726F7574696E65730050726576656E747320656E756D20646F776E2D73697A6540
:205C000020636F6D70696C6572206F7074696D697A6174696F6E00537461636B20756E6465
:205C20006572666C6F7720646574656374656420666F722074687265616400495352205115
:205C400075657565206F766572666C6F77206465746563746564207768656E20696E7365F9
:205C60007274696E67206F626A65637400557365722054696D65722043616C6C6261636B7C
:205C8000205175657565206F766572666C6F7720646574656374656420666F722074696D18
:205CA0006572005374616E6461726420432F432B2B206C696272617279206C696273706101
:205CC0006365206E6F7420617661696C61626C653A20696E637265617365204F535F544869
:205CE000524541445F4C494253504143455F4E554D005374616E6461726420432F432B2B3B
:205D0000206C696272617279206D7574657820696E697469616C697A6174696F6E2066612C
:205D2000696C656400556E6B6E6F776E206572726F720062617369635F737472696E673A59
:205D40003A617070656E640025733A205F5F706F732028776869636820697320257A7529DB
:205D6000203E20746869732D3E73697A6528292028776869636820697320257A7529006260
:205D8000617369635F737472696E673A3A5F4D5F7265706C6163650062617369635F7374CA
:205DA00072696E673A3A7265706C616365003A200062617369635F737472696E673A3A5FBE
:205DC0004D5F7265706C6163655F617578006F735274784572726F724E6F74696679006F7C
:205DE000734B65726E656C496E697469616C697A65006F735468726561644E6577006F7377
:205E00004B65726E656C5374617274005254582056352E372E3000001C5F0008245E00089A
:205E2000405F00084E31305F5F637878616269763131375F5F636C6173735F747970655F6C
:205E4000696E666F4500000000000000185E00084531000859310008C13B0008C13B0008BB
:205E6000C331000807310008AB3100086D31000839310008505E00088C5E0008505E00088C
:205E8000AC5E0008505E0008D05E00084E31305F5F637878616269763131355F5F666F7206
:205EA0006365645F756E77696E6445004E31305F5F637878616269763131395F5F666F727B
:205EC0006569676E5F657863657074696F6E4500537439657863657074696F6E00000000DD
:205EE0001C5F0008EC5E0008185E00084E31305F5F637878616269763132305F5F73695F61
:205F0000636C6173735F747970655F696E666F450000000000000000E05E0008BD3A0008B5
:205F2000D13A0008C13B0008C13B0008C331000807310008953B0008213B0008E53A0008A7
:205F4000505E0008485F0008537439747970655F696E666F006E6F7420656E6F75676820F8
:205F6000737061636520666F7220666F726D617420657870616E73696F6E2028506C656146
:205F80007365207375626D69742066756C6C20627567207265706F72742061742068747423
:205FA00070733A2F2F6763632E676E752E6F72672F627567732F293A0A20202020003031EE
:205FC00032333435363738390067656E65726963000000001C5F000800600008EC5F0008FA
:205FE0001C5F000829600008EC5F0008505E0008536000081C5F00086C600008E460000826
:206000002A4E31325F474C4F42414C5F5F4E5F31323173797374656D5F6572726F725F63A6
:20602000617465676F727945002A4E31325F474C4F42414C5F5F4E5F31323267656E657224
:2060400069635F6572726F725F63617465676F727945004E5374335F563231346572726F9D
:20606000725F63617465676F727945005374313273797374656D5F6572726F720000000054
:2060800000000000D45F0008553E0008593E0008913D0008B33E0008713E0008993D000827
:2060A000173E0008413E000800000000E05F0008573E0008653E0008893D0008B33E0008A6
:2060C000713E0008113E0008173E0008413E000800000000F45F00088D3E0008A13E0008B9
:2060E000D14000081C5F0008F0600008845E00085374313372756E74696D655F6572726F7C
:206100007200000000000000E4600008D5400008F9400008D140000862617369635F737402
:2061200072696E673A3A5F535F6372656174650062617369635F737472696E673A3A5F5398
:206140005F636F6E737472756374206E756C6C206E6F742076616C6964000000F40000206B
:206160004E6F74206F776E6572004E6F20737563682066696C65206F7220646972656374B7
:206180006F7279004E6F20737563682070726F6365737300496E7465727275707465642040
:2061A00073797374656D2063616C6C00492F4F206572726F72004E6F2073756368206465F4
:2061C00076696365206F72206164647265737300417267206C69737420746F6F206C6F6E40
:2061E00067004578656320666F726D6174206572726F7200536F636B657420616C72656132
:20620000647920636F6E6E6563746564004261642066696C65206E756D626572004E6F2081
:206220006368696C6472656E0044657374696E6174696F6E20616464726573732072657125
:206240007569726564004E6F206D6F72652070726F636573736573004E6F7420656E6F7596
:206260006768207370616365005065726D697373696F6E2064656E696564004261642061E9
:2062800064647265737300446576696365206F72207265736F757263652062757379004677
:2062A000696C65206578697374730043726F73732D646576696365206C696E6B004E6F2092
:2062C0007375636820646576696365004E6F742061206469726563746F727900486F737436
:2062E00020697320646F776E00436F6E6E656374696F6E20616C726561647920696E207031
:20630000726F67726573730049732061206469726563746F727900496E76616C69642061FE
:206320007267756D656E74004E6574776F726B20696E74657266616365206973206E6F7433
:2063400020636F6E6669677572656400436F6E6E656374696F6E2061626F72746564206264
:2063600079206E6574776F726B00546F6F206D616E79206F70656E2066696C657320696E77
:206380002073797374656D0046696C652064657363726970746F722076616C756520746F19
:2063A0006F206C61726765004E6F74206120636861726163746572206465766963650054E0
:2063C0006578742066696C6520627573790046696C6520746F6F206C6172676500486F7382
:2063E0007420697320756E726561636861626C65004E6F207370616365206C656674206F50
:206400006E20646576696365004E6F7420737570706F7274656400496C6C6567616C2073FA
:2064200065656B00526561642D6F6E6C792066696C652073797374656D00546F6F206D6117
:206440006E79206C696E6B730042726F6B656E2070697065004D617468656D617469637375
:2064600020617267756D656E74206F7574206F6620646F6D61696E206F662066756E63745F
:20648000696F6E00526573756C7420746F6F206C61726765004E6F206D65737361676520B8
:2064A0006F6620646573697265642074797065004964656E7469666965722072656D6F76D9
:2064C000656400496C6C6567616C20627974652073657175656E636500446561646C6F6340
:2064E0006B004E6574776F726B20697320756E726561636861626C65004E6F206C6F636B2B
:20650000004E6F7420612073747265616D0053747265616D20696F63746C2074696D656F38
:206520007574004E6F2073747265616D207265736F7572636573005669727475616C2063A4
:2065400069726375697420697320676F6E650050726F746F636F6C206572726F7200556E87
:206560006B6E6F776E2070726F746F636F6C004D756C7469686F7020617474656D70746586
:206580006400426164206D6573736167650046756E6374696F6E206E6F7420696D706C659D
:2065A0006D656E746564004469726563746F7279206E6F7420656D7074790046696C652049
:2065C0006F722070617468206E616D6520746F6F206C6F6E6700546F6F206D616E79207370
:2065E000796D626F6C6963206C696E6B73004E6F20627566666572207370616365206176F1
:2066000061696C61626C65004E6F206461746100416464726573732066616D696C79206E43
:206620006F7420737570706F727465642062792070726F746F636F6C2066616D696C790042
:2066400050726F746F636F6C2077726F6E67207479706520666F7220736F636B6574005356
:206660006F636B6574206F7065726174696F6E206F6E206E6F6E2D736F636B657400507233
:206680006F746F636F6C206E6F7420617661696C61626C6500436F6E6E656374696F6E2008
:2066A0007265667573656400436F6E6E656374696F6E2072657365742062792070656572D2
:2066C000004164647265737320616C726561647920696E20757365004164647265737320A8
:2066E0006E6F7420617661696C61626C6500536F6674776172652063617573656420636FB6
:206700006E6E656374696F6E2061626F727400536F636B6574206973206E6F7420636F6EAD
:206720006E656374656400536F636B657420697320616C726561647920636F6E6E65637475
:206740006564004F7065726174696F6E2063616E63656C6564005374617465206E6F7420DE
:206760007265636F76657261626C650050726576696F7573206F776E657220646965640031
:206780004F7065726174696F6E206E6F7420737570706F72746564206F6E20736F636B659F
:2067A000740056616C756520746F6F206C6172676520666F7220646566696E656420646190
:2067C00074612074797065004D65737361676520746F6F206C6F6E6700436F6E6E65637431
:2067E000696F6E2074696D6564206F757400537563636573730000000000000000000000CF
:20680000000000000000000000000000000000000000000000000000000000000000000078
:20682000000000000000000000000000000000000000000000000000000000000000000058
:20684000000000000000000000000000000000000000000000000000232D302B2000686C99
:206860004C00656667454647003031323334353637383941424344454600303132333435F7
:2068800036373839616263646566000031CDFF7FB0B0A800FFFF010025CDFF7FB0B0A800CA
:2068A000FF101D010C080212031A041E00260400000200017D00000000000000B8F5FFFFEF
:2068C000FDCCFF7FB0B0A800FF1015010C020408010C0400001E042A00010000A8F5FFFF31
:2068E00008B10181B0B000840000000008B10181B0B0008400000000C5CCFF7FB0B0A80043
:20690000FFFF010008B10181B0B0008400000000C9C1FF7FB0AB1200FFFF011516020000B8
