:020000040800F2
:2000000000C0002025A20008DD210008DF210008E1210008E3210008E521000800000000FF
:20002000000000000000000000000000FD220008E7210008000000008F2300089F23000805
:2000400069A2000869A2000869A2000869A2000869A2000869A2000869A2000869A2000808
:200060007921000869A2000869A2000869A2000869A2000869A2000869A2000869A2000859
:2000800069A2000869A2000869A2000869A2000869A2000869A2000869A2000869A20008C8
:2000A00069A2000869A2000869A2000869A2000869A2000869A2000869A2000869A20008A8
:2000C00069A2000869A2000869A2000869A2000869A2000869A2000869A2000869A2000888
:2000E00069A2000869A2000869A2000869A2000869A2000869A2000869A2000869A2000868
:2001000069A2000869A2000869A2000869A2000869A2000869A2000869A2000869A2000847
:2001200069A2000800000000000000000000000000000000000000005FF808F1FFFFFFFF60
:2001400010B5054C237833B9044B13B10448AFF300800123237010BD680A0020000000006B
:200160006842010808B5034B1BB103490348AFF3008008BD000000006C0A0020684201082E
:200180002DE9F0410022012703260B6807FA02FE3EEA03032BD1036891F804C0540006FAFB
:2001A00004F86FEA080523EA08080CFA04F30CF1FF3C43EA0803BCF1010F03600ED8836862
:2001C0002B404D79A5401D43856083889BB223EA0E058B7993409BB22B438380C36806FA8C
:2001E00004F523EA0505CB79A3402B43C3600132102ACAD1BDE8F08113B56C460B46024606
:2002000003C884E8030093E8030082E8030094E8030083E8030002B010BD406808B503687D
:200220009B689847DFF804C000DFFEE7CD1F0008014B5869704700BF04000020EFF310836D
:200240002BB9EFF31180003818BF012070470120704710B5034653E8000F00EA01028A4277
:2002600003D0BFF32F8F002005E020EA010243E8002404B1EFE710BD10B5034653E8000F2A
:20028000084203D1BFF32F8F002005E020EA010243E8002404B1F1E710BD10B402F001045A
:2002A000920705D40C300CB110BCD2E710BCE3E7C06801EA000224B18A4218BF002010BC3F
:2002C0007047002A08BF0020F9E710B578B10378F32B0CD100290ADB00F10C0353E8000FBA
:2002E00020EA010243E8002404B1F7E710BD6FF00300FBE7014B187A704700BF0400002086
:200300004FF47A7070474FF0E0220D4BD868936913B152690132D31A0A4A5268520107D548
:200320004FF0E022936913B152690132D31A01304FF0E022526902FB00001844704700BFE5
:200340000400002000ED00E0004870470048E80108B5EFF3058313B16FF0050008BDFFF772
:200360006DFF0028F8D1DFF808C000DFF6E700BF9913000808B5EFF3058313B14FF47A703A
:2003800008BDFFF75BFF0028F8D1DFF808C000DFF6E700BF0103000808B5EFF3058313B146
:2003A000BDE80840AFE7FFF749FF0028F8D1DFF808C000DF08BD00BF0703000808B5EFF3D8
:2003C00005830BB1044808BDFFF738FF0028F9D1DFF808C000DFF6E70048E80149030008C9
:2003E000034610B588B1084310F007000DD117290AD9102219600839CC189C605A60C850C5
:2004000099684A60D860012010BD0020FCE70346F0B588B159B30F3121F0070100F108077C
:200420003C463F686568381B25F00305401B814203D938680028F3D1F0BD5E681D680E4486
:200440005E602B4453F8040C083B864288BF5E60636811431BB9616004F10800ECE723F06D
:200460000303E018E750416020600830E4E70846E2E710B5D0E85F3F5A1C914200D80022AE
:20048000C0E8542F04B1F5E798B210BD70B5134C0546B4F8541004F15602D2E85F3F99422A
:2004A00002D8BFF32F8F04E0581CC2E8560F06B1F3E79BB2994210D904F15800FFF7D9FFCE
:2004C000E36D43F82050637A23B94FF08052044B5A6070BD0123A372FBE7FEE704000020FD
:2004E00000ED00E010B591F9202083681BB193F92040944205DAC1E90230816003B1D9609E
:2005000010BD18469B68F1E70346806882689A6002B1D3600023C3607047C2682AB18368ED
:20052000936003B1DA600023C360704710B504465CB12378F12B06D0FFF7EFFF01462046A3
:20054000BDE81040CEE7E468F2E710BD0123014643700148C6E700BF2000002010B5D0E96E
:200560000431C469621C0CD103B1596142691AB113610023436101E0074A13630023C361B0
:2005800010BD1BB1DA6959612244DA614269002AEED1014AD362F1E704000020012310B52B
:2005A000094A437090F92010536A1C321BB193F920408C4205DCC0E90232906003B1D86051
:2005C00010BD1A469B68F1E7040000200223C2784370520758BF032383F31488BFF36F8F85
:2005E000014B9861704700BF0400002010B5134B04461A7A596998B9022A1DD15C6ADCB19B
:2006000094F9202091F920309A4215DD2046FFF784FF0846FFF7C2FF2046BDE81040D5E76A
:20062000022A05D190F9202091F920309A42F0DC2046BDE8104089E710BD00BF04000020F2
:2006400010B51446836B1962FFF788FF14B1BDE81040CBE7BDE8104078E770B50546846879
:2006600004B970BD616A284694F82320A668FFF714FE014628B12046FFF74FFF0022FFF790
:20068000DFFF3446ECE7F8B5064670B30378F32B2BD1002929DB00F10C0353E8002F42EABB
:2006A000010443E8004000B1F7E7B56825B92846FFF79CFF2046F8BD696A304695F823200D
:2006C000AF68FFF7EAFD014668B195F823309B0756BF6C6A044620EA04042846FFF71DFF7D
:2006E0000022FFF7ADFF3D46E0E76FF00304E1E72DE9F0410446002601270CB9BDE8F08104
:20070000E378D4F814801B0712D5A36826767BB12046FFF7F9FE002205461146FFF790FFA6
:20072000EB6AC4E90356636103B11C61EC6227764446E2E7284B70B55A690446002A41D04B
:20074000002842D00378F52B3FD1037E002B3FD0C16891423CD1013BDBB2037613BB436934
:200760000BB1016919612169F1B14B6192F92130D56ADDB982F82030A36883B12046FFF7EB
:20078000C3FE06462A462946FFF75AFFF36AC4E90365636103B11C610123F4622376002084
:2007A000FFF724FF00200FE0D362DFE7E978890706D5A96821B191F920108B42B8BF0B4618
:2007C0006D69D6E74FF0FF3070BD6FF00300FBE76FF00200F8E700BF0400002038B51D4C2E
:2007E0000246237A022B33D1606A98B163695A704A1C15D10021226B6AB94FF0FF30C3E903
:200800000421D86151B10B611348FFF77DFEFFF7DDFE012038BD11461269EDE72363F3E753
:200820000020E26A12B1D569A9420BD2C3E90420D96158B10361002AE6D0D0695361411AE4
:20084000D161E1E71046491B1269EBE7E362F2E70020DFE70400002020000020014608B52B
:2008600038B11320FFF7BAFF80F00100C0B2404208BD6FF00300FBE7F8B50D4617461E467E
:200880000446C0B10378F32B15D1002913DBFFF704FD90B996B131464320FFF79FFF38B129
:2008A000084B20465969FFF71DFE4D6281F823706FF0010001E06FF00300F8BD6FF0020038
:2008C000FBE700BF04000020224B70B55D6904460E46002D35D0002836D00378F52B33D15E
:2008E000037E53B9C0E90353EB6A436103B118610123EC620020237670BDC278D10706D501
:20090000C168A94203D1FF2B21D00133F2E7F6B193070AD5E06895F9203090F920209A42DC
:2009200003DA80F82030FFF701FE31465320FFF755FF18B129462046FFF7D4FD6FF0010024
:20094000DAE74FF0FF30D7E76FF00300D4E76FF00200D1E70400002008B58847DFF804C029
:2009600000DFFEE7CD1F000810B543780446332B15D190F82330416A03F001029B0708D4B7
:2009800028301AB1FFF765FC48B10BE0FFF774FCFAE7806A01EA000312B19942F4D010BDAB
:2009A000002BFCD0014600222046BDE8104047E610B50446806918B100221146FFF740FEE1
:2009C0006378232B02BF0022A3689A6110BD002230B50B4D6B6C13B11C698C420AD9C0E95F
:2009E000022301611BB11C699860611A19612AB1D06030BD1A46091BDB68ECE76864F8E7F5
:200A000004000020C36810B52BB104691A69816822441A61996082680AB1D36010BD014A43
:200A20005364FBE70400002038B50D460446B0B10378F22B13D191B14378022B08D14161ED
:200A4000FFF7E0FF20462946FFF7C1FF002038BD064B1B6D33B1022343706161F2E76FF092
:200A60000300F4E76FF00200F1E700BF0400002008B558B10278F22A08D14278022A08D188
:200A800001224270FFF7BEFF002008BD6FF00300FBE76FF00200F8E740B10378F22B04D107
:200AA0004078831E58425841704700207047024608B5EFF305830BB1002008BDFFF7BEFB5D
:200AC0000028F9D11046DFF808C000DFF5E700BF990A00084FF40062014B00201A837047A5
:200AE000000002402AB1012A06D0022A05D10B6800E0034B036000E001600020704700BFFB
:200B0000804201081AB1012A04D000207047024B0360FAE70160F8E7884201081AB1012ACF
:200B200004D000207047024B0360FAE70160F8E79042010870477047704710B508234FF00A
:200B400004014FF48044084A10F0800F03F1FF3351834FEA400014BF1483548313F0FF03EF
:200B6000C0B21183F0D110BD000402400F4B1A6822F004021A605A6822F004025A600C4A43
:200B8000D2F8001441F00401C2F80014996821F004019960D96821F00401D960D2F80C34C9
:200BA00043F00403C2F80C34704700BF000401400000014030B5E0B1C3688B4219D803693A
:200BC000994216D200F114031A680A60BFF35F8F53E8002F0C689442F6D143E8001505B14D
:200BE000F2E7043050E8003F5A1E40E8002101B1F8E730BD30B588B181B17AB173B100246F
:200C0000C0E9014202FB01F41D190160C360436105611846013902D1A21A995030BD851898
:200C200005602846F6E750E8003F5A1C40E8002101B1F8E7704710B590B100F1140353E83D
:200C4000004F14B9BFF32F8F04E0226843E8002101B1F4E714B10430FFF7E5FF204610BDBB
:200C60000446FBE710B5044650B10368D4E9020218B1102A20D0002010BD002AFBD11C46D4
:200C80000F4BD3F8900080B1FFF7D5FF0028F2D00123F322837000230270C0E90143C370D9
:200CA000C360084A064B5A66E6E701221021D3F88000FFF7ACFBE9E71C460023E9E700BFC1
:200CC000040000205B06000838B5034650B3D0E90054D3E9020318B11C2B21D0002038BD6A
:200CE000002BFBD1114BD3F8940030B901221C21D3F88000FFF78BFB01E0FFF79CFF002898
:200D0000ECD00123F5228370002304F00F04C0E90233C0E904330270C47045600376DEE778
:200D20000023EFE705460446DCE700BF04000020F8B50E4617461C46054608B90020F8BDDE
:200D40000129FBD8C3B1D4E902021B6888B1202AF4D11C4600234FF4F97283700023C0E9A4
:200D60000657C0E90233C0E904330280C6704460E5E7002AE2D11C46084BD3F88C0028B16E
:200D8000FFF759FF0028D9D00123E4E701222021D3F88000FFF73BFBF4E700BF04000020AC
:200DA000036B30B4B3B10024CD78DA78AA4209D31A46C1E901245AB1916074B16160283091
:200DC00030BC30E75A681C46002AF2D01346ECE7C162F2E7C1E90133C1620163EFE730B5B8
:200DE00078B171B10023A1F1080400F10802944208D1626822F003054268521B42603BB9AC
:200E0000636030BD15681346002DFAD02A46EEE751F8082C1A60F4E72DE9F04F85B0CDE9FE
:200E2000010120B90024204605B0BDE8F08F002A00F08B80D2E9018408F00603062BF1D01C
:200E4000D368002C7ED0502BECD1D2E904B5BBF1000F04D01BF0070FE4D1002DE2D09769ED
:200E6000D2F800A0002F77D07A1E372ADAD818F0060F08BF48F0020835B16B07D2D1524A2A
:200E8000A5F148019142CDD8504E002C6DD1D6F88800002862D0FFF7CEFE04460028C1D07E
:200EA0004FF00109BBF1000F12D1002D75D1D6F8840000285CD0FFF7BEFE002873D083464C
:200EC0004FF4406549F0100949F00209002CA9D040F2F1122280FD220021019B628465638E
:200EE0003B4A403D7FB208F00F085D44A563E363C4E90211C4E90411C4E90611C4E90911B4
:200F0000C4E90B1B84F8029084F80380C4F804A084F8207084F82170CBF80020A36B38222D
:200F200018460BF0E9FC2B4A2B4B82634FF08072C263029A0262019A426220463366FFF719
:200F400055FB70E7002B80D06CE79246934614461827154690468AE7182788E701225021EE
:200F6000D6F88000FFF753FA97E74FF0000999E72A464FF44061706FFFF749FA4FF4406546
:200F8000F0B9B9F1000F1DD0D6F8882072B121461046FFF70FFE002496E75A462946706F1A
:200FA000FFF735FAECE74FF44065EAE72146D6F880000392FFF713FF039A1446934683E7F4
:200FC000834681E74C467FE7B7FFFF7F04000020A52E5AE2590900086909000870B505462D
:200FE00038B30378F32B24D1836863B12846FFF78BFA6FF002010022FFF722FBA8680028C1
:20100000F4D1FFF7F3FA0026AB782E7013F0010008D0094B2946D3F8904024B12046FFF7D6
:20102000C9FD304670BDD3F88000FFF7D8FE2046F8E76FF00300F5E70400002010B5C37889
:20104000044613F0010320D1038083789A0708D513F0100F016B124B0ED0D3F88400FFF744
:20106000A9FDA378DB071AD50D4B2146D3F8880030B1BDE810409DE5586FFFF7B0FEF0E732
:20108000D3F88000BDE81040A9E6042343700023034AC360536B836003B1D860546310BD03
:2010A0000400002070B50546E8B10378F22B1AD14378022B01D1FFF7A5FC0026AB782E8038
:2010C00013F0010008D0094B2946D3F88C4024B12046FFF76FFD304670BDD3F88000FFF759
:2010E0007EFE2046F8E76FF00300F5E704000020006810B103685B6818477047836801462E
:201100000BB103221847704710B50446FFF7F6FF204610BDF0B5002613688BB01660074667
:201120000C200D46009309F0D3FA009B06604360067204461C22314603A800960BF0DCFBA9
:2011400001230293EB6801932B6805936B680693AB684BB10793EFF305821AB9FFF76EF817
:2011600020B1226009F08CFA1823F3E721460748DFF81CC001AA00DF20600028F2D068467D
:201180003C60FFF7B5FF38460BB0F0BD1B020008190E000870B505680DB909F071FAD5E955
:2011A0000616FFF7E7F80446A0FB0101002304FB06110A4A08F07AF82A690146EFF305831C
:2011C000002BEAD1FFF73AF80028E6D11046DFF810C000DF0028E0D170BD00BF40420F00F0
:2011E000290A000838B551EA000305461CD000291ADBFFF7BFF80446A0FB0505002304FB76
:2012000001510A4A08F052F80246EFF305830BB109F036FAFFF712F80028F9D11046DFF830
:2012200010C000DF0028F3D138BD00BF40420F005D080008024638B5EFF3058313B162B9E3
:2012400009F01EFAFEF7FAFF0028F8D110460121DFF830C000DF044610E01378F32BEFD1DD
:20126000012102F10C0353E8000F40EA010443E8004505B1F7E71046FFF708F9002CDFDB9A
:2012800038BD00BF870600082DE9F047D1E900980646202015461F4609F01AFA4FF0000AC4
:2012A00004460146C0F808A02846FEF7A5FFA268AB68E968AA60E268C4E90698C4E9031A5F
:2012C000A360EA600BB909F0DBF959EA080302D0B8F1000FF7DBEFF30582002AF3D1FEF73A
:2012E000ADFF034608B12261EDE722460648DFF81CC087F0010100DF20610028E3D0304656
:201300003460BDE8F08700BF3D130008310D0008026808B572B1EFF305830BB109F0B0F9AE
:20132000FEF78CFF0028F9D11046DFF80CC000DF0028F3D108BD00BFDD0F000810B50446F0
:201340000069FFF7B4FBB8B1A3680BB909F068FB2046E368984778B92269EFF305830BB179
:2013600009F08EF9FEF76AFF0028F9D11046DFF80CC000DF0028F3D110BD00BF710A0008CA
:2013800008B5044CA36803B9FEE72046E3689847F8E700BF880A002038B51F4C217A012997
:2013A0002FD0B1BB9C2204F108000BF0A5FA1B4B1B4DE3651023A4F8543005234FF4004158
:2013C00028462364FFF70CF808B1C4F8805000210846FFF705F8B0B9D4F880300021084623
:2013E0006367FEF7FDFF80B9D4F8803000210846A367FEF7F5FF50B9D4F88030E367012328
:201400002372002038BD0023E8E70023EEE70023F4E74FF0FF30F5E704000020D00A0020D2
:20142000180B002038B52A4C237A012B03D04FF0FF35284638BD0021264A2748FFF7ECFCB6
:20144000A06200F055F805460028F0D1234AE16C2348FFF7E1FCA0640028E8D0FF23214AB0
:20146000214982F8223092F82230D26863F0FF03DB4314BFB3FA83F32023C2F30222C3F1E7
:201480002003934298BF531CFE2202FA03F3154ADBB2D377FF2382F823304FF0E0230622ED
:2014A0001A6147F6FF425A6100229A6181F840204FF0FF3222611A690C4842F001021A6108
:2014C000FFF722F8FFF782F802232372B1E700BF040000209842010881130008BC420108D1
:2014E0006118000800ED00E0D00A00202000002038B5FA230C4C00252370082304F10C001E
:20150000C4E9093514220421084BC4E90155C4E90B556580FFF76EFB054B064A28461A674F
:20152000054ADC641A6538BD188B00204C8B0020040000203D150008A9170008F8B5817802
:2015400004468568002936D04368C6687BB39D60A26872B35360002706F10C05214628463B
:201560002770FFF727FBB368002B48D02846FFF762FB0446002842D03046FEF7C5FF05469F
:201580003A463946FFF75CF8AD6B726A696A04F10C0007F0DBFEF923214630462370A770C7
:2015A000AB6A2035E370BDE8F840FFF7F9BBF562CEE73363CFE7AB68F3B15B78832B1BD16B
:2015C0002846FEF7A1FF06460A46FFF739F8B66B6A6A04F10C01706A07F0B8FEB36A203654
:2015E0000BB1E2781A7000232370214605F10C00BDE8F840FFF7DEBA21462846D3E7F8BD7D
:201600002DE9F0410C4690461F460546002841D00378FA2B3ED100293CD08368B3B15B786C
:20162000832B13D1FEF770FF064601220021FFF707F8B66B21466A6A706A07F087FEB06A63
:2016400010B180F800800020BDE8F08105F10C00FFF7F1FA064678B121466A6A0C3007F0D5
:2016600075FE0024F923314628463370B47086F80380FFF795FBE6E77FB139469320FFF75F
:20168000ADF820B1064B28465969FEF72BFF6FF00100D9E76FF00300D6E76FF00200D3E7DA
:2016A00004000020F8B59C460D461746044600286BD00378FA2B68D1002966D000F12803C6
:2016C00053E8002F12B9BFF32F8F04E0501E43E8000606B1F4E712B10122E66A7EB9BCF136
:2016E000000F55D061468320FFF778F820B12D4B20465969FEF7F6FE6FF0010023E0B01C7D
:20170000D0E84F3FC0E8412F01B1F9E7DBB2002B41D0B668E2E79A60B268AAB15360284699
:20172000626A06F10C0107F011FE0FB1F3783B70002504F10C07314638463570FFF73AFA0C
:20174000A3681BB90020F8BD2363E8E73846FFF772FA06460028F5D02046FEF7D5FE0746EC
:2017600029460122FEF76CFFBF6B626A796A06F10C0007F0EBFDF923B5703370BB6A31463C
:201780002046F370FFF70CFBDCE76FF00300DAE76FF00200D7E7D6E90132002BBBD1E26291
:2017A000BAE700BF040000202DE9F74F2A4E746C002C4AD04FF000094FF0F90B7369DFF86D
:2017C0009CA001932369013B23612369002B3AD1E3680BB1A2689A60F76C736404F11808D1
:2017E000EFF305830BB167B9FEE7FEF727FD02460028F8D1384641461346D44600DFC0B1A4
:20180000F2E73B78FA2BEFD107F10C00FFF713FA05460028E8D041467A6A0C3007F096FDF4
:201820002846C5E9018785F800B0A5F80290FEF72DFEE378DB070BD520466169FFF7C7F886
:20184000746C002CC1D1019B736103B0BDE8F08F01236370F4E700BF0400002001160008CF
:20186000044607B50A4DEFF30583002BFBD1FEF7E5FC02460028F6D1204669464FF0FF3317
:20188000AC4600DF0028EED1DDE900309847EAE7A5160008002313B5ADF80630064BDC69CB
:2018A0002243DA6140F2013300916946ADF80430FEF766FC02B010BD003802402DE98048DB
:2018C000384B89B00793384B384A0693002302A9CDE9022301A8002304AAFFF7D5FC04A87E
:2018E000FFF70CFC01A8FFF755FCFEF755FD00250146FEF763FD2E4C02462B46A1FB04011E
:2019000008F00CFB022305932A4B8046CDE906550493EFF305830BB108F0B2FEFEF78EFCDB
:201920000028F9D1DFF890C004A800DF05460028F2D00027214EDFF88890DFF888A03046D4
:201940003946FFF74FFCEFF30583002BE4D1FEF775FC0028E0D128464FF0FF31CC4600DF70
:2019600083460028D8D1FEF717FD0146FEF726FD5B460246A1FB040108F0D0FAA0EB080185
:20198000504610F02FFEEFF30583002BC4D1FEF755FC0028C0D12846DFF82CC000DF002823
:2019A000CDD0B9E7191C00081D0B0008C0C62D0000CA9A3BF44F0108C90C0008A0860100DB
:2019C000C9080008FA4F01083507000810B50446082108F03FFE204610BD10B504460C21BC
:2019E00008F038FE204610BD10B50446082108F031FE204610BD10B5046844B12046FFF772
:201A000087FC2046BDE81040042108F023BE10BD044683B5EFF3058343B9FEF70FFC0546EA
:201A200020B9DFF8B4C000DF064608B908F028FEFFF700FC042008F04BFE6268066001955B
:201A40005568506035B12846FFF762FC0421284608F000FE01A8FFF7CEFF204D204E6368D6
:201A60005B681A68EFF305836BB301211046FEF72CFC0028DADBEFF30583002BD6D1636820
:201A80005B681A68FEF7DAFB0028CFD11046012103224FF0FF33B44600DF0028C6DB6068F7
:201AA000036913B14369083098474FF47A736268106A576AA0FB030103FB0711FFF792FBC6
:201AC000FFF754F8CBE7FEF7B9FB0028CDD110460121AC4600DFCCE7650C0008CB02000859
:201AE0007908000810B50468C4B1EFF305830BB108F0C6FD2269FEF7A1FB0028F8D1104673
:201B0000DFF81CC000DF0028F2D12046FFF7F6FA2046BDE81040202108F09CBD10BD00BF83
:201B2000A510000810B5046844B12046FFF7DAFF2046BDE81040042108F08CBD10BD10B53A
:201B40000446FFF7EFFF204610BD70B5234D04462B6988B0002B2FD14FF47A730026A4FB59
:201B6000034003FB01011E4BCDE9024104931D4B04AA07931C4B02A9069301A83346FFF7B6
:201B800083FB04A8FFF7BAFA042008F0A1FD019B2C690360019604962861BCB904A8FFF752
:201BA000C1FF4FF40062114B28695A83FFF7F2FA01A8FFF797FF07E01B68002BCCD018692D
:201BC000FEF775FF0028C7D008B070BD2046FFF789FF0421204608F03DFDDFE7880A0020DF
:201BE000980A0020D50A0008E50A00080000024008B5BFF35B8F064B06489969BFF35B8F6D
:201C000010F0F0FCBDE80840322000219DE700BF880A00200650010808B50A200021FFF726
:201C200094FF012008BD036810B53BB1BFF35B8F1B7ABFF35B8F0BB908F022FD04689CB1AE
:201C40002268EFF3058333B9FEF7F8FA18B91046DFF818C000DF201DFFF74AFA2046BDE886
:201C600010400C2108F0F6BC10BD00BF1920000810B5046844B12046FFF7D5FF2046BDE80F
:201C80001040042108F0E6BC10BD10B504461830FFF7EEFF04F10800FFF730FA201DFFF7DE
:201CA000AAFE204610BD70B538488AB010F09AFC374C384BA56A0593374B0493002D49D1C7
:201CC00006A902A80895FEF797FA049B089A08930492059B099A04F1200106A805920993DC
:201CE000FEF78AFA089BA26AA3620892099BE26A06A8E3620992FFF701FA2946102206A85F
:201D00000AF0FAFD0C2008F0E3FC244B04F11806C0E9003601AA06A901906846FFF7FAF9EC
:201D200001A8FFF7E5F9042008F0D2FC009A06950095256B0260206335B12846FFF773FF41
:201D40000421284608F086FC06A8FFF791FF6846FFF769FF02A8FFF7D1F91022002106A8CB
:201D60000AF0CAFD082008F0B3FC0D4B02AA036006A9029001A8FFF7CDF902A8FFF7B8F975
:201D800001A8FFF750FF0AB070BD00BF13500108880A0020F11B0008050B0008E842010832
:201DA000FC42010808B5EFF3058313B1054B586908BDFEF743FA0028F8D1DFF80CC000DF76
:201DC000F6E700BF0400002031020008FEE7FEF7BFBA38B54FF0E023504D1B69EB68EC6ABC
:201DE0000133EB6004B3E369013BE361E3B96378732B7ED007D8532B6DD0632B72D0432BA6
:201E000005D123463FE0832B7AD0932B7FD02046FEF783FBFEF79AFB246924B1E369002B23
:201E2000E5D000236361EC620020FEF7DFFB2B6D03B198472A6C002A6FD0AB69E96B99425C
:201E400003D0D969EB6301B9DA61DA69002A60D12B7A022B61D16C6A002C5ED0EB6B94F975
:201E6000202093F920309A4257D12046FEF755FBE86BFEF76BFB2046FEF7A8FB2B6CEC6305
:201E8000E3614AE0DB681A78F12AFBD0BFE7DB681A78F12AFBD0DA789007B8D5D86890F979
:201EA0002120C36AD978890709D599688C4208BFA16821B191F920108A42B8BF0A465B6973
:201EC000002BEFD190F920309342A0D080F82020FEF72CFB9BE72346DAE7DB681A78F12A89
:201EE000FBD094E72346F9E7DB681A78F12AFBD08DE72346F9E7DB681A78F12AFBD086E7B3
:201F00002346F9E7DB681A78F12AFBD07FE72346F9E7013ADA61002A9AD038BD04000020EB
:201F200070B5224C04F1560504F15A06B4F85410D5E85F3F13B9BFF32F8F04E05A1EC5E8B9
:201F4000502F00B1F4E79BB25BB33046FEF791FAE36D53F8200020B30378F13B082BE5D800
:201F600001A252F823F000BF8D1F00082D1F0008931F00082D1F00082D1F0008971F00087A
:201F80009B1F00082D1F00089F1F0008236E9847CCE7636EFBE7A36EF9E7E36EF7E7236FDD
:201FA000F5E70020BDE87040FEF720BB04000020036B826B934205D21868034BC31A584290
:201FC0005841704700207047A52E5AE238B5114D2B7A022B1DD16B6ADBB16C69E06AFEF74B
:201FE00087FB2046FEF7E4FC05F11C00FEF78CFAFEF7ECFAEFF309832046A363FFF7D8FF15
:2020000000B9FEE7002320466B61BDE83840FFF715B838BD0400002010B50446002840D08D
:202020000378F12B3DD1437803F00F03022B06D0032B26D0012B21D06FF002002CE01A4B25
:202040001A7A022AF8D15B6A002BF5D0E06AFEF74FFB2046FEF7ACFC6378022B1DD1124965
:2020600001F11C00FEF750FAFEF7B0FAEFF309832046A363FFF79CFF40B9FEE7FEF74DFAEF
:20208000E4E7FEF74AFAFEF769FADFE700234B612046FEF7D3FF002010BD0020FEF7A6FA80
:2020A000F6E76FF00300F7E7040000202DE9F84F0F4616468946DFF8B4802D4DDFF8B4A052
:2020C000A9EB07039E4202DC3046BDE8F88F19F8014B0D2C0ED098F84030192B0DD80A2C2F
:2020E00018D10D2BECD80E23022488F84030B1206C8305E0002388F840300224B0206C8317
:20210000FEF71BFD0020FEF718FD1120FEF715FD2C83D5E70133DBB20E2B88F8403014D116
:202120004FF0020B0020FEF708FD0020FEF705FDB120A5F81AB0FEF700FD0020FEF7FDFCEA
:202140001120FEF7FAFCA5F818B04FF0060B203CE4B20BFB04A414F8010B0BF1FF3BFEF7CB
:20216000ECFC1BF0FF0BF6D1AAE700BF880A0020000402402C430108134B1B8ABFF35B8F3C
:2021800013F0100F114B17D053E8002F013A43E800210029F8D10422BFF35B8F0C4B5A6123
:2021A0000C4AD2F8003423F00403C2F800340A4BDB691868FFF73EB853E8002F013243E8F6
:2021C00000210029E7D0F7E700040240A00A00200004014000000140880A00207047FEE73C
:2021E000FEE7FEE7FEE770473F4B82B01A6842F480721A6099683D4A0A409A601A6822F039
:20220000885222F001121A601A6822F480221A609A6822F47D029A600022DA60009201927F
:202220001A6842F001021A601A6802F002020192009A01320092019A1AB9009AB2F5A04F65
:20224000F2D11B6813F0020318BF01230193019B012B43D14FF40061254B1A68A3F58063B4
:2022600042F00402C3F80024D3F8002442F00202C3F80024D3F8002442F00102C3F8002440
:202280005A6A42F080525A621A4A11605168C906FCD49A689A609A6842F460529A609A68AB
:2022A0009A609A6822F47D029A609A6842F408029A601A6842F080721A600B4B1A689201CC
:2022C000FCD59A6822F003029A609A6842F003029A609A6802F00C020C2AFAD14FF0006243
:2022E000054B9A6002B07047003802400CC0FF88003C02400070004000ED00E01EF0040F42
:202300000CBFEFF30880EFF30980816911F8021C00292ED101B590E80F10E047BDE800507B
:20232000CCF80000224B93E80600914208BF70471A60A9B1ACF1200CC1F838C006B4084644
:20234000FFF736FE06BC38B90120FFF73FFD184B5A681A60002103E0D1F838C08CE8F00F76
:202360001400A06B6FF0020EB0E8F00F80F309887047104A13689942FAD801B552F821C01A
:202380000FC8E047BDE80050CCF80000704701B5FFF7C6FDBDE80140EFF3098CC2E701B5A4
:2023A000FFF717FDBDE80140EFF3098CBAE7000018000020C84501088446481E70B54F28FB
:2023C00042D8DFE800F028282828414141413F3F283F3F3F3F3F3F3F3F3F3F3F3F412A2A59
:2023E0002A2A2A2A2A2A283F3F3F3F3F413F2A292841282A2A3F2941413F3F3F282828287F
:20240000283F28283F2841413F3F3F4141413F3F3F282A282A2ABAB1B3B1DCE90540844272
:2024200012DA0026DCF8105004EB840E05EB8E000134C0E90166CCF8144005F82E10C0E916
:20244000032370BD002AE8D1002070BD70B5C268864611786E2924D03039CBB2092B2AD8AE
:20246000002600206FF00045144C06E01946EB1AA4FB03C3B0EBD30F10DC0132CEF80C20D5
:20248000137800EB8000303B5FFA83FCBCF1090F01EB4000EAD906B1404270BD4FF0FF307B
:2024A00070BD531CC36051783039CAB2092A02D81A460126D5E7002070BD00BFCDCCCCCC22
:2024C00010B5044629B9C3681A786AB15A1CC2601978682917D0762906D12046FFF7B6FF0B
:2024E000E3681A785F2A01D0002010BD01332046E360FFF7ABFFE3681A785F2AF4D10120EF
:202500000344E36010BD2046FFF7A0FFF3E700BF10B4C3680A46197852290DD04F2902D05E
:20252000104610BC70472021C46A0334C4625C1CC460002310BC3FE7C46A1F210234C4627B
:20254000F5E700BF002965D070B506460C46A368012B03F1010336DCD6F81C51B5F5806FAA
:2025600031DC2278A360531E4F2B2CD8DFE803F03030304B2B2B2C2C3030303030303030FF
:20258000303030303030302B30303030303030303030414130302B3030303028303030302B
:2025A000302B2C303030303030303030303030302B2B30282828282B303030303030303053
:2025C000E468002CC3D170BD2469002CBFD1FAE7E16801353046C6F81C51FFF7B3FF30465A
:2025E0002169FFF7AFFFD6F81C31013BC6F81C3170BDE1680B78052BEBD1D6F838310133FB
:20260000C6F83831E5E7D6F84431E1680133C6F84431DEE7704700BFC3681A785F2A01D082
:202620000120704710B55A1CC2605A7804465F2A04D0FFF70BFFC043C00F10BD0233C360F5
:20264000FFF704FF002809DB092809DDE3681A785F2A03D101330120E36010BD002010BDD2
:20266000012010BD28B909E0002908DD0069013940B103782F2BF7D0002070477047FBD10A
:20268000C0687047704700BFF0B514465268A5684B1C1344AB420E46074683B011D8E5686A
:2026A0006DB96368206832461844394606F04EFED4E9003233449D5463683344636003B0FD
:2026C000F0BDE268002AFAD155B16D00AB42FCD8294620680AF0A8F938B12060A560DEE715
:2026E000022B4FF00205F0D8F2E70190206809F057FD0122019BC4E90033C4E90232DEE71B
:202700000378722B07D0562B05D04B2B03D0442B03D00020704701207047407800F0DF03B0
:202720004F2BF8D0773801288CBF00200120704770B50D46D0F800110446FF2906D04B1C3C
:20274000C4F80031655484F8045170BD0026D0E9423280F8FF60984701233146D4F828211C
:20276000C4F800311A44C4F82821655484F8045170BD00BF0346D0F8100190B1CB68426853
:20278000002B10690BDB20B909E03BB10069013B30B102782F2AF8D000207047C06870472A
:2027A00070470122C3F81821704700BF002942D038B505460C4623784C2B32D8DFE803F03A
:2027C0002F31313131272F37373131313131313131313131313131312F31313131313131DD
:2027E000313131313131312F313131312F31313131312F37313131313131313131313131B9
:20280000312F2F3131312F2F2F31312F2F0021462846FFF7AFFF10B103782F2B00D000204A
:2028200038BD2846E168FFF7C1FF0028F8D12469002CC0D1F3E70020704700BF2DE9F04144
:20284000044608460D460AF029FE40B3013D4FF00008D4F800112F1809E00B46BD4201F1A5
:202860000101C4F80011E65484F8046117D0FF2915F8016FF1D1D4E94232204684F8FF808E
:20288000984701210023D4F82821BD420A44C4F82821C4F80011E65484F80461E7D1BDE868
:2028A000F08100BF38B5C3681A78542A25D15A1CC2605A7804465F2A21D06E2A1DD0FFF721
:2028C000C5FD421C19D4E36819785F2915D10133E360D4E905318B420FDA00254FF0050E0A
:2028E000216903EB830C01EB8C000133C0E90155636101F82CE0C26038BD002038BD0233FC
:202900000022C360E5E700BF2DE9F04188B00A4604461A4901A80AF0ADFB01A80AF0BEFDC2
:2029200040B301AD4FF00008D4F800112F1809E00B46AF4201F10101C4F80011E65484F8E9
:20294000046117D0FF2915F8016BF1D1D4E94232204684F8FF80984701210023D4F82821FD
:20296000AF420A44C4F82821C4F80011E65484F80461E7D108B0BDE8F08100BF405301084A
:2029800070B50446FFF762FD051E46DDE66863689B1B9D423EDCA26873195207E36004D55A
:2029A000725D242A04BF0133E360092D22DD08223046294909F0F0FE30B9337A2E2B2ED0A5
:2029C0005F2B2CD0242B2AD0D4E90532934221DA0022206903EB830100EB81000133C0E9FE
:2029E0000122636100230370C0E90365C0E90133A06270BDD4E9053293420BDA00222069E4
:202A000003EB830100EB81000133C0E901226361002EE7D10020A06270BD002070BD737AA5
:202A20004E2BD1D1E26A6369A1691632551B8B42E562EFDA03EB8300013363611521002302
:202A40002269064D860002EB8000C0E901339355C0E90351DFE700BF445301085053010812
:202A60002DE9F843C3681A78532A31D15A1CC2605A780446A2B39A1CC2605A785F2A44D079
:202A8000A2F13000C3B2092B26D800210DE0303B99421DD8E1680A78481C1AB1E0600A78C7
:202AA0005F2A3CD01946A2F13000C0B201EBC1030928A2F1410C02EB8303E8D9BCF1190F23
:202AC00006D801EBC10302EB8303373B9942E1D900252846BDE8F883A2F14103192BD4D973
:202AE000A36803F00803002B14BF0125002500D1B9B9404B742103F1A80001E013F81C1F5E
:202B0000914215D08342F9D1E2E70023226A9A42DED9E26952F823502846BDE8F883013399
:202B2000F4E7E3681B78433B012B98BF0D46E0E75E69002E56D0D4E905208242D3F818809D
:202B400055DA4FF0000E4FF01809276902EB820C07EB8C010132C1E901EE626107F82C90C5
:202B6000C1E90368A162002D39D0D3E90371E36A90420B44E36238DD00264FF0180C2369FA
:202B800002EB820003EB80050132C5E90166626103F820C0C5E90371E3681A78422A98D199
:202BA000A66A0133E3602046FFF7EAFE2A4603464C212046FFF700FCE36805461A78422A38
:202BC000EFD0A662002883D0D4E908329342BFF67FAFE1695A1C41F82300226279E7D3E948
:202BE0000171C4E7D4E90520BDE70025D4E70021B8E700BF284801082DE9F8438F18B94267
:202C00004AD20C4605464FF000080CE0D5F80011FF2933D04B1CC5F800316E5485F80461C6
:202C20000134A74238D93B1B032B2678EEDD5F2EECD163785F2BE9D1A378552BE6D1E21CBF
:202C40009742E3D9002105E0A6F13703BA4203EB011123D0914612F8016BA6F13003D8B278
:202C60000928A6F1410CF1D9BCF1050FA6F16103EAD9052B14D8A6F15703E7E7D5E94232E9
:202C8000284685F8FF8098470123D5F8282100211A44C5F82821BEE7BDE8F8835F26B5E746
:202CA0004F45FBD95F2EF9D1FF29AFD8CEB2D5F80011FF2907D04B1CC5F800314C466E54A0
:202CC00085F80461ACE7D5E94232284685F8FF809847D5F8283100210133C5F82831EAE7A2
:202CE0002DE9F043C268044683B01046FFF708FD00286ED11178A1F130034A2B64D8DFE866
:202D000013F0B900B900B900B900B900B900B900B900B900B9006300630063006300630087
:202D200063006300FF016300CE00440163003E01E101630063006300630063004102B900E8
:202D4000D301C5016300B7011A01F400DC006300630063006300B900630063006300630002
:202D6000630063009800980098009800980098009800980098009800630098009800980072
:202D8000980063006300630098009800EF01980098009800980098000123256B20462363BA
:202DA00001F0FAFB25630246002343212046FFF703FB0546019038B1E3681A7822B15A1C91
:202DC000E2601B78452B5CD00025284603B0BDE8F0830022204601A901F03AFE0546002856
:202DE000F2D0E36820461B78462B1ED0FFF778FF28600028E8D003781F3B012B05D8019A20
:202E0000C368C2602A6801922B60019D002DDBD0D4E908329342D7DA2846E1695A1C41F85B
:202E20002350226203B0BDE8F08300F069FC2860DFE7B248613901EB8101636900EB8101F2
:202E4000A069834280F25A83571C4FF0270C0022206903EB830600EB86050133C5E90122D3
:202E6000636100F826C0E36AE9604968E7600B44E362AAE7204600F011FE05460190002D8F
:202E8000A2D0D4E9083293429EDAE1695A1C41F82350019D2262284603B0BDE8F083013282
:202EA000E2602046FFF71CFF0023024625212046FFF782FA05460190E1E70132E260204651
:202EC000FFF75EFDE36801901A780546492A00F0B9822046FFF704FF21210246019B20465F
:202EE000FFF76AFA05460190C9E72046FFF7DAFCE668019033780546492BC0D1636B002BE7
:202F000040F0C88200283FF45FAFD4E908218A42BFF65AAFE16941F8220001322262327858
:202F2000493A012A05D801362046E66001F066FE03462A461CE05378A3F13002092A05D977
:202F40005F2B03D0413B192B00F2978200212046FFF786FDE36801901A780546492A7FF4AA
:202F600034AF0133E360204601F048FE2A46034604212046FFF720FA054601907FE720465E
:202F800000F0BEFB0546019079E7531CE3605378002B3FF419AF931CE3605378463B302B10
:202FA0003FF612AF01A151F823F000BFB5310008C92D0008C92D0008C92D0008C92D000878
:202FC000C92D0008C92D0008C92D0008C92D0008C92D0008C92D0008C92D0008C92D000801
:202FE000C92D0008992D0008C92D0008C92D0008C92D0008C92D0008C92D0008C92D000811
:20300000C92D0008C92D0008C92D0008C92D0008C92D0008C92D000855320008C92D00082F
:203020002932000807330008D7320008A7320008C92D00087732000825340008C92D0008EB
:20304000C92D0008C92D0008C92D0008F7330008C92D0008DF330008C92D0008C92D000830
:20306000AF330008992D00087F330008253300080132E2602046FFF733FE002302462321CD
:203080002046FFF799F905460190F8E60132E2602046FFF725FE0023024622212046FFF78A
:2030A0008BF905460190EAE60132E2602046FFF717FE0023024624212046FFF77DF905462D
:2030C0000190DCE60132E2602046FFF709FE0023024626212046FFF76FF905460190CEE6BF
:2030E0000132E2602046FFF74BFC0023024628212046FFF761F905460190C0E6EC4801088F
:20310000511CE16053785F2B00F09A81303B092B00F2A5810B461D460133E3601A78303AC3
:20312000092AF8D9D4E905208242A3EB010CBFF64BAE0020D4F810E002EB82070EEB8706C4
:2031400001328445C6E901004FEA870762617FF73BAEC6E901000EF80700C6E9031C1946F0
:203160006B785F2B7FF430AE0131E1602046FFF7B7FD324603462A212046FFF71DF9054645
:2031800001907CE601322046E260FFF7A9FD054600283FF419AE2046FFF7A2FD03460028EC
:2031A0003FF412AE2A462B212046FFF705F90546019064E6D4E905318B4280F2A381002664
:2031C0002C27216903EB830001EB8005C5E9016601336361019501F820709378303BDBB201
:2031E000092B94BF012333462B8203D82046FFF72DF9019D2046FFF773FD019BE860DB6810
:20320000002B3FF4E1AD2046FFF720F9E268137813B1531CE3601378A3F17303B3FA83F34A
:20322000019D5B096B82D0E5D4E905329342BFF6CBAD03EB8305013363610E2100232269A9
:20324000B248AE0002EB8505C5E901339355C5E90301BAE5D4E905329342BFF6B5AD2269C9
:2032600003EB83050133AE00636104210023A84802EB8505E8E7D4E90532934280F23E81BA
:2032800000202727226903EB830102EB81050133C5E90100636102F82170E36A9D4E0433AF
:2032A000EE60E36291E5D4E90532934280F2268100202727226903EB8301974E013302EBB2
:2032C0008105C5E90100636102F82170E36AEE600933E36279E5D4E90532934280F20E8126
:2032E00000202727226903EB830102EB81050133C5E90100636102F82170E36A874E0A335F
:20330000EE60E36261E5D4E90532934280F2F680226903EB830100202727814E013302EBC8
:203320008105CEE793785F2B00F0DA80D4E905329342BFF649AD00264227226903EB830173
:2033400002EB81050133C5E901662046636102F82170FFF77BF8E860E3681A785F2A7FF472
:2033600033AD0133E3602046FFF7BAFC2A4603462D212046FFF720F8054601907FE5D4E96C
:203380000532934280F2BA8000202727226903EB830102EB81050133C5E90100636102F8F6
:2033A0002170E36A5F4E0733EE60E3620DE5D4E90532934280F2A28000202727226903EB7F
:2033C0008301594E013302EB8105C5E90100636102F82170E36AEE600833E362F5E42046C3
:2033E000FFF77EFC002302464B212046FEF7E4FF0546019043E5D4E9053293427EDA002003
:203400002727226903EB830102EB81050133C5E90100636102F82170E36A444E1133EE604B
:20342000E362D2E4D4E90532934267DA226903EB8301002027273E4E013302EB8105C4E73E
:20344000002691E60133E360204601F0D7FB2A46034604212046FEF7AFFF019039E5012375
:20346000256B2046236301F097F82563064600283FF4AAACE1680B7873E6204600F00EFB47
:203480000546019000283FF49FAC0378182B7FF4F8AC9AE4731CE3602046D4F81490D4F8E3
:2034A0002080E76A01F0AAFBE3681B78492B07D0019DE660C4F81490C4F82080E762DEE4B1
:2034C000019A002A3FF480ACD4E908139942BFF67BACE569034645F821200131216247E543
:2034E00001230332256B2046E260236301F054F82563054600287FF42FAF65E4002301932C
:20350000DB68FFDE00231B70FFDE00BF7053010868530108304B0108F44A01081C4B010876
:20352000084B0108444B0108584B0108804B01086C4B0108F8B5C36806461F7877BB4FF02B
:20354000000E452100223C4D8B1A03EBD37302EB630318012C5805EB031C2078B84206D00C
:203560008CBF19465A1C8A42EED10020F8BD60787045F5D1D6E905329342F6DA0024322562
:20358000326903EB830102EB81000133C0E90144736102F82150C0F80CC0F8BD5A1CC2607E
:2035A00093F801E01F78BEF1000F02D1762FC8D0C5E79A1CC260762F93F801E01FD1AEF116
:2035C0003004E3B2092BBCD8FFF7DAF9D6E905318B420246C9DA0021356903EB830087002D
:2035E000013305EB8000C0E901117361002ABCD03323C0E90111EB55C0E90342F8BD632F5C
:203600009FD1BEF1760F9CD1D0E90C34B3FA83F35B094363FFF764FB736B024633B10023F1
:2036200035213046FEF7C8FE7463F8BD34213046FEF7C2FEF8E700BF944B0108002330B569
:20364000C26883B00193137823B3044601AD12E04F2B16D02046FFF743FB0246D0B1002348
:203660002E212046FEF7A8FE286098B1E26800F11005137843B1452B06D02E2B04D0522B6A
:20368000E6D15378452BE5D1019818B1036923B103B030BD002003B030BDC268117827297D
:2036A000F6D1D268117C0929F2D1E16A5268891AE162C360ECE700BF70B5C36805461A78BA
:2036C0004A2A1AD081B12846FFF70AFB044690B12846FFF7B3FF034668B122462846BDE873
:2036E00070402921FEF768BE28460C46FFF7A6FF03460028F1D1002070BD0133C360E2E7BA
:2037000010B50446806810F480200BD1A26BB2F5006F06D8511CE368A1631978462907D09E
:20372000A26310BDE3681A78462A01D0002010BD5A1CE2605A780121592A04BF0233E36042
:203740002046FFF7B9FF01462046FEF7E1FEE3681A78452A04BF0133E360A36818BF00204C
:203760005B03DED4A26B013ADAE700BFF8B5C36804461A78A2F13001092961D9A2F1610198
:20378000192914D86F2A04D15A786E2A04BF0233C3602046FFF7CEFE054610B10378322BFC
:2037A00069D0E3681978422951D02846F8BDA2F14301012940F28B804C2A79D0552A40F099
:2037C00083805A786C2A00F0D580742A7CD15A1CC2605978742940F098809A1CC2609A7816
:2037E0005F2A00F047816E2A6ED0FEF72FFE461CE36800F1288119785F2977D10133E36071
:20380000D4E90532934280F21D8100214827226903EB830002EB80050133C5E90111636119
:2038200002F82070226A636AEE609A4280F22681E069E368511C40F8225021621978B2E70A
:20384000FFF79EF8E368054619784229ADD1A66A0133E3602046FFF793F82A4603464C2138
:203860002046FEF7A9FDE368054619784229EFD02846A662F8BDC268E36A916807331268A7
:203880000B44E36213786C2B8BD15378692B88D19378002B85D12046FFF772F82A46034653
:2038A00037212046FEF788FDE368054619787AE70133C360FFF764F8054628B12046FEF720
:2038C000ABFE00287FF46DAF00252846F8BD866A86B1317861B93169E26A0A44E26219784D
:2038E00043290A4600F08780442905D000255AE71829F0D0432A7ED059783039052936D83B
:20390000DFE801F0062C2935322F134600254AE74FF0010ED4E9052103F1020C8A42C4F894
:203920000CC080F2A3800020276902EB820107EB81050132C5E9010089006261002E00F042
:2039400095800822C5E901007A5485F80CE02E619978634627E74FF0030EDBE74FF0020E8A
:20396000D8E74FF0050ED5E74FF0040ED2E71146002518E75A1CC26059786C29C5D102332C
:20398000C360FFF75BFEE368064600285BD019784529ABD15A1CE2605A785F2A76D06E2A5F
:2039A00092D02046FEF752FD0130E3684BD419785F299BD10133E360D4E905218A4242DA99
:2039C00000214FF0460E276902EB820C07EB8C050132C5E90111626107F82CE0C5E90360D3
:2039E000D4E9082082422EDAE16941F82250013222621978D7E65A78492A27D0A2F131011B
:203A000004293FF661AF303A0233D7B2E360D4E90532934216DA0021226903EB830002EB06
:203A200080050133C5E901114FEA800C63614EB30723C5E9011102F80C30E3682F732E61E7
:203A40001978B0E6E36800251978ACE6581CE0609A78A2F1310104291CD80333303A2046FA
:203A6000E360D7B2FFF73CF9A66AD0E799780025634698E603330026C360C1E6E3680D4667
:203A8000197890E6E368354619788CE602330020E36091E759780025034684E62DE9F04750
:203AA000C2680446137884B04E3B0C2B08D8DFE803F0310707070717071307070707860059
:203AC000FFF754FEE36805461A78492A00F0CB80284604B0BDE8F08704B0BDE8F04745E6CF
:203AE0005378742B00F0D1800021FEF7B9FFE36805461A78492AEBD10133E360204601F028
:203B00007DF803462A460421204604B0BDE8F047FEF752BC531CC360012203A900F098FF71
:203B20000746002800F0E98000212046FEF7F0FCE2688046167836B34FF0000ADFF8B8925E
:203B4000442E00F0DF80A6F13003DBB21C2B40F21D81A6F16103192B00F21A812046FFF70E
:203B600005FE0546BAF1000F06D001212B4652462046FEF721FC0546532E0ED1AA46E268DF
:203B80001678002EDCD100231D463B60A0E7FFF7A7F80546BAF1000FE7D1E2681678452E77
:203BA00000F0BF80002DEED0D4E908318B42EADAE169AA4641F8235001332362E0E7531C8F
:203BC000C3605378472B02D0542B40F0B880204600F0D2F90546002D00F08F80E3681A7857
:203BE000452A40F08A805A1CE2605A78732A00F00781642A00F0A8802046FFF74FFF0346E4
:203C000028B30278462A22D0482A20D04FF0FF3620460193FEF700FD019B00286DD0721C9C
:203C200015D09C46D4E905239A4280F2188100274FF0470E216902EB820001EB800301329B
:203C4000C3E90177626101F820E0C3E903C62A78032A05D12A691178292904BF0021D160E7
:203C60002A46022150E7002847D0D4E908218A4243DAE16941F82200013222621A78493AFB
:203C8000012A7FF639AF00233CE70232D0E905318B42C26080F2D18003EB83050133436133
:203CA0000321002302695548AE0002EB8505C5E901339355C5E903012046FFF757FD2A46F4
:203CC000034601212046FEF777FBE26AE3680332E2621A780546492A7FF4FAAE68B1D4E95B
:203CE00008218A4209DAE16941F82200013222621A78493A012AC6D8FEE60025284604B087
:203D0000BDE8F0875378204603F0DF03542B3FF43EAFFFF72BFD0546BAF1000F7FF425AF78
:203D20003BE7152329FA03F3D90740D52046FFF71DFD15B1AA46054617E705462DE7002126
:203D400000F09CF8054646E79A1CE2609A785F2A00F081806E2AD0D02046FEF777FB461C7C
:203D6000CBD4E3681A785F2AC7D10133E3602046FFF794FE034600283FF453AF1A78462A99
:203D80003FF44FAF482A3FF44CAF41E75546C9E7552E2FD0532E09D101212046FEF760FE27
:203DA0000546BAF1000F7FF4E0AEE7E65546492E45D0542E55D0452E09D04D2E7FF4E3AE97
:203DC000002D3FF4E0AE0132AA46E260D8E63D60002D92D0B8F1000F04D0039BCDF80C802B
:203DE000C8F80C30E3681A78452A86D10133039DE3606DE6554699E7FF0308109053010899
:203E000002332046E360FEF707FC00283FF475AFD4E905239A4222DA02EB82030132626128
:203E20000E2000222169144E9F0001EB8303C3E90122CA55C3E9036009E700253CE7002DD3
:203E40003FF4A1AE01322046E26000F0D7FEAA46042105468AE603330026E36087E7002340
:203E6000F5E62046AA46FEF71DFD0546BAF1000F7FF47BAE91E600BF8053010870B50546DF
:203E80000E46FFF70BFE002849D00446EEB1AB68DB071AD423784D2BA3F11C01A3F14F0219
:203EA00035D032D8042932D9022B0CD12369002B35D01A784D2AA2F11C00A2F14F012AD060
:203EC00027D8042827D9204670BDEB681B78002BF9D0452BF7D021460B78042B32D026D8FA
:203EE000022B22D109690029F6D12846FFF7E4FB0346A0B116B92278022A37D022462846F1
:203F0000BDE870400321FEF757BA012ADBD8E468C0E70129D7D8DB682361002BC9D10024C8
:203F2000204670BD1C3B042B08D90021DDE74D2BA3F14F0202D0F5D9012AF6D8C968002952
:203F4000CAD1D2E7CB685BB11978082901F1FF3208D80629E9D8012A02D81B69002BF3D1A1
:203F60000121C2E7353918BF0121BEE70278292A08BFC660C2E700BF2DE9F041C16AC368AB
:203F800001F11402C2621A780446542A78D0472A28D15A1CC2605A7822B39A1CC2605A7800
:203FA000562A22D8402A1DD9413A152A1AD8DFE812F02701190019001900190019001900F4
:203FC000190019001900190019001900190019001900190005011900EB001900E100E36898
:203FE0000233E3600020BDE8F081722AFAD1FEF72DFA0128F6DDE3681A78002AF2D05E1C51
:20400000E6601B785F2BEDD100224FF041081746451E3378002BE5D0242B40F0E6817378B9
:20402000532B00F007825F2B00F00282242BD9D11946D4E905039842D1DA266900EB800CE3
:2040400006EB8C030130C3E90177606106F82C80E668D9600236023DE660002A00F0E6815B
:2040600040212046FEF7A8F902460028BAD0002DCFDC2046BDE8F04100233F21FEF79CB908
:204080005A1CC2605A78002AACD09A1CC2605B78413B352BA6D801A252F823F04D42000874
:2040A000E53F000861420008E53F0008E53F00089D420008E53F000819430008C34300084C
:2040C000AF430008E53F0008E53F0008E53F0008E53F0008E53F0008E53F0008E53F0008B2
:2040E000E53F0008D74300082D430008E53F0008454300085D430008E53F0008E53F00083E
:20410000E53F0008E53F0008E53F0008E53F0008E53F0008E53F0008E53F0008E53F00083F
:20412000E53F000871430008E53F0008E53F0008E53F0008E53F0008B1420008E53F0008C0
:20414000E53F0008E53F0008E53F0008E53F0008E53F0008E53F0008E53F0008E53F0008FF
:20416000E53F0008E53F0008E53F0008E53F0008E5420008FFF792FC0023024613212046D7
:20418000BDE8F041FEF718B99A78002A00F05481DA1CC2609A78DB786E2A46D0472B02D013
:2041A000542B40F049812046FFF7E6FE02462046BDE8F04100234921FEF7FEB8FFF76EFC2A
:2041C000D4E905129142064680F2408100234FF0420C226901EB810702EB87050131C5E9B1
:2041E00001332046616102F827C0FEF72FF9E8602B4632462046BDE8F0411621FEF7DCB838
:204200009B78472B01D0542B0AD12046FFF7B4FE02462046BDE8F04100231721FEF7CCB888
:204220000021FFF72BFE0246F3E7472B00F01A81542B00F017810021FFF720FE0246204635
:20424000BDE8F04100234A21FEF7B6B800F0ACFC0023024630212046BDE8F041FEF7ACB8AE
:20426000FEF73EFD05462046FEF7F0F80028FFF6B9AEE3681A785F2A7FF4B4AE0133E3604A
:204280002046FEF72DFDE16A0246481DE0622B462046BDE8F0410B21FEF78EB8FEF720FD39
:2042A000002302460E212046BDE8F041FEF784B86821FEF705F900283FF494AEE3681B7800
:2042C000472B00F0C580542B00F0C28000212046FFF7D4FD02462046BDE8F04100230F2161
:2042E000FEF76AB87621FEF7EBF800283FF47AAEE3681B78472B00F0B080542B00F0AD80A9
:2043000000212046FFF7BAFD02462046BDE8F04100231021FEF750B8FFF7C0FB0023024678
:2043200014212046BDE8F041FEF746B80A31C162FEF7D6FC002302460A212046BDE8F04122
:20434000FEF73AB80F31C162FEF7CAFC0023024609212046BDE8F041FEF72EB8FFF79EFB1D
:204360000023024615212046BDE8F041FEF724B80021FEF7A5F800283FF434AE0021204618
:20438000FEF79EF800283FF42DAEE3681B78472B6DD0542B6BD000212046FFF76FFD0246E4
:2043A0002046BDE8F04100231121FEF705B8FEF797FC0023024612212046BDE8F041FDF764
:2043C000FBBFFEF78DFC002302460C212046BDE8F041FDF7F1BFFEF783FC002302460D2120
:2043E0002046BDE8F041FDF7E7BFB446002104E01CF8013F23B1242B02D00131A942F7DBB0
:20440000D4E9053083421DDA206903EB830C0133636100EB8C03C3E9017700F82C70C3E912
:204420000361E6686D1A0E44E66016E61A461EE62E21FEE52F21FCE500212046FFF71EFD50
:204440000246B4E6E3680B44E360CBE50025CFE62046FFF791FD02463DE72046FFF78CFDD8
:20446000024652E72046FFF787FD0246E7E62046FFF782FD024693E7F8B5C26813784C2B50
:2044800032D1531CC360517804465F2951D05A2913D15A1CE2605B78472B43D0542B41D0C4
:2044A00000212046FFF7EAFC0646E3681A78452A1AD101333046E360F8BDFEF711FC064626
:2044C00090B10378272B12D0E26815786E2D23D03D21452D59D0134603E0E3601D78452D08
:2044E0002FD00133002DF8D100263046F8BDC3681A7C1AB1E26A5968521AE262254918680B
:2045000004F09AFF0028DFD1E2681578452D3ED06E2D01D03D21DEE7531CE36055783E2172
:204520001A46D6E72046FFF727FDE36806461A78BDE7931CC36092785A2A18BF0026B6D12D
:20454000A7E79D1AD4E9050398421CDA0027D4F810E000EB800C0EEB8C030130BD42C3E9C3
:2045600001774FEA8C0C60610DDDC3E901770EF80C70C3E9032532462046FDF71DFFE36894
:2045800006461A7893E70023F5E70025DAE70132E260AAE794530108C26813784C2B00F0CC
:2045A000A480542B00F0A280732B2DE9F041044665D0662B33D0A3F1300109290ED820460B
:2045C000FFF7D4F80546002800F08B80E3681A78492A00F08D802846BDE8F0816F2B5FD011
:2045E000692B40F0928053786C2B00F0B1802046FEF7A0FF0546002873D00378322B55D0B5
:20460000342B00F0A9816CD8332B6AD1C368032B67D8DFE813F0E600EE0066006600537877
:20462000702BE4D1931CC3609378542B00F03A815F2B00F0B6806E2B53D0FDF707FF411C60
:204640004FD4E3681A785F2A4BD16FF0004201339142E36045D00230D4E90532934240DAA0
:2046600000260627226903EB830102EB81050133C5E90166636102F82170E860ABE753783A
:20468000722B50D0702BB2D10232C260FFF784FF002302464B212046BDE8F041FDF78CBE1F
:2046A00053786E2BA3D10232C26088E7C168E36A8A680E68023A1344E3623378732B5CD131
:2046C0007278742A59D1B278002A56D12046FEF707FB03462A462046BDE8F0413721FDF70F
:2046E0006BBE00252846BDE8F081C5E6FEF7DAB80133E360204600F081FA2A460346042190
:204700002046BDE8F041FDF757BE742B7FF46FAF53786C2B7FF46BAF0232E260FEF7E0FAF0
:20472000E268054617E00232C260FEF7D9FA05462046FFF71BF8E36806461A78492A23D086
:2047400003462A462046BDE8F0410121FDF734BE00250232E26011780029C2D05378002B87
:20476000BFD04521204600F039F92A46034631212046BDE8F041FDF71FBECF68032FB0D8B3
:20478000DFE807F02F13663C0133E360204600F035FA3246034604212046FDF70DFE0346E7
:2047A000CFE703320120E26056E73278702A00F082806D2A7FD00027732B77D17378502BDF
:2047C00074D1B378002B71D1204600F017FA0346002F3FF47FAF1A4639212046FDF7ECFDBF
:2047E00077E72A462046BDE8F04100233621FDF7E3BD2046FFF7D0FE03466BE7712B68D107
:204800007378752B65D1B378002B62D12046FFF7C3FE06462046FFF7BFFE07462046FFF723
:20482000BBFE034600283FF45CAF3A463C212046FDF7C2FD324603463B212046FDF7BCFDEA
:204840002A4603463A212046BDE8F041FDF7B4BDEB681B685A78632A00F092803378662B30
:2048600000F09C802046FFF797FE07463378632B56D172786C2A53D1B278002A50D145210F
:20488000204600F0ABF8064633463A4639212046FDF792FD2A46034638212046BDE8F04149
:2048A000FDF78ABD03320020E260D5E62046FFF773FE03468CE7717891427FF47CAFE2683E
:2048C00011785F297FF478AF0132E2600027337872E73378662B6DD06E2B7FF402AF73786C
:2048E000772B02D0612B7FF4FCAE5F21204600F075F806462046FEF7F3F9E36807461A789B
:20490000452A67D0702A59D0692A7FF4EAAE5B786C2B7FF4E6AE2046FFF73EFE034684E7D3
:20492000642B26D17278742A23D1B2780ABB2046FEF71CFFE36806461A78492AA4D10133CB
:20494000E360204600F05AF93246034604212046FDF732FD064697E7E3681A785F2A7FF459
:2049600048AF0133E3604521204600F037F80346B0E6702B17D02046FFF70EFE064683E75F
:204980001B78A3F16302012A03D9723B012B3FF665AF2046FEF7A4F9074667E72046FEF774
:2049A000C9FD074662E77378742BE4D1B378002BBDD0E0E72046FEF7BDFD2AE75A78692A27
:2049C0007FF48FAE0233E3604521204600F006F803462AE70133E360002326E72DE9F041AD
:2049E0000E460023C26882B011780446B142019324D0012701AD0CE000232E212046FDF708
:204A0000DBFC286000F1100570B1E3681A78B2420ED0D4F8308020462763FFF7BDFDC4F889
:204A2000308002460028E7D1002002B0BDE8F08101980133E36002B0BDE8F081511CC16050
:204A40001A462E2102B0BDE8F041FDF7B5BC00BF2DE9F04FB2F10009C2680F460D464FF0E9
:204A6000010B044615BF4FF01E0A4FF01B0A4FF01D084FF01A0814BF1C261926117883B06C
:204A80001BE0562934D04B2939D053785BB3931CE3605178782952D06F2936D1E36A4F2168
:204AA0000933E362002300222046FDF785FC2860C8B1E26800F10C0511781046FDF720FE17
:204AC000002842D0531C7229E360DAD1E36A314603F10902E262002300222046FDF76CFC96
:204AE00028600028E5D10025284603B0BDE8F08FE36A414603F10902E2620023D3E7E36AA5
:204B000051469A1DE2620023CDE74F2939D1E36A20460933E362236BC4F830B00191009327
:204B2000FFF73AFD009B0199236303460028DAD0E26810784528D6D10132E260B3E7E36A30
:204B40004D211133E3620023ADE7B9F1000FCBD14629C9D1BD42C7D01D201E211C2204E015
:204B6000192B0CD00C37BD42BED03F683B781A2B03D01B2BF4D13970F4E73870F2E73A7019
:204B8000F0E77729AFD1E36A20460633E362FEF755FD03460028A6D0E26811784529A2D10B
:204BA00001325021E2607EE738B5C26813784C2B1FD0044607D8493B012B15D8BDE83840BF
:204BC0000132C2601AE0582B0ED101231A44056BC2600363FFF7E0FCE36825631A78452A04
:204BE0000AD10133E36038BD2046BDE83840FEF777B8BDE838403FE4002038BD70B5C26823
:204C000004461378866A452B82B04FF000031ED001AD01930CE000232F212046FDF7CCFB3B
:204C2000286000F1100548B1E3681A78452A08D02046FFF7B9FF02460028ECD1002002B0B6
:204C400070BD01980133E360A66202B070BD0132C2602F211A4602B0BDE87040FDF7ACBBC9
:204C60002DE9F04F044693B0002A5CD0D0F81851002D5BD113781646502B54D8DFE813F01A
:204C8000BF09050105018B011607930751066001B4027D0256022F02FC04D504AE04730485
:204CA0004C0437031003E902EF06C806A1067A06B8058000800080005900590059005900E1
:204CC000590059005900AD00AD005900590093097800C3025C05960050079600D000D00060
:204CE00064011809EE08C7085300A00865093D09EC055300EF015300530030013001BF07B8
:204D00002A02230570082208E6076C09490853002504FE03D70389035E03590031055900BE
:204D20005900C4F814210123C4F8183113B0BDE8F08F002200230493D4F8143103960293FE
:204D4000D4F81031059302ABC4F81431002A65D01121204602F03CF8049B002B01F0FA82AC
:204D6000029BC4F81431002DE0D0C4F81071DDE711212046F26813B0BDE8F04F02F028B84C
:204D8000D0F814E1BEF1000F3DD07246916849B950680078A0F1190CBCF1020F01F20C85B0
:204DA0008342E5D01268002AF0D12CE00023D0E9442102A8CDE90216C4F8140105921121B5
:204DC00020463269049302F003F8049B002B01F0DA84029BC4F81431A8E7D0F82051F16876
:204DE000002D41F0B5830B78052B01F0FB85232B01F0068332789A4201F00283242B01F0F5
:204E00006F86D4F814E102ABC4F814310023D4F81021CDF808E0CDE904320396F26897E704
:204E2000F26812B1112101F0D3FF3369002B3FF47DAFD4F80051FD2D01F2C184DFF84C8315
:204E40002C274FF00009294608F1010A0BE00B460131D045C4F80011E75484F8047101F0D7
:204E6000808218F8017FFF29F1D1D4F808312046D4F80C2184F8FF909847D4F82831012121
:204E80000133C4F828310023E3E7C14D1121F26801F09EFF3A274FF00009D4F8001105F138
:204EA00001080BE00B460131A845C4F80011E75484F8047101F08F8115F8017FFF29F1D11D
:204EC000D4F808312046D4F80C2184F8FF909847D4F8283101210133C4F828310023E3E707
:204EE000F2681178272941F08083D1680D7C062D01F28B82002D41F05085D4F80011FF291E
:204F000001F03A854B1CC4F80031282320466354112184F8043101F05BFFD4F80011FF29F2
:204F200001F01A854B1CC4F800312923635484F8043133783E2B01F00985082D01F0FA84A2
:204F400011212046326916E7924F74254FF00008D0F8001107F11D090BE00B460131B945FD
:204F6000C4F80011E55484F804513FF401AF17F8015FFF29F1D1D4F808312046D4F80C21BA
:204F800084F8FF809847D4F8283101210133C4F828310023E3E70023D6F80C90D0F81471E0
:204FA000C0F81431B9F1000F3FF4BDAE0DF10808D0F810C1424618469A46C2E90039C2E9A1
:204FC00002AC99F8001013464D29A1F11C0BA1F14F0E00F1010501F0EF8101F25A80BBF13A
:204FE000040F41F2E9810229C4F8142116D1D9F8109099F80010472901F018864FF0000AA4
:2050000008EB00104D29A1F14F03A1F11C0201F0988301F29383042A41F29383042904BF07
:20502000CDE900C9C4F810D111212046326901F0CFFE99F80030042B02D1009BC4F8103108
:205040004FF0200908EB051555F8086C002E01F09F81103D4545F7D1C4F8147166E6336913
:205060001A783B2A7FF45FAE1B691B783C2B7FF45AAE3246112102F0EDFF00287FF456AE99
:20508000D6E90383D3E90363D3E90375D8F80C204149106804F0D0F9002841F0098632465A
:2050A0001121204602F068FF42461121204602F081FD112120463A4602F05EFF2046374922
:2050C000FDF7BCFB2A461121204613B0BDE8F04F02F052BF1121F26801F07AFE30E7304FE8
:2050E00063254FF00008D0F8001107F117090BE00B460131B945C4F80011E55484F80451AD
:2051000000F0CF8717F8015FFF29F1D1D4F808312046D4F80C2184F8FF809847D4F828318D
:2051200001210133C4F828310023E3E71D4F56254FF00008D0F8001107F107090BE00B46CC
:205140000131B945C4F80011E55484F804513FF40FAE17F8015FFF29F1D1D4F80831204694
:20516000D4F80C2184F8FF809847D4F8283101210133C4F828310023E3E70B4F76254FF0AB
:205180000008D0F8001107F10A091BE050550108B0530108D05301087055010874550108A2
:2051A00008540108FC530108F05301080B460131B945C4F80011E55484F804513FF4D8ADD6
:2051C00017F8015FFF29F1D1D4F808312046D4F80C2184F8FF809847D4F8283101210133BD
:2051E000C4F828310023E3E7D0F80031FF2B01F06383591C7E22C4F800112046E254112103
:2052000084F804219EE6F268CAB10023D0F814110493029102A9C0F81411D0F81011039650
:205220000591112101F0D4FD029A049BC4F81421002B7FF47BAD20212046FDF779FA32466C
:2052400011212046D4F8143113B0BDE8F04F02F00FB9C94F67254FF00008D0F8001107F188
:2052600012090BE00B4601314F45C4F80011E55484F804513FF47CAD17F8015FFF29F1D185
:20528000D4F808312046D4F80C2184F8FF809847D4F8283101210133C4F828310023E3E753
:2052A000B64F6A254FF00008D0F8001107F10E090BE00B460131B945C4F80011E55484F83D
:2052C00004513FF455AD17F8015FFF29F1D1D4F808312046D4F80C2184F8FF809847D4F8E1
:2052E000283101210133C4F828310023E3E7A44F63254FF00008D0F8001107F119090BE05D
:205300000B4601314F45C4F80011E55484F804513FF42EAD17F8015FFF29F1D1D4F8083133
:205320002046D4F80C2184F8FF809847D4F8283101210133C4F828310023E3E7914F1121A5
:20534000F26801F045FD5B254FF00008D4F8001107F104090BE00B460131B945C4F80011DE
:20536000E55484F8045100F0818617F8015FFF29F1D1D4F808312046D4F80C2184F8FF8074
:205380009847D4F8283101210133C4F828310023E3E7F168FDF70AFA4FF0000810B901F05F
:2053A00010BC9046037808F101022F2B41F01280C368002B01F00E8000690028F1D1C24687
:2053C000D6F80C90904603E001354545BFF6AEAC4A4611212046C4F8245101F0F9FCAA45AD
:2053E000F2DD694E2C27D4F8001106F1010B0AE00B460131B345C4F80011E75484F8047196
:20540000E2D016F8017FFF29F2D14FF00002D4F8083184F8FF202046D4F80C219847D4F876
:20542000283101210133C4F828310023E2E7574F6E254FF00008D0F8001107F119090BE05E
:205440000B460131B945C4F80011E55484F804513FF48EAC17F8015FFF29F1D1D4F8083129
:205460002046D4F80C2184F8FF809847D4F8283101210133C4F828310023E3E7444F74254A
:205480004FF00008D0F8001107F115090BE00B460131B945C4F80011E55484F804513FF460
:2054A00067AC17F8015FFF29F1D1D4F808312046D4F80C2184F8FF809847D4F828310121FB
:2054C0000133C4F828310023E3E7324F7B254FF00008D0F8001107F10D090BE00B460131D9
:2054E0004F45C4F80011E55484F8045100F0318617F8015FFF29F1D1D4F808312046D4F80A
:205500000C2184F8FF809847D4F8283101210133C4F828310023E3E71F4F76254FF00008B7
:20552000D0F8001107F110090BE00B460131B945C4F80011E55484F804513FF419AC17F837
:20554000015FFF29F1D1D4F808312046D4F80C2184F8FF809847D4F8283101210133C4F88C
:2055600028310023E3E70D4F6E254FF00008D0F8001107F114091FE0A854010898540108C8
:205580007C540108A8530108505501081C550108205501081C560108685401086454010887
:2055A0000B4601314F45C4F80011E55484F804513FF4DEAB17F8015FFF29F1D1D4F80831E3
:2055C0002046D4F80C2184F8FF809847D4F8283101210133C4F828310023E3E79A4F742593
:2055E0004FF00008D0F8001107F10F090BE00B460131B945C4F80011E55484F804513FF405
:20560000B7AB17F8015FFF29F1D1D4F808312046D4F80C2184F8FF809847D4F8283101214A
:205620000133C4F828310023E3E7884F74254FF00008D0F8001107F111090BE00B46013124
:20564000B945C4F80011E55484F804513FF490AB17F8015FFF29F1D1D4F808312046D4F877
:205660000C2184F8FF809847D4F8283101210133C4F828310023E3E7754F74254FF0000802
:20568000D0F8001107F10C090BE00B460131B945C4F80011E55484F804513FF469AB17F88B
:2056A000015FFF29F1D1D4F808312046D4F80C2184F8FF809847D4F8283101210133C4F82B
:2056C00028310023E3E7D0F80011357BFF2901F087804B1CC4F80031655484F80451FFF707
:2056E00025BB5C4F1121F26801F072FB20254FF00008D4F8001107F107090BE00B46013156
:20570000B945C4F80011E55484F8045100F0AE8417F8015FFF29F1D1D4F808312046D4F802
:205720000C2184F8FF809847D4F8283101210133C4F828310023E3E70023D0F814C104938E
:20574000D0F810310DF10808E146CDF808C0C0F8148103960593BCF1000F01F0E6820127C3
:205760006546BE46B446464618E0AB68A3B9032F3FF6D9AA12AB03EB071BABF1400A95E873
:205780000F008AE80F004BF8406C08EB0716C4F814610137C5F808E02D6825B16B681B789B
:2057A000193B022BE1D911212046DCF81020664601F00EFB049BC4F81491002B7FF4B6AA6E
:2057C000012F0CD008EB071858F80C2C11212046013F01F02BFB012FA8F11008F4D1324616
:2057E00011212046D4F8143102F058F8FFF79EBAD6E90353002B3FF499AA2B444FF0000804
:20580000D0F80011013D5F1E09E00B460131AF42C4F80011E65484F804613FF487AAFF2923
:2058200015F8016FF1D1D4F80831D4F80C21204684F8FF8098470121D4F8282100230A4443
:20584000C4F82821E3E700BF505401083C5401082C5401082C56010833691B78392B7FF45A
:2058600062AAF268D3681B685978632901F0038132461121204602F0EDFB00287FF456AAAD
:20588000F3681A78322A01F0B281DB681B681A78632A41F0ED805A786C2A41F0E9809B7803
:2058A000002B41F0E5803369DA681178032901F0238211212046DA6802F05EFBF268D36844
:2058C0001B681978692941F00E815878782841F00A819878002841F0068120465B21FCF771
:2058E00027FF3369204611211A6901F071FA5D212046FCF71DFFF3681A78322A7FF416AA00
:20590000DB689A68012A7FF411AA5B681B783E2B7FF40CAA2921204613B0BDE8F04FFCF7B7
:2059200007BFF768002F40F0B285CD4D7426D0F8001105F103080BE00B460131A845C4F807
:205940000011E65484F804613FF4F0A915F8016FFF29F1D1D4F808312046D4F80C2184F808
:20596000FF709847D4F8283101210133C4F828310023E3E7BB4F68254FF00008D0F80011A5
:2059800007F110090BE00B460131B945C4F80011E55484F804513FF4EBA917F8015FFF2955
:2059A000F1D1D4F808312046D4F80C2184F8FF809847D4F8283101210133C4F82831002334
:2059C000E3E7A94F72254FF00008D0F8001107F114090BE00B460131B945C4F80011E554C7
:2059E00084F8045100F0898317F8015FFF29F1D1D4F808312046D4F80C2184F8FF80984743
:205A0000D4F8283101210133C4F828310023E3E7964F54254FF00008D0F8001107F1180972
:205A20000BE00B460131B945C4F80011E55484F804513FF49DA917F8015FFF29F1D1D4F885
:205A400008312046D4F80C2184F8FF809847D4F8283101210133C4F828310023E3E7844F84
:205A600054254FF00008D0F8001107F115090BE00B4601314F45C4F80011E55484F804519E
:205A80003FF476A917F8015FFF29F1D1D4F808312046D4F80C2184F8FF809847D4F82831F8
:205AA00001210133C4F828310023E3E70023D0F84871D0F81481F2681121C0F81431C0F84C
:205AC000486101F085F994F804313C2B00F02C87D4F80011FF2900F017874B1CC4F80031FC
:205AE0003C23635484F8043111212046326901F06FF994F804313E2B00F00087D4F80011D5
:205B0000FF2900F0EB864B1CC4F800313E23635484F80431C4F81481C4F84871FFF706B964
:205B2000B6F91230002B40F02986F268514BD168994200F05D851121204601F049F9D4F8F7
:205B40000031FF2B01F02B802022591CC4F80011E25484F80421B6F91080B8F1000F40F0CC
:205B60007284454E5F25771D0BE00B460131B742C4F80011E55484F804513FF4D7A816F886
:205B8000015FFF29F1D1D4F808312046D4F80C2184F8FF809847D4F8283101210133C4F846
:205BA00028310023E3E7D0F82031002B00F0D484324D61274FF00008D0F8001105F10409E9
:205BC0000BE00B460131A945C4F80011E75484F8047100F0D98415F8017FFF29F1D1D4F8E0
:205BE00008312046D4F80C2184F8FF809847D4F8283101210133C4F828310023E3E7204F47
:205C00006A254FF00008D0F8001107F10D090BE00B460131B945C4F80011E55484F8045184
:205C20003FF4A6A817F8015FFF29F1D1D4F808312046D4F80C2184F8FF809847D4F8283127
:205C400001210133C4F828310023E3E70D4F67254FF00008D0F8001107F11C0920E000BF08
:205C6000BC55010808550108F0540108D4540108BC5401088C49010840550108C85301086D
:205C80009C550108CC5501080B460131B945C4F80011E55484F804513FF46AA817F8015FD4
:205CA000FF29F1D1D4F808312046D4F80C2184F8FF809847D4F8283101210133C4F828312C
:205CC0000023E3E7D44F64254FF00008D0F8001107F109090BE00B460131B945C4F80011C8
:205CE000E55484F8045100F0228317F8015FFF29F1D1D4F808312046D4F80C2184F8FF804D
:205D00009847D4F8283101210133C4F828310023E3E7C24F7B254FF00008D0F8001107F15E
:205D200007090BE00B460131B945C4F80011E55484F8045100F08D8217F8015FFF29F1D1B8
:205D4000D4F808312046D4F80C2184F8FF809847D4F8283101210133C4F828310023E3E788
:205D6000F268AF4902A807F085F902A807F096FB00283EF4DBAF02AD4FF00008D4F80011C9
:205D80002F1809E00B460131AF42C4F80011E65484F804613EF4CAAFFF2915F8016BF1D169
:205DA000D4F80831D4F80C21204684F8FF8098470121D4F8282100230A44C4F82821E3E72E
:205DC000984F6F254FF00008D0F8001107F108090BE00B4601314F45C4F80011E55484F89B
:205DE000045100F09C8217F8015FFF29F1D1D4F808312046D4F80C2184F8FF809847D4F8DD
:205E0000283101210133C4F828310023E3E7854F6F254FF00008D0F8001107F108090BE055
:205E20000B4601314F45C4F80011E55484F804513FF486A817F8015FFF29F1D1D4F80831B5
:205E40002046D4F80C2184F8FF809847D4F8283101210133C4F828310023E3E7F768724E6D
:205E60006F254FF00009D7F80880D0F8001106F1070A0BE00B460131B245C4F80011E554A3
:205E800084F8045100F0B18116F8015FFF29F1D1D4F808312046D4F80C2184F8FF90984769
:205EA000D4F8283101210133C4F828310023E3E7D6E9032612B1112100F08AFFD4F8003112
:205EC000FF2B00F0E6845A1C7B25C4F800211121E5543246204684F8045100F079FFD4F8FD
:205EE0000011FF2900F068814A1C7D23C4F80021635484F80431FEF719BFD6E903753B788E
:205F0000322B00F08883342B40F05487D0F80031FF2B00F0BE865A1CC4F800212822E25495
:205F200084F8042111212046FA6800F051FFD4F80011FF2900F09C8629234A1CC4F80021E0
:205F4000635484F80431FFF7BDB81121F26813B0BDE8F04F01F02EBE344F67254FF0000808
:205F6000D0F8001107F11B090BE00B460131B945C4F80011E55484F804513EF4F9AE17F801
:205F8000015FFF29F1D1D4F808312046D4F80C2184F8FF809847D4F8283101210133C4F842
:205FA00028310023E3E7F268D2E90053002B3EF4BDAE2B444FF00008D0F80011013D5F1E21
:205FC00009E00B460131AF42C4F80011E65484F804613EF4ABAEFF2915F8016FF1D1D4F8BE
:205FE0000831D4F80C21204684F8FF8098470121D4F8282100230A44C4F82821E3E7D6E9F9
:206000000353002B3EF492AE2B444FF00008D0F80011013D5F1E15E0AC5501080C560108D9
:20602000405301086055010854550108EC5501080B460131AF42C4F80011E65484F80461AE
:206040003EF474AEFF2915F8016FF1D1D4F80831D4F80C21204684F8FF8098470121D4F859
:20606000282100230A44C4F82821E3E711212046326900F0ADFED4F80011FF2900F0BC8296
:206080004A1C5D23C4F80021635484F80431FEF74DBEBEF1010F40F28F81C4F81421FEF7EE
:2060A000C3BFD14F11212046F26800F091FE2D254FF00008D4F8001107F103090BE00B4617
:2060C00001314F45C4F80011E55484F804513EF437AF17F8015FFF29F1D1D4F80831204647
:2060E000D4F80C2184F8FF809847D4F8283101210133C4F828310023E3E7BC4F11212046AD
:20610000326900F065FE20254FF00008D4F8001107F104090BE00B4601314F45C4F8001154
:20612000E55484F804513EF423AE17F8015FFF29F1D1D4F808312046D4F80C2184F8FF809A
:206140009847D4F8283101210133C4F828310023E3E7F268A649013202A806F08BFF02A893
:2061600007F09CF918B302AD4FF00008D4F800112F1808E00B460131AF42C4F80011E6544B
:2061800084F8046115D0FF2915F8016BF2D1D4F80831D4F80C21204684F8FF809847012175
:2061A000D4F8282100230A44C4F82821E4E7D4F80011FF297FF498AED4E94232002520460F
:2061C00084F8FF5098470122D4F8283129461344C4F8283189E637693B78472B00F020832B
:2061E0003A4611212046FEF7C6BD7D682B78613B192B40F2CF8208F1FF37EB5D202B18BF8B
:206200004746002F3EF492AD013D4FF00008D4F800112F4409E00B460131AF42C4F8001152
:20622000E65484F804613EF481ADFF2915F8016FF1D1D4F80831D4F80C21204684F8FF801D
:2062400098470121D4F8282100230A44C4F82821E3E7D4F8203111210133F2682046C4F8E9
:20626000203100F0B5FDD4F82031624F013B29254FF00008D4F80011C4F8203107F10109A0
:206280000AE00B460131B945C4F80011E55484F8045113D017F8015FFF29F2D1D4F808317A
:2062A0002046D4F80C2184F8FF809847D4F8283101210133C4F828310023E4E732694C49F7
:2062C000013202A806F0D6FE02A807F0E7F800283FF46DAF02AD4FF00008D4F800112F1806
:2062E00009E00B460131AF42C4F80011E65484F804613FF45EAFFF2915F8016BF1D1D4F8EA
:206300000831D4F80C21204684F8FF8098470121D4F8282100230A44C4F82821E3E732461C
:206320001121204613B0BDE8F04F01F09BBB11212046F26800F04CFDD4F80011FF2900F0B7
:2063400060824A1C2923C4F80021635484F80431FEF7ECBC32461121204600F067FDFEF76E
:20636000FFBC32690D4620461121D4F8286100F02FFDD4F82831B3427EF4D8ACD4F800315E
:20638000AB427EF4D3AC023DC4F80051FEF7CEBCD4F80031FF2B00F0B583581CC4F80001D4
:2063A000112104F80390204655F80C2C84F8049100F03CFDFEF74DBED9F80C90B9F1000FD1
:2063C0003EF4AFAC042D02F1100200F0EE812846FEF7F3BDD6F80C90B8F1000F3EF4A6ACE2
:2063E00008F1FF3AFEF7F4BF24540108E8540108405301081856010833782F2B7EF401ADC5
:206400000E46D4F814E1FEF7FEBC072D7EF475AD3169087800287EF470AD086901287EF413
:206420006CAD3D2B7EF469ADCB681B78302B00F0BD84312B7EF461AD2046B74913B0BDE857
:20644000F04FFCF7FBB9B54D5F264FF000086F1D0BE00B460131AF42C4F80011E65484F81A
:2064600004613EF463AC15F8016FFF29F1D1D4F808312046D4F80C2184F8FF809847D4F805
:20648000283101210133C4F828310023E3E7A44D7B264FF00008D0F8001105F105090AE0AB
:2064A0000B460131A945C4F80011E65484F8046113D015F8016FFF29F2D1D4F808312046CD
:2064C000D4F80C2184F8FF809847D4F8283101210133C4F828310023E4E73A46914902A867
:2064E00006F0C8FD02A806F0D9FF18B302AD4FF00008D4F800112F1808E00B460131AF4228
:20650000C4F80011E65484F8046115D0FF2915F8016BF2D1D4F80831D4F80C21204684F86A
:20652000FF8098470121D4F8282100230A44C4F82821E4E7D4F80011FF2900F04A837D2323
:206540004A1CC4F80021635484F80431FEF7EEBB00250B78FEF74BBC3146FCF70BF9024698
:2065600000283EF4E0AB03782F2B00F00B83D4F8105111212B682046C4F8103100F028FC7A
:20658000C4F81051FEF7D2BBF2686649013202A806F070FD02A806F081FF00283EF4C6AB28
:2065A00002AD4FF00008D4F800112F1809E00B460131BD42C4F80011E65484F804613EF43C
:2065C000B5ABFF2915F8016BF1D1D4F80831D4F80C21204684F8FF8098470121D4F8282183
:2065E00000230A44C4F82821E3E70025FEF785BCD4F80011FFF7AFBA0025D4E94232204608
:2066000084F8FF5098470122D4F8283129461344C4F8283135E5FB681E683378612B40F043
:20662000C9807278642A40F0C580B278002A40F0C1802A78032A00F05483392A00F06B8388
:20664000732B1DD172785A2A43D196F80280B8F1000F3ED129462046FCF7A8F830B908E01C
:20666000C36833B1006908F1010810B103782F2BF6D04146204613B0BDE8F04FFCF744B9C0
:206680003A461121204601F095FA3378672B09D17278732A06D1B27822B92A4611212046E0
:2066A000FEF769BB732B7EF40DAD7378742B7EF409ADB378002B7EF405AD28212046FCF729
:2066C00037F811212A46204600F082FB2921FFF722B9732BD4D17378502BD1D1B378002B5A
:2066E000CED11E4604E001362D69002D00F019822B782F2B40F01582EB68002B00F0118269
:206700001A784B2AEFD12046D968FCF74FF8024690B100220DE000BF9455010848550108E2
:20672000C455010840530108C16829B10069013210B101782F29F7D01644D5E7012B3EF62D
:2067400073AC042D3EF4EFAA864600F1100B0FC88BE80F00CEE9019AD9F80C90584601355A
:20676000CEF810E0CEF80CC0C4F814B1B9F1000F3EF4D9AA99F80010FEF744BCD049FCF740
:206780005DF8FFF7D2B932461121204600F04EFBFEF71FBBFF2900F053824B1CC4F80031CA
:2067A0002023635484F8043125E50122C4E94532FEF7BCBA2A7840E70D46FEF724BB00275B
:2067C00067552946D4E9423220469847D4F828313D460133C4F80071C4F82831FEF72EBB1C
:2067E0000026D0F80831D0F80C2180F8FF6098470123D4F8282131461A44C4F82821FEF7BF
:2068000069BF0025D4E94232204684F8FF5098470122D4F8283129461344C4F8283191E551
:206820002046A849FCF70AF83A69A749013202A806F020FC02A806F031FE814618B302AD7A
:206840004FF00008D4F80011A94408E00B460131A945C4F80011E65484F8046113D0FF29DB
:2068600015F8016BF2D1D4F80831D4F80C21204684F8FF8098470121D4F8282100230A44F6
:20688000C4F82821E4E720469049FBF7D7FFFF68A6E400251946D4F80C21D4F80831204648
:2068A00084F8FF5098470122D4F828112B461144C4F82811FFF708BB00251946D0F80C2119
:2068C000D0F8083180F8FF5098470121D4F828212B460A44C4F82821FEF78CBC0025D4E9F7
:2068E0004232204684F8FF509847D4F8283129460133C4F828310123FFF706B920212046B7
:20690000FBF716FFFFF7FAB80025D4E94232204684F8FF5098470123D4F8282129461A445C
